0080515927000365    COTAM CIC INDAL.ALIMENTOS S.A.          18022005
11189210000568NOVA DUMONT COM.DOCES LTDA              AV.SANTOS DUMONT, 276                   GUARULHOS/CUMBICA                       SP07220000069077709000191336.351.960.117     000JAIME FRANCISCO DAS DOR(11) 69014795  
21189211802200520022005000056800001CAIXASMBF                                     .                                       .                                       E
5118921013008002 RECH.MORANGO DIET - 30X120 GRS                             000000003600000000003890000001CXS  0000000000324000000000000000
11189220032967LOURENCINI MERCADINHO LTDA              AV.ITAPARK, 3440                        MAUA/JD.ITAPARK                         SP09350000002743913000123442.098.908.116     000VS MALVONI REPRESENT.S/(11) 69092040  
21189221802200520022005003296700010CAIXASMBF                                     .                                       .                                       E
5118922010307001 LOOK CHOCOLATE - 20 X 55 GRS                               000000001100000000001580000001CXS  0000000000123900000000000000
5118922010307003 LOOK DOCE DE LEITE - 20 X 55 GRS                           000000001100000000001580000001CXS  0000000000123900000000000000
5118922013007001 RECH.SPANTOOO CHOCOLATE - 30X140GR                         000000008400000000009100000002CXS  0000000000331000000000000000
5118922013007002 RECH.SPANTOOO MORANGO - 30X140 GRS                         000000008400000000009100000002CXS  0000000000331000000000000000
5118922013007003 RECH.SPANTOOO CHOC.BRANCO-30X140GR                         000000008400000000009100000002CXS  0000000000324400000000000000
5118922013022001 RECHEADO ATREVIDOS - 30X115 GRS                            000000006900000000007400000002CXS  0000000000245000000000000000
11189230033716JOSE ROBERTO LOURENCINI MAUA-ME         R.TRES AMERICA, 491                     MAUA/PQ.DAS AMERICAS                    SP09350520004915194000106442.185.119.112     000VS MALVONI REPRESENT.S/(11) 69092040  
21189231802200520022005003371600013CAIXASMBF                                     .                                       .                                       E
5118923010305001 WAFER NAPOLITANO - 30X140 GRS                              000000008400000000009240000002CXS  0000000000494400000000000000
5118923010305002 WAFER FLORESTA NEGRA - 30X140 GRS                          000000004200000000004620000001CXS  0000000000247200000000000000
5118923010305003 WAFER OBSESSION - 30X140 GRS                               000000008400000000009240000002CXS  0000000000494400000000000000
5118923010306005 WAFER ATREVIDOS - 30X140 GRS.                              000000004200000000004620000001CXS  0000000000247200000000000000
5118923010307001 LOOK CHOCOLATE - 20 X 55 GRS                               000000002200000000003160000002CXS  0000000000247800000000000000
5118923013007001 RECH.SPANTOOO CHOCOLATE - 30X140GR                         000000008400000000009100000002CXS  0000000000331000000000000000
5118923013007002 RECH.SPANTOOO MORANGO - 30X140 GRS                         000000008400000000009100000002CXS  0000000000331000000000000000
5118923013007003 RECH.SPANTOOO CHOC.BRANCO-30X140GR                         000000004200000000004550000001CXS  0000000000165500000000000000
11189240033717ALFREDO LOURENCINI & CIA LTDA           R.BOLIVIA, 19                           MAUA/PQ.DAS AMERICA                     SP09311120056907868000124442.018.755.119     000VS MALVONI REPRESENT.S/(11) 69092040  
21189241802200520022005003371700013CAIXASMBF                                     .                                       .                                       E
5118924010305001 WAFER NAPOLITANO - 30X140 GRS                              000000008400000000009240000002CXS  0000000000494400000000000000
5118924010305002 WAFER FLORESTA NEGRA - 30X140 GRS                          000000008400000000009240000002CXS  0000000000494400000000000000
5118924010305003 WAFER OBSESSION - 30X140 GRS                               000000008400000000009240000002CXS  0000000000494400000000000000
5118924010307002 LOOK MORANGO - 20 X 55 GRS                                 000000001100000000001580000001CXS  0000000000123900000000000000
5118924013007001 RECH.SPANTOOO CHOCOLATE - 30X140GR                         000000012600000000013650000003CXS  0000000000496500000000000000
5118924013007002 RECH.SPANTOOO MORANGO - 30X140 GRS                         000000004200000000004550000001CXS  0000000000165500000000000000
5118924013007003 RECH.SPANTOOO CHOC.BRANCO-30X140GR                         000000008400000000009100000002CXS  0000000000331000000000000000
11189250030346ZIEAD EL KADRI-ME                       AV. QUEIROS FILHO 3234                  SAO PAULO/MARACANA                      SP09121580005287053000159626.364.886.115     000VS MALVONI REPRESENT.S/(11) 69092040  
21189251802200520022005003034600008CAIXASMBF                                     .                                       .                                       E
5118925010305002 WAFER FLORESTA NEGRA - 30X140 GRS                          000000004200000000004620000001CXS  0000000000248900000000000000
5118925010305003 WAFER OBSESSION - 30X140 GRS                               000000004200000000004620000001CXS  0000000000248900000000000000
5118925010307001 LOOK CHOCOLATE - 20 X 55 GRS                               000000002200000000003160000002CXS  0000000000249400000000000000
5118925010307002 LOOK MORANGO - 20 X 55 GRS                                 000000001100000000001580000001CXS  0000000000124700000000000000
5118925010307005 LOOK FLORESTA NEGRA - 20 X 55 GRS                          000000001100000000001580000001CXS  0000000000124700000000000000
5118925010307007 LOOK ATREVIDOS - 20 X 55 GRS                               000000001100000000001580000001CXS  0000000000124700000000000000
5118925013007003 RECH.SPANTOOO CHOC.BRANCO-30X140GR                         000000004200000000004550000001CXS  0000000000166800000000000000
11189260032492MERCADINHO CARRAO LTDA-EPP              AV.CONSELHEIRO CARRAO, 3332             SAO PAULO/VILA CARRAO                   SP03402003005476427000184109.597.906.111     000VS MALVONI REPRESENT.S/(11) 69092040  
21189261802200520022005003249200006CAIXASMBF                                     .                                       .                                       E
5118926010307001 LOOK CHOCOLATE - 20 X 55 GRS                               000000002200000000003160000002CXS  0000000000265200000000000000
5118926010307002 LOOK MORANGO - 20 X 55 GRS                                 000000001100000000001580000001CXS  0000000000132600000000000000
5118926010307003 LOOK DOCE DE LEITE - 20 X 55 GRS                           000000001100000000001580000001CXS  0000000000132600000000000000
5118926010307005 LOOK FLORESTA NEGRA - 20 X 55 GRS                          000000001100000000001580000001CXS  0000000000132600000000000000
5118926010307007 LOOK ATREVIDOS - 20 X 55 GRS                               000000001100000000001580000001CXS  0000000000132600000000000000
11189270034067SUPER.ROSEL MARTINEZ LTDA               R.ALBERTO P.NETO, 70                    SUZANO/PALMEIRAS                        SP08655030069076032000177672.066.884.119     000VS MALVONI REPRESENT.S/(11) 69092040  
21189271802200520022005003406700011CAIXASMBF                                     .                                       .                                       E
5118927010305001 WAFER NAPOLITANO - 30X140 GRS                              000000004200000000004620000001CXS  0000000000251700000000000000
5118927010305002 WAFER FLORESTA NEGRA - 30X140 GRS                          000000004200000000004620000001CXS  0000000000251700000000000000
5118927010306001 WAFER CHOCOLATE - 30X140 GRS.                              000000004200000000004630000001CXS  0000000000233200000000000000
5118927010306002 WAFER MORANGO - 30X140 GRS.                                000000004200000000004630000001CXS  0000000000233200000000000000
5118927010306004 WAFER DOCE LEITE - 30X140 GRS.                             000000004200000000004630000001CXS  0000000000233200000000000000
5118927010306005 WAFER ATREVIDOS - 30X140 GRS.                              000000004200000000004620000001CXS  0000000000251700000000000000
5118927010307001 LOOK CHOCOLATE - 20 X 55 GRS                               000000001100000000001580000001CXS  0000000000136700000000000000
5118927010307005 LOOK FLORESTA NEGRA - 20 X 55 GRS                          000000001100000000001580000001CXS  0000000000136700000000000000
5118927013007001 RECH.SPANTOOO CHOCOLATE - 30X140GR                         000000004200000000004550000001CXS  0000000000175600000000000000
5118927013007002 RECH.SPANTOOO MORANGO - 30X140 GRS                         000000004200000000004550000001CXS  0000000000175600000000000000
5118927013022001 RECHEADO ATREVIDOS - 30X115 GRS                            000000003450000000003700000001CXS  0000000000153000000000000000
11189280270509MERCADO ALDI LTDA                       RUA JOSE LUIZ MONTEIRO, 669             SAO PAULO/JD.DAS IMBIRAS                SP04829240001942533000155115.003.233.110     000VS MALVONI REPRESENT.S/(11) 69092040  
21189281802200520022005027050900009CAIXASMBF                                     .                                       .                                       E
5118928010307001 LOOK CHOCOLATE - 20 X 55 GRS                               000000003300000000004740000003CXS  0000000000389700000000000000
5118928010307002 LOOK MORANGO - 20 X 55 GRS                                 000000001100000000001580000001CXS  0000000000129900000000000000
5118928010307003 LOOK DOCE DE LEITE - 20 X 55 GRS                           000000002200000000003160000002CXS  0000000000259800000000000000
5118928010307005 LOOK FLORESTA NEGRA - 20 X 55 GRS                          000000002200000000003160000002CXS  0000000000259800000000000000
5118928013008002 RECH.MORANGO DIET - 30X120 GRS                             000000003600000000003890000001CXS  0000000000385400000000000000
11189290091245SUPER.NEVADA LTDA                       AV.PRES.CASTELO BRANCO, 1.210           MAUA/VL.ZAIRA                           SP09321370045561537000169442.013.275.119     000VS MALVONI REPRESENT.S/(11) 69092040  
21189291802200520022005009124500003CAIXASMBF                                     .                                       .                                       E
5118929010305002 WAFER FLORESTA NEGRA - 30X140 GRS                          000000008400000000009240000002CXS  0000000000497800000000000000
5118929010306005 WAFER ATREVIDOS - 30X140 GRS.                              000000004200000000004620000001CXS  0000000000248900000000000000
11189300032428SUPER.BOM DIA SAO PAULO LTDA            R.JOSE GETULIO, 142                     SAO PAULO/ACLIMACAO                     SP01509000002213258000100115.387.982.115     000VS MALVONI REPRESENT.S/(11) 69092040  
21189301802200520022005003242800012CAIXASMBF                                     .                                       .                                       E
5118930010305001 WAFER NAPOLITANO - 30X140 GRS                              000000008400000000009240000002CXS  0000000000514000000000000000
5118930010305002 WAFER FLORESTA NEGRA - 30X140 GRS                          000000004200000000004620000001CXS  0000000000257000000000000000
5118930010305003 WAFER OBSESSION - 30X140 GRS                               000000008400000000009240000002CXS  0000000000514000000000000000
5118930010306001 WAFER CHOCOLATE - 30X140 GRS.                              000000004200000000004630000001CXS  0000000000241100000000000000
5118930010307001 LOOK CHOCOLATE - 20 X 55 GRS                               000000002200000000003160000002CXS  0000000000265200000000000000
5118930010307005 LOOK FLORESTA NEGRA - 20 X 55 GRS                          000000002200000000003160000002CXS  0000000000265200000000000000
5118930013022001 RECHEADO ATREVIDOS - 30X115 GRS                            000000006900000000007400000002CXS  0000000000312600000000000000
11189310032428SUPER.BOM DIA SAO PAULO LTDA            R.JOSE GETULIO, 142                     SAO PAULO/ACLIMACAO                     SP01509000002213258000100115.387.982.115     000VS MALVONI REPRESENT.S/(11) 69092040  
21189311802200520022005003242800001CAIXASMBF                                     .                                       .                                       E
5118931010307001 LOOK CHOCOLATE - 20 X 55 GRS                               000000001100000000001580000001CXS  0000000000132600000000000000
11189320033035FUTURAMA SUPER.LTDA                     R.GUAICURUS, 1469/1479                  SAO PAULO/LAPA                          SP05033002068361468000900116.640.176.111     000VS MALVONI REPRESENT.S/(11) 69092040  
21189321802200520022005003303500004CAIXASMBF                                     .                                       .                                       E
5118932010308002 WAFER MORANGO DIET - 30X120 GRS                            000000007200000000008200000002CXS  0000000001110000000000000000
5118932013008002 RECH.MORANGO DIET - 30X120 GRS                             000000007200000000007780000002CXS  0000000000770800000000000000
11189330034462MERCADINHO MIMABE LTDA-ME               AV.ROTARY, 5036                         EMBU/JD.LIBERDADE                       SP06810240006911894000158298.126.481.112     000VS MALVONI REPRESENT.S/(11) 69092040  
21189331802200520022005003446200006CAIXASMBF                                     .                                       .                                       E
5118933010306005 WAFER ATREVIDOS - 30X140 GRS.                              000000004200000000004620000001CXS  0000000000265000000000000000
5118933010307001 LOOK CHOCOLATE - 20 X 55 GRS                               000000001100000000001580000001CXS  0000000000136700000000000000
5118933010307005 LOOK FLORESTA NEGRA - 20 X 55 GRS                          000000001100000000001580000001CXS  0000000000136700000000000000
5118933013601002 BISCOITO MILANO COCO - 30X130 GRS                          000000003900000000004180000001CXS  0000000000143100000000000000
5118933013601003 BISCOITO MILANO LEITE - 30X130 GRS                         000000003900000000004180000001CXS  0000000000143100000000000000
5118933013601004 BISC.MILANO BOLO DE FUBA-30X130 GR                         000000003900000000004180000001CXS  0000000000143100000000000000
11189340034452MINIMAX MINI MERC.LTDA ME               R.E.ITAPECERICA A.CAMPO.L., 316         EMBU/JD.INDEPENDENCIA                   SP06823300006192339000113298.125.670.119     000VS MALVONI REPRESENT.S/(11) 69092040  
21189341802200520022005003445200019CAIXASMBF                                     .                                       .                                       E
5118934010305001 WAFER NAPOLITANO - 30X140 GRS                              000000004200000000004620000001CXS  0000000000265000000000000000
5118934010305002 WAFER FLORESTA NEGRA - 30X140 GRS                          000000004200000000004620000001CXS  0000000000265000000000000000
5118934010305003 WAFER OBSESSION - 30X140 GRS                               000000004200000000004620000001CXS  0000000000265000000000000000
5118934010306001 WAFER CHOCOLATE - 30X140 GRS.                              000000004200000000004630000001CXS  0000000000265000000000000000
5118934010306002 WAFER MORANGO - 30X140 GRS.                                000000004200000000004630000001CXS  0000000000265000000000000000
5118934010306004 WAFER DOCE LEITE - 30X140 GRS.                             000000004200000000004630000001CXS  0000000000265000000000000000
5118934010306005 WAFER ATREVIDOS - 30X140 GRS.                              000000004200000000004620000001CXS  0000000000265000000000000000
5118934010307001 LOOK CHOCOLATE - 20 X 55 GRS                               000000001100000000001580000001CXS  0000000000136700000000000000
5118934010307002 LOOK MORANGO - 20 X 55 GRS                                 000000001100000000001580000001CXS  0000000000136700000000000000
5118934010307003 LOOK DOCE DE LEITE - 20 X 55 GRS                           000000001100000000001580000001CXS  0000000000136700000000000000
5118934010307005 LOOK FLORESTA NEGRA - 20 X 55 GRS                          000000001100000000001580000001CXS  0000000000136700000000000000
5118934010307007 LOOK ATREVIDOS - 20 X 55 GRS                               000000001100000000001580000001CXS  0000000000136700000000000000
5118934013007001 RECH.SPANTOOO CHOCOLATE - 30X140GR                         000000008400000000009100000002CXS  0000000000351200000000000000
5118934013007002 RECH.SPANTOOO MORANGO - 30X140 GRS                         000000004200000000004550000001CXS  0000000000175600000000000000
5118934013007003 RECH.SPANTOOO CHOC.BRANCO-30X140GR                         000000008400000000009100000002CXS  0000000000351200000000000000
5118934013007004 RECH.SPANTOOO TUTTI-FRUTTI-30X140G                         000000004200000000004600000001CXS  0000000000175600000000000000
5118934013022001 RECHEADO ATREVIDOS - 30X115 GRS                            000000003450000000003700000001CXS  0000000000161100000000000000
11189350091708SUPER.NOVO RECANTO LTDA                 AV.PAULA FERREIRA, 1.550                SAO PAULO/PIRITUBA                      SP02916000065965105000120109.866.819.118     000VS MALVONI REPRESENT.S/(11) 69092040  
21189351802200520022005009170800011CAIXASMBF                                     .                                       .                                       E
5118935010305002 WAFER FLORESTA NEGRA - 30X140 GRS                          000000008400000000009240000002CXS  0000000000514000000000000000
5118935010306001 WAFER CHOCOLATE - 30X140 GRS.                              000000008400000000009260000002CXS  0000000000514000000000000000
5118935010306002 WAFER MORANGO - 30X140 GRS.                                000000008400000000009260000002CXS  0000000000514000000000000000
5118935010307001 LOOK CHOCOLATE - 20 X 55 GRS                               000000002200000000003160000002CXS  0000000000273400000000000000
5118935010307002 LOOK MORANGO - 20 X 55 GRS                                 000000001100000000001580000001CXS  0000000000136700000000000000
5118935010307005 LOOK FLORESTA NEGRA - 20 X 55 GRS                          000000002200000000003160000002CXS  0000000000273400000000000000
11189360032806CIAL GEN.ALIMENT.DSP LTDA               PCA.25 DE NOVEMBRO, 76                  SAO PAULO/PIRITUBA                      SP02977000002835646000114115.255.580.113     000VS MALVONI REPRESENT.S/(11) 69092040  
21189361802200520022005003280600009CAIXASMBF                                     .                                       .                                       E
5118936010305001 WAFER NAPOLITANO - 30X140 GRS                              000000004200000000004620000001CXS  0000000000257000000000000000
5118936010305002 WAFER FLORESTA NEGRA - 30X140 GRS                          000000004200000000004620000001CXS  0000000000257000000000000000
5118936010305003 WAFER OBSESSION - 30X140 GRS                               000000004200000000004620000001CXS  0000000000257000000000000000
5118936010306005 WAFER ATREVIDOS - 30X140 GRS.                              000000004200000000004620000001CXS  0000000000257000000000000000
5118936010307001 LOOK CHOCOLATE - 20 X 55 GRS                               000000001100000000001580000001CXS  0000000000136700000000000000
5118936010307002 LOOK MORANGO - 20 X 55 GRS                                 000000001100000000001580000001CXS  0000000000136700000000000000
5118936013007001 RECH.SPANTOOO CHOCOLATE - 30X140GR                         000000004200000000004550000001CXS  0000000000178500000000000000
5118936013007003 RECH.SPANTOOO CHOC.BRANCO-30X140GR                         000000004200000000004550000001CXS  0000000000178500000000000000
5118936013022001 RECHEADO ATREVIDOS - 30X115 GRS                            000000003450000000003700000001CXS  0000000000160000000000000000
11189370091906M.M.FEITOSA DA SILVA MINIMERC-ME        RUA RAIMUNDO MACHADO, 50 A              SAO PAULO/PONTE RASA                    SP03751000001003655000186114.587.533.111     000VS MALVONI REPRESENT.S/(11) 69092040  
21189371802200520022005009190600010CAIXASMBF                                     .                                       .                                       E
5118937010307001 LOOK CHOCOLATE - 20 X 55 GRS                               000000002200000000003160000002CXS  0000000000273400000000000000
5118937010307005 LOOK FLORESTA NEGRA - 20 X 55 GRS                          000000002200000000003160000002CXS  0000000000273400000000000000
5118937010307007 LOOK ATREVIDOS - 20 X 55 GRS                               000000002200000000003160000002CXS  0000000000273400000000000000
5118937013007001 RECH.SPANTOOO CHOCOLATE - 30X140GR                         000000004200000000004550000001CXS  0000000000170300000000000000
5118937013007002 RECH.SPANTOOO MORANGO - 30X140 GRS                         000000004200000000004550000001CXS  0000000000170300000000000000
5118937013007003 RECH.SPANTOOO CHOC.BRANCO-30X140GR                         000000004200000000004550000001CXS  0000000000170300000000000000
5118937013007004 RECH.SPANTOOO TUTTI-FRUTTI-30X140G                         000000004200000000004600000001CXS  0000000000170300000000000000
11189380034349D & D MERCADINHO LTDA-ME                R.FLOR DE SANTA CRUZ, 232               SAO PAULO/VILA DIANA                    SP08230450006331049000103112.317.965.119     000VS MALVONI REPRESENT.S/(11) 69092040  
21189381802200520022005003434900018CAIXASMBF                                     .                                       .                                       E
5118938010305001 WAFER NAPOLITANO - 30X140 GRS                              000000008400000000009240000002CXS  0000000000503400000000000000
5118938010305002 WAFER FLORESTA NEGRA - 30X140 GRS                          000000008400000000009240000002CXS  0000000000503400000000000000
5118938010306005 WAFER ATREVIDOS - 30X140 GRS.                              000000008400000000009240000002CXS  0000000000503400000000000000
5118938010307001 LOOK CHOCOLATE - 20 X 55 GRS                               000000001100000000001580000001CXS  0000000000136700000000000000
5118938010307002 LOOK MORANGO - 20 X 55 GRS                                 000000001100000000001580000001CXS  0000000000136700000000000000
5118938010307007 LOOK ATREVIDOS - 20 X 55 GRS                               000000001100000000001580000001CXS  0000000000136700000000000000
5118938013007001 RECH.SPANTOOO CHOCOLATE - 30X140GR                         000000004200000000004550000001CXS  0000000000170300000000000000
5118938013007002 RECH.SPANTOOO MORANGO - 30X140 GRS                         000000004200000000004550000001CXS  0000000000170300000000000000
5118938013007004 RECH.SPANTOOO TUTTI-FRUTTI-30X140G                         000000004200000000004600000001CXS  0000000000170300000000000000
5118938013014005 RECH.FIORETTO CHOCOLATE-30X115 GRS                         000000006900000000007540000002CXS  0000000000226600000000000000
5118938013014006 RECH.FIORETTO MORANGO-30X115 GRS                           000000006900000000007540000002CXS  0000000000226600000000000000
5118938013014007 RECH.FIORETTO BAUN.C/FLOCOS-30X115                         000000003450000000003770000001CXS  0000000000113300000000000000
5118938013014008 RECH.FIORETTO DOCE DE LEITE-30X115                         000000003450000000003770000001CXS  0000000000113300000000000000
11189390032104MERCADINHO KITA LTDA-ME                 AV.SAO MIGUEL, 6.098                    SAO PAULO/VAL. NORMA                    SP08070002002305519000103115.697.411.114     000VS MALVONI REPRESENT.S/(11) 69092040  
21189391802200520022005003210400005CAIXASMBF                                     .                                       .                                       E
5118939010305001 WAFER NAPOLITANO - 30X140 GRS                              000000004200000000004620000001CXS  0000000000257000000000000000
5118939010305002 WAFER FLORESTA NEGRA - 30X140 GRS                          000000004200000000004620000001CXS  0000000000257000000000000000
5118939010306001 WAFER CHOCOLATE - 30X140 GRS.                              000000004200000000004630000001CXS  0000000000241100000000000000
5118939010306005 WAFER ATREVIDOS - 30X140 GRS.                              000000004200000000004620000001CXS  0000000000257000000000000000
5118939010307001 LOOK CHOCOLATE - 20 X 55 GRS                               000000001100000000001580000001CXS  0000000000136700000000000000
11189400032844RISQUINHO ALIM.LTDA                     AV.MIGUEL DE CASTRO, 1712               SAO PAULO/VILA MIRANTE                  SP02950000005761030000134116.659.499.112     000VS MALVONI REPRESENT.S/(11) 69092040  
21189401802200520022005003284400004CAIXASMBF                                     .                                       .                                       E
5118940010307001 LOOK CHOCOLATE - 20 X 55 GRS                               000000001100000000001580000001CXS  0000000000132600000000000000
5118940010307002 LOOK MORANGO - 20 X 55 GRS                                 000000001100000000001580000001CXS  0000000000132600000000000000
5118940013007001 RECH.SPANTOOO CHOCOLATE - 30X140GR                         000000004200000000004550000001CXS  0000000000170300000000000000
5118940013007003 RECH.SPANTOOO CHOC.BRANCO-30X140GR                         000000004200000000004550000001CXS  0000000000170300000000000000
11189410032284D.CARVALHO DE SA MERCADO-ME             R.IGARAPE DA BELA AURORA,287            SAO PAULO/GUAINASES                     SP08472200004272801000167116.330.682.117     000VS MALVONI REPRESENT.S/(11) 69092040  
21189411802200520022005003228400010CAIXASMBF                                     .                                       .                                       E
5118941010306001 WAFER CHOCOLATE - 30X140 GRS.                              000000021000000000023150000005CXS  0000000001133000000000000000
5118941010306002 WAFER MORANGO - 30X140 GRS.                                000000012600000000013890000003CXS  0000000000679800000000000000
5118941010306004 WAFER DOCE LEITE - 30X140 GRS.                             000000008400000000009260000002CXS  0000000000453200000000000000
11189420032021BOM VIZINHO CIAL LTDA                   R MARIANO LORIA 01                      SAO PAULO/S M PAULIS                    SP03819120072988280000107113.917.655.116     000VS MALVONI REPRESENT.S/(11) 69092040  
21189421802200520022005003202100020CAIXASMBF                                     .                                       .                                       E
5118942010307001 LOOK CHOCOLATE - 20 X 55 GRS                               000000006600000000009480000006CXS  0000000000779400000000000000
5118942010307002 LOOK MORANGO - 20 X 55 GRS                                 000000003300000000004740000003CXS  0000000000389700000000000000
5118942010307003 LOOK DOCE DE LEITE - 20 X 55 GRS                           000000002200000000003160000002CXS  0000000000259800000000000000
5118942010307005 LOOK FLORESTA NEGRA - 20 X 55 GRS                          000000002200000000003160000002CXS  0000000000259800000000000000
5118942010307007 LOOK ATREVIDOS - 20 X 55 GRS                               000000002200000000003160000002CXS  0000000000259800000000000000
5118942013601002 BISCOITO MILANO COCO - 30X130 GRS                          000000007800000000008360000002CXS  0000000000286200000000000000
5118942013601003 BISCOITO MILANO LEITE - 30X130 GRS                         000000007800000000008360000002CXS  0000000000286200000000000000
5118942013601004 BISC.MILANO BOLO DE FUBA-30X130 GR                         000000003900000000004180000001CXS  0000000000143100000000000000
11189430091278ACOUGUE MERC.AVENIDA LTDA-ME            AV.ANTONIO MUNHOZ BONILHA, 950          SAO PAULO/VL.CAROLINA                   SP02725000058851734000164112.044.444.117     000VS MALVONI REPRESENT.S/(11) 69092040  
21189431802200520022005009127800018CAIXASMBF                                     .                                       .                                       E
5118943010305001 WAFER NAPOLITANO - 30X140 GRS                              000000004200000000004620000001CXS  0000000000257000000000000000
5118943010305002 WAFER FLORESTA NEGRA - 30X140 GRS                          000000004200000000004620000001CXS  0000000000257000000000000000
5118943010305003 WAFER OBSESSION - 30X140 GRS                               000000004200000000004620000001CXS  0000000000257000000000000000
5118943010306005 WAFER ATREVIDOS - 30X140 GRS.                              000000004200000000004620000001CXS  0000000000257000000000000000
5118943010307001 LOOK CHOCOLATE - 20 X 55 GRS                               000000002200000000003160000002CXS  0000000000273400000000000000
5118943010307002 LOOK MORANGO - 20 X 55 GRS                                 000000001100000000001580000001CXS  0000000000136700000000000000
5118943010307003 LOOK DOCE DE LEITE - 20 X 55 GRS                           000000001100000000001580000001CXS  0000000000136700000000000000
5118943010307005 LOOK FLORESTA NEGRA - 20 X 55 GRS                          000000001100000000001580000001CXS  0000000000136700000000000000
5118943010307007 LOOK ATREVIDOS - 20 X 55 GRS                               000000001100000000001580000001CXS  0000000000136700000000000000
5118943013007001 RECH.SPANTOOO CHOCOLATE - 30X140GR                         000000008400000000009100000002CXS  0000000000357000000000000000
5118943013007003 RECH.SPANTOOO CHOC.BRANCO-30X140GR                         000000008400000000009100000002CXS  0000000000357000000000000000
5118943013601002 BISCOITO MILANO COCO - 30X130 GRS                          000000007800000000008360000002CXS  0000000000300000000000000000
5118943013601003 BISCOITO MILANO LEITE - 30X130 GRS                         000000007800000000008360000002CXS  0000000000300000000000000000
11189440030410MERCDINHO CASA CARNES CEDRO LTDA        RUA PROF.OSCAR CAMPIGLIA, 476           SAO PAULO/JD.PIRACUAMA                  SP05762230048340079000126110.309.041.113     000VS MALVONI REPRESENT.S/(11) 69092040  
21189441802200520022005003041000064CAIXASMBF                                     .                                       .                                       E
5118944010305001 WAFER NAPOLITANO - 30X140 GRS                              000000008400000000009240000002CXS  0000000000530000000000000000
5118944010305002 WAFER FLORESTA NEGRA - 30X140 GRS                          000000008400000000009240000002CXS  0000000000530000000000000000
5118944010305003 WAFER OBSESSION - 30X140 GRS                               000000008400000000009240000002CXS  0000000000530000000000000000
5118944010306001 WAFER CHOCOLATE - 30X140 GRS.                              000000008400000000009260000002CXS  0000000000530000000000000000
5118944010306002 WAFER MORANGO - 30X140 GRS.                                000000008400000000009260000002CXS  0000000000530000000000000000
5118944010306004 WAFER DOCE LEITE - 30X140 GRS.                             000000008400000000009260000002CXS  0000000000530000000000000000
5118944010306005 WAFER ATREVIDOS - 30X140 GRS.                              000000008400000000009240000002CXS  0000000000530000000000000000
5118944010307001 LOOK CHOCOLATE - 20 X 55 GRS                               000000002200000000003160000002CXS  0000000000273400000000000000
5118944010307002 LOOK MORANGO - 20 X 55 GRS                                 000000002200000000003160000002CXS  0000000000273400000000000000
5118944010307003 LOOK DOCE DE LEITE - 20 X 55 GRS                           000000002200000000003160000002CXS  0000000000273400000000000000
5118944010307005 LOOK FLORESTA NEGRA - 20 X 55 GRS                          000000002200000000003160000002CXS  0000000000273400000000000000
5118944010307007 LOOK ATREVIDOS - 20 X 55 GRS                               000000002200000000003160000002CXS  0000000000273400000000000000
5118944013007001 RECH.SPANTOOO CHOCOLATE - 30X140GR                         000000012600000000013650000003CXS  0000000000526800000000000000
5118944013007002 RECH.SPANTOOO MORANGO - 30X140 GRS                         000000012600000000013650000003CXS  0000000000526800000000000000
5118944013007003 RECH.SPANTOOO CHOC.BRANCO-30X140GR                         000000012600000000013650000003CXS  0000000000526800000000000000
5118944013007004 RECH.SPANTOOO TUTTI-FRUTTI-30X140G                         000000012600000000013800000003CXS  0000000000526800000000000000
5118944013014005 RECH.FIORETTO CHOCOLATE-30X115 GRS                         000000034500000000037700000010CXS  0000000001133000000000000000
5118944013014006 RECH.FIORETTO MORANGO-30X115 GRS                           000000017250000000018850000005CXS  0000000000566500000000000000
5118944013014007 RECH.FIORETTO BAUN.C/FLOCOS-30X115                         000000017250000000018850000005CXS  0000000000566500000000000000
5118944013014008 RECH.FIORETTO DOCE DE LEITE-30X115                         000000017250000000018850000005CXS  0000000000566500000000000000
5118944013022001 RECHEADO ATREVIDOS - 30X115 GRS                            000000010350000000011100000003CXS  0000000000483300000000000000
11189450090959SUPER.MIRASSOL LTDA                     RUA JOAO MIRASSOL, 509                  OSASCO/VL.PESTANA                       SP06122170060708245000108492.195.864.111     000VS MALVONI REPRESENT.S/(11) 69092040  
21189451802200520022005009095900042CAIXASMBF                                     .                                       .                                       E
5118945010305001 WAFER NAPOLITANO - 30X140 GRS                              000000016800000000018480000004CXS  0000000001028000000000000000
5118945010305002 WAFER FLORESTA NEGRA - 30X140 GRS                          000000016800000000018480000004CXS  0000000001028000000000000000
5118945010305003 WAFER OBSESSION - 30X140 GRS                               000000008400000000009240000002CXS  0000000000514000000000000000
5118945010306001 WAFER CHOCOLATE - 30X140 GRS.                              000000008400000000009260000002CXS  0000000000514000000000000000
5118945010306004 WAFER DOCE LEITE - 30X140 GRS.                             000000008400000000009260000002CXS  0000000000514000000000000000
5118945010306005 WAFER ATREVIDOS - 30X140 GRS.                              000000008400000000009240000002CXS  0000000000514000000000000000
5118945010307001 LOOK CHOCOLATE - 20 X 55 GRS                               000000004400000000006320000004CXS  0000000000576000000000000000
5118945010307002 LOOK MORANGO - 20 X 55 GRS                                 000000002200000000003160000002CXS  0000000000288000000000000000
5118945010307005 LOOK FLORESTA NEGRA - 20 X 55 GRS                          000000002200000000003160000002CXS  0000000000288000000000000000
5118945010307007 LOOK ATREVIDOS - 20 X 55 GRS                               000000002200000000003160000002CXS  0000000000288000000000000000
5118945013007001 RECH.SPANTOOO CHOCOLATE - 30X140GR                         000000021000000000022750000005CXS  0000000000899500000000000000
5118945013007002 RECH.SPANTOOO MORANGO - 30X140 GRS                         000000016800000000018200000004CXS  0000000000719600000000000000
5118945013007003 RECH.SPANTOOO CHOC.BRANCO-30X140GR                         000000021000000000022750000005CXS  0000000000899500000000000000
5118945013007004 RECH.SPANTOOO TUTTI-FRUTTI-30X140G                         000000008400000000009200000002CXS  0000000000359800000000000000
11189460034593H.SATO MERC.LTDA                        RUA KOTO MITSUTANI, 602                 SAO PAULO/JD.MITSUTANI                  SP05791001006860040000190116.650.951.115     000VS MALVONI REPRESENT.S/(11) 69092040  
21189461802200520022005003459300011CAIXASMBF                                     .                                       .                                       E
5118946010307001 LOOK CHOCOLATE - 20 X 55 GRS                               000000002200000000003160000002CXS  0000000000273400000000000000
5118946010307002 LOOK MORANGO - 20 X 55 GRS                                 000000001100000000001580000001CXS  0000000000136700000000000000
5118946010307003 LOOK DOCE DE LEITE - 20 X 55 GRS                           000000001100000000001580000001CXS  0000000000136700000000000000
5118946010307005 LOOK FLORESTA NEGRA - 20 X 55 GRS                          000000001100000000001580000001CXS  0000000000136700000000000000
5118946010307007 LOOK ATREVIDOS - 20 X 55 GRS                               000000001100000000001580000001CXS  0000000000136700000000000000
5118946013022001 RECHEADO ATREVIDOS - 30X115 GRS                            000000017250000000018500000005CXS  0000000000805500000000000000
11189470090562MERCADINHO PATRICIA LTDA                RUA JOAO CRUZ DE SOUSA, 05              SAO PAULO/JD.DAS ROSAS                  SP05893000050667187000150110.096.172.118     000VS MALVONI REPRESENT.S/(11) 69092040  
21189471802200520022005009056200002CAIXASMBF                                     .                                       .                                       E
5118947010308002 WAFER MORANGO DIET - 30X120 GRS                            000000003600000000004100000001CXS  0000000000555000000000000000
5118947013008002 RECH.MORANGO DIET - 30X120 GRS                             000000003600000000003890000001CXS  0000000000385400000000000000
11189480091818MERCADINHO NOVA PATRICIA LTDA           AV.CARLOS LACERDA, 2.170                SAO PAULO/JD.ROSANA                     SP05789001003475939000109115.622.769.110     000VS MALVONI REPRESENT.S/(11) 69092040  
21189481802200520022005009181800002CAIXASMBF                                     .                                       .                                       E
5118948010308002 WAFER MORANGO DIET - 30X120 GRS                            000000003600000000004100000001CXS  0000000000555000000000000000
5118948013008002 RECH.MORANGO DIET - 30X120 GRS                             000000003600000000003890000001CXS  0000000000385400000000000000
11189490032351DOUGLAS RAMOS ROGATTO-ME                R.LEONOR BARROSO DE CARVALHO,161        FERRAZ DE VASCONCELOS/FERRAZ DE VASCONCESP08535000005576701000197305.103.450.110     000VS MALVONI REPRESENT.S/(11) 69092040  
21189491802200520022005003235100035CAIXASMBF                                     .                                       .                                       E
5118949010307001 LOOK CHOCOLATE - 20 X 55 GRS                               000000001100000000001580000001CXS  0000000000136700000000000000
5118949010307002 LOOK MORANGO - 20 X 55 GRS                                 000000001100000000001580000001CXS  0000000000136700000000000000
5118949010307003 LOOK DOCE DE LEITE - 20 X 55 GRS                           000000001100000000001580000001CXS  0000000000136700000000000000
5118949010307005 LOOK FLORESTA NEGRA - 20 X 55 GRS                          000000001100000000001580000001CXS  0000000000136700000000000000
5118949010307007 LOOK ATREVIDOS - 20 X 55 GRS                               000000001100000000001580000001CXS  0000000000136700000000000000
5118949013007001 RECH.SPANTOOO CHOCOLATE - 30X140GR                         000000008400000000009100000002CXS  0000000000340600000000000000
5118949013007002 RECH.SPANTOOO MORANGO - 30X140 GRS                         000000008400000000009100000002CXS  0000000000340600000000000000
5118949013007003 RECH.SPANTOOO CHOC.BRANCO-30X140GR                         000000008400000000009100000002CXS  0000000000340600000000000000
5118949013007004 RECH.SPANTOOO TUTTI-FRUTTI-30X140G                         000000008400000000009200000002CXS  0000000000340600000000000000
5118949013014005 RECH.FIORETTO CHOCOLATE-30X115 GRS                         000000017250000000018850000005CXS  0000000000566500000000000000
5118949013014006 RECH.FIORETTO MORANGO-30X115 GRS                           000000017250000000018850000005CXS  0000000000565500000000000000
5118949013014007 RECH.FIORETTO BAUN.C/FLOCOS-30X115                         000000017250000000018850000005CXS  0000000000566500000000000000
5118949013014008 RECH.FIORETTO DOCE DE LEITE-30X115                         000000017250000000018850000005CXS  0000000000566500000000000000
5118949013022001 RECHEADO ATREVIDOS - 30X115 GRS                            000000006900000000007400000002CXS  0000000000312600000000000000
11189500032161MINIMERC.DOCE PRECO LTDA                AV. NORDESTINA, 977                     SAO PAULO/SAO MIGUEL                    SP08011120003272873000141115.428.554.118     000VS MALVONI REPRESENT.S/(11) 69092040  
21189501802200520022005003216100006CAIXASMBF                                     .                                       .                                       E
5118950010305002 WAFER FLORESTA NEGRA - 30X140 GRS                          000000004200000000004620000001CXS  0000000000265000000000000000
5118950010306002 WAFER MORANGO - 30X140 GRS.                                000000004200000000004630000001CXS  0000000000265000000000000000
5118950010307005 LOOK FLORESTA NEGRA - 20 X 55 GRS                          000000001100000000001580000001CXS  0000000000136700000000000000
5118950010308002 WAFER MORANGO DIET - 30X120 GRS                            000000003600000000004100000001CXS  0000000000555000000000000000
5118950013601002 BISCOITO MILANO COCO - 30X130 GRS                          000000003900000000004180000001CXS  0000000000143100000000000000
5118950013601003 BISCOITO MILANO LEITE - 30X130 GRS                         000000003900000000004180000001CXS  0000000000143100000000000000
11189510031946MERCADINHO SUPER VISAO LTDA-ME          R. ESTELLA MAZZUCA 1410                 FERRAZ DE VASCONCELOS/FERRAZ DE VASCOCELSP08500000005539260000153305.041.393.112     000VS MALVONI REPRESENT.S/(11) 69092040  
21189511802200520022005003194600006CAIXASMBF                                     .                                       .                                       E
5118951010305001 WAFER NAPOLITANO - 30X140 GRS                              000000004200000000004620000001CXS  0000000000257000000000000000
5118951010305002 WAFER FLORESTA NEGRA - 30X140 GRS                          000000004200000000004620000001CXS  0000000000257000000000000000
5118951010305003 WAFER OBSESSION - 30X140 GRS                               000000004200000000004620000001CXS  0000000000257000000000000000
5118951010306001 WAFER CHOCOLATE - 30X140 GRS.                              000000004200000000004630000001CXS  0000000000241100000000000000
5118951010306005 WAFER ATREVIDOS - 30X140 GRS.                              000000004200000000004620000001CXS  0000000000257000000000000000
5118951013022001 RECHEADO ATREVIDOS - 30X115 GRS                            000000003450000000003700000001CXS  0000000000156300000000000000
11189520033989MINI MERC.MILENIUM LTDA                 AV.LUCAS NOGUEIRA GARCES, 517           POA/JD.ESTELA                           SP08550000002966010000101546.043.807.118     000VS MALVONI REPRESENT.S/(11) 69092040  
21189521802200520022005003398900013CAIXASMBF                                     .                                       .                                       E
5118952010305001 WAFER NAPOLITANO - 30X140 GRS                              000000008400000000009240000002CXS  0000000000503400000000000000
5118952010305003 WAFER OBSESSION - 30X140 GRS                               000000008400000000009240000002CXS  0000000000503400000000000000
5118952010306001 WAFER CHOCOLATE - 30X140 GRS.                              000000012600000000013890000003CXS  0000000000699600000000000000
5118952010306002 WAFER MORANGO - 30X140 GRS.                                000000008400000000009260000002CXS  0000000000466400000000000000
5118952010306004 WAFER DOCE LEITE - 30X140 GRS.                             000000004200000000004630000001CXS  0000000000233200000000000000
5118952010306005 WAFER ATREVIDOS - 30X140 GRS.                              000000004200000000004620000001CXS  0000000000251700000000000000
5118952013007001 RECH.SPANTOOO CHOCOLATE - 30X140GR                         000000004200000000004550000001CXS  0000000000170300000000000000
5118952013007002 RECH.SPANTOOO MORANGO - 30X140 GRS                         000000004200000000004550000001CXS  0000000000170300000000000000
11189530032388MINI MERC.GOMES FERREIRA                R.DOS ITURONOS, 191                     FERRAZ DE VASCONCELOS/VILA STO ANTONIO  SP08534120005685283000176305.103.593.115     000VS MALVONI REPRESENT.S/(11) 69092040  
21189531802200520022005003238800005CAIXASMBF                                     .                                       .                                       E
5118953010305002 WAFER FLORESTA NEGRA - 30X140 GRS                          000000004200000000004620000001CXS  0000000000257000000000000000
5118953010305003 WAFER OBSESSION - 30X140 GRS                               000000004200000000004620000001CXS  0000000000257000000000000000
5118953010306001 WAFER CHOCOLATE - 30X140 GRS.                              000000004200000000004630000001CXS  0000000000241100000000000000
5118953010306005 WAFER ATREVIDOS - 30X140 GRS.                              000000004200000000004620000001CXS  0000000000257000000000000000
5118953013022001 RECHEADO ATREVIDOS - 30X115 GRS                            000000003450000000003700000001CXS  0000000000156300000000000000
11189540034019SUPER.MULTI BIG LTDA                    RUA TUIUTI, 3025                        SAO PAULO/TATUAPE                       SP03307000056698301000195111.667.484.119     000VS MALVONI REPRESENT.S/(11) 69092040  
21189541802200520022005003401900015CAIXASMBF                                     .                                       .                                       E
5118954010305001 WAFER NAPOLITANO - 30X140 GRS                              000000008400000000009240000002CXS  0000000000503400000000000000
5118954010305002 WAFER FLORESTA NEGRA - 30X140 GRS                          000000008400000000009240000002CXS  0000000000503400000000000000
5118954010305003 WAFER OBSESSION - 30X140 GRS                               000000008400000000009240000002CXS  0000000000503400000000000000
5118954010306005 WAFER ATREVIDOS - 30X140 GRS.                              000000008400000000009240000002CXS  0000000000503400000000000000
5118954010307001 LOOK CHOCOLATE - 20 X 55 GRS                               000000001100000000001580000001CXS  0000000000132600000000000000
5118954010307002 LOOK MORANGO - 20 X 55 GRS                                 000000001100000000001580000001CXS  0000000000132600000000000000
5118954010307003 LOOK DOCE DE LEITE - 20 X 55 GRS                           000000001100000000001580000001CXS  0000000000132600000000000000
5118954010307005 LOOK FLORESTA NEGRA - 20 X 55 GRS                          000000001100000000001580000001CXS  0000000000132600000000000000
5118954010307007 LOOK ATREVIDOS - 20 X 55 GRS                               000000001100000000001580000001CXS  0000000000132600000000000000
5118954010308002 WAFER MORANGO DIET - 30X120 GRS                            000000003600000000004100000001CXS  0000000000555000000000000000
5118954013008002 RECH.MORANGO DIET - 30X120 GRS                             000000003600000000003890000001CXS  0000000000385400000000000000
11189550091397SUPER.IRMAOS ZIMMERMMAN LTDA            RUA ITAPIRACABA, 427                    SAO PAULO/BRAS                          SP03025050000183039000191114.108.370.113     000VS MALVONI REPRESENT.S/(11) 69092040  
21189551802200520022005009139700013CAIXASMBF                                     .                                       .                                       E
5118955010305001 WAFER NAPOLITANO - 30X140 GRS                              000000004200000000004620000001CXS  0000000000257000000000000000
5118955010305002 WAFER FLORESTA NEGRA - 30X140 GRS                          000000004200000000004620000001CXS  0000000000257000000000000000
5118955010305003 WAFER OBSESSION - 30X140 GRS                               000000004200000000004620000001CXS  0000000000257000000000000000
5118955010306001 WAFER CHOCOLATE - 30X140 GRS.                              000000004200000000004630000001CXS  0000000000257000000000000000
5118955010306002 WAFER MORANGO - 30X140 GRS.                                000000004200000000004630000001CXS  0000000000257000000000000000
5118955010306005 WAFER ATREVIDOS - 30X140 GRS.                              000000004200000000004620000001CXS  0000000000257000000000000000
5118955010307001 LOOK CHOCOLATE - 20 X 55 GRS                               000000001100000000001580000001CXS  0000000000136700000000000000
5118955010307003 LOOK DOCE DE LEITE - 20 X 55 GRS                           000000001100000000001580000001CXS  0000000000136700000000000000
5118955010307005 LOOK FLORESTA NEGRA - 20 X 55 GRS                          000000001100000000001580000001CXS  0000000000136700000000000000
5118955013014005 RECH.FIORETTO CHOCOLATE-30X115 GRS                         000000003450000000003770000001CXS  0000000000115000000000000000
5118955013014006 RECH.FIORETTO MORANGO-30X115 GRS                           000000003450000000003770000001CXS  0000000000115000000000000000
5118955013014007 RECH.FIORETTO BAUN.C/FLOCOS-30X115                         000000003450000000003770000001CXS  0000000000115000000000000000
5118955013014008 RECH.FIORETTO DOCE DE LEITE-30X115                         000000003450000000003770000001CXS  0000000000115000000000000000
11189560092237JOUSSEF ANTONIO HADDAD-ME               RUA HILDEBRANDO SIQUEIRA, 500           SAO PAULO/AMERICANOPOLIS                SP04334150062507942000118112.690.480.110     000VS MALVONI REPRESENT.S/(11) 69092040  
21189561802200520022005009223700003CAIXASMBF                                     .                                       .                                       E
5118956010307001 LOOK CHOCOLATE - 20 X 55 GRS                               000000002200000000003160000002CXS  0000000000265200000000000000
5118956010307005 LOOK FLORESTA NEGRA - 20 X 55 GRS                          000000001100000000001580000001CXS  0000000000132600000000000000
11189570091869CABRAL & COUTINHO LTDA                  RUA TEXAS, 964                          SAO PAULO/BROOKLIN                      SP04557001043307446000176108.710.188.116     000VS MALVONI REPRESENT.S/(11) 69092040  
21189571802200520022005009186900006CAIXASMBF                                     .                                       .                                       E
5118957010306001 WAFER CHOCOLATE - 30X140 GRS.                              000000004200000000004630000001CXS  0000000000241100000000000000
5118957010307001 LOOK CHOCOLATE - 20 X 55 GRS                               000000001100000000001580000001CXS  0000000000132600000000000000
5118957010307005 LOOK FLORESTA NEGRA - 20 X 55 GRS                          000000001100000000001580000001CXS  0000000000132600000000000000
5118957013007001 RECH.SPANTOOO CHOCOLATE - 30X140GR                         000000004200000000004550000001CXS  0000000000170300000000000000
5118957013007003 RECH.SPANTOOO CHOC.BRANCO-30X140GR                         000000004200000000004550000001CXS  0000000000170300000000000000
5118957013008002 RECH.MORANGO DIET - 30X120 GRS                             000000003600000000003890000001CXS  0000000000385400000000000000
11189580031569PAULO ROBERTO FREITAS EMPORIO-ME        AV. KEITA HARADA 55                     SUZANO/SUZANO IPELAND                   SP08620000066917816000192672.024.295.112     000VS MALVONI REPRESENT.S/(11) 69092040  
21189581802200520022005003156900026CAIXASMBF                                     .                                       .                                       E
5118958010305001 WAFER NAPOLITANO - 30X140 GRS                              000000008400000000009240000002CXS  0000000000503400000000000000
5118958010305002 WAFER FLORESTA NEGRA - 30X140 GRS                          000000008400000000009240000002CXS  0000000000503400000000000000
5118958010305003 WAFER OBSESSION - 30X140 GRS                               000000008400000000009240000002CXS  0000000000503400000000000000
5118958010306001 WAFER CHOCOLATE - 30X140 GRS.                              000000008400000000009260000002CXS  0000000000466400000000000000
5118958010306002 WAFER MORANGO - 30X140 GRS.                                000000008400000000009260000002CXS  0000000000466400000000000000
5118958010306004 WAFER DOCE LEITE - 30X140 GRS.                             000000008400000000009260000002CXS  0000000000466400000000000000
5118958010306005 WAFER ATREVIDOS - 30X140 GRS.                              000000008400000000009240000002CXS  0000000000503400000000000000
5118958013007001 RECH.SPANTOOO CHOCOLATE - 30X140GR                         000000012600000000013650000003CXS  0000000000526800000000000000
5118958013007002 RECH.SPANTOOO MORANGO - 30X140 GRS                         000000012600000000013650000003CXS  0000000000526800000000000000
5118958013007003 RECH.SPANTOOO CHOC.BRANCO-30X140GR                         000000012600000000013650000003CXS  0000000000526800000000000000
5118958013007004 RECH.SPANTOOO TUTTI-FRUTTI-30X140G                         000000012600000000013800000003CXS  0000000000526800000000000000
11189590273788MERCADO DIAS & VIANNA LTDA-EPP          AV.WALDEMAR CARLOS PEREIRA, 527         SAO PAULO/VL.DALILA                     SP03533000001881035000140115.084.410.115     000VS MALVONI REPRESENT.S/(11) 69092040  
21189591802200520022005027378800005CAIXASMBF                                     .                                       .                                       E
5118959010307001 LOOK CHOCOLATE - 20 X 55 GRS                               000000001100000000001580000001CXS  0000000000136000000000000000
5118959010307002 LOOK MORANGO - 20 X 55 GRS                                 000000001100000000001580000001CXS  0000000000136000000000000000
5118959010307003 LOOK DOCE DE LEITE - 20 X 55 GRS                           000000001100000000001580000001CXS  0000000000136000000000000000
5118959010307005 LOOK FLORESTA NEGRA - 20 X 55 GRS                          000000001100000000001580000001CXS  0000000000136000000000000000
5118959010308002 WAFER MORANGO DIET - 30X120 GRS                            000000003600000000004100000001CXS  0000000000587300000000000000
11189600090454SUPER.LIDER DO CARRAO LTDA              AV.CONSELHEIRO CARRAO, 2.008/16         SAO PAULO/VL.CARRAO                     SP03403001061267902000507108.872.346.116     000VS MALVONI REPRESENT.S/(11) 69092040  
21189601802200520022005009045400040CAIXASMBF                                     .                                       .                                       E
5118960010307001 LOOK CHOCOLATE - 20 X 55 GRS                               000000022000000000031600000020CXS  0000000002426000000000000000
5118960010307002 LOOK MORANGO - 20 X 55 GRS                                 000000005500000000007900000005CXS  0000000000606500000000000000
5118960010307003 LOOK DOCE DE LEITE - 20 X 55 GRS                           000000005500000000007900000005CXS  0000000000606500000000000000
5118960010307005 LOOK FLORESTA NEGRA - 20 X 55 GRS                          000000005500000000007900000005CXS  0000000000606500000000000000
5118960010307007 LOOK ATREVIDOS - 20 X 55 GRS                               000000005500000000007900000005CXS  0000000000606500000000000000
11189610031596BAR EMPORIO JATHER LTDA-ME              ROD. INDIO TIBIRICA 12131               SUZANO/PALMEIRAS                        SP08620000043178284000113672.028.218.112     000VS MALVONI REPRESENT.S/(11) 69092040  
21189611802200520022005003159600002CAIXASMBF                                     .                                       .                                       E
5118961013007001 RECH.SPANTOOO CHOCOLATE - 30X140GR                         000000008400000000009100000002CXS  0000000000351200000000000000
11189620034302MERCADINHO IRMAOS DOMINGOS LTDA         AV.JOSE MOREIRA, 471                    MAUA/JARDIM CENTENARIO                  SP09341120052601549000135442.030.523.110     000VS MALVONI REPRESENT.S/(11) 69092040  
21189621802200520022005003430200020CAIXASMBF                                     .                                       .                                       E
5118962010305001 WAFER NAPOLITANO - 30X140 GRS                              000000008400000000009240000002CXS  0000000000492600000000000000
5118962010305002 WAFER FLORESTA NEGRA - 30X140 GRS                          000000021000000000023100000005CXS  0000000001231500000000000000
5118962010305003 WAFER OBSESSION - 30X140 GRS                               000000008400000000009240000002CXS  0000000000492600000000000000
5118962010306001 WAFER CHOCOLATE - 30X140 GRS.                              000000021000000000023150000005CXS  0000000001231500000000000000
5118962010306002 WAFER MORANGO - 30X140 GRS.                                000000008400000000009260000002CXS  0000000000492600000000000000
5118962010306004 WAFER DOCE LEITE - 30X140 GRS.                             000000004200000000004630000001CXS  0000000000246300000000000000
5118962010306005 WAFER ATREVIDOS - 30X140 GRS.                              000000012600000000013860000003CXS  0000000000738900000000000000
11189630034302MERCADINHO IRMAOS DOMINGOS LTDA         AV.JOSE MOREIRA, 471                    MAUA/JARDIM CENTENARIO                  SP09341120052601549000135442.030.523.110     000VS MALVONI REPRESENT.S/(11) 69092040  
21189631802200520022005003430200002CAIXASMBF                                     .                                       .                                       E
5118963010305001 WAFER NAPOLITANO - 30X140 GRS                              000000004200000000004620000001CXS  0000000000246300000000000000
5118963010306004 WAFER DOCE LEITE - 30X140 GRS.                             000000004200000000004630000001CXS  0000000000246300000000000000
11189640090240MERCADINHO CENTRAL S.MATEUS LTDA        AV.MATEO BEI, 1.925                     SAO PAULO/SAO MATEUS                    SP03949300000640008000112114.319.812.110     000VS MALVONI REPRESENT.S/(11) 69092040  
21189641802200520022005009024000012CAIXASMBF                                     .                                       .                                       E
5118964010307001 LOOK CHOCOLATE - 20 X 55 GRS                               000000004400000000006320000004CXS  0000000000530400000000000000
5118964010307002 LOOK MORANGO - 20 X 55 GRS                                 000000002200000000003160000002CXS  0000000000265200000000000000
5118964010307003 LOOK DOCE DE LEITE - 20 X 55 GRS                           000000002200000000003160000002CXS  0000000000265200000000000000
5118964010307005 LOOK FLORESTA NEGRA - 20 X 55 GRS                          000000002200000000003160000002CXS  0000000000265200000000000000
5118964010307007 LOOK ATREVIDOS - 20 X 55 GRS                               000000002200000000003160000002CXS  0000000000265200000000000000
11189650031472MERC.CASA DE CARNE BOI APIS LTDA        R.PLANALTO DO ACANTILADOS 218           SAO PAULO/PQ. SANTA MADALENA            SP03981110068391770000146113.530.281.110     000VS MALVONI REPRESENT.S/(11) 69092040  
21189651802200520022005003147200030CAIXASMBF                                     .                                       .                                       E
5118965010305001 WAFER NAPOLITANO - 30X140 GRS                              000000012600000000013860000003CXS  0000000000679800000000000000
5118965010305002 WAFER FLORESTA NEGRA - 30X140 GRS                          000000012600000000013860000003CXS  0000000000679800000000000000
5118965010305003 WAFER OBSESSION - 30X140 GRS                               000000008400000000009240000002CXS  0000000000453200000000000000
5118965010306001 WAFER CHOCOLATE - 30X140 GRS.                              000000021000000000023150000005CXS  0000000001133000000000000000
5118965010306002 WAFER MORANGO - 30X140 GRS.                                000000012600000000013890000003CXS  0000000000679800000000000000
5118965010306004 WAFER DOCE LEITE - 30X140 GRS.                             000000008400000000009260000002CXS  0000000000453200000000000000
5118965010306005 WAFER ATREVIDOS - 30X140 GRS.                              000000008400000000009240000002CXS  0000000000453200000000000000
5118965010307001 LOOK CHOCOLATE - 20 X 55 GRS                               000000004400000000006320000004CXS  0000000000530400000000000000
5118965010307002 LOOK MORANGO - 20 X 55 GRS                                 000000002200000000003160000002CXS  0000000000265200000000000000
5118965010307003 LOOK DOCE DE LEITE - 20 X 55 GRS                           000000001100000000001580000001CXS  0000000000132600000000000000
5118965010307005 LOOK FLORESTA NEGRA - 20 X 55 GRS                          000000002200000000003160000002CXS  0000000000265200000000000000
5118965010307007 LOOK ATREVIDOS - 20 X 55 GRS                               000000001100000000001580000001CXS  0000000000132600000000000000
11189660090427SUPER.LIDER DO CARRAO LTDA              PCA.15 DE OUTUBRO, 08                   SAO PAULO/VL.CARRAO                     SP03449080061267902000183105.620.425.116     000VS MALVONI REPRESENT.S/(11) 69092040  
21189661802200520022005009042700040CAIXASMBF                                     .                                       .                                       E
5118966010307001 LOOK CHOCOLATE - 20 X 55 GRS                               000000022000000000031600000020CXS  0000000002426000000000000000
5118966010307002 LOOK MORANGO - 20 X 55 GRS                                 000000005500000000007900000005CXS  0000000000606500000000000000
5118966010307003 LOOK DOCE DE LEITE - 20 X 55 GRS                           000000005500000000007900000005CXS  0000000000606500000000000000
5118966010307005 LOOK FLORESTA NEGRA - 20 X 55 GRS                          000000005500000000007900000005CXS  0000000000606500000000000000
5118966010307007 LOOK ATREVIDOS - 20 X 55 GRS                               000000005500000000007900000005CXS  0000000000606500000000000000
11189670090453SUPER.LIDER DO CARRAO LTDA              AV.RIO DAS PEDRAS, 158/172              SAO PAULO/CARRAOZINHO                   SP03452000061267902000345108.452.462.119     000VS MALVONI REPRESENT.S/(11) 69092040  
21189671802200520022005009045300032CAIXASMBF                                     .                                       .                                       E
5118967010307001 LOOK CHOCOLATE - 20 X 55 GRS                               000000022000000000031600000020CXS  0000000002426000000000000000
5118967010307002 LOOK MORANGO - 20 X 55 GRS                                 000000003300000000004740000003CXS  0000000000363900000000000000
5118967010307003 LOOK DOCE DE LEITE - 20 X 55 GRS                           000000003300000000004740000003CXS  0000000000363900000000000000
5118967010307005 LOOK FLORESTA NEGRA - 20 X 55 GRS                          000000003300000000004740000003CXS  0000000000363900000000000000
5118967010307007 LOOK ATREVIDOS - 20 X 55 GRS                               000000003300000000004740000003CXS  0000000000363900000000000000
11189680033657EDUARDO CORREA DA SILVA MERC.ME         AV.DOS SERTANISTAS, 249                 SAO PAULO/JD.SAO ANDRE                  SP08390240005442671000126116.708.560.117     000VS MALVONI REPRESENT.S/(11) 69092040  
21189681802200520022005003365700006CAIXASMBF                                     .                                       .                                       E
5118968010306001 WAFER CHOCOLATE - 30X140 GRS.                              000000008400000000009260000002CXS  0000000000477000000000000000
5118968010306002 WAFER MORANGO - 30X140 GRS.                                000000008400000000009260000002CXS  0000000000477000000000000000
5118968010306005 WAFER ATREVIDOS - 30X140 GRS.                              000000008400000000009240000002CXS  0000000000477000000000000000
11189690034519MERCADINHO PRECO CERTO LTDA-ME          RUA HIERAPOLIS, 170                     SAO PAULO/C.SOCORRO                     SP04859090000489852000194114.381.322.118     000VS MALVONI REPRESENT.S/(11) 69092040  
21189691802200520022005003451900180CAIXASMBF                                     .                                       .                                       E
5118969010305001 WAFER NAPOLITANO - 30X140 GRS                              000000042000000000046200000010CXS  0000000002266000000000000000
5118969010305002 WAFER FLORESTA NEGRA - 30X140 GRS                          000000042000000000046200000010CXS  0000000002266000000000000000
5118969010305003 WAFER OBSESSION - 30X140 GRS                               000000021000000000023100000005CXS  0000000001133000000000000000
5118969010306001 WAFER CHOCOLATE - 30X140 GRS.                              000000025200000000027780000006CXS  0000000001359600000000000000
5118969010306002 WAFER MORANGO - 30X140 GRS.                                000000025200000000027780000006CXS  0000000001359600000000000000
5118969010306004 WAFER DOCE LEITE - 30X140 GRS.                             000000012600000000013890000003CXS  0000000000679800000000000000
5118969010306005 WAFER ATREVIDOS - 30X140 GRS.                              000000042000000000046200000010CXS  0000000002266000000000000000
5118969013014005 RECH.FIORETTO CHOCOLATE-30X115 GRS                         000000172500000000188500000050CXS  0000000005665000000000000000
5118969013014006 RECH.FIORETTO MORANGO-30X115 GRS                           000000138000000000150800000040CXS  0000000004532000000000000000
5118969013014007 RECH.FIORETTO BAUN.C/FLOCOS-30X115                         000000069000000000075400000020CXS  0000000002266000000000000000
5118969013014008 RECH.FIORETTO DOCE DE LEITE-30X115                         000000069000000000075400000020CXS  0000000002266000000000000000
11189700034519MERCADINHO PRECO CERTO LTDA-ME          RUA HIERAPOLIS, 170                     SAO PAULO/C.SOCORRO                     SP04859090000489852000194114.381.322.118     000VS MALVONI REPRESENT.S/(11) 69092040  
21189701802200520022005003451900020CAIXASMBF                                     .                                       .                                       E
5118970013014005 RECH.FIORETTO CHOCOLATE-30X115 GRS                         000000069000000000075400000020CXS  0000000002266000000000000000
