0047066774000502    J.MARINO IND.E COMERCIO S.A.            22022005
10937860033599LOJA DO REAL LTDA-ME                    AV. ACLIMACAO, 769                      SANTO ANDRE/JD. DO ESTADIO              SP09172030004806608000169626.657.137.114     000REIMEX REPRESENTACOES L(11) 8327181   
20937862202200522022005003359900003CAIXASMBF                                     .                                       .                                       E
5093786013027001 RECH.BOB ESPONJA CHOCOLATE-30X115G                         000000003450000000003950000001CXS  0000000000133900000000000000
5093786013027002 RECH.BOB ESPONJA MORANGO-30X115 GR                         000000003400000000003950000001CXS  0000000000133900000000000000
5093786013027003 RECH.BOB ESPONJA DOCE LEITE-30X115                         000000003450000000003950000001CXS  0000000000133900000000000000
10937870000984PRACA DA SE DOCES LTDA                  PCA.DA SE, 393                          SAO PAULO/CENTRO                        SP01001001073010860000180113.814.243.115     000REIMEX REPRESENTACOES L(11) 8327181   
20937872202200522022005000098400200CAIXASMBF                                     .                                       .                                       E
5093787013003001 HOBBY CHOCOLATE - 30X170 GRS.                              000000102000000000109200000020CXS  0000000003662000000000000000
5093787013004001 HOBBY CHOC./CHANTILLY - 30X170 GRS                         000000102000000000109200000020CXS  0000000003662000000000000000
5093787013004002 HOBBY NAPOLITANO - 30X170 GRS.                             000000051000000000054600000010CXS  0000000001831000000000000000
5093787013009001 RECHEADO CHOC/CHANTILLY - 30X140GR                         000000084000000000091400000020CXS  0000000002734000000000000000
5093787013009002 RECHEADO MORANGO/CHANTILLY-30X140G                         000000063000000000068550000015CXS  0000000002050500000000000000
5093787013009003 RECHEADO DOCE DE LEITE/COCO-30X140                         000000021000000000022850000005CXS  0000000000683500000000000000
5093787013009004 RECHEADO NAPOLITANO - 30X140 GRS                           000000042000000000045700000010CXS  0000000001367000000000000000
5093787013009005 RECHEADO FLORESTA NEGRA-30X140 GRS                         000000063000000000068550000015CXS  0000000002050500000000000000
5093787013010001 TORTITA CHOCOLATE - 30X140 GRS                             000000126000000000135300000030CXS  0000000004563000000000000000
5093787013010002 TORTITA CHOCOLATE BRANCO 30X140 GR                         000000042000000000045100000010CXS  0000000001521000000000000000
5093787013011001 TORTITA MORANGO/CHANTILLY-30X140GR                         000000042000000000045100000010CXS  0000000001521000000000000000
5093787013011002 TORTITA CHOC.BCO/CHOC.LEITE 30X140                         000000042000000000045100000010CXS  0000000001521000000000000000
5093787013025001 RECHEADO BRIGADEIRO - 30X120 GRS                           000000018000000000019450000005CXS  0000000000562000000000000000
5093787013027001 RECH.BOB ESPONJA CHOCOLATE-30X115G                         000000034500000000039500000010CXS  0000000001318000000000000000
5093787013027002 RECH.BOB ESPONJA MORANGO-30X115 GR                         000000017000000000019750000005CXS  0000000000659000000000000000
5093787013027003 RECH.BOB ESPONJA DOCE LEITE-30X115                         000000017250000000019750000005CXS  0000000000659000000000000000
10937880390027MANO'S COM.DOCES LTDA                   RUA VISCONDE DE PARNAIBA, 2463          SAO PAULO/BRAS                          SP03045002053549549000368114.503.678.110     000REIMEX REPRESENTACOES L(11) 8327181   
20937882202200522022005039002700030CAIXASMBF                                     .                                       .                                       E
5093788013010001 TORTITA CHOCOLATE - 30X140 GRS                             000000063000000000067650000015CXS  0000000002238000000000000000
5093788013010002 TORTITA CHOCOLATE BRANCO 30X140 GR                         000000021000000000022550000005CXS  0000000000746000000000000000
5093788013011001 TORTITA MORANGO/CHANTILLY-30X140GR                         000000021000000000022550000005CXS  0000000000746000000000000000
5093788013011002 TORTITA CHOC.BCO/CHOC.LEITE 30X140                         000000021000000000022550000005CXS  0000000000746000000000000000
10937890034857COM.GEN.ALIMENT.D.VILARES LT.EPP        RUA DOM VILARES, 1700                   SAO PAULO/VILA DAS MERCES               SP04160001003507329000131115.624.371.116     000VS MALVONI REPRESENT.S/(11) 69092040  
20937892202200522022005003485700044CAIXASMBF                                     .                                       .                                       E
5093789013004001 HOBBY CHOC./CHANTILLY - 30X170 GRS                         000000025500000000027300000005CXS  0000000001066000000000000000
5093789013004002 HOBBY NAPOLITANO - 30X170 GRS.                             000000025500000000027300000005CXS  0000000001066000000000000000
5093789013009001 RECHEADO CHOC/CHANTILLY - 30X140GR                         000000021000000000022850000005CXS  0000000000780500000000000000
5093789013009002 RECHEADO MORANGO/CHANTILLY-30X140G                         000000008400000000009140000002CXS  0000000000312200000000000000
5093789013009003 RECHEADO DOCE DE LEITE/COCO-30X140                         000000008400000000009140000002CXS  0000000000312200000000000000
5093789013009004 RECHEADO NAPOLITANO - 30X140 GRS                           000000008400000000009140000002CXS  0000000000312200000000000000
5093789013009005 RECHEADO FLORESTA NEGRA-30X140 GRS                         000000012600000000013710000003CXS  0000000000468300000000000000
5093789013010001 TORTITA CHOCOLATE - 30X140 GRS                             000000033600000000036080000008CXS  0000000001516800000000000000
5093789013010002 TORTITA CHOCOLATE BRANCO 30X140 GR                         000000008400000000009020000002CXS  0000000000379200000000000000
5093789013011001 TORTITA MORANGO/CHANTILLY-30X140GR                         000000008400000000009020000002CXS  0000000000379200000000000000
5093789013011002 TORTITA CHOC.BCO/CHOC.LEITE 30X140                         000000008400000000009020000002CXS  0000000000379200000000000000
5093789013027001 RECH.BOB ESPONJA CHOCOLATE-30X115G                         000000010350000000011850000003CXS  0000000000495300000000000000
5093789013027002 RECH.BOB ESPONJA MORANGO-30X115 GR                         000000006800000000007900000002CXS  0000000000330200000000000000
5093789013027003 RECH.BOB ESPONJA DOCE LEITE-30X115                         000000003450000000003950000001CXS  0000000000165100000000000000
10937900034854F.R.N.MERCADO E PADARIA LTDA            AV.JOAO DE ANDRADE, 1500                OSASCO/JD.SANTO ANTONIO                 SP06132004007187940000180492.479.747.113     000VS MALVONI REPRESENT.S/(11) 69092040  
20937902202200522022005003485400037CAIXASMBF                                     .                                       .                                       E
5093790013003001 HOBBY CHOCOLATE - 30X170 GRS.                              000000015300000000016380000003CXS  0000000000675000000000000000
5093790013003002 HOBBY MORANGO - 30X170 GRS.                                000000010200000000010920000002CXS  0000000000450000000000000000
5093790013004001 HOBBY CHOC./CHANTILLY - 30X170 GRS                         000000010200000000010920000002CXS  0000000000450000000000000000
5093790013004002 HOBBY NAPOLITANO - 30X170 GRS.                             000000010200000000010920000002CXS  0000000000450000000000000000
5093790013010001 TORTITA CHOCOLATE - 30X140 GRS                             000000021000000000022550000005CXS  0000000000810000000000000000
5093790013010002 TORTITA CHOCOLATE BRANCO 30X140 GR                         000000021000000000022550000005CXS  0000000000810000000000000000
5093790013011001 TORTITA MORANGO/CHANTILLY-30X140GR                         000000012600000000013530000003CXS  0000000000486000000000000000
5093790013011002 TORTITA CHOC.BCO/CHOC.LEITE 30X140                         000000021000000000022550000005CXS  0000000000810000000000000000
5093790013025001 RECHEADO BRIGADEIRO - 30X120 GRS                           000000007200000000007780000002CXS  0000000000324000000000000000
5093790013027001 RECH.BOB ESPONJA CHOCOLATE-30X115G                         000000013800000000015800000004CXS  0000000000652000000000000000
5093790013027002 RECH.BOB ESPONJA MORANGO-30X115 GR                         000000006800000000007900000002CXS  0000000000326000000000000000
5093790013027003 RECH.BOB ESPONJA DOCE LEITE-30X115                         000000006900000000007900000002CXS  0000000000326000000000000000
10937910034854F.R.N.MERCADO E PADARIA LTDA            AV.JOAO DE ANDRADE, 1500                OSASCO/JD.SANTO ANTONIO                 SP06132004007187940000180492.479.747.113     000VS MALVONI REPRESENT.S/(11) 69092040  
20937912202200522022005003485400001CAIXASMBF                                     .                                       .                                       E
5093791013003001 HOBBY CHOCOLATE - 30X170 GRS.                              000000005100000000005460000001CXS  0000000000225000000000000000
10937920034855SUPER.RED LTDA                          AV.ANTONIO MUNHOZ BONILHA, 1158         SAO PAULO/JARDIM CAROLINA               SP02725000007054385000119116.920.443.113     000VS MALVONI REPRESENT.S/(11) 69092040  
20937922202200522022005003485500031CAIXASMBF                                     .                                       .                                       E
5093792013003001 HOBBY CHOCOLATE - 30X170 GRS.                              000000005100000000005460000001CXS  0000000000217600000000000000
5093792013003002 HOBBY MORANGO - 30X170 GRS.                                000000005100000000005460000001CXS  0000000000217600000000000000
5093792013004001 HOBBY CHOC./CHANTILLY - 30X170 GRS                         000000005100000000005460000001CXS  0000000000217600000000000000
5093792013004002 HOBBY NAPOLITANO - 30X170 GRS.                             000000005100000000005460000001CXS  0000000000217600000000000000
5093792013009001 RECHEADO CHOC/CHANTILLY - 30X140GR                         000000008400000000009140000002CXS  0000000000314800000000000000
5093792013009002 RECHEADO MORANGO/CHANTILLY-30X140G                         000000008400000000009140000002CXS  0000000000314800000000000000
5093792013009003 RECHEADO DOCE DE LEITE/COCO-30X140                         000000008400000000009140000002CXS  0000000000314800000000000000
5093792013009004 RECHEADO NAPOLITANO - 30X140 GRS                           000000008400000000009140000002CXS  0000000000314800000000000000
5093792013009005 RECHEADO FLORESTA NEGRA-30X140 GRS                         000000008400000000009140000002CXS  0000000000314800000000000000
5093792013010001 TORTITA CHOCOLATE - 30X140 GRS                             000000008400000000009020000002CXS  0000000000373000000000000000
5093792013010002 TORTITA CHOCOLATE BRANCO 30X140 GR                         000000008400000000009020000002CXS  0000000000373000000000000000
5093792013011002 TORTITA CHOC.BCO/CHOC.LEITE 30X140                         000000008400000000009020000002CXS  0000000000373000000000000000
5093792013016001 RECH.LADO A LADO CHOCOLATE-30X115G                         000000006900000000007540000002CXS  0000000000226600000000000000
5093792013016002 RECH.LADO A LADO MORANGO-30X115 GR                         000000006900000000007540000002CXS  0000000000226600000000000000
5093792013025001 RECHEADO BRIGADEIRO - 30X120 GRS                           000000003600000000003890000001CXS  0000000000165500000000000000
5093792013027001 RECH.BOB ESPONJA CHOCOLATE-30X115G                         000000006900000000007900000002CXS  0000000000338000000000000000
5093792013027002 RECH.BOB ESPONJA MORANGO-30X115 GR                         000000006800000000007900000002CXS  0000000000338000000000000000
5093792013027003 RECH.BOB ESPONJA DOCE LEITE-30X115                         000000006900000000007900000002CXS  0000000000338000000000000000
10937930034855SUPER.RED LTDA                          AV.ANTONIO MUNHOZ BONILHA, 1158         SAO PAULO/JARDIM CAROLINA               SP02725000007054385000119116.920.443.113     000VS MALVONI REPRESENT.S/(11) 69092040  
20937932202200522022005003485500002CAIXASMBF                                     .                                       .                                       E
5093793013010001 TORTITA CHOCOLATE - 30X140 GRS                             000000008400000000009020000002CXS  0000000000373000000000000000
10937940034856CLAUDIO CESAR SOARES ME                 ESTRADA DA BARRAGEM,3851 LT2QD H        SAO PAULO/COLONIA PAULISTA              SP04895020006997722000149116.915.157.110     000VS MALVONI REPRESENT.S/(11) 69092040  
20937942202200522022005003485600004CAIXASMBF                                     .                                       .                                       E
5093794013003001 HOBBY CHOCOLATE - 30X170 GRS.                              000000005100000000005460000001CXS  0000000000204000000000000000
5093794013003002 HOBBY MORANGO - 30X170 GRS.                                000000005100000000005460000001CXS  0000000000204000000000000000
5093794013004001 HOBBY CHOC./CHANTILLY - 30X170 GRS                         000000005100000000005460000001CXS  0000000000204000000000000000
5093794013004002 HOBBY NAPOLITANO - 30X170 GRS.                             000000005100000000005460000001CXS  0000000000204000000000000000
10937950010548A.M.CUNHA ALIMENTICIOS-ME               RUA SANTO AGOSTINHO, 90-C               CAIEIRAS/JD.SAO FRANCISCO               SP07700000004908692000121239.077.600.116     000LEBASI REPRESENTACOES L(11) 38515947  
20937952202200522022005001054800038CAIXASMBF                                     .                                       .                                       E
5093795013003001 HOBBY CHOCOLATE - 30X170 GRS.                              000000015300000000016380000003CXS  0000000000549000000000000000
5093795013003002 HOBBY MORANGO - 30X170 GRS.                                000000015300000000016380000003CXS  0000000000549000000000000000
5093795013003003 HOBBY COCO - 30X170 GRS.                                   000000015300000000016380000003CXS  0000000000549000000000000000
5093795013003004 HOBBY CHOCOLATE BRANCO - 30X170 GR                         000000015300000000016380000003CXS  0000000000549000000000000000
5093795013004001 HOBBY CHOC./CHANTILLY - 30X170 GRS                         000000015300000000016380000003CXS  0000000000549000000000000000
5093795013004002 HOBBY NAPOLITANO - 30X170 GRS.                             000000015300000000016380000003CXS  0000000000549000000000000000
5093795013027001 RECH.BOB ESPONJA CHOCOLATE-30X115G                         000000034500000000039500000010CXS  0000000001290000000000000000
5093795013027002 RECH.BOB ESPONJA MORANGO-30X115 GR                         000000017000000000019750000005CXS  0000000000645000000000000000
5093795013027003 RECH.BOB ESPONJA DOCE LEITE-30X115                         000000017250000000019750000005CXS  0000000000645000000000000000
10937960091372BONALIMENT ALIMENTACAO LTDA             RUA OLIVEIRA LIMA, 509                  SAO PAULO/CAMBUCI                       SP01541010054761176000195111.295.790.111     000LEBASI REPRESENTACOES L(11) 38515947  
20937962202200522022005009137200480CAIXASMBF                                     .                                       .                                       E
5093796013013005 RECHEADO BRIGADEIRO - 30X60 GRS                            000000864000000000988800000480CXS  0000000034560000000000000000
10937970001873DISTRIB.PROD.ALIMENT.LEUNAM LTDA        RUA ANTONIO LOPES MARIN, 109            SAO PAULO/CASA VERDE                    SP02516050053738753000165111.084.293.115     000JAIME FRANCISCO DAS DOR(11) 69014795  
20937972202200522022005000187300055CAIXASMBF                                     .                                       .                                       E
5093797013003001 HOBBY CHOCOLATE - 30X170 GRS.                              000000025500000000027300000005CXS  0000000000939000000000000000
5093797013003002 HOBBY MORANGO - 30X170 GRS.                                000000025500000000027300000005CXS  0000000000939000000000000000
5093797013003003 HOBBY COCO - 30X170 GRS.                                   000000025500000000027300000005CXS  0000000000939000000000000000
5093797013003004 HOBBY CHOCOLATE BRANCO - 30X170 GR                         000000025500000000027300000005CXS  0000000000939000000000000000
5093797013004001 HOBBY CHOC./CHANTILLY - 30X170 GRS                         000000025500000000027300000005CXS  0000000000939000000000000000
5093797013004002 HOBBY NAPOLITANO - 30X170 GRS.                             000000025500000000027300000005CXS  0000000000939000000000000000
5093797013009001 RECHEADO CHOC/CHANTILLY - 30X140GR                         000000021000000000022850000005CXS  0000000000701500000000000000
5093797013009002 RECHEADO MORANGO/CHANTILLY-30X140G                         000000021000000000022850000005CXS  0000000000701500000000000000
5093797013009003 RECHEADO DOCE DE LEITE/COCO-30X140                         000000021000000000022850000005CXS  0000000000701500000000000000
5093797013009004 RECHEADO NAPOLITANO - 30X140 GRS                           000000021000000000022850000005CXS  0000000000701500000000000000
5093797013009005 RECHEADO FLORESTA NEGRA-30X140 GRS                         000000021000000000022850000005CXS  0000000000701500000000000000
10937980273705KI BALAS DISTRIB.PROD.ALIM.LTDA         RUA TIBURCIO DE SOUZA, 1.117            SAO PAULO/ITAIM PAULISTA                SP08140000004358583000188116.108.410.110     000JAIME FRANCISCO DAS DOR(11) 69014795  
20937982202200522022005027370500021CAIXASMBF                                     .                                       .                                       E
5093798013010001 TORTITA CHOCOLATE - 30X140 GRS                             000000033600000000036080000008CXS  0000000001245600000000000000
5093798013010002 TORTITA CHOCOLATE BRANCO 30X140 GR                         000000021000000000022550000005CXS  0000000000778500000000000000
5093798013011002 TORTITA CHOC.BCO/CHOC.LEITE 30X140                         000000021000000000022550000005CXS  0000000000778500000000000000
5093798013025001 RECHEADO BRIGADEIRO - 30X120 GRS                           000000010800000000011670000003CXS  0000000000336000000000000000
10937990000529COM.DOCES CASTILHO LTDA-ME              RUA ARICANGA, 17                        SAO PAULO/ITAIM PAULISTA                SP08160000065778896000180112.553.108.119     000JAIME FRANCISCO DAS DOR(11) 69014795  
20937992202200522022005000052900015CAIXASMBF                                     .                                       .                                       E
5093799013010001 TORTITA CHOCOLATE - 30X140 GRS                             000000021000000000022550000005CXS  0000000000778500000000000000
5093799013010002 TORTITA CHOCOLATE BRANCO 30X140 GR                         000000021000000000022550000005CXS  0000000000778500000000000000
5093799013011002 TORTITA CHOC.BCO/CHOC.LEITE 30X140                         000000021000000000022550000005CXS  0000000000778500000000000000
10938000033592MERC.SANTOS LUZ LTDA ME                 RUA MAGALI WESSEL , 25                  ITAPEVI/JD.MARINA                       SP03210001006000794000170373.102.250.118     000VS MALVONI REPRESENT.S/(11) 69092040  
20938002202200522022005003359200025CAIXASMBF                                     .                                       .                                       E
5093800013009001 RECHEADO CHOC/CHANTILLY - 30X140GR                         000000021000000000022850000005CXS  0000000000787500000000000000
5093800013010001 TORTITA CHOCOLATE - 30X140 GRS                             000000021000000000022550000005CXS  0000000000900000000000000000
5093800013010002 TORTITA CHOCOLATE BRANCO 30X140 GR                         000000021000000000022550000005CXS  0000000000900000000000000000
5093800013011001 TORTITA MORANGO/CHANTILLY-30X140GR                         000000021000000000022550000005CXS  0000000000900000000000000000
5093800013011002 TORTITA CHOC.BCO/CHOC.LEITE 30X140                         000000021000000000022550000005CXS  0000000000900000000000000000
10938010033592MERC.SANTOS LUZ LTDA ME                 RUA MAGALI WESSEL , 25                  ITAPEVI/JD.MARINA                       SP03210001006000794000170373.102.250.118     000VS MALVONI REPRESENT.S/(11) 69092040  
20938012202200522022005003359200001CAIXASMBF                                     .                                       .                                       E
5093801013010001 TORTITA CHOCOLATE - 30X140 GRS                             000000004200000000004510000001CXS  0000000000180000000000000000
10938020091286SUPER.SYLLUS LTDA                       RUA NAGOIA, 238                         DIADEMA/JD.TAKEBE                       SP09940200050140276000143286.034.860.118     000VS MALVONI REPRESENT.S/(11) 69092040  
20938022202200522022005009128600015CAIXASMBF                                     .                                       .                                       E
5093802013016001 RECH.LADO A LADO CHOCOLATE-30X115G                         000000017250000000018850000005CXS  0000000000566500000000000000
5093802013016002 RECH.LADO A LADO MORANGO-30X115 GR                         000000017250000000018850000005CXS  0000000000566500000000000000
5093802013016003 RECH.LADO A LADO CHO.BRANCO-30X115                         000000017250000000018850000005CXS  0000000000566500000000000000
10938030091286SUPER.SYLLUS LTDA                       RUA NAGOIA, 238                         DIADEMA/JD.TAKEBE                       SP09940200050140276000143286.034.860.118     000VS MALVONI REPRESENT.S/(11) 69092040  
20938032202200522022005009128600003CAIXASMBF                                     .                                       .                                       E
5093803013016001 RECH.LADO A LADO CHOCOLATE-30X115G                         000000010350000000011310000003CXS  0000000000339900000000000000
10938040091430SHIZNE HONDA SHIMIZUI FILHO LTDA        RUA DA FIGUEIRAS, 294                   DIADEMA/JD.ABC                          SP09940510055766893000172286.025.773.117     000VS MALVONI REPRESENT.S/(11) 69092040  
20938042202200522022005009143000030CAIXASMBF                                     .                                       .                                       E
5093804013016001 RECH.LADO A LADO CHOCOLATE-30X115G                         000000034500000000037700000010CXS  0000000001133000000000000000
5093804013016002 RECH.LADO A LADO MORANGO-30X115 GR                         000000034500000000037700000010CXS  0000000001133000000000000000
5093804013016003 RECH.LADO A LADO CHO.BRANCO-30X115                         000000034500000000037700000010CXS  0000000001133000000000000000
10938050091430SHIZNE HONDA SHIMIZUI FILHO LTDA        RUA DA FIGUEIRAS, 294                   DIADEMA/JD.ABC                          SP09940510055766893000172286.025.773.117     000VS MALVONI REPRESENT.S/(11) 69092040  
20938052202200522022005009143000005CAIXASMBF                                     .                                       .                                       E
5093805013016001 RECH.LADO A LADO CHOCOLATE-30X115G                         000000017250000000018850000005CXS  0000000000566500000000000000
10938060031511SUPER.CORSARIO MERCADO LTDA             AV.GREGORIO BEZERRA 446                 SAO PAULO/JD. IV CENTENARIO             SP04812200005220802000120116.525.679.119     000VS MALVONI REPRESENT.S/(11) 69092040  
20938062202200522022005003151100016CAIXASMBF                                     .                                       .                                       E
5093806013016001 RECH.LADO A LADO CHOCOLATE-30X115G                         000000027600000000030160000008CXS  0000000000905600000000000000
5093806013016002 RECH.LADO A LADO MORANGO-30X115 GR                         000000013800000000015080000004CXS  0000000000452800000000000000
5093806013016003 RECH.LADO A LADO CHO.BRANCO-30X115                         000000013800000000015080000004CXS  0000000000452800000000000000
10938070031511SUPER.CORSARIO MERCADO LTDA             AV.GREGORIO BEZERRA 446                 SAO PAULO/JD. IV CENTENARIO             SP04812200005220802000120116.525.679.119     000VS MALVONI REPRESENT.S/(11) 69092040  
20938072202200522022005003151100003CAIXASMBF                                     .                                       .                                       E
5093807013016001 RECH.LADO A LADO CHOCOLATE-30X115G                         000000010350000000011310000003CXS  0000000000339600000000000000
10938080034479MINIMERCADO MONTE ALVERNE LTDA          R.FREI MONTE ALBERNE, 410/420           SAO PAULO/VILA ARINANDUVA               SP03505010003408660000102115.107.855.112     000VS MALVONI REPRESENT.S/(11) 69092040  
20938082202200522022005003447900020CAIXASMBF                                     .                                       .                                       E
5093808013016001 RECH.LADO A LADO CHOCOLATE-30X115G                         000000034500000000037700000010CXS  0000000001133000000000000000
5093808013016002 RECH.LADO A LADO MORANGO-30X115 GR                         000000017250000000018850000005CXS  0000000000566500000000000000
5093808013016003 RECH.LADO A LADO CHO.BRANCO-30X115                         000000017250000000018850000005CXS  0000000000566500000000000000
10938090034479MINIMERCADO MONTE ALVERNE LTDA          R.FREI MONTE ALBERNE, 410/420           SAO PAULO/VILA ARINANDUVA               SP03505010003408660000102115.107.855.112     000VS MALVONI REPRESENT.S/(11) 69092040  
20938092202200522022005003447900003CAIXASMBF                                     .                                       .                                       E
5093809013016001 RECH.LADO A LADO CHOCOLATE-30X115G                         000000010350000000011310000003CXS  0000000000339900000000000000
10938100034473MINIMERCADO MASUOKA LTDA-ME             AV.MIRO ATILIO PEDUZZI, 412             RIBEIRAO PIRES/QUARTA DIVISAO           SP09436400001830780000160581.047.275.117     000VS MALVONI REPRESENT.S/(11) 69092040  
20938102202200522022005003447300020CAIXASMBF                                     .                                       .                                       E
5093810013016001 RECH.LADO A LADO CHOCOLATE-30X115G                         000000034500000000037700000010CXS  0000000001133000000000000000
5093810013016002 RECH.LADO A LADO MORANGO-30X115 GR                         000000017250000000018850000005CXS  0000000000566500000000000000
5093810013016003 RECH.LADO A LADO CHO.BRANCO-30X115                         000000017250000000018850000005CXS  0000000000566500000000000000
10938110034473MINIMERCADO MASUOKA LTDA-ME             AV.MIRO ATILIO PEDUZZI, 412             RIBEIRAO PIRES/QUARTA DIVISAO           SP09436400001830780000160581.047.275.117     000VS MALVONI REPRESENT.S/(11) 69092040  
20938112202200522022005003447300003CAIXASMBF                                     .                                       .                                       E
5093811013016001 RECH.LADO A LADO CHOCOLATE-30X115G                         000000010350000000011310000003CXS  0000000000339900000000000000
10938120033410MERCEARIA CLAUDIO E ADRIANA LTDA        AV.VILA EMA, 2591                       SAO PAULO/V.EMA                         SP03281000005090282000189116.394.468.118     000VS MALVONI REPRESENT.S/(11) 69092040  
20938122202200522022005003341000008CAIXASMBF                                     .                                       .                                       E
5093812013010001 TORTITA CHOCOLATE - 30X140 GRS                             000000008400000000009020000002CXS  0000000000324000000000000000
5093812013010002 TORTITA CHOCOLATE BRANCO 30X140 GR                         000000008400000000009020000002CXS  0000000000324000000000000000
5093812013011001 TORTITA MORANGO/CHANTILLY-30X140GR                         000000008400000000009020000002CXS  0000000000324000000000000000
5093812013011002 TORTITA CHOC.BCO/CHOC.LEITE 30X140                         000000008400000000009020000002CXS  0000000000324000000000000000
10938130034479MINIMERCADO MONTE ALVERNE LTDA          R.FREI MONTE ALBERNE, 410/420           SAO PAULO/VILA ARINANDUVA               SP03505010003408660000102115.107.855.112     000VS MALVONI REPRESENT.S/(11) 69092040  
20938132202200522022005003447900020CAIXASMBF                                     .                                       .                                       E
5093813013016001 RECH.LADO A LADO CHOCOLATE-30X115G                         000000034500000000037700000010CXS  0000000001133000000000000000
5093813013016002 RECH.LADO A LADO MORANGO-30X115 GR                         000000017250000000018850000005CXS  0000000000566500000000000000
5093813013016003 RECH.LADO A LADO CHO.BRANCO-30X115                         000000017250000000018850000005CXS  0000000000566500000000000000
10938140034483MERCADO HOSHI LTDA                      RUA PROFESSOR ROLDAO, 437               SAO PAULO/JARDIM MALIA                  SP04823010005825547000140116.651.967.118     000VS MALVONI REPRESENT.S/(11) 69092040  
20938142202200522022005003448300023CAIXASMBF                                     .                                       .                                       E
5093814013016001 RECH.LADO A LADO CHOCOLATE-30X115G                         000000051750000000056550000015CXS  0000000001699500000000000000
5093814013016002 RECH.LADO A LADO MORANGO-30X115 GR                         000000010350000000011310000003CXS  0000000000339900000000000000
5093814013016003 RECH.LADO A LADO CHO.BRANCO-30X115                         000000017250000000018850000005CXS  0000000000566500000000000000
10938150034483MERCADO HOSHI LTDA                      RUA PROFESSOR ROLDAO, 437               SAO PAULO/JARDIM MALIA                  SP04823010005825547000140116.651.967.118     000VS MALVONI REPRESENT.S/(11) 69092040  
20938152202200522022005003448300003CAIXASMBF                                     .                                       .                                       E
5093815013016001 RECH.LADO A LADO CHOCOLATE-30X115G                         000000010350000000011310000003CXS  0000000000339900000000000000
10938160033407N.N.CAZUZA MERCADO LTDA-EPP             R.ITAJUIBE, 1030                        SAO PAULO/JD.NELIA                      SP08142000004706879000142116.238.660.113     000VS MALVONI REPRESENT.S/(11) 69092040  
20938162202200522022005003340700053CAIXASMBF                                     .                                       .                                       E
5093816013003002 HOBBY MORANGO - 30X170 GRS.                                000000010200000000010920000002CXS  0000000000435400000000000000
5093816013004001 HOBBY CHOC./CHANTILLY - 30X170 GRS                         000000010200000000010920000002CXS  0000000000435400000000000000
5093816013009003 RECHEADO DOCE DE LEITE/COCO-30X140                         000000004200000000004570000001CXS  0000000000157400000000000000
5093816013010001 TORTITA CHOCOLATE - 30X140 GRS                             000000042000000000045100000010CXS  0000000001620000000000000000
5093816013010002 TORTITA CHOCOLATE BRANCO 30X140 GR                         000000025200000000027060000006CXS  0000000000972000000000000000
5093816013011001 TORTITA MORANGO/CHANTILLY-30X140GR                         000000025200000000027060000006CXS  0000000000972000000000000000
5093816013011002 TORTITA CHOC.BCO/CHOC.LEITE 30X140                         000000025200000000027060000006CXS  0000000000972000000000000000
5093816013027001 RECH.BOB ESPONJA CHOCOLATE-30X115G                         000000034500000000039500000010CXS  0000000001639000000000000000
5093816013027002 RECH.BOB ESPONJA MORANGO-30X115 GR                         000000020400000000023700000006CXS  0000000000983400000000000000
5093816013027003 RECH.BOB ESPONJA DOCE LEITE-30X115                         000000013800000000015800000004CXS  0000000000655600000000000000
10938170091270SANTA CRUZ COM.PROD.ALIM.LTDA-ME        RUA LOEFGREEN, 1.249                    SAO PAULO/VL.MARIANA                    SP04040031002243054000103115.309.138.115     000VS MALVONI REPRESENT.S/(11) 69092040  
20938172202200522022005009127000027CAIXASMBF                                     .                                       .                                       E
5093817013016001 RECH.LADO A LADO CHOCOLATE-30X115G                         000000041400000000045240000012CXS  0000000001359600000000000000
5093817013016002 RECH.LADO A LADO MORANGO-30X115 GR                         000000024150000000026390000007CXS  0000000000793100000000000000
5093817013016003 RECH.LADO A LADO CHO.BRANCO-30X115                         000000027600000000030160000008CXS  0000000000906400000000000000
10938180091270SANTA CRUZ COM.PROD.ALIM.LTDA-ME        RUA LOEFGREEN, 1.249                    SAO PAULO/VL.MARIANA                    SP04040031002243054000103115.309.138.115     000VS MALVONI REPRESENT.S/(11) 69092040  
20938182202200522022005009127000004CAIXASMBF                                     .                                       .                                       E
5093818013016001 RECH.LADO A LADO CHOCOLATE-30X115G                         000000006900000000007540000002CXS  0000000000226600000000000000
5093818013016002 RECH.LADO A LADO MORANGO-30X115 GR                         000000003450000000003770000001CXS  0000000000113300000000000000
5093818013016003 RECH.LADO A LADO CHO.BRANCO-30X115                         000000003450000000003770000001CXS  0000000000113300000000000000
10938190092237JOUSSEF ANTONIO HADDAD-ME               RUA HILDEBRANDO SIQUEIRA, 500           SAO PAULO/AMERICANOPOLIS                SP04334150062507942000118112.690.480.110     000VS MALVONI REPRESENT.S/(11) 69092040  
20938192202200522022005009223700029CAIXASMBF                                     .                                       .                                       E
5093819013010001 TORTITA CHOCOLATE - 30X140 GRS                             000000016800000000018040000004CXS  0000000000648000000000000000
5093819013010002 TORTITA CHOCOLATE BRANCO 30X140 GR                         000000012600000000013530000003CXS  0000000000486000000000000000
5093819013011002 TORTITA CHOC.BCO/CHOC.LEITE 30X140                         000000016800000000018040000004CXS  0000000000648000000000000000
5093819013016001 RECH.LADO A LADO CHOCOLATE-30X115G                         000000013800000000015080000004CXS  0000000000453200000000000000
5093819013016002 RECH.LADO A LADO MORANGO-30X115 GR                         000000006900000000007540000002CXS  0000000000226600000000000000
5093819013016003 RECH.LADO A LADO CHO.BRANCO-30X115                         000000006900000000007540000002CXS  0000000000226600000000000000
5093819013027001 RECH.BOB ESPONJA CHOCOLATE-30X115G                         000000017250000000019750000005CXS  0000000000819500000000000000
5093819013027002 RECH.BOB ESPONJA MORANGO-30X115 GR                         000000010200000000011850000003CXS  0000000000491700000000000000
5093819013027003 RECH.BOB ESPONJA DOCE LEITE-30X115                         000000006900000000007900000002CXS  0000000000327800000000000000
10938200092237JOUSSEF ANTONIO HADDAD-ME               RUA HILDEBRANDO SIQUEIRA, 500           SAO PAULO/AMERICANOPOLIS                SP04334150062507942000118112.690.480.110     000VS MALVONI REPRESENT.S/(11) 69092040  
20938202202200522022005009223700001CAIXASMBF                                     .                                       .                                       E
5093820013016003 RECH.LADO A LADO CHO.BRANCO-30X115                         000000003450000000003770000001CXS  0000000000113300000000000000
10938210092236LATICINIOS KATUCHA LTDA                 RUA HILDEBRANDO SIQUEIRA, 415           SAO PAULO/AMERICANOPOLIS                SP04334150053442935000194110.413.363.113     000VS MALVONI REPRESENT.S/(11) 69092040  
20938212202200522022005009223600029CAIXASMBF                                     .                                       .                                       E
5093821013010001 TORTITA CHOCOLATE - 30X140 GRS                             000000012600000000013530000003CXS  0000000000486000000000000000
5093821013010002 TORTITA CHOCOLATE BRANCO 30X140 GR                         000000021000000000022550000005CXS  0000000000810000000000000000
5093821013011002 TORTITA CHOC.BCO/CHOC.LEITE 30X140                         000000016800000000018040000004CXS  0000000000648000000000000000
5093821013016001 RECH.LADO A LADO CHOCOLATE-30X115G                         000000013800000000015080000004CXS  0000000000453200000000000000
5093821013016002 RECH.LADO A LADO MORANGO-30X115 GR                         000000006900000000007540000002CXS  0000000000226600000000000000
5093821013016003 RECH.LADO A LADO CHO.BRANCO-30X115                         000000006900000000007540000002CXS  0000000000226600000000000000
5093821013027001 RECH.BOB ESPONJA CHOCOLATE-30X115G                         000000017250000000019750000005CXS  0000000000819500000000000000
5093821013027002 RECH.BOB ESPONJA MORANGO-30X115 GR                         000000006800000000007900000002CXS  0000000000327800000000000000
5093821013027003 RECH.BOB ESPONJA DOCE LEITE-30X115                         000000006900000000007900000002CXS  0000000000327800000000000000
10938220092236LATICINIOS KATUCHA LTDA                 RUA HILDEBRANDO SIQUEIRA, 415           SAO PAULO/AMERICANOPOLIS                SP04334150053442935000194110.413.363.113     000VS MALVONI REPRESENT.S/(11) 69092040  
20938222202200522022005009223600001CAIXASMBF                                     .                                       .                                       E
5093822013016003 RECH.LADO A LADO CHO.BRANCO-30X115                         000000003450000000003770000001CXS  0000000000113300000000000000
10938230270165MERC.SANTA PAULA LTDA                   AV.LEMOS MONTEIRO 500                   SAO CAETANO DO SUL/SAT.PAULA            SP09540500047622535000168636.012.635.116     000VS MALVONI REPRESENT.S/(11) 69092040  
20938232202200522022005027016500015CAIXASMBF                                     .                                       .                                       E
5093823013016001 RECH.LADO A LADO CHOCOLATE-30X115G                         000000010350000000011310000003CXS  0000000000347400000000000000
5093823013016002 RECH.LADO A LADO MORANGO-30X115 GR                         000000006900000000007540000002CXS  0000000000231600000000000000
5093823013016003 RECH.LADO A LADO CHO.BRANCO-30X115                         000000006900000000007540000002CXS  0000000000231600000000000000
5093823013027001 RECH.BOB ESPONJA CHOCOLATE-30X115G                         000000013800000000015800000004CXS  0000000000660400000000000000
5093823013027002 RECH.BOB ESPONJA MORANGO-30X115 GR                         000000006800000000007900000002CXS  0000000000330200000000000000
5093823013027003 RECH.BOB ESPONJA DOCE LEITE-30X115                         000000006900000000007900000002CXS  0000000000330200000000000000
10938240270165MERC.SANTA PAULA LTDA                   AV.LEMOS MONTEIRO 500                   SAO CAETANO DO SUL/SAT.PAULA            SP09540500047622535000168636.012.635.116     000VS MALVONI REPRESENT.S/(11) 69092040  
20938242202200522022005027016500001CAIXASMBF                                     .                                       .                                       E
5093824013016002 RECH.LADO A LADO MORANGO-30X115 GR                         000000003450000000003770000001CXS  0000000000115800000000000000
10938250092687SUPER.SILVEIRA LTDA                     ESTR.DA COLONIA, 12                     SAO PAULO/JD SILVEIRA                   SP04892000038762852000199112.852.132.119     000VS MALVONI REPRESENT.S/(11) 69092040  
20938252202200522022005009268700020CAIXASMBF                                     .                                       .                                       E
5093825013016001 RECH.LADO A LADO CHOCOLATE-30X115G                         000000051750000000056550000015CXS  0000000001699500000000000000
5093825013016002 RECH.LADO A LADO MORANGO-30X115 GR                         000000010350000000011310000003CXS  0000000000339900000000000000
5093825013016003 RECH.LADO A LADO CHO.BRANCO-30X115                         000000006900000000007540000002CXS  0000000000226600000000000000
10938260092687SUPER.SILVEIRA LTDA                     ESTR.DA COLONIA, 12                     SAO PAULO/JD SILVEIRA                   SP04892000038762852000199112.852.132.119     000VS MALVONI REPRESENT.S/(11) 69092040  
20938262202200522022005009268700003CAIXASMBF                                     .                                       .                                       E
5093826013016001 RECH.LADO A LADO CHOCOLATE-30X115G                         000000010350000000011310000003CXS  0000000000339900000000000000
10938270273852ILZA HELENA BARZON MERC-ME              AL.SAO CAETANO, 2.268                   SAO CAETANO DO SUL/VL.STA.MARIA         SP09560500003232777000170636.164.036.114     000VS MALVONI REPRESENT.S/(11) 69092040  
20938272202200522022005027385200019CAIXASMBF                                     .                                       .                                       E
5093827013010001 TORTITA CHOCOLATE - 30X140 GRS                             000000021000000000022550000005CXS  0000000000948000000000000000
5093827013010002 TORTITA CHOCOLATE BRANCO 30X140 GR                         000000021000000000022550000005CXS  0000000000948000000000000000
5093827013011002 TORTITA CHOC.BCO/CHOC.LEITE 30X140                         000000012600000000013530000003CXS  0000000000568800000000000000
5093827013027001 RECH.BOB ESPONJA CHOCOLATE-30X115G                         000000010350000000011850000003CXS  0000000000495300000000000000
5093827013027002 RECH.BOB ESPONJA MORANGO-30X115 GR                         000000006800000000007900000002CXS  0000000000330200000000000000
5093827013027003 RECH.BOB ESPONJA DOCE LEITE-30X115                         000000003450000000003950000001CXS  0000000000165100000000000000
10938280273852ILZA HELENA BARZON MERC-ME              AL.SAO CAETANO, 2.268                   SAO CAETANO DO SUL/VL.STA.MARIA         SP09560500003232777000170636.164.036.114     000VS MALVONI REPRESENT.S/(11) 69092040  
20938282202200522022005027385200002CAIXASMBF                                     .                                       .                                       E
5093828013010001 TORTITA CHOCOLATE - 30X140 GRS                             000000004200000000004510000001CXS  0000000000189600000000000000
5093828013011001 TORTITA MORANGO/CHANTILLY-30X140GR                         000000004200000000004510000001CXS  0000000000189600000000000000
10938290370106MERC.JULIO JULIANO LTDA                 RUA PAVOA DE VARZIM, 16                 SAO PAULO/JD.MACEDONIA                  SP05894400059455808000106111.111.750.111     000VS MALVONI REPRESENT.S/(11) 69092040  
20938292202200522022005037010600023CAIXASMBF                                     .                                       .                                       E
5093829013016001 RECH.LADO A LADO CHOCOLATE-30X115G                         000000034500000000037700000010CXS  0000000001140000000000000000
5093829013016002 RECH.LADO A LADO MORANGO-30X115 GR                         000000017250000000018850000005CXS  0000000000570000000000000000
5093829013016003 RECH.LADO A LADO CHO.BRANCO-30X115                         000000017250000000018850000005CXS  0000000000570000000000000000
5093829013027001 RECH.BOB ESPONJA CHOCOLATE-30X115G                         000000003450000000003950000001CXS  0000000000163900000000000000
5093829013027002 RECH.BOB ESPONJA MORANGO-30X115 GR                         000000003400000000003950000001CXS  0000000000163900000000000000
5093829013027003 RECH.BOB ESPONJA DOCE LEITE-30X115                         000000003450000000003950000001CXS  0000000000163900000000000000
10938300370106MERC.JULIO JULIANO LTDA                 RUA PAVOA DE VARZIM, 16                 SAO PAULO/JD.MACEDONIA                  SP05894400059455808000106111.111.750.111     000VS MALVONI REPRESENT.S/(11) 69092040  
20938302202200522022005037010600003CAIXASMBF                                     .                                       .                                       E
5093830013016001 RECH.LADO A LADO CHOCOLATE-30X115G                         000000003450000000003770000001CXS  0000000000114000000000000000
5093830013016002 RECH.LADO A LADO MORANGO-30X115 GR                         000000003450000000003770000001CXS  0000000000114000000000000000
5093830013016003 RECH.LADO A LADO CHO.BRANCO-30X115                         000000003450000000003770000001CXS  0000000000114000000000000000
10938310370106MERC.JULIO JULIANO LTDA                 RUA PAVOA DE VARZIM, 16                 SAO PAULO/JD.MACEDONIA                  SP05894400059455808000106111.111.750.111     000VS MALVONI REPRESENT.S/(11) 69092040  
20938312202200522022005037010600023CAIXASMBF                                     .                                       .                                       E
5093831013016001 RECH.LADO A LADO CHOCOLATE-30X115G                         000000034500000000037700000010CXS  0000000001140000000000000000
5093831013016002 RECH.LADO A LADO MORANGO-30X115 GR                         000000017250000000018850000005CXS  0000000000570000000000000000
5093831013016003 RECH.LADO A LADO CHO.BRANCO-30X115                         000000017250000000018850000005CXS  0000000000570000000000000000
5093831013027001 RECH.BOB ESPONJA CHOCOLATE-30X115G                         000000003450000000003950000001CXS  0000000000163900000000000000
5093831013027002 RECH.BOB ESPONJA MORANGO-30X115 GR                         000000003400000000003950000001CXS  0000000000163900000000000000
5093831013027003 RECH.BOB ESPONJA DOCE LEITE-30X115                         000000003450000000003950000001CXS  0000000000163900000000000000
10938320370106MERC.JULIO JULIANO LTDA                 RUA PAVOA DE VARZIM, 16                 SAO PAULO/JD.MACEDONIA                  SP05894400059455808000106111.111.750.111     000VS MALVONI REPRESENT.S/(11) 69092040  
20938322202200522022005037010600003CAIXASMBF                                     .                                       .                                       E
5093832013016001 RECH.LADO A LADO CHOCOLATE-30X115G                         000000003450000000003770000001CXS  0000000000114000000000000000
5093832013016002 RECH.LADO A LADO MORANGO-30X115 GR                         000000003450000000003770000001CXS  0000000000114000000000000000
5093832013016003 RECH.LADO A LADO CHO.BRANCO-30X115                         000000003450000000003770000001CXS  0000000000114000000000000000
10938330091482RUBENS DE OLIVEIRA COSTA-ME             EST.MARIA IMACULADA, 417                EMBU/JD.SANTA CLARA                     SP06843010057073439000161298.024.740.116     000VS MALVONI REPRESENT.S/(11) 69092040  
20938332202200522022005009148200024CAIXASMBF                                     .                                       .                                       E
5093833013003001 HOBBY CHOCOLATE - 30X170 GRS.                              000000005100000000005460000001CXS  0000000000224400000000000000
5093833013003004 HOBBY CHOCOLATE BRANCO - 30X170 GR                         000000005100000000005460000001CXS  0000000000224400000000000000
5093833013004002 HOBBY NAPOLITANO - 30X170 GRS.                             000000005100000000005460000001CXS  0000000000224400000000000000
5093833013009001 RECHEADO CHOC/CHANTILLY - 30X140GR                         000000004200000000004570000001CXS  0000000000162300000000000000
5093833013009002 RECHEADO MORANGO/CHANTILLY-30X140G                         000000004200000000004570000001CXS  0000000000162300000000000000
5093833013009003 RECHEADO DOCE DE LEITE/COCO-30X140                         000000004200000000004570000001CXS  0000000000162300000000000000
5093833013009004 RECHEADO NAPOLITANO - 30X140 GRS                           000000004200000000004570000001CXS  0000000000162300000000000000
5093833013009005 RECHEADO FLORESTA NEGRA-30X140 GRS                         000000004200000000004570000001CXS  0000000000162300000000000000
5093833013010001 TORTITA CHOCOLATE - 30X140 GRS                             000000004200000000004510000001CXS  0000000000199600000000000000
5093833013010002 TORTITA CHOCOLATE BRANCO 30X140 GR                         000000004200000000004510000001CXS  0000000000199600000000000000
5093833013011002 TORTITA CHOC.BCO/CHOC.LEITE 30X140                         000000004200000000004510000001CXS  0000000000199600000000000000
5093833013016001 RECH.LADO A LADO CHOCOLATE-30X115G                         000000013800000000015080000004CXS  0000000000453200000000000000
5093833013016002 RECH.LADO A LADO MORANGO-30X115 GR                         000000013800000000015080000004CXS  0000000000453200000000000000
5093833013016003 RECH.LADO A LADO CHO.BRANCO-30X115                         000000013800000000015080000004CXS  0000000000453200000000000000
5093833013025001 RECHEADO BRIGADEIRO - 30X120 GRS                           000000003600000000003890000001CXS  0000000000167700000000000000
10938340034461T.F.MIRANDA MERCADO--ME                 AV.MARANHAO, 235                        ITAPECERICA DA SERRA/PARQUE PARAISO     SP06852090006263725000159370.115.236.110     000VS MALVONI REPRESENT.S/(11) 69092040  
20938342202200522022005003446100040CAIXASMBF                                     .                                       .                                       E
5093834013016001 RECH.LADO A LADO CHOCOLATE-30X115G                         000000069000000000075400000020CXS  0000000002280000000000000000
5093834013016002 RECH.LADO A LADO MORANGO-30X115 GR                         000000034500000000037700000010CXS  0000000001140000000000000000
5093834013016003 RECH.LADO A LADO CHO.BRANCO-30X115                         000000034500000000037700000010CXS  0000000001140000000000000000
10938350034461T.F.MIRANDA MERCADO--ME                 AV.MARANHAO, 235                        ITAPECERICA DA SERRA/PARQUE PARAISO     SP06852090006263725000159370.115.236.110     000VS MALVONI REPRESENT.S/(11) 69092040  
20938352202200522022005003446100006CAIXASMBF                                     .                                       .                                       E
5093835013016001 RECH.LADO A LADO CHOCOLATE-30X115G                         000000006900000000007540000002CXS  0000000000228000000000000000
5093835013016002 RECH.LADO A LADO MORANGO-30X115 GR                         000000006900000000007540000002CXS  0000000000228000000000000000
5093835013016003 RECH.LADO A LADO CHO.BRANCO-30X115                         000000006900000000007540000002CXS  0000000000228000000000000000
10938360032664MOTA RODRIGUES SUPER.LTDA               AV. JULIO BUONO, 1300                   SAO PAULO/VL.GUSTAVO                    SP02201000004161217000134116.028.062.114     000VS MALVONI REPRESENT.S/(11) 69092040  
20938362202200522022005003266400030CAIXASMBF                                     .                                       .                                       E
5093836013003001 HOBBY CHOCOLATE - 30X170 GRS.                              000000010200000000010920000002CXS  0000000000438000000000000000
5093836013009001 RECHEADO CHOC/CHANTILLY - 30X140GR                         000000021000000000022850000005CXS  0000000000787000000000000000
5093836013009002 RECHEADO MORANGO/CHANTILLY-30X140G                         000000008400000000009140000002CXS  0000000000314800000000000000
5093836013009003 RECHEADO DOCE DE LEITE/COCO-30X140                         000000008400000000009140000002CXS  0000000000314800000000000000
5093836013009004 RECHEADO NAPOLITANO - 30X140 GRS                           000000021000000000022850000005CXS  0000000000787000000000000000
5093836013009005 RECHEADO FLORESTA NEGRA-30X140 GRS                         000000021000000000022850000005CXS  0000000000787000000000000000
5093836013010001 TORTITA CHOCOLATE - 30X140 GRS                             000000008400000000009020000002CXS  0000000000379200000000000000
5093836013011001 TORTITA MORANGO/CHANTILLY-30X140GR                         000000021000000000022550000005CXS  0000000000948000000000000000
5093836013011002 TORTITA CHOC.BCO/CHOC.LEITE 30X140                         000000008400000000009020000002CXS  0000000000379200000000000000
10938370090399MOTA SUPER.LTDA                         RUA ANTENOR NAVARRO, 299-A              SAO PAULO/JD.BRASIL                     SP02224000057669418000103108.420.472.119     000VS MALVONI REPRESENT.S/(11) 69092040  
20938372202200522022005009039900020CAIXASMBF                                     .                                       .                                       E
5093837013003001 HOBBY CHOCOLATE - 30X170 GRS.                              000000015300000000016380000003CXS  0000000000657000000000000000
5093837013003002 HOBBY MORANGO - 30X170 GRS.                                000000005100000000005460000001CXS  0000000000219000000000000000
5093837013003003 HOBBY COCO - 30X170 GRS.                                   000000005100000000005460000001CXS  0000000000219000000000000000
5093837013003004 HOBBY CHOCOLATE BRANCO - 30X170 GR                         000000010200000000010920000002CXS  0000000000438000000000000000
5093837013004001 HOBBY CHOC./CHANTILLY - 30X170 GRS                         000000010200000000010920000002CXS  0000000000438000000000000000
5093837013004002 HOBBY NAPOLITANO - 30X170 GRS.                             000000010200000000010920000002CXS  0000000000438000000000000000
5093837013009001 RECHEADO CHOC/CHANTILLY - 30X140GR                         000000012600000000013710000003CXS  0000000000472200000000000000
5093837013009003 RECHEADO DOCE DE LEITE/COCO-30X140                         000000008400000000009140000002CXS  0000000000314800000000000000
5093837013009004 RECHEADO NAPOLITANO - 30X140 GRS                           000000008400000000009140000002CXS  0000000000314800000000000000
5093837013011001 TORTITA MORANGO/CHANTILLY-30X140GR                         000000004200000000004510000001CXS  0000000000189600000000000000
5093837013011002 TORTITA CHOC.BCO/CHOC.LEITE 30X140                         000000004200000000004510000001CXS  0000000000189600000000000000
10938380031654MINIMERCADO KILOKALIENTE LTDA           AV. ARMANDO BEI 1575                    GUARULHOS/GUARULHOS                     SP07175500064021371000132336.308.434.119     000VS MALVONI REPRESENT.S/(11) 69092040  
20938382202200522022005003165400045CAIXASMBF                                     .                                       .                                       E
5093838013003001 HOBBY CHOCOLATE - 30X170 GRS.                              000000010200000000010920000002CXS  0000000000448800000000000000
5093838013004001 HOBBY CHOC./CHANTILLY - 30X170 GRS                         000000010200000000010920000002CXS  0000000000448800000000000000
5093838013004002 HOBBY NAPOLITANO - 30X170 GRS.                             000000010200000000010920000002CXS  0000000000448800000000000000
5093838013009001 RECHEADO CHOC/CHANTILLY - 30X140GR                         000000008400000000009140000002CXS  0000000000324600000000000000
5093838013009002 RECHEADO MORANGO/CHANTILLY-30X140G                         000000004200000000004570000001CXS  0000000000162300000000000000
5093838013009005 RECHEADO FLORESTA NEGRA-30X140 GRS                         000000008400000000009140000002CXS  0000000000324600000000000000
5093838013010001 TORTITA CHOCOLATE - 30X140 GRS                             000000012600000000013530000003CXS  0000000000486000000000000000
5093838013010002 TORTITA CHOCOLATE BRANCO 30X140 GR                         000000008400000000009020000002CXS  0000000000324000000000000000
5093838013011002 TORTITA CHOC.BCO/CHOC.LEITE 30X140                         000000008400000000009020000002CXS  0000000000324000000000000000
5093838013016001 RECH.LADO A LADO CHOCOLATE-30X115G                         000000034500000000037700000010CXS  0000000001133000000000000000
5093838013016002 RECH.LADO A LADO MORANGO-30X115 GR                         000000017250000000018850000005CXS  0000000000566500000000000000
5093838013016003 RECH.LADO A LADO CHO.BRANCO-30X115                         000000017250000000018850000005CXS  0000000000566500000000000000
5093838013027001 RECH.BOB ESPONJA CHOCOLATE-30X115G                         000000010350000000011850000003CXS  0000000000507000000000000000
5093838013027002 RECH.BOB ESPONJA MORANGO-30X115 GR                         000000006800000000007900000002CXS  0000000000338000000000000000
5093838013027003 RECH.BOB ESPONJA DOCE LEITE-30X115                         000000006900000000007900000002CXS  0000000000338000000000000000
10938390031654MINIMERCADO KILOKALIENTE LTDA           AV. ARMANDO BEI 1575                    GUARULHOS/GUARULHOS                     SP07175500064021371000132336.308.434.119     000VS MALVONI REPRESENT.S/(11) 69092040  
20938392202200522022005003165400003CAIXASMBF                                     .                                       .                                       E
5093839013016002 RECH.LADO A LADO MORANGO-30X115 GR                         000000006900000000007540000002CXS  0000000000226600000000000000
5093839013016003 RECH.LADO A LADO CHO.BRANCO-30X115                         000000003450000000003770000001CXS  0000000000113300000000000000
10938400092362MANUEL CARLOS JORGE PONTES-EPP          RUA FLOR DA SERRA, 78                   GUARULHOS/VILA CARMELA                  SP07178360003826944000100336.645.040.111     000VS MALVONI REPRESENT.S/(11) 69092040  
20938402202200522022005009236200059CAIXASMBF                                     .                                       .                                       E
5093840013003001 HOBBY CHOCOLATE - 30X170 GRS.                              000000010200000000010920000002CXS  0000000000448800000000000000
5093840013003002 HOBBY MORANGO - 30X170 GRS.                                000000010200000000010920000002CXS  0000000000448800000000000000
5093840013004001 HOBBY CHOC./CHANTILLY - 30X170 GRS                         000000010200000000010920000002CXS  0000000000448800000000000000
5093840013004002 HOBBY NAPOLITANO - 30X170 GRS.                             000000010200000000010920000002CXS  0000000000448800000000000000
5093840013009001 RECHEADO CHOC/CHANTILLY - 30X140GR                         000000008400000000009140000002CXS  0000000000324600000000000000
5093840013009002 RECHEADO MORANGO/CHANTILLY-30X140G                         000000008400000000009140000002CXS  0000000000324600000000000000
5093840013009003 RECHEADO DOCE DE LEITE/COCO-30X140                         000000008400000000009140000002CXS  0000000000324600000000000000
5093840013009004 RECHEADO NAPOLITANO - 30X140 GRS                           000000008400000000009140000002CXS  0000000000324600000000000000
5093840013009005 RECHEADO FLORESTA NEGRA-30X140 GRS                         000000008400000000009140000002CXS  0000000000324600000000000000
5093840013010001 TORTITA CHOCOLATE - 30X140 GRS                             000000021000000000022550000005CXS  0000000000810000000000000000
5093840013010002 TORTITA CHOCOLATE BRANCO 30X140 GR                         000000012600000000013530000003CXS  0000000000486000000000000000
5093840013011001 TORTITA MORANGO/CHANTILLY-30X140GR                         000000008400000000009020000002CXS  0000000000324000000000000000
5093840013011002 TORTITA CHOC.BCO/CHOC.LEITE 30X140                         000000016800000000018040000004CXS  0000000000648000000000000000
5093840013016001 RECH.LADO A LADO CHOCOLATE-30X115G                         000000034500000000037700000010CXS  0000000001133000000000000000
5093840013016002 RECH.LADO A LADO MORANGO-30X115 GR                         000000017250000000018850000005CXS  0000000000566500000000000000
5093840013016003 RECH.LADO A LADO CHO.BRANCO-30X115                         000000017250000000018850000005CXS  0000000000566500000000000000
5093840013027001 RECH.BOB ESPONJA CHOCOLATE-30X115G                         000000010350000000011850000003CXS  0000000000507000000000000000
5093840013027002 RECH.BOB ESPONJA MORANGO-30X115 GR                         000000006800000000007900000002CXS  0000000000338000000000000000
5093840013027003 RECH.BOB ESPONJA DOCE LEITE-30X115                         000000006900000000007900000002CXS  0000000000338000000000000000
10938410092362MANUEL CARLOS JORGE PONTES-EPP          RUA FLOR DA SERRA, 78                   GUARULHOS/VILA CARMELA                  SP07178360003826944000100336.645.040.111     000VS MALVONI REPRESENT.S/(11) 69092040  
20938412202200522022005009236200003CAIXASMBF                                     .                                       .                                       E
5093841013016002 RECH.LADO A LADO MORANGO-30X115 GR                         000000006900000000007540000002CXS  0000000000226600000000000000
5093841013016003 RECH.LADO A LADO CHO.BRANCO-30X115                         000000003450000000003770000001CXS  0000000000113300000000000000
10938420033891EMPORIO,MERC.VERA CRUZ LTDA             AV.SARGENTO IRACITAM COIMBRA,105        SAO PAULO/ J V CRUZ                     SP08310580043795046000157109.071.764.117     000VS MALVONI REPRESENT.S/(11) 69092040  
20938422202200522022005003389100020CAIXASMBF                                     .                                       .                                       E
5093842013009001 RECHEADO CHOC/CHANTILLY - 30X140GR                         000000012600000000013710000003CXS  0000000000486900000000000000
5093842013009002 RECHEADO MORANGO/CHANTILLY-30X140G                         000000008400000000009140000002CXS  0000000000324600000000000000
5093842013009003 RECHEADO DOCE DE LEITE/COCO-30X140                         000000008400000000009140000002CXS  0000000000324600000000000000
5093842013009004 RECHEADO NAPOLITANO - 30X140 GRS                           000000008400000000009140000002CXS  0000000000324600000000000000
5093842013009005 RECHEADO FLORESTA NEGRA-30X140 GRS                         000000008400000000009140000002CXS  0000000000324600000000000000
5093842013010002 TORTITA CHOCOLATE BRANCO 30X140 GR                         000000008400000000009020000002CXS  0000000000324000000000000000
5093842013011001 TORTITA MORANGO/CHANTILLY-30X140GR                         000000004200000000004510000001CXS  0000000000162000000000000000
5093842013011002 TORTITA CHOC.BCO/CHOC.LEITE 30X140                         000000008400000000009020000002CXS  0000000000324000000000000000
5093842013027001 RECH.BOB ESPONJA CHOCOLATE-30X115G                         000000006900000000007900000002CXS  0000000000327800000000000000
5093842013027002 RECH.BOB ESPONJA MORANGO-30X115 GR                         000000003400000000003950000001CXS  0000000000163900000000000000
5093842013027003 RECH.BOB ESPONJA DOCE LEITE-30X115                         000000003450000000003950000001CXS  0000000000163900000000000000
10937350034851SACOLAO GUAPITUBA COM.DE HORT.LT        AV.CAPITAO JOAO, 2775                   MAUA/GUAPITUBA                          SP09380000002473294000102442.111.426.116     000VS MALVONI REPRESENT.S/(11) 69092040  
20937352102200521022005003485100020CAIXASMBF                                     .                                       .                                       E
5093735013027001 RECH.BOB ESPONJA CHOCOLATE-30X115G                         000000034500000000039500000010CXS  0000000001651000000000000000
5093735013027002 RECH.BOB ESPONJA MORANGO-30X115 GR                         000000017000000000019750000005CXS  0000000000825500000000000000
5093735013027003 RECH.BOB ESPONJA DOCE LEITE-30X115                         000000017250000000019750000005CXS  0000000000825500000000000000
10937370031502YOSHIE COM.GEN.ALIMENT.LTDA             RUA. ALBERTO DE MACEDO 231              SAO PAULO/JD. SANTA ADELIA              SP03973000038911483000159108.163.665.110     000VS MALVONI REPRESENT.S/(11) 69092040  
20937372102200521022005003150200031CAIXASMBF                                     .                                       .                                       E
5093737013003001 HOBBY CHOCOLATE - 30X170 GRS.                              000000010200000000010920000002CXS  0000000000418800000000000000
5093737013003004 HOBBY CHOCOLATE BRANCO - 30X170 GR                         000000010200000000010920000002CXS  0000000000418800000000000000
5093737013004001 HOBBY CHOC./CHANTILLY - 30X170 GRS                         000000005100000000005460000001CXS  0000000000209400000000000000
5093737013004002 HOBBY NAPOLITANO - 30X170 GRS.                             000000005100000000005460000001CXS  0000000000209400000000000000
5093737013010001 TORTITA CHOCOLATE - 30X140 GRS                             000000021000000000022550000005CXS  0000000000810000000000000000
5093737013010002 TORTITA CHOCOLATE BRANCO 30X140 GR                         000000012600000000013530000003CXS  0000000000486000000000000000
5093737013010003 TORTITA MORANGO - 30X140 GRS                               000000012600000000013530000003CXS  0000000000486000000000000000
5093737013010004 TORTITA BRIGADEIRO - 30X140 GRS                            000000021000000000022550000005CXS  0000000000810000000000000000
5093737013011001 TORTITA MORANGO/CHANTILLY-30X140GR                         000000008400000000009020000002CXS  0000000000324000000000000000
5093737013011002 TORTITA CHOC.BCO/CHOC.LEITE 30X140                         000000008400000000009020000002CXS  0000000000324000000000000000
5093737013027001 RECH.BOB ESPONJA CHOCOLATE-30X115G                         000000006900000000007900000002CXS  0000000000327800000000000000
5093737013027002 RECH.BOB ESPONJA MORANGO-30X115 GR                         000000006800000000007900000002CXS  0000000000327800000000000000
5093737013027003 RECH.BOB ESPONJA DOCE LEITE-30X115                         000000003450000000003950000001CXS  0000000000163900000000000000
10937380091354DANNY CIAL ALIM.LTDA                    PCA.QUATORZE BIS, 26                    SAO PAULO/BELA VISTA                    SP01312010003374306000104115.589.159.112     000VS MALVONI REPRESENT.S/(11) 69092040  
20937382102200521022005009135400039CAIXASMBF                                     .                                       .                                       E
5093738013003001 HOBBY CHOCOLATE - 30X170 GRS.                              000000015300000000016380000003CXS  0000000000653100000000000000
5093738013003002 HOBBY MORANGO - 30X170 GRS.                                000000010200000000010920000002CXS  0000000000435400000000000000
5093738013003003 HOBBY COCO - 30X170 GRS.                                   000000010200000000010920000002CXS  0000000000435400000000000000
5093738013003004 HOBBY CHOCOLATE BRANCO - 30X170 GR                         000000005100000000005460000001CXS  0000000000217700000000000000
5093738013004001 HOBBY CHOC./CHANTILLY - 30X170 GRS                         000000010200000000010920000002CXS  0000000000435400000000000000
5093738013004002 HOBBY NAPOLITANO - 30X170 GRS.                             000000010200000000010920000002CXS  0000000000435400000000000000
5093738013010001 TORTITA CHOCOLATE - 30X140 GRS                             000000012600000000013530000003CXS  0000000000486000000000000000
5093738013010002 TORTITA CHOCOLATE BRANCO 30X140 GR                         000000008400000000009020000002CXS  0000000000324000000000000000
5093738013010004 TORTITA BRIGADEIRO - 30X140 GRS                            000000021000000000022550000005CXS  0000000000810000000000000000
5093738013011002 TORTITA CHOC.BCO/CHOC.LEITE 30X140                         000000012600000000013530000003CXS  0000000000486000000000000000
5093738013016002 RECH.LADO A LADO MORANGO-30X115 GR                         000000020700000000022620000006CXS  0000000000679800000000000000
5093738013016003 RECH.LADO A LADO CHO.BRANCO-30X115                         000000020700000000022620000006CXS  0000000000679800000000000000
5093738013025001 RECHEADO BRIGADEIRO - 30X120 GRS                           000000007200000000007780000002CXS  0000000000325400000000000000
10937390091354DANNY CIAL ALIM.LTDA                    PCA.QUATORZE BIS, 26                    SAO PAULO/BELA VISTA                    SP01312010003374306000104115.589.159.112     000VS MALVONI REPRESENT.S/(11) 69092040  
20937392102200521022005009135400002CAIXASMBF                                     .                                       .                                       E
5093739013016002 RECH.LADO A LADO MORANGO-30X115 GR                         000000003450000000003770000001CXS  0000000000113300000000000000
5093739013016003 RECH.LADO A LADO CHO.BRANCO-30X115                         000000003450000000003770000001CXS  0000000000113300000000000000
10937400034367MERCADINHO DE VILLE LTDA-ME             R.BENEDITO V.RIBEIRO, 367               GUARULHOS/J.N.CUMBUCI                   SP07232010000804459000148336.413.511.118     000VS MALVONI REPRESENT.S/(11) 69092040  
20937402102200521022005003436700080CAIXASMBF                                     .                                       .                                       E
5093740013010002 TORTITA CHOCOLATE BRANCO 30X140 GR                         000000042000000000045100000010CXS  0000000001620000000000000000
5093740013010003 TORTITA MORANGO - 30X140 GRS                               000000025200000000027060000006CXS  0000000000972000000000000000
5093740013010004 TORTITA BRIGADEIRO - 30X140 GRS                            000000058800000000063140000014CXS  0000000002268000000000000000
5093740013011002 TORTITA CHOC.BCO/CHOC.LEITE 30X140                         000000042000000000045100000010CXS  0000000001620000000000000000
5093740013016002 RECH.LADO A LADO MORANGO-30X115 GR                         000000034500000000037700000010CXS  0000000001133000000000000000
5093740013016003 RECH.LADO A LADO CHO.BRANCO-30X115                         000000069000000000075400000020CXS  0000000002266000000000000000
5093740013027001 RECH.BOB ESPONJA CHOCOLATE-30X115G                         000000017250000000019750000005CXS  0000000000845000000000000000
5093740013027002 RECH.BOB ESPONJA MORANGO-30X115 GR                         000000010200000000011850000003CXS  0000000000507000000000000000
5093740013027003 RECH.BOB ESPONJA DOCE LEITE-30X115                         000000006900000000007900000002CXS  0000000000338000000000000000
10937410034367MERCADINHO DE VILLE LTDA-ME             R.BENEDITO V.RIBEIRO, 367               GUARULHOS/J.N.CUMBUCI                   SP07232010000804459000148336.413.511.118     000VS MALVONI REPRESENT.S/(11) 69092040  
20937412102200521022005003436700006CAIXASMBF                                     .                                       .                                       E
5093741013016002 RECH.LADO A LADO MORANGO-30X115 GR                         000000010350000000011310000003CXS  0000000000339900000000000000
5093741013016003 RECH.LADO A LADO CHO.BRANCO-30X115                         000000010350000000011310000003CXS  0000000000339900000000000000
10937420034659MERCEARIA BEIJA FLOR DO POVO LTD        RUA VERMELINO C.DOS SANTOS, 106         ITAPEVI/JARDIM MARISTELA                SP06663180055210371000190373.104.449.110     000VS MALVONI REPRESENT.S/(11) 69092040  
20937422102200521022005003465900013CAIXASMBF                                     .                                       .                                       E
5093742013003001 HOBBY CHOCOLATE - 30X170 GRS.                              000000010200000000010920000002CXS  0000000000450000000000000000
5093742013003002 HOBBY MORANGO - 30X170 GRS.                                000000005100000000005460000001CXS  0000000000225000000000000000
5093742013004001 HOBBY CHOC./CHANTILLY - 30X170 GRS                         000000005100000000005460000001CXS  0000000000225000000000000000
5093742013004002 HOBBY NAPOLITANO - 30X170 GRS.                             000000005100000000005460000001CXS  0000000000225000000000000000
5093742013010001 TORTITA CHOCOLATE - 30X140 GRS                             000000004200000000004510000001CXS  0000000000180000000000000000
5093742013010002 TORTITA CHOCOLATE BRANCO 30X140 GR                         000000004200000000004510000001CXS  0000000000180000000000000000
5093742013010003 TORTITA MORANGO - 30X140 GRS                               000000004200000000004510000001CXS  0000000000180000000000000000
5093742013010004 TORTITA BRIGADEIRO - 30X140 GRS                            000000012600000000013530000003CXS  0000000000540000000000000000
5093742013011001 TORTITA MORANGO/CHANTILLY-30X140GR                         000000004200000000004510000001CXS  0000000000180000000000000000
5093742013011002 TORTITA CHOC.BCO/CHOC.LEITE 30X140                         000000004200000000004510000001CXS  0000000000180000000000000000
10937430090593CIAL FURACAO DA ARMENIA LTDA            RUA PEDRO VICENTE, 137                  SAO PAULO/PONTE PEQUENA                 SP01109010001820006000178114.825.337.113     000VS MALVONI REPRESENT.S/(11) 69092040  
20937432102200521022005009059300030CAIXASMBF                                     .                                       .                                       E
5093743013016002 RECH.LADO A LADO MORANGO-30X115 GR                         000000051750000000056550000015CXS  0000000001699500000000000000
5093743013016003 RECH.LADO A LADO CHO.BRANCO-30X115                         000000051750000000056550000015CXS  0000000001699500000000000000
10937440270564PAES E DOCES AGUA AZUL LTDA             RUA LIDYA DE JESUS MENDONCA, 131        GUARULHOS/AGUA AZUL                     SP07159190002655428000106336.471.780.118     000VS MALVONI REPRESENT.S/(11) 69092040  
20937442102200521022005027056400020CAIXASMBF                                     .                                       .                                       E
5093744013003001 HOBBY CHOCOLATE - 30X170 GRS.                              000000005100000000005460000001CXS  0000000000217600000000000000
5093744013003002 HOBBY MORANGO - 30X170 GRS.                                000000005100000000005460000001CXS  0000000000217600000000000000
5093744013003004 HOBBY CHOCOLATE BRANCO - 30X170 GR                         000000005100000000005460000001CXS  0000000000217600000000000000
5093744013004001 HOBBY CHOC./CHANTILLY - 30X170 GRS                         000000005100000000005460000001CXS  0000000000217600000000000000
5093744013004002 HOBBY NAPOLITANO - 30X170 GRS.                             000000005100000000005460000001CXS  0000000000217600000000000000
5093744013009001 RECHEADO CHOC/CHANTILLY - 30X140GR                         000000004200000000004570000001CXS  0000000000157400000000000000
5093744013009002 RECHEADO MORANGO/CHANTILLY-30X140G                         000000004200000000004570000001CXS  0000000000157400000000000000
5093744013009003 RECHEADO DOCE DE LEITE/COCO-30X140                         000000004200000000004570000001CXS  0000000000157400000000000000
5093744013009004 RECHEADO NAPOLITANO - 30X140 GRS                           000000004200000000004570000001CXS  0000000000157400000000000000
5093744013009005 RECHEADO FLORESTA NEGRA-30X140 GRS                         000000004200000000004570000001CXS  0000000000157400000000000000
5093744013010001 TORTITA CHOCOLATE - 30X140 GRS                             000000004200000000004510000001CXS  0000000000189600000000000000
5093744013010002 TORTITA CHOCOLATE BRANCO 30X140 GR                         000000004200000000004510000001CXS  0000000000189600000000000000
5093744013010004 TORTITA BRIGADEIRO - 30X140 GRS                            000000004200000000004510000001CXS  0000000000189600000000000000
5093744013011002 TORTITA CHOC.BCO/CHOC.LEITE 30X140                         000000004200000000004510000001CXS  0000000000189600000000000000
5093744013025001 RECHEADO BRIGADEIRO - 30X120 GRS                           000000007200000000007780000002CXS  0000000000335400000000000000
5093744013027001 RECH.BOB ESPONJA CHOCOLATE-30X115G                         000000006900000000007900000002CXS  0000000000338000000000000000
5093744013027002 RECH.BOB ESPONJA MORANGO-30X115 GR                         000000003400000000003950000001CXS  0000000000169000000000000000
5093744013027003 RECH.BOB ESPONJA DOCE LEITE-30X115                         000000003450000000003950000001CXS  0000000000169000000000000000
10937450270564PAES E DOCES AGUA AZUL LTDA             RUA LIDYA DE JESUS MENDONCA, 131        GUARULHOS/AGUA AZUL                     SP07159190002655428000106336.471.780.118     000VS MALVONI REPRESENT.S/(11) 69092040  
20937452102200521022005027056400002CAIXASMBF                                     .                                       .                                       E
5093745013009001 RECHEADO CHOC/CHANTILLY - 30X140GR                         000000004200000000004570000001CXS  0000000000157400000000000000
5093745013009002 RECHEADO MORANGO/CHANTILLY-30X140G                         000000004200000000004570000001CXS  0000000000157400000000000000
10937460032727SACOLAO CITY LTDA-ME                    R.CACHOEIRA, 3499                       GUARULHOS/JD.CITY                       SP07082520004811954000135336.682.266.113     000VS MALVONI REPRESENT.S/(11) 69092040  
20937462102200521022005003272700014CAIXASMBF                                     .                                       .                                       E
5093746013006001 RECH.FLORINI CHOCOLATE - 30X140 GR                         000000008400000000009100000002CXS  0000000000306000000000000000
5093746013006003 RECH.FLORINI CHOC.BRANCO-30X140GRS                         000000004200000000004550000001CXS  0000000000153000000000000000
5093746013006004 RECH.FLORINI FRAMBOESA - 30X140 GR                         000000004200000000004600000001CXS  0000000000153000000000000000
5093746013009001 RECHEADO CHOC/CHANTILLY - 30X140GR                         000000004200000000004570000001CXS  0000000000162300000000000000
5093746013010001 TORTITA CHOCOLATE - 30X140 GRS                             000000004200000000004510000001CXS  0000000000199600000000000000
5093746013010004 TORTITA BRIGADEIRO - 30X140 GRS                            000000004200000000004510000001CXS  0000000000199600000000000000
5093746013016002 RECH.LADO A LADO MORANGO-30X115 GR                         000000006900000000007540000002CXS  0000000000230000000000000000
5093746013016003 RECH.LADO A LADO CHO.BRANCO-30X115                         000000006900000000007540000002CXS  0000000000230000000000000000
5093746013027001 RECH.BOB ESPONJA CHOCOLATE-30X115G                         000000003450000000003950000001CXS  0000000000169000000000000000
5093746013027002 RECH.BOB ESPONJA MORANGO-30X115 GR                         000000003400000000003950000001CXS  0000000000169000000000000000
5093746013027003 RECH.BOB ESPONJA DOCE LEITE-30X115                         000000003450000000003950000001CXS  0000000000169000000000000000
10937470030231GEDALVA DOS SANTOS PEREIRA-ME           RUA ZECA  N 197                         BARUERI/ENGENHO NOVO                    SP06416210068212034000183206.059.286.118     000VS MALVONI REPRESENT.S/(11) 69092040  
20937472102200521022005003023100021CAIXASMBF                                     .                                       .                                       E
5093747013003001 HOBBY CHOCOLATE - 30X170 GRS.                              000000005100000000005460000001CXS  0000000000225000000000000000
5093747013003002 HOBBY MORANGO - 30X170 GRS.                                000000005100000000005460000001CXS  0000000000225000000000000000
5093747013004001 HOBBY CHOC./CHANTILLY - 30X170 GRS                         000000005100000000005460000001CXS  0000000000225000000000000000
5093747013004002 HOBBY NAPOLITANO - 30X170 GRS.                             000000005100000000005460000001CXS  0000000000225000000000000000
5093747013009001 RECHEADO CHOC/CHANTILLY - 30X140GR                         000000004200000000004570000001CXS  0000000000162400000000000000
5093747013009002 RECHEADO MORANGO/CHANTILLY-30X140G                         000000004200000000004570000001CXS  0000000000162400000000000000
5093747013009003 RECHEADO DOCE DE LEITE/COCO-30X140                         000000004200000000004570000001CXS  0000000000162400000000000000
5093747013009004 RECHEADO NAPOLITANO - 30X140 GRS                           000000004200000000004570000001CXS  0000000000162400000000000000
5093747013009005 RECHEADO FLORESTA NEGRA-30X140 GRS                         000000004200000000004570000001CXS  0000000000162400000000000000
5093747013010001 TORTITA CHOCOLATE - 30X140 GRS                             000000004200000000004510000001CXS  0000000000181000000000000000
5093747013010002 TORTITA CHOCOLATE BRANCO 30X140 GR                         000000008400000000009020000002CXS  0000000000362000000000000000
5093747013010004 TORTITA BRIGADEIRO - 30X140 GRS                            000000008400000000009020000002CXS  0000000000362000000000000000
5093747013011002 TORTITA CHOC.BCO/CHOC.LEITE 30X140                         000000008400000000009020000002CXS  0000000000362000000000000000
5093747013016002 RECH.LADO A LADO MORANGO-30X115 GR                         000000006900000000007540000002CXS  0000000000228000000000000000
5093747013016003 RECH.LADO A LADO CHO.BRANCO-30X115                         000000010350000000011310000003CXS  0000000000342000000000000000
10937480030231GEDALVA DOS SANTOS PEREIRA-ME           RUA ZECA  N 197                         BARUERI/ENGENHO NOVO                    SP06416210068212034000183206.059.286.118     000VS MALVONI REPRESENT.S/(11) 69092040  
20937482102200521022005003023100001CAIXASMBF                                     .                                       .                                       E
5093748013010001 TORTITA CHOCOLATE - 30X140 GRS                             000000004200000000004510000001CXS  0000000000181000000000000000
10937490032379MERC.FATURAO DE ITAPEVI LTDA-ME         AV.JOSE CHALUPPE, 441                   SAO PAULO/JD MARINA                     SP06660460005284342000102373.100.150.110     000VS MALVONI REPRESENT.S/(11) 69092040  
20937492102200521022005003237900006CAIXASMBF                                     .                                       .                                       E
5093749013009001 RECHEADO CHOC/CHANTILLY - 30X140GR                         000000008400000000009140000002CXS  0000000000315000000000000000
5093749013009002 RECHEADO MORANGO/CHANTILLY-30X140G                         000000008400000000009140000002CXS  0000000000315000000000000000
5093749013009004 RECHEADO NAPOLITANO - 30X140 GRS                           000000008400000000009140000002CXS  0000000000315000000000000000
10937500090603SUPER.JAPAO LTDA                        AV.JOAO DE ANDRADE, 1.113               OSASCO/JD.SANTO ANTONIO                 SP06132000048595219000107492.052.177.112     000VS MALVONI REPRESENT.S/(11) 69092040  
20937502102200521022005009060300030CAIXASMBF                                     .                                       .                                       E
5093750013009001 RECHEADO CHOC/CHANTILLY - 30X140GR                         000000126000000000137100000030CXS  0000000004581000000000000000
10937510032543FAESI CIAL LTDA-ME                      AV.IARA, 399/407                        OSASCO/VILA YARA                        SP06058115005424744000157492.458.076.114     000VS MALVONI REPRESENT.S/(11) 69092040  
20937512102200521022005003254300250CAIXASMBF                                     .                                       .                                       E
5093751013010001 TORTITA CHOCOLATE - 30X140 GRS                             000000252000000000270600000060CXS  0000000009720000000000000000
5093751013010002 TORTITA CHOCOLATE BRANCO 30X140 GR                         000000210000000000225500000050CXS  0000000008100000000000000000
5093751013010004 TORTITA BRIGADEIRO - 30X140 GRS                            000000336000000000360800000080CXS  0000000012960000000000000000
5093751013011002 TORTITA CHOC.BCO/CHOC.LEITE 30X140                         000000252000000000270600000060CXS  0000000009720000000000000000
10937520090940LUIZ FERNANDO DA SILVA                  RUA DIOGENES RIBEIRO DE LIMA,300        BARUERI/JD.BELVAL                       SP06420250064807498000181206.047.288.115     000VS MALVONI REPRESENT.S/(11) 69092040  
20937522102200521022005009094000210CAIXASMBF                                     .                                       .                                       E
5093752013003001 HOBBY CHOCOLATE - 30X170 GRS.                              000000051000000000054600000010CXS  0000000002260000000000000000
5093752013003002 HOBBY MORANGO - 30X170 GRS.                                000000051000000000054600000010CXS  0000000002260000000000000000
5093752013004001 HOBBY CHOC./CHANTILLY - 30X170 GRS                         000000051000000000054600000010CXS  0000000002260000000000000000
5093752013004002 HOBBY NAPOLITANO - 30X170 GRS.                             000000051000000000054600000010CXS  0000000002260000000000000000
5093752013006001 RECH.FLORINI CHOCOLATE - 30X140 GR                         000000042000000000045500000010CXS  0000000001423000000000000000
5093752013006003 RECH.FLORINI CHOC.BRANCO-30X140GRS                         000000042000000000045500000010CXS  0000000001423000000000000000
5093752013009001 RECHEADO CHOC/CHANTILLY - 30X140GR                         000000084000000000091400000020CXS  0000000003268000000000000000
5093752013009002 RECHEADO MORANGO/CHANTILLY-30X140G                         000000042000000000045700000010CXS  0000000001634000000000000000
5093752013009003 RECHEADO DOCE DE LEITE/COCO-30X140                         000000042000000000045700000010CXS  0000000001634000000000000000
5093752013009004 RECHEADO NAPOLITANO - 30X140 GRS                           000000042000000000045700000010CXS  0000000001634000000000000000
5093752013009005 RECHEADO FLORESTA NEGRA-30X140 GRS                         000000084000000000091400000020CXS  0000000003268000000000000000
5093752013010001 TORTITA CHOCOLATE - 30X140 GRS                             000000042000000000045100000010CXS  0000000001620000000000000000
5093752013010002 TORTITA CHOCOLATE BRANCO 30X140 GR                         000000042000000000045100000010CXS  0000000001620000000000000000
5093752013010004 TORTITA BRIGADEIRO - 30X140 GRS                            000000042000000000045100000010CXS  0000000001620000000000000000
5093752013011001 TORTITA MORANGO/CHANTILLY-30X140GR                         000000042000000000045100000010CXS  0000000001620000000000000000
5093752013011002 TORTITA CHOC.BCO/CHOC.LEITE 30X140                         000000042000000000045100000010CXS  0000000001620000000000000000
5093752013025001 RECHEADO BRIGADEIRO - 30X120 GRS                           000000054000000000058350000015CXS  0000000002520000000000000000
5093752013027001 RECH.BOB ESPONJA CHOCOLATE-30X115G                         000000024150000000027650000007CXS  0000000001141000000000000000
5093752013027002 RECH.BOB ESPONJA MORANGO-30X115 GR                         000000017000000000019750000005CXS  0000000000815000000000000000
5093752013027003 RECH.BOB ESPONJA DOCE LEITE-30X115                         000000010350000000011850000003CXS  0000000000489000000000000000
10937530090940LUIZ FERNANDO DA SILVA                  RUA DIOGENES RIBEIRO DE LIMA,300        BARUERI/JD.BELVAL                       SP06420250064807498000181206.047.288.115     000VS MALVONI REPRESENT.S/(11) 69092040  
20937532102200521022005009094000015CAIXASMBF                                     .                                       .                                       E
5093753013009001 RECHEADO CHOC/CHANTILLY - 30X140GR                         000000042000000000045700000010CXS  0000000001634000000000000000
5093753013009002 RECHEADO MORANGO/CHANTILLY-30X140G                         000000021000000000022850000005CXS  0000000000817000000000000000
10938430033778MOURAD & BACHIR COM.LTDA-EPP            R. MARECHAL DEODORO, 1640               SAO BERNARDO DO CAMPO/CENTRO            SP09710200003371102000101635.344.077.119     000REIMEX REPRESENTACOES L(11) 8327181   
20938432202200522022005003377800012CAIXASMBF                                     .                                       .                                       E
5093843013003001 HOBBY CHOCOLATE - 30X170 GRS.                              000000010200000000010920000002CXS  0000000000383200000000000000
5093843013003002 HOBBY MORANGO - 30X170 GRS.                                000000005100000000005460000001CXS  0000000000191600000000000000
5093843013003003 HOBBY COCO - 30X170 GRS.                                   000000005100000000005460000001CXS  0000000000191600000000000000
5093843013003004 HOBBY CHOCOLATE BRANCO - 30X170 GR                         000000005100000000005460000001CXS  0000000000191600000000000000
5093843013004001 HOBBY CHOC./CHANTILLY - 30X170 GRS                         000000010200000000010920000002CXS  0000000000383200000000000000
5093843013004002 HOBBY NAPOLITANO - 30X170 GRS.                             000000010200000000010920000002CXS  0000000000383200000000000000
5093843013010001 TORTITA CHOCOLATE - 30X140 GRS                             000000004200000000004510000001CXS  0000000000159200000000000000
5093843013011001 TORTITA MORANGO/CHANTILLY-30X140GR                         000000004200000000004510000001CXS  0000000000159200000000000000
5093843013011002 TORTITA CHOC.BCO/CHOC.LEITE 30X140                         000000004200000000004510000001CXS  0000000000159200000000000000
10938440033209IMBATIVEIS UTILIDADES LTDA              R. MARECHAL DEODORO, 388                SAO BERNARDO DO CAMPO/CENTRO            SP09710000006004882000140635.472.377.112     000REIMEX REPRESENTACOES L(11) 8327181   
20938442202200522022005003320900010CAIXASMBF                                     .                                       .                                       E
5093844013003001 HOBBY CHOCOLATE - 30X170 GRS.                              000000005100000000005460000001CXS  0000000000191600000000000000
5093844013009001 RECHEADO CHOC/CHANTILLY - 30X140GR                         000000004200000000004570000001CXS  0000000000143100000000000000
5093844013009002 RECHEADO MORANGO/CHANTILLY-30X140G                         000000004200000000004570000001CXS  0000000000143100000000000000
5093844013009003 RECHEADO DOCE DE LEITE/COCO-30X140                         000000004200000000004570000001CXS  0000000000143100000000000000
5093844013009004 RECHEADO NAPOLITANO - 30X140 GRS                           000000004200000000004570000001CXS  0000000000143100000000000000
5093844013009005 RECHEADO FLORESTA NEGRA-30X140 GRS                         000000004200000000004570000001CXS  0000000000143100000000000000
5093844013010001 TORTITA CHOCOLATE - 30X140 GRS                             000000004200000000004510000001CXS  0000000000159200000000000000
5093844013010002 TORTITA CHOCOLATE BRANCO 30X140 GR                         000000004200000000004510000001CXS  0000000000159200000000000000
5093844013011001 TORTITA MORANGO/CHANTILLY-30X140GR                         000000004200000000004510000001CXS  0000000000159200000000000000
5093844013011002 TORTITA CHOC.BCO/CHOC.LEITE 30X140                         000000004200000000004510000001CXS  0000000000159200000000000000
10938450033019JOSE AMARIO MAIA UTILIDADES-ME          R. MARECHAL DEODORO, 511                SAO BERNARDO DO CAMPO/CENTRO            SP09710010004722539000105635.335.218.115     000REIMEX REPRESENTACOES L(11) 8327181   
20938452202200522022005003301900025CAIXASMBF                                     .                                       .                                       E
5093845013003001 HOBBY CHOCOLATE - 30X170 GRS.                              000000015300000000016380000003CXS  0000000000558000000000000000
5093845013003003 HOBBY COCO - 30X170 GRS.                                   000000010200000000010920000002CXS  0000000000372000000000000000
5093845013003004 HOBBY CHOCOLATE BRANCO - 30X170 GR                         000000020400000000021840000004CXS  0000000000744000000000000000
5093845013004001 HOBBY CHOC./CHANTILLY - 30X170 GRS                         000000010200000000010920000002CXS  0000000000372000000000000000
5093845013004002 HOBBY NAPOLITANO - 30X170 GRS.                             000000010200000000010920000002CXS  0000000000372000000000000000
5093845013010001 TORTITA CHOCOLATE - 30X140 GRS                             000000008400000000009020000002CXS  0000000000309200000000000000
5093845013010002 TORTITA CHOCOLATE BRANCO 30X140 GR                         000000008400000000009020000002CXS  0000000000309200000000000000
5093845013011002 TORTITA CHOC.BCO/CHOC.LEITE 30X140                         000000008400000000009020000002CXS  0000000000309200000000000000
5093845013027001 RECH.BOB ESPONJA CHOCOLATE-30X115G                         000000006900000000007900000002CXS  0000000000260000000000000000
5093845013027002 RECH.BOB ESPONJA MORANGO-30X115 GR                         000000006800000000007900000002CXS  0000000000260000000000000000
5093845013027003 RECH.BOB ESPONJA DOCE LEITE-30X115                         000000006900000000007900000002CXS  0000000000260000000000000000
10938460032681MICHELE BARQ.DAMAS DIADEMA-ME           AV. BRASILIA, 155                       DIADEMA/JD. CAMPANARIO                  SP09931400003926178000156286.231.150.112     000REIMEX REPRESENTACOES L(11) 8327181   
20938462202200522022005003268100044CAIXASMBF                                     .                                       .                                       E
5093846013003001 HOBBY CHOCOLATE - 30X170 GRS.                              000000035700000000038220000007CXS  0000000001302000000000000000
5093846013004001 HOBBY CHOC./CHANTILLY - 30X170 GRS                         000000025500000000027300000005CXS  0000000000930000000000000000
5093846013004002 HOBBY NAPOLITANO - 30X170 GRS.                             000000025500000000027300000005CXS  0000000000930000000000000000
5093846013009001 RECHEADO CHOC/CHANTILLY - 30X140GR                         000000008400000000009140000002CXS  0000000000277800000000000000
5093846013009002 RECHEADO MORANGO/CHANTILLY-30X140G                         000000008400000000009140000002CXS  0000000000277800000000000000
5093846013010002 TORTITA CHOCOLATE BRANCO 30X140 GR                         000000008400000000009020000002CXS  0000000000309200000000000000
5093846013011002 TORTITA CHOC.BCO/CHOC.LEITE 30X140                         000000004200000000004510000001CXS  0000000000154600000000000000
5093846013027001 RECH.BOB ESPONJA CHOCOLATE-30X115G                         000000034500000000039500000010CXS  0000000001300000000000000000
5093846013027002 RECH.BOB ESPONJA MORANGO-30X115 GR                         000000034000000000039500000010CXS  0000000001300000000000000000
10938470000762CIAL DIPAPA LTDA                        RUA SILVA BUENO, 2.040                  SAO PAULO/IPIRANGA                      SP04208002068458017000120113.529.804.118     000REIMEX REPRESENTACOES L(11) 8327181   
20938472202200522022005000076200047CAIXASMBF                                     .                                       .                                       E
5093847013006001 RECH.FLORINI CHOCOLATE - 30X140 GR                         000000050400000000054600000012CXS  0000000001339000000000000000
5093847013006002 RECH.FLORINI MORANGO - 30X140 GRS.                         000000021000000000022750000005CXS  0000000000669500000000000000
5093847013006003 RECH.FLORINI CHOC.BRANCO-30X140GRS                         000000016800000000018200000004CXS  0000000000535600000000000000
5093847013006004 RECH.FLORINI FRAMBOESA - 30X140 GR                         000000025200000000027600000006CXS  0000000000803400000000000000
5093847013006005 RECH.FLORINI UVA AO CREME-30X140GR                         000000021000000000023000000005CXS  0000000000669500000000000000
5093847013009001 RECHEADO CHOC/CHANTILLY - 30X140GR                         000000042000000000045700000010CXS  0000000001431000000000000000
5093847013009004 RECHEADO NAPOLITANO - 30X140 GRS                           000000021000000000022850000005CXS  0000000000715500000000000000
10938480033653NIVALDIR MAGAZINE LTDA.                 R. MARECHAL DEODORO, 1337               SAO BERNARDO DO CAMPO/CENTRO            SP09710012051118289000189635.016.585.110     000REIMEX REPRESENTACOES L(11) 8327181   
20938482202200522022005003365300004CAIXASMBF                                     .                                       .                                       E
5093848013027001 RECH.BOB ESPONJA CHOCOLATE-30X115G                         000000006900000000007900000002CXS  0000000000260000000000000000
5093848013027002 RECH.BOB ESPONJA MORANGO-30X115 GR                         000000003400000000003950000001CXS  0000000000130000000000000000
5093848013027003 RECH.BOB ESPONJA DOCE LEITE-30X115                         000000003450000000003950000001CXS  0000000000130000000000000000
10938490033654SPENCER CIAL LTDA                       R. CORONEL OLIVEIRA LIMA, 457           SANTO ANDRE/CENTRO                      SP09010000067900738000186626.255.312.112     000REIMEX REPRESENTACOES L(11) 8327181   
20938492202200522022005003365400004CAIXASMBF                                     .                                       .                                       E
5093849013027001 RECH.BOB ESPONJA CHOCOLATE-30X115G                         000000006900000000007900000002CXS  0000000000260000000000000000
5093849013027002 RECH.BOB ESPONJA MORANGO-30X115 GR                         000000003400000000003950000001CXS  0000000000130000000000000000
5093849013027003 RECH.BOB ESPONJA DOCE LEITE-30X115                         000000003450000000003950000001CXS  0000000000130000000000000000
10938500032137NIVALDIR CIAL LTDA                      R. CORONEL OLIVEIRA LIMA, 355           SANTO ANDRE/CENTRO                      SP09010000096428529000180626.268.177.113     000REIMEX REPRESENTACOES L(11) 8327181   
20938502202200522022005003213700006CAIXASMBF                                     .                                       .                                       E
5093850013027001 RECH.BOB ESPONJA CHOCOLATE-30X115G                         000000010350000000011850000003CXS  0000000000390000000000000000
5093850013027002 RECH.BOB ESPONJA MORANGO-30X115 GR                         000000003400000000003950000001CXS  0000000000130000000000000000
