0047066774000502    J.MARINO IND.E COMERCIO S.A.            23022005
10935040034848MARIA SEVERINA MIYAKAWA-ME              RUA DR.VITAL BRASIL, 135                GUARULHOS/VILA NOVA CUMBICA             SP07231370006957442000107336.734.708.115     000VS MALVONI REPRESENT.S/(11) 69092040  
20935041702200520022005003484800013CAIXASMBF                                     .                                       .                                       E
5093504013003001 HOBBY CHOCOLATE - 30X170 GRS.                              000000005100000000005460000001CXS  0000000000224400000000000000
5093504013004001 HOBBY CHOC./CHANTILLY - 30X170 GRS                         000000005100000000005460000001CXS  0000000000224400000000000000
5093504013010001 TORTITA CHOCOLATE - 30X140 GRS                             000000008400000000009020000002CXS  0000000000359200000000000000
5093504013010002 TORTITA CHOCOLATE BRANCO 30X140 GR                         000000004200000000004510000001CXS  0000000000179600000000000000
5093504013011002 TORTITA CHOC.BCO/CHOC.LEITE 30X140                         000000004200000000004510000001CXS  0000000000179600000000000000
5093504013016001 RECH.LADO A LADO CHOCOLATE-30X115G                         000000010350000000011310000003CXS  0000000000345000000000000000
5093504013016002 RECH.LADO A LADO MORANGO-30X115 GR                         000000006900000000007540000002CXS  0000000000230000000000000000
5093504013016003 RECH.LADO A LADO CHO.BRANCO-30X115                         000000006900000000007540000002CXS  0000000000230000000000000000
10935050091956ROBERTO EDMUNDO CARVALHO-ME             RUA CEL.JOSE GLADIADOR, 217             SAO PAULO/MORRO DOCE                    SP05271000002212328000105114.914.784.111     000VS MALVONI REPRESENT.S/(11) 69092040  
20935051702200520022005009195600005CAIXASMBF                                     .                                       .                                       E
5093505013010001 TORTITA CHOCOLATE - 30X140 GRS                             000000008400000000009020000002CXS  0000000000379200000000000000
5093505013011002 TORTITA CHOC.BCO/CHOC.LEITE 30X140                         000000008400000000009020000002CXS  0000000000379200000000000000
5093505013025001 RECHEADO BRIGADEIRO - 30X120 GRS                           000000003600000000003890000001CXS  0000000000167700000000000000
10935060091956ROBERTO EDMUNDO CARVALHO-ME             RUA CEL.JOSE GLADIADOR, 217             SAO PAULO/MORRO DOCE                    SP05271000002212328000105114.914.784.111     000VS MALVONI REPRESENT.S/(11) 69092040  
20935061702200520022005009195600030CAIXASMBF                                     .                                       .                                       E
5093506013016001 RECH.LADO A LADO CHOCOLATE-30X115G                         000000051750000000056550000015CXS  0000000001699500000000000000
5093506013016002 RECH.LADO A LADO MORANGO-30X115 GR                         000000024150000000026390000007CXS  0000000000793100000000000000
5093506013016003 RECH.LADO A LADO CHO.BRANCO-30X115                         000000027600000000030160000008CXS  0000000000906400000000000000
10935070091956ROBERTO EDMUNDO CARVALHO-ME             RUA CEL.JOSE GLADIADOR, 217             SAO PAULO/MORRO DOCE                    SP05271000002212328000105114.914.784.111     000VS MALVONI REPRESENT.S/(11) 69092040  
20935071702200520022005009195600003CAIXASMBF                                     .                                       .                                       E
5093507013016001 RECH.LADO A LADO CHOCOLATE-30X115G                         000000010350000000011310000003CXS  0000000000339900000000000000
10935080034795J.E.C.DE MELLO MERC.ME                  RUA ESTEBAO BERNADI, 97                 SAO PAULO/JD.SETE DE SETEMBRO           SP04854220002719021000197115.051.380.110     000VS MALVONI REPRESENT.S/(11) 69092040  
20935081702200520022005003479500034CAIXASMBF                                     .                                       .                                       E
5093508013010001 TORTITA CHOCOLATE - 30X140 GRS                             000000016800000000018040000004CXS  0000000000720000000000000000
5093508013010002 TORTITA CHOCOLATE BRANCO 30X140 GR                         000000012600000000013530000003CXS  0000000000540000000000000000
5093508013011001 TORTITA MORANGO/CHANTILLY-30X140GR                         000000012600000000013530000003CXS  0000000000540000000000000000
5093508013011002 TORTITA CHOC.BCO/CHOC.LEITE 30X140                         000000016800000000018040000004CXS  0000000000720000000000000000
5093508013016001 RECH.LADO A LADO CHOCOLATE-30X115G                         000000051750000000056550000015CXS  0000000001725000000000000000
5093508013016002 RECH.LADO A LADO MORANGO-30X115 GR                         000000010350000000011310000003CXS  0000000000345000000000000000
5093508013016003 RECH.LADO A LADO CHO.BRANCO-30X115                         000000006900000000007540000002CXS  0000000000230000000000000000
10935090034795J.E.C.DE MELLO MERC.ME                  RUA ESTEBAO BERNADI, 97                 SAO PAULO/JD.SETE DE SETEMBRO           SP04854220002719021000197115.051.380.110     000VS MALVONI REPRESENT.S/(11) 69092040  
20935091702200520022005003479500005CAIXASMBF                                     .                                       .                                       E
5093509013010001 TORTITA CHOCOLATE - 30X140 GRS                             000000008400000000009020000002CXS  0000000000360000000000000000
5093509013016001 RECH.LADO A LADO CHOCOLATE-30X115G                         000000010350000000011310000003CXS  0000000000345000000000000000
10935100091244SUPER.HISSATUGU LTDA                    RUA OLIMPIA, 307                        SANTO ANDRE/CAMILOPOLIS                 SP09230500074547654000176626.254.185.118     000VS MALVONI REPRESENT.S/(11) 69092040  
20935101702200520022005009124400077CAIXASMBF                                     .                                       .                                       E
5093510013003001 HOBBY CHOCOLATE - 30X170 GRS.                              000000010200000000010920000002CXS  0000000000410200000000000000
5093510013003002 HOBBY MORANGO - 30X170 GRS.                                000000010200000000010920000002CXS  0000000000410200000000000000
5093510013003003 HOBBY COCO - 30X170 GRS.                                   000000010200000000010920000002CXS  0000000000410200000000000000
5093510013003004 HOBBY CHOCOLATE BRANCO - 30X170 GR                         000000010200000000010920000002CXS  0000000000410200000000000000
5093510013004001 HOBBY CHOC./CHANTILLY - 30X170 GRS                         000000010200000000010920000002CXS  0000000000410200000000000000
5093510013004002 HOBBY NAPOLITANO - 30X170 GRS.                             000000010200000000010920000002CXS  0000000000410200000000000000
5093510013006001 RECH.FLORINI CHOCOLATE - 30X140 GR                         000000021000000000022750000005CXS  0000000000695500000000000000
5093510013006002 RECH.FLORINI MORANGO - 30X140 GRS.                         000000021000000000022750000005CXS  0000000000695500000000000000
5093510013006003 RECH.FLORINI CHOC.BRANCO-30X140GRS                         000000021000000000022750000005CXS  0000000000695500000000000000
5093510013006005 RECH.FLORINI UVA AO CREME-30X140GR                         000000021000000000023000000005CXS  0000000000695500000000000000
5093510013009001 RECHEADO CHOC/CHANTILLY - 30X140GR                         000000021000000000022850000005CXS  0000000000759000000000000000
5093510013009002 RECHEADO MORANGO/CHANTILLY-30X140G                         000000021000000000022850000005CXS  0000000000759000000000000000
5093510013009003 RECHEADO DOCE DE LEITE/COCO-30X140                         000000021000000000022850000005CXS  0000000000759000000000000000
5093510013009004 RECHEADO NAPOLITANO - 30X140 GRS                           000000021000000000022850000005CXS  0000000000759000000000000000
5093510013009005 RECHEADO FLORESTA NEGRA-30X140 GRS                         000000021000000000022850000005CXS  0000000000759000000000000000
5093510013010001 TORTITA CHOCOLATE - 30X140 GRS                             000000021000000000022550000005CXS  0000000000898000000000000000
5093510013010002 TORTITA CHOCOLATE BRANCO 30X140 GR                         000000021000000000022550000005CXS  0000000000898000000000000000
5093510013011001 TORTITA MORANGO/CHANTILLY-30X140GR                         000000021000000000022550000005CXS  0000000000898000000000000000
5093510013011002 TORTITA CHOC.BCO/CHOC.LEITE 30X140                         000000021000000000022550000005CXS  0000000000898000000000000000
10935110091244SUPER.HISSATUGU LTDA                    RUA OLIMPIA, 307                        SANTO ANDRE/CAMILOPOLIS                 SP09230500074547654000176626.254.185.118     000VS MALVONI REPRESENT.S/(11) 69092040  
20935111702200520022005009124400002CAIXASMBF                                     .                                       .                                       E
5093511013010001 TORTITA CHOCOLATE - 30X140 GRS                             000000004200000000004510000001CXS  0000000000199600000000000000
5093511013011002 TORTITA CHOC.BCO/CHOC.LEITE 30X140                         000000004200000000004510000001CXS  0000000000199600000000000000
10935120034536SUPER.OURINHOS LTDA                     AV.CEL.SEZEFREDO FAGUNDES, 2698         SAO PAULO/JD.TREMEMBE                   SP02306004046951943000109109.237.741.112     000VS MALVONI REPRESENT.S/(11) 69092040  
20935121702200520022005003453600045CAIXASMBF                                     .                                       .                                       E
5093512013016001 RECH.LADO A LADO CHOCOLATE-30X115G                         000000051750000000056550000015CXS  0000000001939500000000000000
5093512013016002 RECH.LADO A LADO MORANGO-30X115 GR                         000000051750000000056550000015CXS  0000000001939500000000000000
5093512013016003 RECH.LADO A LADO CHO.BRANCO-30X115                         000000051750000000056550000015CXS  0000000001939500000000000000
10935130034536SUPER.OURINHOS LTDA                     AV.CEL.SEZEFREDO FAGUNDES, 2698         SAO PAULO/JD.TREMEMBE                   SP02306004046951943000109109.237.741.112     000VS MALVONI REPRESENT.S/(11) 69092040  
20935131702200520022005003453600006CAIXASMBF                                     .                                       .                                       E
5093513013016001 RECH.LADO A LADO CHOCOLATE-30X115G                         000000020700000000022620000006CXS  0000000000775800000000000000
10935140033695MERCADINHO FLA TAK LTDA-ME              R.JOAO CORREA DE CASTRO, 30             SAO PAULO/JD.BRASILIA                   SP02859020002699982000187115.256.559.119     000VS MALVONI REPRESENT.S/(11) 69092040  
20935141702200520022005003369500020CAIXASMBF                                     .                                       .                                       E
5093514013003001 HOBBY CHOCOLATE - 30X170 GRS.                              000000005100000000005460000001CXS  0000000000217600000000000000
5093514013003004 HOBBY CHOCOLATE BRANCO - 30X170 GR                         000000005100000000005460000001CXS  0000000000217600000000000000
5093514013004001 HOBBY CHOC./CHANTILLY - 30X170 GRS                         000000005100000000005460000001CXS  0000000000217600000000000000
5093514013009001 RECHEADO CHOC/CHANTILLY - 30X140GR                         000000008400000000009140000002CXS  0000000000314800000000000000
5093514013009002 RECHEADO MORANGO/CHANTILLY-30X140G                         000000008400000000009140000002CXS  0000000000314800000000000000
5093514013009003 RECHEADO DOCE DE LEITE/COCO-30X140                         000000008400000000009140000002CXS  0000000000314800000000000000
5093514013009004 RECHEADO NAPOLITANO - 30X140 GRS                           000000008400000000009140000002CXS  0000000000314800000000000000
5093514013009005 RECHEADO FLORESTA NEGRA-30X140 GRS                         000000008400000000009140000002CXS  0000000000314800000000000000
5093514013010001 TORTITA CHOCOLATE - 30X140 GRS                             000000008400000000009020000002CXS  0000000000379200000000000000
5093514013010002 TORTITA CHOCOLATE BRANCO 30X140 GR                         000000008400000000009020000002CXS  0000000000379200000000000000
5093514013011001 TORTITA MORANGO/CHANTILLY-30X140GR                         000000004200000000004510000001CXS  0000000000189600000000000000
5093514013011002 TORTITA CHOC.BCO/CHOC.LEITE 30X140                         000000008400000000009020000002CXS  0000000000379200000000000000
10935150091001WAL-MART BRASIL S/A                     ESTRADA DOS ALPES, 320                  BARUERI/JD.BELVAL                       SP06650000000063960000958373.030.134.119     000VDS DIRETAS - SAO PAULO               
20935151702200520022005009100100043CAIXASMBF                                     .                                       .                                       E
5093515013004001 HOBBY CHOC./CHANTILLY - 30X170 GRS                         000000045900000000049140000009CXS  0000000001886400000000000000
5093515013009001 RECHEADO CHOC/CHANTILLY - 30X140GR                         000000042000000000045700000010CXS  0000000001637000000000000000
5093515013009002 RECHEADO MORANGO/CHANTILLY-30X140G                         000000029400000000031990000007CXS  0000000001145900000000000000
5093515013009003 RECHEADO DOCE DE LEITE/COCO-30X140                         000000042000000000045700000010CXS  0000000001637000000000000000
5093515013009004 RECHEADO NAPOLITANO - 30X140 GRS                           000000029400000000031990000007CXS  0000000001145900000000000000
10935160090445BRASVENDING CIAL LTDA                   RUA SEBASTIAO BACH, 175                 SAO PAULO/VILA LEOPOLDINA               SP05304020001342499000188114.990.746.113     000LEBASI REPRESENTACOES L(11) 38515947  
20935161702200520022005009044500070CAIXASMBF                                     .                                       .                                       E
5093516013013004 RECHEADO ATREVIDOS - 30X60 GRS                             000000126000000000142800000070CXS  0000000005040000000000000000
10935170000032SORAIA DE SOUZA LIMA-ME                 RUA JOSE LOPES RODRIGUES, 780           SAO PAULO/ERM.MATARAZZO                 SP03810150060167095000164110.426.084.116     000JAIME FRANCISCO DAS DOR(11) 69014795  
20935171702200520022005000003200150CAIXASMBF                                     .                                       .                                       E
5093517013003001 HOBBY CHOCOLATE - 30X170 GRS.                              000000153000000000163800000030CXS  0000000005475000000000000000
5093517013003002 HOBBY MORANGO - 30X170 GRS.                                000000051000000000054600000010CXS  0000000001825000000000000000
5093517013003004 HOBBY CHOCOLATE BRANCO - 30X170 GR                         000000051000000000054600000010CXS  0000000001825000000000000000
5093517013004002 HOBBY NAPOLITANO - 30X170 GRS.                             000000102000000000109200000020CXS  0000000003650000000000000000
5093517013010001 TORTITA CHOCOLATE - 30X140 GRS                             000000168000000000180400000040CXS  0000000005896000000000000000
5093517013010002 TORTITA CHOCOLATE BRANCO 30X140 GR                         000000084000000000090200000020CXS  0000000002948000000000000000
5093517013025001 RECHEADO BRIGADEIRO - 30X120 GRS                           000000072000000000077800000020CXS  0000000002240000000000000000
10935180032110COM.DE DOCES DOCEMILA LTDA-ME           R.AMERICO SUGAI, 68                     SAO PAULO/VILA JACUI                    SP08060380005634321000161116.586.214.111     000JAIME FRANCISCO DAS DOR(11) 69014795  
20935181702200520022005003211000016CAIXASMBF                                     .                                       .                                       E
5093518013003001 HOBBY CHOCOLATE - 30X170 GRS.                              000000010200000000010920000002CXS  0000000000367200000000000000
5093518013003002 HOBBY MORANGO - 30X170 GRS.                                000000010200000000010920000002CXS  0000000000367200000000000000
5093518013003004 HOBBY CHOCOLATE BRANCO - 30X170 GR                         000000010200000000010920000002CXS  0000000000367200000000000000
5093518013004001 HOBBY CHOC./CHANTILLY - 30X170 GRS                         000000010200000000010920000002CXS  0000000000367200000000000000
5093518013004002 HOBBY NAPOLITANO - 30X170 GRS.                             000000010200000000010920000002CXS  0000000000367200000000000000
5093518013010001 TORTITA CHOCOLATE - 30X140 GRS                             000000008400000000009020000002CXS  0000000000318400000000000000
5093518013010002 TORTITA CHOCOLATE BRANCO 30X140 GR                         000000008400000000009020000002CXS  0000000000318400000000000000
5093518013011002 TORTITA CHOC.BCO/CHOC.LEITE 30X140                         000000008400000000009020000002CXS  0000000000318400000000000000
10935190092257DOCES E SALGADOS PENHA LTDA             RUA PE.ANTONIO BENEDITO, 32             SAO PAULO/PENHA                         SP03634130002747118000103115.095.068.119     000JAIME FRANCISCO DAS DOR(11) 69014795  
20935191702200520022005009225700027CAIXASMBF                                     .                                       .                                       E
5093519013010001 TORTITA CHOCOLATE - 30X140 GRS                             000000042000000000045100000010CXS  0000000001592000000000000000
5093519013010002 TORTITA CHOCOLATE BRANCO 30X140 GR                         000000029400000000031570000007CXS  0000000001114400000000000000
5093519013011001 TORTITA MORANGO/CHANTILLY-30X140GR                         000000012600000000013530000003CXS  0000000000477600000000000000
5093519013011002 TORTITA CHOC.BCO/CHOC.LEITE 30X140                         000000029400000000031570000007CXS  0000000001114400000000000000
10935200273538MARCELO FACETO-ME                       AV.ITAQUERA, 3.000                      SAO PAULO/JD.ST.MARIA/ITAQUERA          SP03526000000192502000161114.142.550.116     000JAIME FRANCISCO DAS DOR(11) 69014795  
20935201702200520022005027353800010CAIXASMBF                                     .                                       .                                       E
5093520013003001 HOBBY CHOCOLATE - 30X170 GRS.                              000000030600000000032760000006CXS  0000000001101600000000000000
5093520013003002 HOBBY MORANGO - 30X170 GRS.                                000000020400000000021840000004CXS  0000000000734400000000000000
10935210092112MERC.DURVALLES LTDA                     AV.SARG.IRACITA COIMBRA, 367            SAO PAULO/JD.VERA CRUZ                  SP08310580002601534000107115.132.229.110     000VS MALVONI REPRESENT.S/(11) 69092040  
20935211702200520022005009211200003CAIXASMBF                                     .                                       .                                       E
5093521013010001 TORTITA CHOCOLATE - 30X140 GRS                             000000004200000000004510000001CXS  0000000000179600000000000000
5093521013011001 TORTITA MORANGO/CHANTILLY-30X140GR                         000000004200000000004510000001CXS  0000000000179600000000000000
5093521013011002 TORTITA CHOC.BCO/CHOC.LEITE 30X140                         000000004200000000004510000001CXS  0000000000179600000000000000
10935220034605BERNADETE ESTEVAO CREPALDI-ME           RUA DO COMERCIO, 207                    ITARIRI/CENTRO                          SP11760000002763576000136381.005.863.110     000VS MALVONI REPRESENT.S/(11) 69092040  
20935221702200520022005003460500039CAIXASMBF                                     .                                       .                                       E
5093522013003002 HOBBY MORANGO - 30X170 GRS.                                000000015300000000016380000003CXS  0000000000653100000000000000
5093522013003003 HOBBY COCO - 30X170 GRS.                                   000000015300000000016380000003CXS  0000000000653100000000000000
5093522013003004 HOBBY CHOCOLATE BRANCO - 30X170 GR                         000000015300000000016380000003CXS  0000000000653100000000000000
5093522013004001 HOBBY CHOC./CHANTILLY - 30X170 GRS                         000000015300000000016380000003CXS  0000000000653100000000000000
5093522013004002 HOBBY NAPOLITANO - 30X170 GRS.                             000000015300000000016380000003CXS  0000000000653100000000000000
5093522013009001 RECHEADO CHOC/CHANTILLY - 30X140GR                         000000016800000000018280000004CXS  0000000000629600000000000000
5093522013009002 RECHEADO MORANGO/CHANTILLY-30X140G                         000000016800000000018280000004CXS  0000000000629600000000000000
5093522013009003 RECHEADO DOCE DE LEITE/COCO-30X140                         000000016800000000018280000004CXS  0000000000629600000000000000
5093522013009004 RECHEADO NAPOLITANO - 30X140 GRS                           000000016800000000018280000004CXS  0000000000629600000000000000
5093522013009005 RECHEADO FLORESTA NEGRA-30X140 GRS                         000000016800000000018280000004CXS  0000000000629600000000000000
5093522013025001 RECHEADO BRIGADEIRO - 30X120 GRS                           000000014400000000015560000004CXS  0000000000650800000000000000
10935230032637NUTRIN SISTEMAS DE ALIM.LTDA            R.FRANCISCO LAPERRE, 295                AMERICANA/V. SAO PEDRO                  SP04696000043560788000101165.140.633.119     000VS MALVONI REPRESENT.S/(11) 69092040  
20935231702200520022005003263700007CAIXASMBF                                     .                                       .                                       E
5093523013006005 RECH.FLORINI UVA AO CREME-30X140GR                         000000004200000000004600000001CXS  0000000000146900000000000000
5093523013009001 RECHEADO CHOC/CHANTILLY - 30X140GR                         000000008400000000009140000002CXS  0000000000314800000000000000
5093523013010001 TORTITA CHOCOLATE - 30X140 GRS                             000000008400000000009020000002CXS  0000000000379200000000000000
5093523013011001 TORTITA MORANGO/CHANTILLY-30X140GR                         000000008400000000009020000002CXS  0000000000379200000000000000
10935240092633MERCADO RIO DOURADO LTDA-ME             RUA PRESIDENTE PRUDENTE, 357            DIADEMA/JD IVONE                        SP09972300064604416000100286.096.494.110     000VS MALVONI REPRESENT.S/(11) 69092040  
20935241702200520022005009263300006CAIXASMBF                                     .                                       .                                       E
5093524013004001 HOBBY CHOC./CHANTILLY - 30X170 GRS                         000000005100000000005460000001CXS  0000000000213200000000000000
5093524013004002 HOBBY NAPOLITANO - 30X170 GRS.                             000000005100000000005460000001CXS  0000000000213200000000000000
5093524013010001 TORTITA CHOCOLATE - 30X140 GRS                             000000004200000000004510000001CXS  0000000000189600000000000000
5093524013010002 TORTITA CHOCOLATE BRANCO 30X140 GR                         000000004200000000004510000001CXS  0000000000189600000000000000
5093524013011001 TORTITA MORANGO/CHANTILLY-30X140GR                         000000004200000000004510000001CXS  0000000000189600000000000000
5093524013011002 TORTITA CHOC.BCO/CHOC.LEITE 30X140                         000000004200000000004510000001CXS  0000000000189600000000000000
10935250033095SUPER.NOVA ESMERALDA DE P.G.LTDA        R.ZELIA GIGLIOTI, 02                    PRAIA GRANDE/BALNEARIO ESMERALDA        SP11713300003859537000108558.064.229.112     000VS MALVONI REPRESENT.S/(11) 69092040  
20935251702200520022005003309500060CAIXASMBF                                     .                                       .                                       E
5093525013016001 RECH.LADO A LADO CHOCOLATE-30X115G                         000000103500000000113100000030CXS  0000000003399000000000000000
5093525013016002 RECH.LADO A LADO MORANGO-30X115 GR                         000000069000000000075400000020CXS  0000000002266000000000000000
5093525013016003 RECH.LADO A LADO CHO.BRANCO-30X115                         000000034500000000037700000010CXS  0000000001133000000000000000
10935260033095SUPER.NOVA ESMERALDA DE P.G.LTDA        R.ZELIA GIGLIOTI, 02                    PRAIA GRANDE/BALNEARIO ESMERALDA        SP11713300003859537000108558.064.229.112     000VS MALVONI REPRESENT.S/(11) 69092040  
20935261702200520022005003309500009CAIXASMBF                                     .                                       .                                       E
5093526013016001 RECH.LADO A LADO CHOCOLATE-30X115G                         000000031050000000033930000009CXS  0000000001019700000000000000
10935270273938MINIMERCADO MARFRAN LTDA                RUA LEILA M.BARROS MONTEIRO, 148        PRAIA GRANDE/VL.ANTARTICA               SP01172118004939360000104558.172.546.110     000VS MALVONI REPRESENT.S/(11) 69092040  
20935271702200520022005027393800035CAIXASMBF                                     .                                       .                                       E
5093527013003001 HOBBY CHOCOLATE - 30X170 GRS.                              000000015300000000016380000003CXS  0000000000666600000000000000
5093527013003002 HOBBY MORANGO - 30X170 GRS.                                000000010200000000010920000002CXS  0000000000444400000000000000
5093527013003004 HOBBY CHOCOLATE BRANCO - 30X170 GR                         000000010200000000010920000002CXS  0000000000444400000000000000
5093527013004001 HOBBY CHOC./CHANTILLY - 30X170 GRS                         000000010200000000010920000002CXS  0000000000444400000000000000
5093527013009001 RECHEADO CHOC/CHANTILLY - 30X140GR                         000000008400000000009140000002CXS  0000000000324600000000000000
5093527013009002 RECHEADO MORANGO/CHANTILLY-30X140G                         000000008400000000009140000002CXS  0000000000324600000000000000
5093527013009003 RECHEADO DOCE DE LEITE/COCO-30X140                         000000008400000000009140000002CXS  0000000000324600000000000000
5093527013009004 RECHEADO NAPOLITANO - 30X140 GRS                           000000008400000000009140000002CXS  0000000000324600000000000000
5093527013009005 RECHEADO FLORESTA NEGRA-30X140 GRS                         000000008400000000009140000002CXS  0000000000324600000000000000
5093527013010001 TORTITA CHOCOLATE - 30X140 GRS                             000000021000000000022550000005CXS  0000000000873000000000000000
5093527013010002 TORTITA CHOCOLATE BRANCO 30X140 GR                         000000012600000000013530000003CXS  0000000000523800000000000000
5093527013011001 TORTITA MORANGO/CHANTILLY-30X140GR                         000000012600000000013530000003CXS  0000000000523800000000000000
5093527013011002 TORTITA CHOC.BCO/CHOC.LEITE 30X140                         000000012600000000013530000003CXS  0000000000523800000000000000
5093527013025001 RECHEADO BRIGADEIRO - 30X120 GRS                           000000007200000000007780000002CXS  0000000000325400000000000000
10935280034463E.A.DE OLIVEIRA MERCADO-ME              AV.MARIA CAVALCANTE SILVA, 32279        PRAIA GRANDE/JD.SAMAMBAIA               SP11712560003495805000141558.105.412.114     000VS MALVONI REPRESENT.S/(11) 69092040  
20935281702200520022005003446300003CAIXASMBF                                     .                                       .                                       E
5093528013011002 TORTITA CHOC.BCO/CHOC.LEITE 30X140                         000000012600000000013530000003CXS  0000000000523800000000000000
10935290091305SUPER.SIMONICA-LJ.01                    RUA JOAO LOURENCO DE ARAUJO, 62         SAO PAULO/FREGUESIA DO O                SP02758000047381868000142109.523.647.110     000VS MALVONI REPRESENT.S/(11) 69092040  
20935291702200520022005009130500039CAIXASMBF                                     .                                       .                                       E
5093529013003001 HOBBY CHOCOLATE - 30X170 GRS.                              000000010200000000010920000002CXS  0000000000498000000000000000
5093529013003003 HOBBY COCO - 30X170 GRS.                                   000000010200000000010920000002CXS  0000000000498000000000000000
5093529013003004 HOBBY CHOCOLATE BRANCO - 30X170 GR                         000000010200000000010920000002CXS  0000000000498000000000000000
5093529013004001 HOBBY CHOC./CHANTILLY - 30X170 GRS                         000000015300000000016380000003CXS  0000000000747000000000000000
5093529013004002 HOBBY NAPOLITANO - 30X170 GRS.                             000000010200000000010920000002CXS  0000000000498000000000000000
5093529013009002 RECHEADO MORANGO/CHANTILLY-30X140G                         000000012600000000013710000003CXS  0000000000504600000000000000
5093529013009003 RECHEADO DOCE DE LEITE/COCO-30X140                         000000012600000000013710000003CXS  0000000000504600000000000000
5093529013009005 RECHEADO FLORESTA NEGRA-30X140 GRS                         000000021000000000022850000005CXS  0000000000841000000000000000
5093529013010001 TORTITA CHOCOLATE - 30X140 GRS                             000000008400000000009020000002CXS  0000000000373400000000000000
5093529013010002 TORTITA CHOCOLATE BRANCO 30X140 GR                         000000012600000000013530000003CXS  0000000000560100000000000000
5093529013011001 TORTITA MORANGO/CHANTILLY-30X140GR                         000000008400000000009020000002CXS  0000000000373400000000000000
5093529013011002 TORTITA CHOC.BCO/CHOC.LEITE 30X140                         000000012600000000013530000003CXS  0000000000560100000000000000
5093529013016001 RECH.LADO A LADO CHOCOLATE-30X115G                         000000006900000000007540000002CXS  0000000000245600000000000000
5093529013016002 RECH.LADO A LADO MORANGO-30X115 GR                         000000006900000000007540000002CXS  0000000000245600000000000000
5093529013016003 RECH.LADO A LADO CHO.BRANCO-30X115                         000000010350000000011310000003CXS  0000000000368400000000000000
10935300091306SUPER.BALLESTEROS LTDA                  AV.INAJAR DE SOUZA, 5.466               SAO PAULO/VL.SOUZA                      SP02882160074516956000187113.979.952.118     000VS MALVONI REPRESENT.S/(11) 69092040  
20935301702200520022005009130600039CAIXASMBF                                     .                                       .                                       E
5093530013003001 HOBBY CHOCOLATE - 30X170 GRS.                              000000010200000000010920000002CXS  0000000000498000000000000000
5093530013003002 HOBBY MORANGO - 30X170 GRS.                                000000010200000000010920000002CXS  0000000000498000000000000000
5093530013003003 HOBBY COCO - 30X170 GRS.                                   000000010200000000010920000002CXS  0000000000498000000000000000
5093530013003004 HOBBY CHOCOLATE BRANCO - 30X170 GR                         000000010200000000010920000002CXS  0000000000498000000000000000
5093530013004001 HOBBY CHOC./CHANTILLY - 30X170 GRS                         000000020400000000021840000004CXS  0000000000996000000000000000
5093530013004002 HOBBY NAPOLITANO - 30X170 GRS.                             000000015300000000016380000003CXS  0000000000747000000000000000
5093530013009001 RECHEADO CHOC/CHANTILLY - 30X140GR                         000000021000000000022850000005CXS  0000000000841000000000000000
5093530013009002 RECHEADO MORANGO/CHANTILLY-30X140G                         000000012600000000013710000003CXS  0000000000504600000000000000
5093530013009003 RECHEADO DOCE DE LEITE/COCO-30X140                         000000008400000000009140000002CXS  0000000000336400000000000000
5093530013009004 RECHEADO NAPOLITANO - 30X140 GRS                           000000012600000000013710000003CXS  0000000000504600000000000000
5093530013009005 RECHEADO FLORESTA NEGRA-30X140 GRS                         000000012600000000013710000003CXS  0000000000504600000000000000
5093530013010002 TORTITA CHOCOLATE BRANCO 30X140 GR                         000000008400000000009020000002CXS  0000000000373400000000000000
5093530013011001 TORTITA MORANGO/CHANTILLY-30X140GR                         000000008400000000009020000002CXS  0000000000373400000000000000
5093530013011002 TORTITA CHOC.BCO/CHOC.LEITE 30X140                         000000008400000000009020000002CXS  0000000000373400000000000000
5093530013016002 RECH.LADO A LADO MORANGO-30X115 GR                         000000006900000000007540000002CXS  0000000000245600000000000000
10935310032233SUPER.BALESTEROS LTDA                   AV.RAIMUNDO P.DE MAGALHAES,11333        SAO PAULO/CITY JARAGUA                  SP02938000074516956000268116.600.500.110     000VS MALVONI REPRESENT.S/(11) 69092040  
20935311702200520022005003223300037CAIXASMBF                                     .                                       .                                       E
5093531013003003 HOBBY COCO - 30X170 GRS.                                   000000010200000000010920000002CXS  0000000000498000000000000000
5093531013003004 HOBBY CHOCOLATE BRANCO - 30X170 GR                         000000010200000000010920000002CXS  0000000000498000000000000000
5093531013004001 HOBBY CHOC./CHANTILLY - 30X170 GRS                         000000010200000000010920000002CXS  0000000000498000000000000000
5093531013004002 HOBBY NAPOLITANO - 30X170 GRS.                             000000010200000000010920000002CXS  0000000000498000000000000000
5093531013009001 RECHEADO CHOC/CHANTILLY - 30X140GR                         000000012600000000013710000003CXS  0000000000504600000000000000
5093531013009002 RECHEADO MORANGO/CHANTILLY-30X140G                         000000021000000000022850000005CXS  0000000000841000000000000000
5093531013009003 RECHEADO DOCE DE LEITE/COCO-30X140                         000000008400000000009140000002CXS  0000000000336400000000000000
5093531013009005 RECHEADO FLORESTA NEGRA-30X140 GRS                         000000012600000000013710000003CXS  0000000000504600000000000000
5093531013010001 TORTITA CHOCOLATE - 30X140 GRS                             000000012600000000013530000003CXS  0000000000560100000000000000
5093531013010002 TORTITA CHOCOLATE BRANCO 30X140 GR                         000000012600000000013530000003CXS  0000000000560100000000000000
5093531013011002 TORTITA CHOC.BCO/CHOC.LEITE 30X140                         000000008400000000009020000002CXS  0000000000373400000000000000
5093531013016001 RECH.LADO A LADO CHOCOLATE-30X115G                         000000006900000000007540000002CXS  0000000000245600000000000000
5093531013016002 RECH.LADO A LADO MORANGO-30X115 GR                         000000010350000000011310000003CXS  0000000000368400000000000000
5093531013016003 RECH.LADO A LADO CHO.BRANCO-30X115                         000000010350000000011310000003CXS  0000000000368400000000000000
10935320034541MERCADINHO FABIANA JUQUITIBA LTD        AV. 31 DE MARCO, 100                    JUQUITIBA/JUSTINOS                      SP06950000007005656000146410.068.669.115     000VS MALVONI REPRESENT.S/(11) 69092040  
20935321702200520022005003454100009CAIXASMBF                                     .                                       .                                       E
5093532013003001 HOBBY CHOCOLATE - 30X170 GRS.                              000000005100000000005460000001CXS  0000000000224400000000000000
5093532013003002 HOBBY MORANGO - 30X170 GRS.                                000000005100000000005460000001CXS  0000000000224400000000000000
5093532013004001 HOBBY CHOC./CHANTILLY - 30X170 GRS                         000000005100000000005460000001CXS  0000000000224400000000000000
5093532013004002 HOBBY NAPOLITANO - 30X170 GRS.                             000000005100000000005460000001CXS  0000000000224400000000000000
5093532013009002 RECHEADO MORANGO/CHANTILLY-30X140G                         000000004200000000004570000001CXS  0000000000162300000000000000
5093532013009003 RECHEADO DOCE DE LEITE/COCO-30X140                         000000004200000000004570000001CXS  0000000000162300000000000000
5093532013010002 TORTITA CHOCOLATE BRANCO 30X140 GR                         000000004200000000004510000001CXS  0000000000199600000000000000
5093532013011002 TORTITA CHOC.BCO/CHOC.LEITE 30X140                         000000004200000000004510000001CXS  0000000000199600000000000000
5093532013025001 RECHEADO BRIGADEIRO - 30X120 GRS                           000000003600000000003890000001CXS  0000000000167700000000000000
10935330032197MINI MERC.NOSSA SRA DO CAMINHO          R.MARGARIDA C.ALBUQUERQUE, 69           SAO PAULO/JD.LAURA-ITAIM                SP08142260058516675000178112.037.020.113     000VS MALVONI REPRESENT.S/(11) 69092040  
20935331702200520022005003219700045CAIXASMBF                                     .                                       .                                       E
5093533013010001 TORTITA CHOCOLATE - 30X140 GRS                             000000008400000000009020000002CXS  0000000000379200000000000000
5093533013011001 TORTITA MORANGO/CHANTILLY-30X140GR                         000000004200000000004510000001CXS  0000000000189600000000000000
5093533013011002 TORTITA CHOC.BCO/CHOC.LEITE 30X140                         000000008400000000009020000002CXS  0000000000379200000000000000
5093533013016001 RECH.LADO A LADO CHOCOLATE-30X115G                         000000069000000000075400000020CXS  0000000002266000000000000000
5093533013016002 RECH.LADO A LADO MORANGO-30X115 GR                         000000034500000000037700000010CXS  0000000001133000000000000000
5093533013016003 RECH.LADO A LADO CHO.BRANCO-30X115                         000000034500000000037700000010CXS  0000000001133000000000000000
10935340032197MINI MERC.NOSSA SRA DO CAMINHO          R.MARGARIDA C.ALBUQUERQUE, 69           SAO PAULO/JD.LAURA-ITAIM                SP08142260058516675000178112.037.020.113     000VS MALVONI REPRESENT.S/(11) 69092040  
20935341702200520022005003219700006CAIXASMBF                                     .                                       .                                       E
5093534013016002 RECH.LADO A LADO MORANGO-30X115 GR                         000000010350000000011310000003CXS  0000000000339900000000000000
5093534013016003 RECH.LADO A LADO CHO.BRANCO-30X115                         000000010350000000011310000003CXS  0000000000339900000000000000
10935350032198REGINALDO ZATTA ROSENTAL-ME             RUA ARVORE DE NEVE, 65                  SAO PAULO/JD.MAIA                       SP08081270002089046000154115.693.709.110     000VS MALVONI REPRESENT.S/(11) 69092040  
20935351702200520022005003219800009CAIXASMBF                                     .                                       .                                       E
5093535013003001 HOBBY CHOCOLATE - 30X170 GRS.                              000000015300000000016380000003CXS  0000000000653100000000000000
5093535013003002 HOBBY MORANGO - 30X170 GRS.                                000000010200000000010920000002CXS  0000000000435400000000000000
5093535013003003 HOBBY COCO - 30X170 GRS.                                   000000005100000000005460000001CXS  0000000000217700000000000000
5093535013003004 HOBBY CHOCOLATE BRANCO - 30X170 GR                         000000005100000000005460000001CXS  0000000000217700000000000000
5093535013004001 HOBBY CHOC./CHANTILLY - 30X170 GRS                         000000005100000000005460000001CXS  0000000000217700000000000000
5093535013004002 HOBBY NAPOLITANO - 30X170 GRS.                             000000005100000000005460000001CXS  0000000000217700000000000000
10935360091431SUPER.ORLANDO MORANDO LTDA              EST.GALVAO BUENO, 5.015                 SAO BERNARDO DO CAMPO/BATISTINI         SP09812080058740572000197635.135.431.113     000VS MALVONI REPRESENT.S/(11) 69092040  
20935361702200520022005009143100012CAIXASMBF                                     .                                       .                                       E
5093536013009001 RECHEADO CHOC/CHANTILLY - 30X140GR                         000000008400000000009140000002CXS  0000000000312200000000000000
5093536013009002 RECHEADO MORANGO/CHANTILLY-30X140G                         000000008400000000009140000002CXS  0000000000312200000000000000
5093536013009003 RECHEADO DOCE DE LEITE/COCO-30X140                         000000008400000000009140000002CXS  0000000000312200000000000000
5093536013009004 RECHEADO NAPOLITANO - 30X140 GRS                           000000008400000000009140000002CXS  0000000000312200000000000000
5093536013009005 RECHEADO FLORESTA NEGRA-30X140 GRS                         000000008400000000009140000002CXS  0000000000312200000000000000
5093536013025001 RECHEADO BRIGADEIRO - 30X120 GRS                           000000007200000000007780000002CXS  0000000000320400000000000000
10935370034536SUPER.OURINHOS LTDA                     AV.CEL.SEZEFREDO FAGUNDES, 2698         SAO PAULO/JD.TREMEMBE                   SP02306004046951943000109109.237.741.112     000VS MALVONI REPRESENT.S/(11) 69092040  
20935371702200520022005003453600035CAIXASMBF                                     .                                       .                                       E
5093537013016001 RECH.LADO A LADO CHOCOLATE-30X115G                         000000103500000000113100000030CXS  0000000003879000000000000000
5093537013016002 RECH.LADO A LADO MORANGO-30X115 GR                         000000010350000000011310000003CXS  0000000000387900000000000000
5093537013016003 RECH.LADO A LADO CHO.BRANCO-30X115                         000000006900000000007540000002CXS  0000000000258600000000000000
10935380034536SUPER.OURINHOS LTDA                     AV.CEL.SEZEFREDO FAGUNDES, 2698         SAO PAULO/JD.TREMEMBE                   SP02306004046951943000109109.237.741.112     000VS MALVONI REPRESENT.S/(11) 69092040  
20935381702200520022005003453600005CAIXASMBF                                     .                                       .                                       E
5093538013016001 RECH.LADO A LADO CHOCOLATE-30X115G                         000000017250000000018850000005CXS  0000000000646500000000000000
10935390033423FRANCISCO GOMES OLIVEIRA JR-ME          R.STA.RITA DE CASTRO, 1205              SAO BERNARDO DO CAMPO/VILA DOS ESTUDANTESP09810600002971970000160635.336.205.116     000VS MALVONI REPRESENT.S/(11) 69092040  
20935391702200520022005003342300040CAIXASMBF                                     .                                       .                                       E
5093539013016001 RECH.LADO A LADO CHOCOLATE-30X115G                         000000051750000000056550000015CXS  0000000001737000000000000000
5093539013016002 RECH.LADO A LADO MORANGO-30X115 GR                         000000041400000000045240000012CXS  0000000001389600000000000000
5093539013016003 RECH.LADO A LADO CHO.BRANCO-30X115                         000000044850000000049010000013CXS  0000000001505400000000000000
10935400033423FRANCISCO GOMES OLIVEIRA JR-ME          R.STA.RITA DE CASTRO, 1205              SAO BERNARDO DO CAMPO/VILA DOS ESTUDANTESP09810600002971970000160635.336.205.116     000VS MALVONI REPRESENT.S/(11) 69092040  
20935401702200520022005003342300006CAIXASMBF                                     .                                       .                                       E
5093540013016001 RECH.LADO A LADO CHOCOLATE-30X115G                         000000006900000000007540000002CXS  0000000000231600000000000000
5093540013016002 RECH.LADO A LADO MORANGO-30X115 GR                         000000006900000000007540000002CXS  0000000000231600000000000000
5093540013016003 RECH.LADO A LADO CHO.BRANCO-30X115                         000000006900000000007540000002CXS  0000000000231600000000000000
10935410034044MERCADINHO GAROTINHO LTDA-ME            EST.LAZARO AMANCIO BAROS, 408.          SAO PAULO/VILA BRASILANDIA              SP02846010006155363000182116.779.810.118     000VS MALVONI REPRESENT.S/(11) 69092040  
20935411702200520022005003404400006CAIXASMBF                                     .                                       .                                       E
5093541013003001 HOBBY CHOCOLATE - 30X170 GRS.                              000000005100000000005460000001CXS  0000000000217600000000000000
5093541013003003 HOBBY COCO - 30X170 GRS.                                   000000005100000000005460000001CXS  0000000000217600000000000000
5093541013003004 HOBBY CHOCOLATE BRANCO - 30X170 GR                         000000005100000000005460000001CXS  0000000000217600000000000000
5093541013004001 HOBBY CHOC./CHANTILLY - 30X170 GRS                         000000005100000000005460000001CXS  0000000000217600000000000000
5093541013004002 HOBBY NAPOLITANO - 30X170 GRS.                             000000005100000000005460000001CXS  0000000000217600000000000000
5093541013025001 RECHEADO BRIGADEIRO - 30X120 GRS                           000000003600000000003890000001CXS  0000000000167700000000000000
10935420034502MINIMERCADO BRAGA SOUZA LTDA-EPP        R.MONTE ALEGRE DO SUL, 841              SAO PAULO/JD.BOA VISTA                  SP02859080006941449000130116.873.932.110     000VS MALVONI REPRESENT.S/(11) 69092040  
20935421702200520022005003450200029CAIXASMBF                                     .                                       .                                       E
5093542013009001 RECHEADO CHOC/CHANTILLY - 30X140GR                         000000021000000000022850000005CXS  0000000000787000000000000000
5093542013009002 RECHEADO MORANGO/CHANTILLY-30X140G                         000000008400000000009140000002CXS  0000000000314800000000000000
5093542013009003 RECHEADO DOCE DE LEITE/COCO-30X140                         000000012600000000013710000003CXS  0000000000472200000000000000
5093542013009004 RECHEADO NAPOLITANO - 30X140 GRS                           000000012600000000013710000003CXS  0000000000472200000000000000
5093542013009005 RECHEADO FLORESTA NEGRA-30X140 GRS                         000000012600000000013710000003CXS  0000000000472200000000000000
5093542013010001 TORTITA CHOCOLATE - 30X140 GRS                             000000016800000000018040000004CXS  0000000000758400000000000000
5093542013010002 TORTITA CHOCOLATE BRANCO 30X140 GR                         000000012600000000013530000003CXS  0000000000568800000000000000
5093542013011002 TORTITA CHOC.BCO/CHOC.LEITE 30X140                         000000012600000000013530000003CXS  0000000000568800000000000000
5093542013025001 RECHEADO BRIGADEIRO - 30X120 GRS                           000000010800000000011670000003CXS  0000000000503100000000000000
10935430034596MERCADO G.CARVALHO MENDES LTDA          PCA SANTA CLARA DE ASSIS, 2 A           SAO PAULO/SITIO MORRO GRANDE            SP02809110003310575000107115.270.161.119     000VS MALVONI REPRESENT.S/(11) 69092040  
20935431702200520022005003459600011CAIXASMBF                                     .                                       .                                       E
5093543013003001 HOBBY CHOCOLATE - 30X170 GRS.                              000000010200000000010920000002CXS  0000000000435200000000000000
5093543013003002 HOBBY MORANGO - 30X170 GRS.                                000000005100000000005460000001CXS  0000000000217600000000000000
5093543013004002 HOBBY NAPOLITANO - 30X170 GRS.                             000000005100000000005460000001CXS  0000000000217600000000000000
5093543013009001 RECHEADO CHOC/CHANTILLY - 30X140GR                         000000008400000000009140000002CXS  0000000000314800000000000000
5093543013009005 RECHEADO FLORESTA NEGRA-30X140 GRS                         000000008400000000009140000002CXS  0000000000314800000000000000
5093543013011002 TORTITA CHOC.BCO/CHOC.LEITE 30X140                         000000004200000000004510000001CXS  0000000000189600000000000000
5093543013025001 RECHEADO BRIGADEIRO - 30X120 GRS                           000000007200000000007780000002CXS  0000000000335400000000000000
10935440091713MERCADINHO SERRA AZUL LTDA              AV.ITU, 533                             BARUERI/JD.PAULISTA                     SP06447020068291731000177206.056.621.115     000VS MALVONI REPRESENT.S/(11) 69092040  
20935441702200520022005009171300005CAIXASMBF                                     .                                       .                                       E
5093544013025001 RECHEADO BRIGADEIRO - 30X120 GRS                           000000018000000000019450000005CXS  0000000000815000000000000000
10935450032662M.V.UCHOA DA SILVA-ME                   R.LIMBANI, 217                          SAO PAULO/JD.VALE DAS VIRTUDES          SP05796110005795529000162116.647.905.114     000VS MALVONI REPRESENT.S/(11) 69092040  
20935451702200520022005003266200013CAIXASMBF                                     .                                       .                                       E
5093545013003001 HOBBY CHOCOLATE - 30X170 GRS.                              000000005100000000005460000001CXS  0000000000224400000000000000
5093545013004001 HOBBY CHOC./CHANTILLY - 30X170 GRS                         000000005100000000005460000001CXS  0000000000224400000000000000
5093545013004002 HOBBY NAPOLITANO - 30X170 GRS.                             000000005100000000005460000001CXS  0000000000224400000000000000
5093545013006001 RECH.FLORINI CHOCOLATE - 30X140 GR                         000000004200000000004550000001CXS  0000000000153000000000000000
5093545013006003 RECH.FLORINI CHOC.BRANCO-30X140GRS                         000000004200000000004550000001CXS  0000000000153000000000000000
5093545013006005 RECH.FLORINI UVA AO CREME-30X140GR                         000000004200000000004600000001CXS  0000000000153000000000000000
5093545013009001 RECHEADO CHOC/CHANTILLY - 30X140GR                         000000004200000000004570000001CXS  0000000000162300000000000000
5093545013009002 RECHEADO MORANGO/CHANTILLY-30X140G                         000000004200000000004570000001CXS  0000000000162300000000000000
5093545013009004 RECHEADO NAPOLITANO - 30X140 GRS                           000000004200000000004570000001CXS  0000000000162300000000000000
5093545013010001 TORTITA CHOCOLATE - 30X140 GRS                             000000004200000000004510000001CXS  0000000000199600000000000000
5093545013010002 TORTITA CHOCOLATE BRANCO 30X140 GR                         000000004200000000004510000001CXS  0000000000199600000000000000
5093545013011002 TORTITA CHOC.BCO/CHOC.LEITE 30X140                         000000004200000000004510000001CXS  0000000000199600000000000000
5093545013025001 RECHEADO BRIGADEIRO - 30X120 GRS                           000000003600000000003890000001CXS  0000000000167700000000000000
10935460034010MERC.DIAS ALVES LTDA ME                 AV.PURUS, 365 A                         GUARULHOS/JARDIM PARAISO                SP07241030004927715000145336.471.761.112     000VS MALVONI REPRESENT.S/(11) 69092040  
20935461702200520022005003401000038CAIXASMBF                                     .                                       .                                       E
5093546013003001 HOBBY CHOCOLATE - 30X170 GRS.                              000000010200000000010920000002CXS  0000000000448800000000000000
5093546013004001 HOBBY CHOC./CHANTILLY - 30X170 GRS                         000000010200000000010920000002CXS  0000000000448800000000000000
5093546013004002 HOBBY NAPOLITANO - 30X170 GRS.                             000000010200000000010920000002CXS  0000000000448800000000000000
5093546013010002 TORTITA CHOCOLATE BRANCO 30X140 GR                         000000016800000000018040000004CXS  0000000000691200000000000000
5093546013011001 TORTITA MORANGO/CHANTILLY-30X140GR                         000000016800000000018040000004CXS  0000000000691200000000000000
5093546013011002 TORTITA CHOC.BCO/CHOC.LEITE 30X140                         000000016800000000018040000004CXS  0000000000691200000000000000
5093546013016001 RECH.LADO A LADO CHOCOLATE-30X115G                         000000013800000000015080000004CXS  0000000000453200000000000000
5093546013016002 RECH.LADO A LADO MORANGO-30X115 GR                         000000034500000000037700000010CXS  0000000001133000000000000000
5093546013016003 RECH.LADO A LADO CHO.BRANCO-30X115                         000000020700000000022620000006CXS  0000000000679800000000000000
10935470034010MERC.DIAS ALVES LTDA ME                 AV.PURUS, 365 A                         GUARULHOS/JARDIM PARAISO                SP07241030004927715000145336.471.761.112     000VS MALVONI REPRESENT.S/(11) 69092040  
20935471702200520022005003401000003CAIXASMBF                                     .                                       .                                       E
5093547013016002 RECH.LADO A LADO MORANGO-30X115 GR                         000000006900000000007540000002CXS  0000000000226600000000000000
5093547013016003 RECH.LADO A LADO CHO.BRANCO-30X115                         000000003450000000003770000001CXS  0000000000113300000000000000
10935480090804MERCADINHO ALVES & FARIAS LTDA          RUA OSVALDO RAMOS, 01                   GUARULHOS/CENTRO                        SP07142600001444210000131336.435.738.110     000VS MALVONI REPRESENT.S/(11) 69092040  
20935481702200520022005009080400006CAIXASMBF                                     .                                       .                                       E
5093548013010002 TORTITA CHOCOLATE BRANCO 30X140 GR                         000000008400000000009020000002CXS  0000000000324000000000000000
5093548013011001 TORTITA MORANGO/CHANTILLY-30X140GR                         000000008400000000009020000002CXS  0000000000324000000000000000
5093548013011002 TORTITA CHOC.BCO/CHOC.LEITE 30X140                         000000008400000000009020000002CXS  0000000000324000000000000000
10935490091322SUPER.PAD.TOKIO LTDA                    RUA JOSE BARBOSA SIQUEIRA, 5            OSASCO/PADROEIRA                        SP06172410052995453000107492.136.149.115     000VS MALVONI REPRESENT.S/(11) 69092040  
20935491702200520022005009132200020CAIXASMBF                                     .                                       .                                       E
5093549013010001 TORTITA CHOCOLATE - 30X140 GRS                             000000021000000000022550000005CXS  0000000000810000000000000000
5093549013010002 TORTITA CHOCOLATE BRANCO 30X140 GR                         000000033600000000036080000008CXS  0000000001296000000000000000
5093549013011002 TORTITA CHOC.BCO/CHOC.LEITE 30X140                         000000029400000000031570000007CXS  0000000001134000000000000000
10935500270640SOLANGE FERREIRA LEITE MERC-ME          RUA DR.VIRGILIO ALVIM FRANCO, 24        SAO PAULO/JD.D'ABRIL                    SP05399130004605714000184116.262.915.119     000VS MALVONI REPRESENT.S/(11) 69092040  
20935501702200520022005027064000050CAIXASMBF                                     .                                       .                                       E
5093550013016001 RECH.LADO A LADO CHOCOLATE-30X115G                         000000103500000000113100000030CXS  0000000003420000000000000000
5093550013016002 RECH.LADO A LADO MORANGO-30X115 GR                         000000034500000000037700000010CXS  0000000001140000000000000000
5093550013016003 RECH.LADO A LADO CHO.BRANCO-30X115                         000000034500000000037700000010CXS  0000000001140000000000000000
10935510270640SOLANGE FERREIRA LEITE MERC-ME          RUA DR.VIRGILIO ALVIM FRANCO, 24        SAO PAULO/JD.D'ABRIL                    SP05399130004605714000184116.262.915.119     000VS MALVONI REPRESENT.S/(11) 69092040  
20935511702200520022005027064000007CAIXASMBF                                     .                                       .                                       E
5093551013016001 RECH.LADO A LADO CHOCOLATE-30X115G                         000000010350000000011310000003CXS  0000000000342000000000000000
5093551013016002 RECH.LADO A LADO MORANGO-30X115 GR                         000000006900000000007540000002CXS  0000000000228000000000000000
5093551013016003 RECH.LADO A LADO CHO.BRANCO-30X115                         000000006900000000007540000002CXS  0000000000228000000000000000
10935520092835EMPORIO LEVE TUDO LTDA                  RUA VIEIRA DE MORAES, 658               SAO PAULO/CAMPO BELO                    SP04617001001762759000174114.963.794.116     000VS MALVONI REPRESENT.S/(11) 69092040  
20935521702200520022005009283500019CAIXASMBF                                     .                                       .                                       E
5093552013003001 HOBBY CHOCOLATE - 30X170 GRS.                              000000010200000000010920000002CXS  0000000000435400000000000000
5093552013003003 HOBBY COCO - 30X170 GRS.                                   000000005100000000005460000001CXS  0000000000217700000000000000
5093552013004001 HOBBY CHOC./CHANTILLY - 30X170 GRS                         000000005100000000005460000001CXS  0000000000217700000000000000
5093552013004002 HOBBY NAPOLITANO - 30X170 GRS.                             000000010200000000010920000002CXS  0000000000435400000000000000
5093552013006003 RECH.FLORINI CHOC.BRANCO-30X140GRS                         000000008400000000009100000002CXS  0000000000293800000000000000
5093552013009001 RECHEADO CHOC/CHANTILLY - 30X140GR                         000000008400000000009140000002CXS  0000000000314800000000000000
5093552013009002 RECHEADO MORANGO/CHANTILLY-30X140G                         000000008400000000009140000002CXS  0000000000314800000000000000
5093552013009003 RECHEADO DOCE DE LEITE/COCO-30X140                         000000008400000000009140000002CXS  0000000000314800000000000000
5093552013009004 RECHEADO NAPOLITANO - 30X140 GRS                           000000008400000000009140000002CXS  0000000000314800000000000000
5093552013009005 RECHEADO FLORESTA NEGRA-30X140 GRS                         000000008400000000009140000002CXS  0000000000314800000000000000
5093552013011002 TORTITA CHOC.BCO/CHOC.LEITE 30X140                         000000004200000000004510000001CXS  0000000000189600000000000000
10935530032956JARDIM AMERICA DOCERIA LTDA             R.AUGUSTA, 2228                         SAO PAULO/CERQUEIRA CESAR               SP01412000005924573000125116.700.504.113     000VS MALVONI REPRESENT.S/(11) 69092040  
20935531702200520022005003295600010CAIXASMBF                                     .                                       .                                       E
5093553013010001 TORTITA CHOCOLATE - 30X140 GRS                             000000008400000000009020000002CXS  0000000000324000000000000000
5093553013010002 TORTITA CHOCOLATE BRANCO 30X140 GR                         000000008400000000009020000002CXS  0000000000324000000000000000
5093553013011001 TORTITA MORANGO/CHANTILLY-30X140GR                         000000008400000000009020000002CXS  0000000000324000000000000000
5093553013011002 TORTITA CHOC.BCO/CHOC.LEITE 30X140                         000000016800000000018040000004CXS  0000000000648000000000000000
10935540001895MINIMERCADO OSAKA LTDA                  RUA VOTUPOCA, 35                        SAO PAULO/VL.IPOJUCA                    SP05055000053840567000132111.094.874.110     000VS MALVONI REPRESENT.S/(11) 69092040  
20935541702200520022005000189500020CAIXASMBF                                     .                                       .                                       E
5093554013016001 RECH.LADO A LADO CHOCOLATE-30X115G                         000000034500000000037700000010CXS  0000000001133000000000000000
5093554013016002 RECH.LADO A LADO MORANGO-30X115 GR                         000000020700000000022620000006CXS  0000000000679800000000000000
5093554013016003 RECH.LADO A LADO CHO.BRANCO-30X115                         000000013800000000015080000004CXS  0000000000453200000000000000
10935550001895MINIMERCADO OSAKA LTDA                  RUA VOTUPOCA, 35                        SAO PAULO/VL.IPOJUCA                    SP05055000053840567000132111.094.874.110     000VS MALVONI REPRESENT.S/(11) 69092040  
20935551702200520022005000189500003CAIXASMBF                                     .                                       .                                       E
5093555013016001 RECH.LADO A LADO CHOCOLATE-30X115G                         000000003450000000003770000001CXS  0000000000113300000000000000
5093555013016002 RECH.LADO A LADO MORANGO-30X115 GR                         000000003450000000003770000001CXS  0000000000113300000000000000
5093555013016003 RECH.LADO A LADO CHO.BRANCO-30X115                         000000003450000000003770000001CXS  0000000000113300000000000000
10935560091321SUPER.MOMBELINO III LTDA                AV.GETULIO VARGAS, 1.177                SAO BERNARDO DO CAMPO/VL.BAETA NEVES    SP09751251001115272000108635.308.958.119     000VS MALVONI REPRESENT.S/(11) 69092040  
20935561702200520022005009132100015CAIXASMBF                                     .                                       .                                       E
5093556013004001 HOBBY CHOC./CHANTILLY - 30X170 GRS                         000000005100000000005460000001CXS  0000000000213200000000000000
5093556013004002 HOBBY NAPOLITANO - 30X170 GRS.                             000000005100000000005460000001CXS  0000000000213200000000000000
5093556013009001 RECHEADO CHOC/CHANTILLY - 30X140GR                         000000008400000000009140000002CXS  0000000000312200000000000000
5093556013009002 RECHEADO MORANGO/CHANTILLY-30X140G                         000000008400000000009140000002CXS  0000000000312200000000000000
5093556013009003 RECHEADO DOCE DE LEITE/COCO-30X140                         000000004200000000004570000001CXS  0000000000156100000000000000
5093556013009004 RECHEADO NAPOLITANO - 30X140 GRS                           000000008400000000009140000002CXS  0000000000312200000000000000
5093556013009005 RECHEADO FLORESTA NEGRA-30X140 GRS                         000000008400000000009140000002CXS  0000000000312200000000000000
5093556013010001 TORTITA CHOCOLATE - 30X140 GRS                             000000008400000000009020000002CXS  0000000000379200000000000000
5093556013010002 TORTITA CHOCOLATE BRANCO 30X140 GR                         000000004200000000004510000001CXS  0000000000189600000000000000
5093556013011002 TORTITA CHOC.BCO/CHOC.LEITE 30X140                         000000004200000000004510000001CXS  0000000000189600000000000000
10935570091321SUPER.MOMBELINO III LTDA                AV.GETULIO VARGAS, 1.177                SAO BERNARDO DO CAMPO/VL.BAETA NEVES    SP09751251001115272000108635.308.958.119     000VS MALVONI REPRESENT.S/(11) 69092040  
20935571702200520022005009132100001CAIXASMBF                                     .                                       .                                       E
5093557013010002 TORTITA CHOCOLATE BRANCO 30X140 GR                         000000004200000000004510000001CXS  0000000000189600000000000000
10935580032750CARLOS JOSE CORREIA SALES-ME            R.HERMENEGILDO ORSI, 23-C               GUARULHOS/JD.ACACIO                     SP07144130004940562000176336.687.170.112     000VS MALVONI REPRESENT.S/(11) 69092040  
20935581702200520022005003275000016CAIXASMBF                                     .                                       .                                       E
5093558013003001 HOBBY CHOCOLATE - 30X170 GRS.                              000000010200000000010920000002CXS  0000000000448800000000000000
5093558013004002 HOBBY NAPOLITANO - 30X170 GRS.                             000000010200000000010920000002CXS  0000000000448800000000000000
5093558013010002 TORTITA CHOCOLATE BRANCO 30X140 GR                         000000004200000000004510000001CXS  0000000000189600000000000000
5093558013011002 TORTITA CHOC.BCO/CHOC.LEITE 30X140                         000000004200000000004510000001CXS  0000000000189600000000000000
5093558013016001 RECH.LADO A LADO CHOCOLATE-30X115G                         000000017250000000018850000005CXS  0000000000575000000000000000
5093558013016002 RECH.LADO A LADO MORANGO-30X115 GR                         000000006900000000007540000002CXS  0000000000230000000000000000
5093558013016003 RECH.LADO A LADO CHO.BRANCO-30X115                         000000010350000000011310000003CXS  0000000000345000000000000000
10935590091082CIAL QUIRAZ LTDA                        AV.JOAO BATISTA, 160                    OSASCO/CENTRO                           SP06097080066524158000179492.240.424.111     000VS MALVONI REPRESENT.S/(11) 69092040  
20935591702200520022005009108200007CAIXASMBF                                     .                                       .                                       E
5093559013009002 RECHEADO MORANGO/CHANTILLY-30X140G                         000000004200000000004570000001CXS  0000000000162400000000000000
5093559013013001 RECHEADO MORANGO/CHANTILLY-30X60GR                         000000003600000000004200000002CXS  0000000000164000000000000000
5093559013013002 RECHEADO CHOC/CHANTILLY - 30X60GRS                         000000001800000000002100000001CXS  0000000000082000000000000000
5093559013013005 RECHEADO BRIGADEIRO - 30X60 GRS                            000000003600000000004120000002CXS  0000000000164000000000000000
5093559013013006 RECHEADO FLORESTA NEGRA - 30X60GRS                         000000001800000000002100000001CXS  0000000000082000000000000000
10935600090958COOP.MISTA TRAB.GDE.S.PAULO LTDA        RUA ANTONIO AGU, 751                    OSASCO/CENTRO                           SP06093006060504586000153492.009.616.117     000VS MALVONI REPRESENT.S/(11) 69092040  
20935601702200520022005009095800005CAIXASMBF                                     .                                       .                                       E
5093560013010001 TORTITA CHOCOLATE - 30X140 GRS                             000000004200000000004510000001CXS  0000000000180000000000000000
5093560013010002 TORTITA CHOCOLATE BRANCO 30X140 GR                         000000008400000000009020000002CXS  0000000000360000000000000000
5093560013011001 TORTITA MORANGO/CHANTILLY-30X140GR                         000000004200000000004510000001CXS  0000000000180000000000000000
5093560013011002 TORTITA CHOC.BCO/CHOC.LEITE 30X140                         000000004200000000004510000001CXS  0000000000180000000000000000
10935610270640SOLANGE FERREIRA LEITE MERC-ME          RUA DR.VIRGILIO ALVIM FRANCO, 24        SAO PAULO/JD.D'ABRIL                    SP05399130004605714000184116.262.915.119     000VS MALVONI REPRESENT.S/(11) 69092040  
20935611702200520022005027064000008CAIXASMBF                                     .                                       .                                       E
5093561013003001 HOBBY CHOCOLATE - 30X170 GRS.                              000000010200000000010920000002CXS  0000000000450000000000000000
5093561013003002 HOBBY MORANGO - 30X170 GRS.                                000000010200000000010920000002CXS  0000000000450000000000000000
5093561013004001 HOBBY CHOC./CHANTILLY - 30X170 GRS                         000000010200000000010920000002CXS  0000000000450000000000000000
5093561013004002 HOBBY NAPOLITANO - 30X170 GRS.                             000000010200000000010920000002CXS  0000000000450000000000000000
10935620370120MINIMERCADO ZIU LTDA-ME                 EST.DOS ORQUIDOFILOS,                   EMBU/ENGENHO VELHO                      SP06843150096283007000137298.042.288.118     000VS MALVONI REPRESENT.S/(11) 69092040  
20935621702200520022005037012000022CAIXASMBF                                     .                                       .                                       E
5093562013003001 HOBBY CHOCOLATE - 30X170 GRS.                              000000010200000000010920000002CXS  0000000000448800000000000000
5093562013004001 HOBBY CHOC./CHANTILLY - 30X170 GRS                         000000010200000000010920000002CXS  0000000000448800000000000000
5093562013004002 HOBBY NAPOLITANO - 30X170 GRS.                             000000010200000000010920000002CXS  0000000000448800000000000000
5093562013009001 RECHEADO CHOC/CHANTILLY - 30X140GR                         000000008400000000009140000002CXS  0000000000324600000000000000
5093562013009002 RECHEADO MORANGO/CHANTILLY-30X140G                         000000004200000000004570000001CXS  0000000000162300000000000000
5093562013009003 RECHEADO DOCE DE LEITE/COCO-30X140                         000000008400000000009140000002CXS  0000000000324600000000000000
5093562013009004 RECHEADO NAPOLITANO - 30X140 GRS                           000000004200000000004570000001CXS  0000000000162300000000000000
5093562013009005 RECHEADO FLORESTA NEGRA-30X140 GRS                         000000004200000000004570000001CXS  0000000000162300000000000000
5093562013010001 TORTITA CHOCOLATE - 30X140 GRS                             000000008400000000009020000002CXS  0000000000399200000000000000
5093562013010002 TORTITA CHOCOLATE BRANCO 30X140 GR                         000000008400000000009020000002CXS  0000000000399200000000000000
5093562013011001 TORTITA MORANGO/CHANTILLY-30X140GR                         000000004200000000004510000001CXS  0000000000199600000000000000
5093562013011002 TORTITA CHOC.BCO/CHOC.LEITE 30X140                         000000008400000000009020000002CXS  0000000000399200000000000000
5093562013025001 RECHEADO BRIGADEIRO - 30X120 GRS                           000000007200000000007780000002CXS  0000000000335400000000000000
