0080515927000365    COTAM CIC INDAL.ALIMENTOS S.A.          23022005
11188600032330MAYEL PLAY CIAL LTDA-ME                 R.JOAQUIM MACHADO, 172/174              SAO PAULO/LAPA                          SP05050010000591858000178114.490.948.110     000REIMEX REPRESENTACOES L(11) 8327181   
21188601702200520022005003233000037CAIXASMBF                                     .                                       .                                       E
5118860010305001 WAFER NAPOLITANO - 30X140 GRS                              000000012600000000013860000003CXS  0000000000676200000000000000
5118860010305002 WAFER FLORESTA NEGRA - 30X140 GRS                          000000012600000000013860000003CXS  0000000000676200000000000000
5118860010305003 WAFER OBSESSION - 30X140 GRS                               000000012600000000013860000003CXS  0000000000676200000000000000
5118860010306001 WAFER CHOCOLATE - 30X140 GRS.                              000000008400000000009260000002CXS  0000000000450800000000000000
5118860010306002 WAFER MORANGO - 30X140 GRS.                                000000008400000000009260000002CXS  0000000000450800000000000000
5118860010306004 WAFER DOCE LEITE - 30X140 GRS.                             000000004200000000004630000001CXS  0000000000225400000000000000
5118860010306005 WAFER ATREVIDOS - 30X140 GRS.                              000000012600000000013860000003CXS  0000000000676200000000000000
5118860010307001 LOOK CHOCOLATE - 20 X 55 GRS                               000000005500000000007900000005CXS  0000000000594500000000000000
5118860010307002 LOOK MORANGO - 20 X 55 GRS                                 000000002200000000003160000002CXS  0000000000237800000000000000
5118860010307003 LOOK DOCE DE LEITE - 20 X 55 GRS                           000000001100000000001580000001CXS  0000000000118900000000000000
5118860010307005 LOOK FLORESTA NEGRA - 20 X 55 GRS                          000000003300000000004740000003CXS  0000000000356700000000000000
5118860010307007 LOOK ATREVIDOS - 20 X 55 GRS                               000000003300000000004740000003CXS  0000000000356700000000000000
5118860013012004 RECH.FLORINI CHOCOLATE - 12X360 GR                         000000012960000000014190000003CXS  0000000000470400000000000000
5118860013012005 RECH.FLORINI MORANGO - 12X360 GRS                          000000004320000000004730000001CXS  0000000000156800000000000000
5118860013012006 RECH.FLORINI CHOC.BRANCO-12X360 GR                         000000008640000000009460000002CXS  0000000000313600000000000000
11188610008648MEGA DOCES DISTRIB.ALIM.LTDA            RUA BARAO DO RIO BRANCO, 237            SAO PAULO/SANTO AMARO                   SP04753000001799007000188115.018.063.111     000REIMEX REPRESENTACOES L(11) 8327181   
21188611702200520022005000864800065CAIXASMBF                                     .                                       .                                       E
5118861010307001 LOOK CHOCOLATE - 20 X 55 GRS                               000000033000000000047400000030CXS  0000000003390000000000000000
5118861010307002 LOOK MORANGO - 20 X 55 GRS                                 000000011000000000015800000010CXS  0000000001130000000000000000
5118861010307003 LOOK DOCE DE LEITE - 20 X 55 GRS                           000000005500000000007900000005CXS  0000000000565000000000000000
5118861010307005 LOOK FLORESTA NEGRA - 20 X 55 GRS                          000000011000000000015800000010CXS  0000000001130000000000000000
5118861010307007 LOOK ATREVIDOS - 20 X 55 GRS                               000000011000000000015800000010CXS  0000000001130000000000000000
11188620002237FABIANA MARINO DE PAIVA                 ALAMEDA LORENA, 800-SALA 1006/7         SAO PAULO/JARDINS-10 ANDAR              SP0142400100000836364783712.711.687          000VDS DIRETAS - SAO PAULO               
21188621702200520022005000223700001CAIXASMBF                                     .                                       .                                       E
5118862010307007 LOOK ATREVIDOS - 20 X 55 GRS                               000000001100000000001580000001CXS  0000000000100000000000000000
11188630034848MARIA SEVERINA MIYAKAWA-ME              RUA DR.VITAL BRASIL, 135                GUARULHOS/VILA NOVA CUMBICA             SP07231370006957442000107336.734.708.115     000VS MALVONI REPRESENT.S/(11) 69092040  
21188631702200520022005003484800006CAIXASMBF                                     .                                       .                                       E
5118863010306001 WAFER CHOCOLATE - 30X140 GRS.                              000000008400000000009260000002CXS  0000000000466400000000000000
5118863010306002 WAFER MORANGO - 30X140 GRS.                                000000004200000000004630000001CXS  0000000000233200000000000000
5118863010306004 WAFER DOCE LEITE - 30X140 GRS.                             000000004200000000004630000001CXS  0000000000233200000000000000
5118863010307001 LOOK CHOCOLATE - 20 X 55 GRS                               000000001100000000001580000001CXS  0000000000136700000000000000
5118863010307007 LOOK ATREVIDOS - 20 X 55 GRS                               000000001100000000001580000001CXS  0000000000136700000000000000
11188640091956ROBERTO EDMUNDO CARVALHO-ME             RUA CEL.JOSE GLADIADOR, 217             SAO PAULO/MORRO DOCE                    SP05271000002212328000105114.914.784.111     000VS MALVONI REPRESENT.S/(11) 69092040  
21188641702200520022005009195600004CAIXASMBF                                     .                                       .                                       E
5118864010307001 LOOK CHOCOLATE - 20 X 55 GRS                               000000001100000000001580000001CXS  0000000000136700000000000000
5118864013007001 RECH.SPANTOOO CHOCOLATE - 30X140GR                         000000004200000000004550000001CXS  0000000000178500000000000000
5118864013007003 RECH.SPANTOOO CHOC.BRANCO-30X140GR                         000000004200000000004550000001CXS  0000000000178500000000000000
5118864013022001 RECHEADO ATREVIDOS - 30X115 GRS                            000000003450000000003700000001CXS  0000000000160000000000000000
11188650034795J.E.C.DE MELLO MERC.ME                  RUA ESTEBAO BERNADI, 97                 SAO PAULO/JD.SETE DE SETEMBRO           SP04854220002719021000197115.051.380.110     000VS MALVONI REPRESENT.S/(11) 69092040  
21188651702200520022005003479500007CAIXASMBF                                     .                                       .                                       E
5118865010305001 WAFER NAPOLITANO - 30X140 GRS                              000000004200000000004620000001CXS  0000000000254100000000000000
5118865010305002 WAFER FLORESTA NEGRA - 30X140 GRS                          000000004200000000004620000001CXS  0000000000254100000000000000
5118865010305003 WAFER OBSESSION - 30X140 GRS                               000000004200000000004620000001CXS  0000000000254100000000000000
5118865010306001 WAFER CHOCOLATE - 30X140 GRS.                              000000004200000000004630000001CXS  0000000000242700000000000000
5118865010306002 WAFER MORANGO - 30X140 GRS.                                000000004200000000004630000001CXS  0000000000242700000000000000
5118865010306004 WAFER DOCE LEITE - 30X140 GRS.                             000000004200000000004630000001CXS  0000000000242700000000000000
5118865010306005 WAFER ATREVIDOS - 30X140 GRS.                              000000004200000000004620000001CXS  0000000000254100000000000000
11188660091244SUPER.HISSATUGU LTDA                    RUA OLIMPIA, 307                        SANTO ANDRE/CAMILOPOLIS                 SP09230500074547654000176626.254.185.118     000VS MALVONI REPRESENT.S/(11) 69092040  
21188661702200520022005009124400072CAIXASMBF                                     .                                       .                                       E
5118866010305001 WAFER NAPOLITANO - 30X140 GRS                              000000021000000000023100000005CXS  0000000001210500000000000000
5118866010305002 WAFER FLORESTA NEGRA - 30X140 GRS                          000000021000000000023100000005CXS  0000000001210500000000000000
5118866010305003 WAFER OBSESSION - 30X140 GRS                               000000021000000000023100000005CXS  0000000001210500000000000000
5118866010306001 WAFER CHOCOLATE - 30X140 GRS.                              000000021000000000023150000005CXS  0000000001210500000000000000
5118866010306002 WAFER MORANGO - 30X140 GRS.                                000000012600000000013890000003CXS  0000000000726300000000000000
5118866010306004 WAFER DOCE LEITE - 30X140 GRS.                             000000008400000000009260000002CXS  0000000000484200000000000000
5118866010306005 WAFER ATREVIDOS - 30X140 GRS.                              000000021000000000023100000005CXS  0000000001210500000000000000
5118866010307001 LOOK CHOCOLATE - 20 X 55 GRS                               000000016500000000023700000015CXS  0000000001819500000000000000
5118866010307002 LOOK MORANGO - 20 X 55 GRS                                 000000005500000000007900000005CXS  0000000000606500000000000000
5118866010307003 LOOK DOCE DE LEITE - 20 X 55 GRS                           000000005500000000007900000005CXS  0000000000606500000000000000
5118866010307005 LOOK FLORESTA NEGRA - 20 X 55 GRS                          000000011000000000015800000010CXS  0000000001213000000000000000
5118866010307007 LOOK ATREVIDOS - 20 X 55 GRS                               000000005500000000007900000005CXS  0000000000606500000000000000
5118866010308002 WAFER MORANGO DIET - 30X120 GRS                            000000003600000000004100000001CXS  0000000000555000000000000000
5118866013008002 RECH.MORANGO DIET - 30X120 GRS                             000000003600000000003890000001CXS  0000000000385400000000000000
11188670091244SUPER.HISSATUGU LTDA                    RUA OLIMPIA, 307                        SANTO ANDRE/CAMILOPOLIS                 SP09230500074547654000176626.254.185.118     000VS MALVONI REPRESENT.S/(11) 69092040  
21188671702200520022005009124400003CAIXASMBF                                     .                                       .                                       E
5118867010306001 WAFER CHOCOLATE - 30X140 GRS.                              000000004200000000004630000001CXS  0000000000242100000000000000
5118867010306002 WAFER MORANGO - 30X140 GRS.                                000000004200000000004630000001CXS  0000000000242100000000000000
5118867010306004 WAFER DOCE LEITE - 30X140 GRS.                             000000004200000000004630000001CXS  0000000000242100000000000000
11188680033695MERCADINHO FLA TAK LTDA-ME              R.JOAO CORREA DE CASTRO, 30             SAO PAULO/JD.BRASILIA                   SP02859020002699982000187115.256.559.119     000VS MALVONI REPRESENT.S/(11) 69092040  
21188681702200520022005003369500004CAIXASMBF                                     .                                       .                                       E
5118868010305001 WAFER NAPOLITANO - 30X140 GRS                              000000004200000000004620000001CXS  0000000000257000000000000000
5118868010305002 WAFER FLORESTA NEGRA - 30X140 GRS                          000000004200000000004620000001CXS  0000000000257000000000000000
5118868010305003 WAFER OBSESSION - 30X140 GRS                               000000004200000000004620000001CXS  0000000000257000000000000000
5118868010306005 WAFER ATREVIDOS - 30X140 GRS.                              000000004200000000004620000001CXS  0000000000257000000000000000
11188690279252FARMACIA DROGAVISTA LTDA                AV. ADOLFO PINHEIRO, 1753               SAO PAULO/SANTO AMARO                   SP04733300062217799000120105.983.379.115     000VDS DIRETAS - SAO PAULO               
21188691702200520022005027925200002CAIXASMBF                                     .                                       .                                       E
5118869010308002 WAFER MORANGO DIET - 30X120 GRS                            000000003600000000004100000001CXS  0000000000500000000000000000
5118869013008002 RECH.MORANGO DIET - 30X120 GRS                             000000003600000000003890000001CXS  0000000000300000000000000000
11188700091001WAL-MART BRASIL S/A                     ESTRADA DOS ALPES, 320                  BARUERI/JD.BELVAL                       SP06650000000063960000958373.030.134.119     000VDS DIRETAS - SAO PAULO               
21188701702200520022005009100100029CAIXASMBF                                     .                                       .                                       E
5118870010305001 WAFER NAPOLITANO - 30X140 GRS                              000000029400000000032340000007CXS  0000000001768900000000000000
5118870010307002 LOOK MORANGO - 20 X 55 GRS                                 000000016500000000023700000015CXS  0000000001918500000000000000
5118870010308002 WAFER MORANGO DIET - 30X120 GRS                            000000014400000000016400000004CXS  0000000002338000000000000000
5118870013008002 RECH.MORANGO DIET - 30X120 GRS                             000000010800000000011670000003CXS  0000000001224300000000000000
11188710000032SORAIA DE SOUZA LIMA-ME                 RUA JOSE LOPES RODRIGUES, 780           SAO PAULO/ERM.MATARAZZO                 SP03810150060167095000164110.426.084.116     000JAIME FRANCISCO DAS DOR(11) 69014795  
21188711702200520022005000003200120CAIXASMBF                                     .                                       .                                       E
5118871010306001 WAFER CHOCOLATE - 30X140 GRS.                              000000042000000000046300000010CXS  0000000002012000000000000000
5118871010307001 LOOK CHOCOLATE - 20 X 55 GRS                               000000077000000000110600000070CXS  0000000007532000000000000000
5118871010307002 LOOK MORANGO - 20 X 55 GRS                                 000000044000000000063200000040CXS  0000000004304000000000000000
11188720032110COM.DE DOCES DOCEMILA LTDA-ME           R.AMERICO SUGAI, 68                     SAO PAULO/VILA JACUI                    SP08060380005634321000161116.586.214.111     000JAIME FRANCISCO DAS DOR(11) 69014795  
21188721702200520022005003211000165CAIXASMBF                                     .                                       .                                       E
5118872010305001 WAFER NAPOLITANO - 30X140 GRS                              000000012600000000013860000003CXS  0000000000648000000000000000
5118872010305002 WAFER FLORESTA NEGRA - 30X140 GRS                          000000012600000000013860000003CXS  0000000000648000000000000000
5118872010305003 WAFER OBSESSION - 30X140 GRS                               000000012600000000013860000003CXS  0000000000648000000000000000
5118872010306001 WAFER CHOCOLATE - 30X140 GRS.                              000000012600000000013890000003CXS  0000000000648000000000000000
5118872010306005 WAFER ATREVIDOS - 30X140 GRS.                              000000012600000000013860000003CXS  0000000000648000000000000000
5118872010307001 LOOK CHOCOLATE - 20 X 55 GRS                               000000066000000000094800000060CXS  0000000006306000000000000000
5118872010307002 LOOK MORANGO - 20 X 55 GRS                                 000000033000000000047400000030CXS  0000000003153000000000000000
5118872010307003 LOOK DOCE DE LEITE - 20 X 55 GRS                           000000022000000000031600000020CXS  0000000002102000000000000000
5118872010307005 LOOK FLORESTA NEGRA - 20 X 55 GRS                          000000022000000000031600000020CXS  0000000002102000000000000000
5118872010307007 LOOK ATREVIDOS - 20 X 55 GRS                               000000022000000000031600000020CXS  0000000002102000000000000000
11188730033629NELSON KOITI TAMADA                     AV. SAO MIGUEL, 4.027                   SAO PAULO/PONTE RASA                    SP03741000096422043000134113.726.975.116     000JAIME FRANCISCO DAS DOR(11) 69014795  
21188731702200520022005003362900090CAIXASMBF                                     .                                       .                                       E
5118873010307001 LOOK CHOCOLATE - 20 X 55 GRS                               000000044000000000063200000040CXS  0000000004328000000000000000
5118873010307002 LOOK MORANGO - 20 X 55 GRS                                 000000011000000000015800000010CXS  0000000001082000000000000000
5118873010307003 LOOK DOCE DE LEITE - 20 X 55 GRS                           000000011000000000015800000010CXS  0000000001082000000000000000
5118873010307005 LOOK FLORESTA NEGRA - 20 X 55 GRS                          000000011000000000015800000010CXS  0000000001082000000000000000
5118873010307007 LOOK ATREVIDOS - 20 X 55 GRS                               000000011000000000015800000010CXS  0000000001082000000000000000
5118873013601002 BISCOITO MILANO COCO - 30X130 GRS                          000000011700000000012540000003CXS  0000000000353400000000000000
5118873013601003 BISCOITO MILANO LEITE - 30X130 GRS                         000000019500000000020900000005CXS  0000000000589000000000000000
5118873013601004 BISC.MILANO BOLO DE FUBA-30X130 GR                         000000007800000000008360000002CXS  0000000000235600000000000000
11188740092257DOCES E SALGADOS PENHA LTDA             RUA PE.ANTONIO BENEDITO, 32             SAO PAULO/PENHA                         SP03634130002747118000103115.095.068.119     000JAIME FRANCISCO DAS DOR(11) 69014795  
21188741702200520022005009225700031CAIXASMBF                                     .                                       .                                       E
5118874010307001 LOOK CHOCOLATE - 20 X 55 GRS                               000000011000000000015800000010CXS  0000000001104000000000000000
5118874010307002 LOOK MORANGO - 20 X 55 GRS                                 000000004400000000006320000004CXS  0000000000441600000000000000
5118874010307003 LOOK DOCE DE LEITE - 20 X 55 GRS                           000000003300000000004740000003CXS  0000000000331200000000000000
5118874010307005 LOOK FLORESTA NEGRA - 20 X 55 GRS                          000000006600000000009480000006CXS  0000000000662400000000000000
5118874010307007 LOOK ATREVIDOS - 20 X 55 GRS                               000000006600000000009480000006CXS  0000000000662400000000000000
5118874010308002 WAFER MORANGO DIET - 30X120 GRS                            000000003600000000004100000001CXS  0000000000473200000000000000
5118874013008002 RECH.MORANGO DIET - 30X120 GRS                             000000003600000000003890000001CXS  0000000000328500000000000000
11188750093040JACLELY COM.DISTRIB.MIUDEZAS            AV.JUREMA, 630                          GUARULHOS/PQ.JUREMA                     SP07244000061806576000135336.265.780.110     000JAIME FRANCISCO DAS DOR(11) 69014795  
21188751702200520022005009304000100CAIXASMBF                                     .                                       .                                       E
5118875010307001 LOOK CHOCOLATE - 20 X 55 GRS                               000000055000000000079000000050CXS  0000000005410000000000000000
5118875010307002 LOOK MORANGO - 20 X 55 GRS                                 000000011000000000015800000010CXS  0000000001082000000000000000
5118875010307003 LOOK DOCE DE LEITE - 20 X 55 GRS                           000000011000000000015800000010CXS  0000000001082000000000000000
5118875010307005 LOOK FLORESTA NEGRA - 20 X 55 GRS                          000000016500000000023700000015CXS  0000000001623000000000000000
5118875010307007 LOOK ATREVIDOS - 20 X 55 GRS                               000000016500000000023700000015CXS  0000000001623000000000000000
11188760009930MAIS DOCE DISTRIB.PROD.ALIMENT.L        RUA BARAO DO RIO BRANCO, 205            SAO PAULO/SANTO AMARO                   SP04753000004433818000159116.140.581.119     000JAIME FRANCISCO DAS DOR(11) 69014795  
21188761702200520022005000993000100CAIXASMBF                                     .                                       .                                       E
5118876010307001 LOOK CHOCOLATE - 20 X 55 GRS                               000000044000000000063200000040CXS  0000000004416000000000000000
5118876010307002 LOOK MORANGO - 20 X 55 GRS                                 000000016500000000023700000015CXS  0000000001656000000000000000
5118876010307003 LOOK DOCE DE LEITE - 20 X 55 GRS                           000000016500000000023700000015CXS  0000000001656000000000000000
5118876010307005 LOOK FLORESTA NEGRA - 20 X 55 GRS                          000000016500000000023700000015CXS  0000000001656000000000000000
5118876010307007 LOOK ATREVIDOS - 20 X 55 GRS                               000000016500000000023700000015CXS  0000000001656000000000000000
11188770273538MARCELO FACETO-ME                       AV.ITAQUERA, 3.000                      SAO PAULO/JD.ST.MARIA/ITAQUERA          SP03526000000192502000161114.142.550.116     000JAIME FRANCISCO DAS DOR(11) 69014795  
21188771702200520022005027353800090CAIXASMBF                                     .                                       .                                       E
5118877010305001 WAFER NAPOLITANO - 30X140 GRS                              000000021000000000023100000005CXS  0000000001080000000000000000
5118877010305002 WAFER FLORESTA NEGRA - 30X140 GRS                          000000021000000000023100000005CXS  0000000001080000000000000000
5118877010305003 WAFER OBSESSION - 30X140 GRS                               000000021000000000023100000005CXS  0000000001080000000000000000
5118877010306005 WAFER ATREVIDOS - 30X140 GRS.                              000000021000000000023100000005CXS  0000000001080000000000000000
5118877010307001 LOOK CHOCOLATE - 20 X 55 GRS                               000000033000000000047400000030CXS  0000000003246000000000000000
5118877010307002 LOOK MORANGO - 20 X 55 GRS                                 000000011000000000015800000010CXS  0000000001082000000000000000
5118877010307003 LOOK DOCE DE LEITE - 20 X 55 GRS                           000000011000000000015800000010CXS  0000000001082000000000000000
5118877010307005 LOOK FLORESTA NEGRA - 20 X 55 GRS                          000000011000000000015800000010CXS  0000000001082000000000000000
5118877010307007 LOOK ATREVIDOS - 20 X 55 GRS                               000000011000000000015800000010CXS  0000000001082000000000000000
11188780092112MERC.DURVALLES LTDA                     AV.SARG.IRACITA COIMBRA, 367            SAO PAULO/JD.VERA CRUZ                  SP08310580002601534000107115.132.229.110     000VS MALVONI REPRESENT.S/(11) 69092040  
21188781702200520022005009211200009CAIXASMBF                                     .                                       .                                       E
5118878010307001 LOOK CHOCOLATE - 20 X 55 GRS                               000000001100000000001580000001CXS  0000000000138600000000000000
5118878010307002 LOOK MORANGO - 20 X 55 GRS                                 000000001100000000001580000001CXS  0000000000138600000000000000
5118878013007001 RECH.SPANTOOO CHOCOLATE - 30X140GR                         000000004200000000004550000001CXS  0000000000175600000000000000
5118878013007002 RECH.SPANTOOO MORANGO - 30X140 GRS                         000000004200000000004550000001CXS  0000000000175600000000000000
5118878013007003 RECH.SPANTOOO CHOC.BRANCO-30X140GR                         000000004200000000004550000001CXS  0000000000175600000000000000
5118878013007004 RECH.SPANTOOO TUTTI-FRUTTI-30X140G                         000000004200000000004600000001CXS  0000000000175600000000000000
5118878013601002 BISCOITO MILANO COCO - 30X130 GRS                          000000003900000000004180000001CXS  0000000000128800000000000000
5118878013601003 BISCOITO MILANO LEITE - 30X130 GRS                         000000003900000000004180000001CXS  0000000000128800000000000000
5118878013601004 BISC.MILANO BOLO DE FUBA-30X130 GR                         000000003900000000004180000001CXS  0000000000128800000000000000
11188790034605BERNADETE ESTEVAO CREPALDI-ME           RUA DO COMERCIO, 207                    ITARIRI/CENTRO                          SP11760000002763576000136381.005.863.110     000VS MALVONI REPRESENT.S/(11) 69092040  
21188791702200520022005003460500036CAIXASMBF                                     .                                       .                                       E
5118879010305001 WAFER NAPOLITANO - 30X140 GRS                              000000016800000000018480000004CXS  0000000001006800000000000000
5118879010305002 WAFER FLORESTA NEGRA - 30X140 GRS                          000000016800000000018480000004CXS  0000000001006800000000000000
5118879010305003 WAFER OBSESSION - 30X140 GRS                               000000016800000000018480000004CXS  0000000001006800000000000000
5118879010306005 WAFER ATREVIDOS - 30X140 GRS.                              000000016800000000018480000004CXS  0000000001006800000000000000
5118879013007001 RECH.SPANTOOO CHOCOLATE - 30X140GR                         000000016800000000018200000004CXS  0000000000667200000000000000
5118879013007002 RECH.SPANTOOO MORANGO - 30X140 GRS                         000000016800000000018200000004CXS  0000000000667200000000000000
5118879013007003 RECH.SPANTOOO CHOC.BRANCO-30X140GR                         000000016800000000018200000004CXS  0000000000667200000000000000
5118879013007004 RECH.SPANTOOO TUTTI-FRUTTI-30X140G                         000000016800000000018400000004CXS  0000000000667200000000000000
5118879013022001 RECHEADO ATREVIDOS - 30X115 GRS                            000000013800000000014800000004CXS  0000000000625200000000000000
11188800032637NUTRIN SISTEMAS DE ALIM.LTDA            R.FRANCISCO LAPERRE, 295                AMERICANA/V. SAO PEDRO                  SP04696000043560788000101165.140.633.119     000VS MALVONI REPRESENT.S/(11) 69092040  
21188801702200520022005003263700009CAIXASMBF                                     .                                       .                                       E
5118880010305001 WAFER NAPOLITANO - 30X140 GRS                              000000008400000000009240000002CXS  0000000000514000000000000000
5118880010305002 WAFER FLORESTA NEGRA - 30X140 GRS                          000000008400000000009240000002CXS  0000000000514000000000000000
5118880010305003 WAFER OBSESSION - 30X140 GRS                               000000008400000000009240000002CXS  0000000000514000000000000000
5118880013601003 BISCOITO MILANO LEITE - 30X130 GRS                         000000003900000000004180000001CXS  0000000000135900000000000000
5118880013601004 BISC.MILANO BOLO DE FUBA-30X130 GR                         000000007800000000008360000002CXS  0000000000271800000000000000
11188810092633MERCADO RIO DOURADO LTDA-ME             RUA PRESIDENTE PRUDENTE, 357            DIADEMA/JD IVONE                        SP09972300064604416000100286.096.494.110     000VS MALVONI REPRESENT.S/(11) 69092040  
21188811702200520022005009263300003CAIXASMBF                                     .                                       .                                       E
5118881013007001 RECH.SPANTOOO CHOCOLATE - 30X140GR                         000000008400000000009100000002CXS  0000000000333600000000000000
5118881013007003 RECH.SPANTOOO CHOC.BRANCO-30X140GR                         000000004200000000004550000001CXS  0000000000166800000000000000
11188820273938MINIMERCADO MARFRAN LTDA                RUA LEILA M.BARROS MONTEIRO, 148        PRAIA GRANDE/VL.ANTARTICA               SP01172118004939360000104558.172.546.110     000VS MALVONI REPRESENT.S/(11) 69092040  
21188821702200520022005027393800027CAIXASMBF                                     .                                       .                                       E
5118882010305001 WAFER NAPOLITANO - 30X140 GRS                              000000004200000000004620000001CXS  0000000000246400000000000000
5118882010305002 WAFER FLORESTA NEGRA - 30X140 GRS                          000000008400000000009240000002CXS  0000000000492800000000000000
5118882010306001 WAFER CHOCOLATE - 30X140 GRS.                              000000021000000000023150000005CXS  0000000001232000000000000000
5118882010306002 WAFER MORANGO - 30X140 GRS.                                000000008400000000009260000002CXS  0000000000492800000000000000
5118882010306004 WAFER DOCE LEITE - 30X140 GRS.                             000000008400000000009260000002CXS  0000000000492800000000000000
5118882010306005 WAFER ATREVIDOS - 30X140 GRS.                              000000008400000000009240000002CXS  0000000000492800000000000000
5118882010307001 LOOK CHOCOLATE - 20 X 55 GRS                               000000001100000000001580000001CXS  0000000000134000000000000000
5118882010307005 LOOK FLORESTA NEGRA - 20 X 55 GRS                          000000001100000000001580000001CXS  0000000000134000000000000000
5118882013007001 RECH.SPANTOOO CHOCOLATE - 30X140GR                         000000008400000000009100000002CXS  0000000000337200000000000000
5118882013007002 RECH.SPANTOOO MORANGO - 30X140 GRS                         000000004200000000004550000001CXS  0000000000168600000000000000
5118882013007003 RECH.SPANTOOO CHOC.BRANCO-30X140GR                         000000004200000000004550000001CXS  0000000000168600000000000000
5118882013022001 RECHEADO ATREVIDOS - 30X115 GRS                            000000003450000000003700000001CXS  0000000000156300000000000000
5118882013601002 BISCOITO MILANO COCO - 30X130 GRS                          000000011700000000012540000003CXS  0000000000416400000000000000
5118882013601003 BISCOITO MILANO LEITE - 30X130 GRS                         000000007800000000008360000002CXS  0000000000277600000000000000
5118882013601004 BISC.MILANO BOLO DE FUBA-30X130 GR                         000000003900000000004180000001CXS  0000000000138800000000000000
11188830034463E.A.DE OLIVEIRA MERCADO-ME              AV.MARIA CAVALCANTE SILVA, 32279        PRAIA GRANDE/JD.SAMAMBAIA               SP11712560003495805000141558.105.412.114     000VS MALVONI REPRESENT.S/(11) 69092040  
21188831702200520022005003446300015CAIXASMBF                                     .                                       .                                       E
5118883010305001 WAFER NAPOLITANO - 30X140 GRS                              000000012600000000013860000003CXS  0000000000739200000000000000
5118883010305002 WAFER FLORESTA NEGRA - 30X140 GRS                          000000012600000000013860000003CXS  0000000000739200000000000000
5118883010305003 WAFER OBSESSION - 30X140 GRS                               000000012600000000013860000003CXS  0000000000739200000000000000
5118883010307001 LOOK CHOCOLATE - 20 X 55 GRS                               000000001100000000001580000001CXS  0000000000132600000000000000
5118883010307002 LOOK MORANGO - 20 X 55 GRS                                 000000001100000000001580000001CXS  0000000000132600000000000000
5118883010307003 LOOK DOCE DE LEITE - 20 X 55 GRS                           000000001100000000001580000001CXS  0000000000132600000000000000
5118883013007001 RECH.SPANTOOO CHOCOLATE - 30X140GR                         000000004200000000004550000001CXS  0000000000170300000000000000
5118883013007002 RECH.SPANTOOO MORANGO - 30X140 GRS                         000000004200000000004550000001CXS  0000000000170300000000000000
5118883013007003 RECH.SPANTOOO CHOC.BRANCO-30X140GR                         000000004200000000004550000001CXS  0000000000170300000000000000
11188840091305SUPER.SIMONICA-LJ.01                    RUA JOAO LOURENCO DE ARAUJO, 62         SAO PAULO/FREGUESIA DO O                SP02758000047381868000142109.523.647.110     000VS MALVONI REPRESENT.S/(11) 69092040  
21188841702200520022005009130500024CAIXASMBF                                     .                                       .                                       E
5118884010305001 WAFER NAPOLITANO - 30X140 GRS                              000000008400000000009240000002CXS  0000000000542600000000000000
5118884010305003 WAFER OBSESSION - 30X140 GRS                               000000008400000000009240000002CXS  0000000000542600000000000000
5118884010306001 WAFER CHOCOLATE - 30X140 GRS.                              000000008400000000009260000002CXS  0000000000509000000000000000
5118884010306002 WAFER MORANGO - 30X140 GRS.                                000000008400000000009260000002CXS  0000000000509000000000000000
5118884010306005 WAFER ATREVIDOS - 30X140 GRS.                              000000008400000000009240000002CXS  0000000000542600000000000000
5118884010307001 LOOK CHOCOLATE - 20 X 55 GRS                               000000002200000000003160000002CXS  0000000000273400000000000000
5118884010307005 LOOK FLORESTA NEGRA - 20 X 55 GRS                          000000001100000000001580000001CXS  0000000000136700000000000000
5118884010307007 LOOK ATREVIDOS - 20 X 55 GRS                               000000002200000000003160000002CXS  0000000000273400000000000000
5118884010308002 WAFER MORANGO DIET - 30X120 GRS                            000000003600000000004100000001CXS  0000000000587300000000000000
5118884013007003 RECH.SPANTOOO CHOC.BRANCO-30X140GR                         000000008400000000009100000002CXS  0000000000361600000000000000
5118884013007004 RECH.SPANTOOO TUTTI-FRUTTI-30X140G                         000000008400000000009200000002CXS  0000000000361600000000000000
5118884013008002 RECH.MORANGO DIET - 30X120 GRS                             000000003600000000003890000001CXS  0000000000407100000000000000
5118884013022001 RECHEADO ATREVIDOS - 30X115 GRS                            000000006900000000007400000002CXS  0000000000300000000000000000
5118884013601004 BISC.MILANO BOLO DE FUBA-30X130 GR                         000000003900000000004180000001CXS  0000000000147000000000000000
11188850091306SUPER.BALLESTEROS LTDA                  AV.INAJAR DE SOUZA, 5.466               SAO PAULO/VL.SOUZA                      SP02882160074516956000187113.979.952.118     000VS MALVONI REPRESENT.S/(11) 69092040  
21188851702200520022005009130600033CAIXASMBF                                     .                                       .                                       E
5118885010305001 WAFER NAPOLITANO - 30X140 GRS                              000000008400000000009240000002CXS  0000000000542600000000000000
5118885010305002 WAFER FLORESTA NEGRA - 30X140 GRS                          000000008400000000009240000002CXS  0000000000542600000000000000
5118885010305003 WAFER OBSESSION - 30X140 GRS                               000000008400000000009240000002CXS  0000000000542600000000000000
5118885010306001 WAFER CHOCOLATE - 30X140 GRS.                              000000008400000000009260000002CXS  0000000000509000000000000000
5118885010306002 WAFER MORANGO - 30X140 GRS.                                000000008400000000009260000002CXS  0000000000489000000000000000
5118885010306005 WAFER ATREVIDOS - 30X140 GRS.                              000000008400000000009240000002CXS  0000000000542600000000000000
5118885010307001 LOOK CHOCOLATE - 20 X 55 GRS                               000000002200000000003160000002CXS  0000000000273400000000000000
5118885010307005 LOOK FLORESTA NEGRA - 20 X 55 GRS                          000000001100000000001580000001CXS  0000000000136700000000000000
5118885010307007 LOOK ATREVIDOS - 20 X 55 GRS                               000000002200000000003160000002CXS  0000000000273400000000000000
5118885010308002 WAFER MORANGO DIET - 30X120 GRS                            000000003600000000004100000001CXS  0000000000587300000000000000
5118885013007001 RECH.SPANTOOO CHOCOLATE - 30X140GR                         000000008400000000009100000002CXS  0000000000361600000000000000
5118885013007003 RECH.SPANTOOO CHOC.BRANCO-30X140GR                         000000008400000000009100000002CXS  0000000000361600000000000000
5118885013007004 RECH.SPANTOOO TUTTI-FRUTTI-30X140G                         000000008400000000009200000002CXS  0000000000361600000000000000
5118885013008002 RECH.MORANGO DIET - 30X120 GRS                             000000003600000000003890000001CXS  0000000000407100000000000000
5118885013022001 RECHEADO ATREVIDOS - 30X115 GRS                            000000006900000000007400000002CXS  0000000000300000000000000000
5118885013601002 BISCOITO MILANO COCO - 30X130 GRS                          000000007800000000008360000002CXS  0000000000294000000000000000
5118885013601003 BISCOITO MILANO LEITE - 30X130 GRS                         000000007800000000008360000002CXS  0000000000294000000000000000
5118885013601004 BISC.MILANO BOLO DE FUBA-30X130 GR                         000000007800000000008360000002CXS  0000000000294000000000000000
11188860032233SUPER.BALESTEROS LTDA                   AV.RAIMUNDO P.DE MAGALHAES,11333        SAO PAULO/CITY JARAGUA                  SP02938000074516956000268116.600.500.110     000VS MALVONI REPRESENT.S/(11) 69092040  
21188861702200520022005003223300035CAIXASMBF                                     .                                       .                                       E
5118886010305002 WAFER FLORESTA NEGRA - 30X140 GRS                          000000008400000000009240000002CXS  0000000000542600000000000000
5118886010306001 WAFER CHOCOLATE - 30X140 GRS.                              000000012600000000013890000003CXS  0000000000763500000000000000
5118886010306002 WAFER MORANGO - 30X140 GRS.                                000000008400000000009260000002CXS  0000000000509000000000000000
5118886010306004 WAFER DOCE LEITE - 30X140 GRS.                             000000008400000000009260000002CXS  0000000000509000000000000000
5118886010306005 WAFER ATREVIDOS - 30X140 GRS.                              000000008400000000009240000002CXS  0000000000542600000000000000
5118886010307001 LOOK CHOCOLATE - 20 X 55 GRS                               000000002200000000003160000002CXS  0000000000273400000000000000
5118886010307002 LOOK MORANGO - 20 X 55 GRS                                 000000002200000000003160000002CXS  0000000000273400000000000000
5118886010307005 LOOK FLORESTA NEGRA - 20 X 55 GRS                          000000001100000000001580000001CXS  0000000000136700000000000000
5118886010307007 LOOK ATREVIDOS - 20 X 55 GRS                               000000002200000000003160000002CXS  0000000000273400000000000000
5118886010308002 WAFER MORANGO DIET - 30X120 GRS                            000000003600000000004100000001CXS  0000000000587300000000000000
5118886013007001 RECH.SPANTOOO CHOCOLATE - 30X140GR                         000000008400000000009100000002CXS  0000000000361600000000000000
5118886013007003 RECH.SPANTOOO CHOC.BRANCO-30X140GR                         000000008400000000009100000002CXS  0000000000361600000000000000
5118886013007004 RECH.SPANTOOO TUTTI-FRUTTI-30X140G                         000000008400000000009200000002CXS  0000000000361600000000000000
5118886013008002 RECH.MORANGO DIET - 30X120 GRS                             000000003600000000003890000001CXS  0000000000407100000000000000
5118886013022001 RECHEADO ATREVIDOS - 30X115 GRS                            000000010350000000011100000003CXS  0000000000450000000000000000
5118886013601002 BISCOITO MILANO COCO - 30X130 GRS                          000000007800000000008360000002CXS  0000000000294000000000000000
5118886013601003 BISCOITO MILANO LEITE - 30X130 GRS                         000000007800000000008360000002CXS  0000000000294000000000000000
5118886013601004 BISC.MILANO BOLO DE FUBA-30X130 GR                         000000007800000000008360000002CXS  0000000000294000000000000000
11188870034541MERCADINHO FABIANA JUQUITIBA LTD        AV. 31 DE MARCO, 100                    JUQUITIBA/JUSTINOS                      SP06950000007005656000146410.068.669.115     000VS MALVONI REPRESENT.S/(11) 69092040  
21188871702200520022005003454100041CAIXASMBF                                     .                                       .                                       E
5118887010306001 WAFER CHOCOLATE - 30X140 GRS.                              000000004200000000004630000001CXS  0000000000265000000000000000
5118887010306002 WAFER MORANGO - 30X140 GRS.                                000000004200000000004630000001CXS  0000000000265000000000000000
5118887010306004 WAFER DOCE LEITE - 30X140 GRS.                             000000004200000000004630000001CXS  0000000000265000000000000000
5118887010306005 WAFER ATREVIDOS - 30X140 GRS.                              000000004200000000004620000001CXS  0000000000265000000000000000
5118887010307001 LOOK CHOCOLATE - 20 X 55 GRS                               000000001100000000001580000001CXS  0000000000136700000000000000
5118887010307003 LOOK DOCE DE LEITE - 20 X 55 GRS                           000000001100000000001580000001CXS  0000000000136700000000000000
5118887013007001 RECH.SPANTOOO CHOCOLATE - 30X140GR                         000000004200000000004550000001CXS  0000000000175600000000000000
5118887013007002 RECH.SPANTOOO MORANGO - 30X140 GRS                         000000004200000000004550000001CXS  0000000000175600000000000000
5118887013007003 RECH.SPANTOOO CHOC.BRANCO-30X140GR                         000000004200000000004550000001CXS  0000000000175600000000000000
5118887013014005 RECH.FIORETTO CHOCOLATE-30X115 GRS                         000000034500000000037700000010CXS  0000000001133000000000000000
5118887013014006 RECH.FIORETTO MORANGO-30X115 GRS                           000000034500000000037700000010CXS  0000000001133000000000000000
5118887013014007 RECH.FIORETTO BAUN.C/FLOCOS-30X115                         000000020700000000022620000006CXS  0000000000679800000000000000
5118887013014008 RECH.FIORETTO DOCE DE LEITE-30X115                         000000020700000000022620000006CXS  0000000000679800000000000000
11188880034541MERCADINHO FABIANA JUQUITIBA LTD        AV. 31 DE MARCO, 100                    JUQUITIBA/JUSTINOS                      SP06950000007005656000146410.068.669.115     000VS MALVONI REPRESENT.S/(11) 69092040  
21188881702200520022005003454100004CAIXASMBF                                     .                                       .                                       E
5118888013014007 RECH.FIORETTO BAUN.C/FLOCOS-30X115                         000000006900000000007540000002CXS  0000000000226600000000000000
5118888013014008 RECH.FIORETTO DOCE DE LEITE-30X115                         000000006900000000007540000002CXS  0000000000226600000000000000
11188890032197MINI MERC.NOSSA SRA DO CAMINHO          R.MARGARIDA C.ALBUQUERQUE, 69           SAO PAULO/JD.LAURA-ITAIM                SP08142260058516675000178112.037.020.113     000VS MALVONI REPRESENT.S/(11) 69092040  
21188891702200520022005003219700010CAIXASMBF                                     .                                       .                                       E
5118889010305001 WAFER NAPOLITANO - 30X140 GRS                              000000008400000000009240000002CXS  0000000000530000000000000000
5118889010305002 WAFER FLORESTA NEGRA - 30X140 GRS                          000000004200000000004620000001CXS  0000000000265000000000000000
5118889010305003 WAFER OBSESSION - 30X140 GRS                               000000004200000000004620000001CXS  0000000000265000000000000000
5118889010306005 WAFER ATREVIDOS - 30X140 GRS.                              000000012600000000013860000003CXS  0000000000795000000000000000
5118889013007001 RECH.SPANTOOO CHOCOLATE - 30X140GR                         000000004200000000004550000001CXS  0000000000170300000000000000
5118889013007003 RECH.SPANTOOO CHOC.BRANCO-30X140GR                         000000004200000000004550000001CXS  0000000000170300000000000000
5118889013007004 RECH.SPANTOOO TUTTI-FRUTTI-30X140G                         000000004200000000004600000001CXS  0000000000170300000000000000
11188900032198REGINALDO ZATTA ROSENTAL-ME             RUA ARVORE DE NEVE, 65                  SAO PAULO/JD.MAIA                       SP08081270002089046000154115.693.709.110     000VS MALVONI REPRESENT.S/(11) 69092040  
21188901702200520022005003219800018CAIXASMBF                                     .                                       .                                       E
5118890010305002 WAFER FLORESTA NEGRA - 30X140 GRS                          000000008400000000009240000002CXS  0000000000514000000000000000
5118890010305003 WAFER OBSESSION - 30X140 GRS                               000000008400000000009240000002CXS  0000000000514000000000000000
5118890010306005 WAFER ATREVIDOS - 30X140 GRS.                              000000008400000000009240000002CXS  0000000000514000000000000000
5118890010307001 LOOK CHOCOLATE - 20 X 55 GRS                               000000003300000000004740000003CXS  0000000000410100000000000000
5118890010307003 LOOK DOCE DE LEITE - 20 X 55 GRS                           000000001100000000001580000001CXS  0000000000136700000000000000
5118890010307005 LOOK FLORESTA NEGRA - 20 X 55 GRS                          000000002200000000003160000002CXS  0000000000273400000000000000
5118890010307007 LOOK ATREVIDOS - 20 X 55 GRS                               000000001100000000001580000001CXS  0000000000136700000000000000
5118890013007001 RECH.SPANTOOO CHOCOLATE - 30X140GR                         000000012600000000013650000003CXS  0000000000510900000000000000
5118890013007002 RECH.SPANTOOO MORANGO - 30X140 GRS                         000000004200000000004550000001CXS  0000000000170300000000000000
5118890013007003 RECH.SPANTOOO CHOC.BRANCO-30X140GR                         000000004200000000004550000001CXS  0000000000170300000000000000
11188910091431SUPER.ORLANDO MORANDO LTDA              EST.GALVAO BUENO, 5.015                 SAO BERNARDO DO CAMPO/BATISTINI         SP09812080058740572000197635.135.431.113     000VS MALVONI REPRESENT.S/(11) 69092040  
21188911702200520022005009143100012CAIXASMBF                                     .                                       .                                       E
5118891010305001 WAFER NAPOLITANO - 30X140 GRS                              000000004200000000004620000001CXS  0000000000248900000000000000
5118891010305002 WAFER FLORESTA NEGRA - 30X140 GRS                          000000004200000000004620000001CXS  0000000000248900000000000000
5118891010305003 WAFER OBSESSION - 30X140 GRS                               000000004200000000004620000001CXS  0000000000248900000000000000
5118891010306005 WAFER ATREVIDOS - 30X140 GRS.                              000000004200000000004620000001CXS  0000000000248900000000000000
5118891010307001 LOOK CHOCOLATE - 20 X 55 GRS                               000000001100000000001580000001CXS  0000000000124700000000000000
5118891010307002 LOOK MORANGO - 20 X 55 GRS                                 000000001100000000001580000001CXS  0000000000124700000000000000
5118891010307003 LOOK DOCE DE LEITE - 20 X 55 GRS                           000000001100000000001580000001CXS  0000000000124700000000000000
5118891010307005 LOOK FLORESTA NEGRA - 20 X 55 GRS                          000000001100000000001580000001CXS  0000000000124700000000000000
5118891010307007 LOOK ATREVIDOS - 20 X 55 GRS                               000000001100000000001580000001CXS  0000000000124700000000000000
5118891013007001 RECH.SPANTOOO CHOCOLATE - 30X140GR                         000000008400000000009100000002CXS  0000000000333600000000000000
5118891013022001 RECHEADO ATREVIDOS - 30X115 GRS                            000000003450000000003700000001CXS  0000000000153000000000000000
11188920034044MERCADINHO GAROTINHO LTDA-ME            EST.LAZARO AMANCIO BAROS, 408.          SAO PAULO/VILA BRASILANDIA              SP02846010006155363000182116.779.810.118     000VS MALVONI REPRESENT.S/(11) 69092040  
21188921702200520022005003404400004CAIXASMBF                                     .                                       .                                       E
5118892010307001 LOOK CHOCOLATE - 20 X 55 GRS                               000000001100000000001580000001CXS  0000000000136700000000000000
5118892010307007 LOOK ATREVIDOS - 20 X 55 GRS                               000000001100000000001580000001CXS  0000000000136700000000000000
5118892013007001 RECH.SPANTOOO CHOCOLATE - 30X140GR                         000000004200000000004550000001CXS  0000000000178500000000000000
5118892013007003 RECH.SPANTOOO CHOC.BRANCO-30X140GR                         000000004200000000004550000001CXS  0000000000178500000000000000
11188930034502MINIMERCADO BRAGA SOUZA LTDA-EPP        R.MONTE ALEGRE DO SUL, 841              SAO PAULO/JD.BOA VISTA                  SP02859080006941449000130116.873.932.110     000VS MALVONI REPRESENT.S/(11) 69092040  
21188931702200520022005003450200012CAIXASMBF                                     .                                       .                                       E
5118893010305002 WAFER FLORESTA NEGRA - 30X140 GRS                          000000008400000000009240000002CXS  0000000000514000000000000000
5118893010305003 WAFER OBSESSION - 30X140 GRS                               000000008400000000009240000002CXS  0000000000514000000000000000
5118893010306005 WAFER ATREVIDOS - 30X140 GRS.                              000000008400000000009240000002CXS  0000000000514000000000000000
5118893010307001 LOOK CHOCOLATE - 20 X 55 GRS                               000000001100000000001580000001CXS  0000000000136700000000000000
5118893010307005 LOOK FLORESTA NEGRA - 20 X 55 GRS                          000000001100000000001580000001CXS  0000000000136700000000000000
5118893010307007 LOOK ATREVIDOS - 20 X 55 GRS                               000000001100000000001580000001CXS  0000000000136700000000000000
5118893013022001 RECHEADO ATREVIDOS - 30X115 GRS                            000000010350000000011100000003CXS  0000000000480000000000000000
11188940034596MERCADO G.CARVALHO MENDES LTDA          PCA SANTA CLARA DE ASSIS, 2 A           SAO PAULO/SITIO MORRO GRANDE            SP02809110003310575000107115.270.161.119     000VS MALVONI REPRESENT.S/(11) 69092040  
21188941702200520022005003459600009CAIXASMBF                                     .                                       .                                       E
5118894010305001 WAFER NAPOLITANO - 30X140 GRS                              000000008400000000009240000002CXS  0000000000514000000000000000
5118894010306005 WAFER ATREVIDOS - 30X140 GRS.                              000000008400000000009240000002CXS  0000000000514000000000000000
5118894010307001 LOOK CHOCOLATE - 20 X 55 GRS                               000000001100000000001580000001CXS  0000000000136700000000000000
5118894010307005 LOOK FLORESTA NEGRA - 20 X 55 GRS                          000000001100000000001580000001CXS  0000000000136700000000000000
5118894010307007 LOOK ATREVIDOS - 20 X 55 GRS                               000000001100000000001580000001CXS  0000000000136700000000000000
5118894013022001 RECHEADO ATREVIDOS - 30X115 GRS                            000000006900000000007400000002CXS  0000000000320000000000000000
11188950091713MERCADINHO SERRA AZUL LTDA              AV.ITU, 533                             BARUERI/JD.PAULISTA                     SP06447020068291731000177206.056.621.115     000VS MALVONI REPRESENT.S/(11) 69092040  
21188951702200520022005009171300004CAIXASMBF                                     .                                       .                                       E
5118895010307001 LOOK CHOCOLATE - 20 X 55 GRS                               000000001100000000001580000001CXS  0000000000141000000000000000
5118895010307002 LOOK MORANGO - 20 X 55 GRS                                 000000001100000000001580000001CXS  0000000000141000000000000000
5118895010307007 LOOK ATREVIDOS - 20 X 55 GRS                               000000002200000000003160000002CXS  0000000000282000000000000000
11188960002245LEONEL PIRES DE OLIVEIRA-ME             RUA MARANHAO, 177                       EMBU/CENTRO                             SP06840000058582941000160298.027.312.117     000VS MALVONI REPRESENT.S/(11) 69092040  
21188961702200520022005000224500035CAIXASMBF                                     .                                       .                                       E
5118896010305001 WAFER NAPOLITANO - 30X140 GRS                              000000016800000000018480000004CXS  0000000001006800000000000000
5118896010305002 WAFER FLORESTA NEGRA - 30X140 GRS                          000000016800000000018480000004CXS  0000000001006800000000000000
5118896010305003 WAFER OBSESSION - 30X140 GRS                               000000012600000000013860000003CXS  0000000000755100000000000000
5118896010306001 WAFER CHOCOLATE - 30X140 GRS.                              000000021000000000023150000005CXS  0000000001166000000000000000
5118896010306002 WAFER MORANGO - 30X140 GRS.                                000000012600000000013890000003CXS  0000000000699600000000000000
5118896010306004 WAFER DOCE LEITE - 30X140 GRS.                             000000012600000000013890000003CXS  0000000000699600000000000000
5118896010306005 WAFER ATREVIDOS - 30X140 GRS.                              000000012600000000013860000003CXS  0000000000755100000000000000
5118896010307001 LOOK CHOCOLATE - 20 X 55 GRS                               000000002200000000003160000002CXS  0000000000265200000000000000
5118896010307002 LOOK MORANGO - 20 X 55 GRS                                 000000002200000000003160000002CXS  0000000000265200000000000000
5118896010307003 LOOK DOCE DE LEITE - 20 X 55 GRS                           000000002200000000003160000002CXS  0000000000265200000000000000
5118896010307005 LOOK FLORESTA NEGRA - 20 X 55 GRS                          000000002200000000003160000002CXS  0000000000265200000000000000
5118896010307007 LOOK ATREVIDOS - 20 X 55 GRS                               000000002200000000003160000002CXS  0000000000265200000000000000
11188970032662M.V.UCHOA DA SILVA-ME                   R.LIMBANI, 217                          SAO PAULO/JD.VALE DAS VIRTUDES          SP05796110005795529000162116.647.905.114     000VS MALVONI REPRESENT.S/(11) 69092040  
21188971702200520022005003266200011CAIXASMBF                                     .                                       .                                       E
5118897010305001 WAFER NAPOLITANO - 30X140 GRS                              000000004200000000004620000001CXS  0000000000265000000000000000
5118897010305002 WAFER FLORESTA NEGRA - 30X140 GRS                          000000004200000000004620000001CXS  0000000000265000000000000000
5118897010305003 WAFER OBSESSION - 30X140 GRS                               000000004200000000004620000001CXS  0000000000265000000000000000
5118897010306001 WAFER CHOCOLATE - 30X140 GRS.                              000000004200000000004630000001CXS  0000000000265000000000000000
5118897010306002 WAFER MORANGO - 30X140 GRS.                                000000004200000000004630000001CXS  0000000000265000000000000000
5118897010306004 WAFER DOCE LEITE - 30X140 GRS.                             000000004200000000004630000001CXS  0000000000265000000000000000
5118897010306005 WAFER ATREVIDOS - 30X140 GRS.                              000000004200000000004620000001CXS  0000000000265000000000000000
5118897013007001 RECH.SPANTOOO CHOCOLATE - 30X140GR                         000000004200000000004550000001CXS  0000000000175600000000000000
5118897013007002 RECH.SPANTOOO MORANGO - 30X140 GRS                         000000004200000000004550000001CXS  0000000000175600000000000000
5118897013007003 RECH.SPANTOOO CHOC.BRANCO-30X140GR                         000000004200000000004550000001CXS  0000000000175600000000000000
5118897013022001 RECHEADO ATREVIDOS - 30X115 GRS                            000000003450000000003700000001CXS  0000000000161100000000000000
11188980034010MERC.DIAS ALVES LTDA ME                 AV.PURUS, 365 A                         GUARULHOS/JARDIM PARAISO                SP07241030004927715000145336.471.761.112     000VS MALVONI REPRESENT.S/(11) 69092040  
21188981702200520022005003401000003CAIXASMBF                                     .                                       .                                       E
5118898010307001 LOOK CHOCOLATE - 20 X 55 GRS                               000000001100000000001580000001CXS  0000000000136700000000000000
5118898010307005 LOOK FLORESTA NEGRA - 20 X 55 GRS                          000000001100000000001580000001CXS  0000000000136700000000000000
5118898010307007 LOOK ATREVIDOS - 20 X 55 GRS                               000000001100000000001580000001CXS  0000000000136700000000000000
11188990090804MERCADINHO ALVES & FARIAS LTDA          RUA OSVALDO RAMOS, 01                   GUARULHOS/CENTRO                        SP07142600001444210000131336.435.738.110     000VS MALVONI REPRESENT.S/(11) 69092040  
21188991702200520022005009080400006CAIXASMBF                                     .                                       .                                       E
5118899010305001 WAFER NAPOLITANO - 30X140 GRS                              000000008400000000009240000002CXS  0000000000503400000000000000
5118899010305002 WAFER FLORESTA NEGRA - 30X140 GRS                          000000008400000000009240000002CXS  0000000000503400000000000000
5118899010305003 WAFER OBSESSION - 30X140 GRS                               000000008400000000009240000002CXS  0000000000503400000000000000
11189000091322SUPER.PAD.TOKIO LTDA                    RUA JOSE BARBOSA SIQUEIRA, 5            OSASCO/PADROEIRA                        SP06172410052995453000107492.136.149.115     000VS MALVONI REPRESENT.S/(11) 69092040  
21189001702200520022005009132200015CAIXASMBF                                     .                                       .                                       E
5118900010307001 LOOK CHOCOLATE - 20 X 55 GRS                               000000005500000000007900000005CXS  0000000000663500000000000000
5118900010307002 LOOK MORANGO - 20 X 55 GRS                                 000000003300000000004740000003CXS  0000000000398100000000000000
5118900010307005 LOOK FLORESTA NEGRA - 20 X 55 GRS                          000000002200000000003160000002CXS  0000000000265400000000000000
5118900010307007 LOOK ATREVIDOS - 20 X 55 GRS                               000000005500000000007900000005CXS  0000000000663500000000000000
11189010092835EMPORIO LEVE TUDO LTDA                  RUA VIEIRA DE MORAES, 658               SAO PAULO/CAMPO BELO                    SP04617001001762759000174114.963.794.116     000VS MALVONI REPRESENT.S/(11) 69092040  
21189011702200520022005009283500019CAIXASMBF                                     .                                       .                                       E
5118901010305002 WAFER FLORESTA NEGRA - 30X140 GRS                          000000004200000000004620000001CXS  0000000000257000000000000000
5118901010305003 WAFER OBSESSION - 30X140 GRS                               000000012600000000013860000003CXS  0000000000771000000000000000
5118901010307001 LOOK CHOCOLATE - 20 X 55 GRS                               000000005500000000007900000005CXS  0000000000663000000000000000
5118901010307003 LOOK DOCE DE LEITE - 20 X 55 GRS                           000000002200000000003160000002CXS  0000000000265200000000000000
5118901010307005 LOOK FLORESTA NEGRA - 20 X 55 GRS                          000000001100000000001580000001CXS  0000000000132600000000000000
5118901010307007 LOOK ATREVIDOS - 20 X 55 GRS                               000000001100000000001580000001CXS  0000000000132600000000000000
5118901013007001 RECH.SPANTOOO CHOCOLATE - 30X140GR                         000000012600000000013650000003CXS  0000000000510900000000000000
5118901013007003 RECH.SPANTOOO CHOC.BRANCO-30X140GR                         000000008400000000009100000002CXS  0000000000340600000000000000
5118901013008002 RECH.MORANGO DIET - 30X120 GRS                             000000003600000000003890000001CXS  0000000000385400000000000000
11189020092835EMPORIO LEVE TUDO LTDA                  RUA VIEIRA DE MORAES, 658               SAO PAULO/CAMPO BELO                    SP04617001001762759000174114.963.794.116     000VS MALVONI REPRESENT.S/(11) 69092040  
21189021702200520022005009283500001CAIXASMBF                                     .                                       .                                       E
5118902013007001 RECH.SPANTOOO CHOCOLATE - 30X140GR                         000000004200000000004550000001CXS  0000000000170300000000000000
11189030032956JARDIM AMERICA DOCERIA LTDA             R.AUGUSTA, 2228                         SAO PAULO/CERQUEIRA CESAR               SP01412000005924573000125116.700.504.113     000VS MALVONI REPRESENT.S/(11) 69092040  
21189031702200520022005003295600032CAIXASMBF                                     .                                       .                                       E
5118903010305001 WAFER NAPOLITANO - 30X140 GRS                              000000008400000000009240000002CXS  0000000000453200000000000000
5118903010305002 WAFER FLORESTA NEGRA - 30X140 GRS                          000000012600000000013860000003CXS  0000000000679800000000000000
5118903010305003 WAFER OBSESSION - 30X140 GRS                               000000012600000000013860000003CXS  0000000000679800000000000000
5118903010306001 WAFER CHOCOLATE - 30X140 GRS.                              000000025200000000027780000006CXS  0000000001359600000000000000
5118903010306002 WAFER MORANGO - 30X140 GRS.                                000000008400000000009260000002CXS  0000000000453200000000000000
5118903010306004 WAFER DOCE LEITE - 30X140 GRS.                             000000008400000000009260000002CXS  0000000000453200000000000000
5118903010306005 WAFER ATREVIDOS - 30X140 GRS.                              000000008400000000009240000002CXS  0000000000453200000000000000
5118903010307001 LOOK CHOCOLATE - 20 X 55 GRS                               000000004400000000006320000004CXS  0000000000530400000000000000
5118903010307002 LOOK MORANGO - 20 X 55 GRS                                 000000001100000000001580000001CXS  0000000000132600000000000000
5118903010307003 LOOK DOCE DE LEITE - 20 X 55 GRS                           000000001100000000001580000001CXS  0000000000132600000000000000
5118903010307005 LOOK FLORESTA NEGRA - 20 X 55 GRS                          000000002200000000003160000002CXS  0000000000265200000000000000
5118903010307007 LOOK ATREVIDOS - 20 X 55 GRS                               000000002200000000003160000002CXS  0000000000265200000000000000
5118903010308002 WAFER MORANGO DIET - 30X120 GRS                            000000003600000000004100000001CXS  0000000000555000000000000000
5118903013008002 RECH.MORANGO DIET - 30X120 GRS                             000000003600000000003890000001CXS  0000000000385400000000000000
11189040032956JARDIM AMERICA DOCERIA LTDA             R.AUGUSTA, 2228                         SAO PAULO/CERQUEIRA CESAR               SP01412000005924573000125116.700.504.113     000VS MALVONI REPRESENT.S/(11) 69092040  
21189041702200520022005003295600001CAIXASMBF                                     .                                       .                                       E
5118904010307002 LOOK MORANGO - 20 X 55 GRS                                 000000001100000000001580000001CXS  0000000000132600000000000000
11189050001895MINIMERCADO OSAKA LTDA                  RUA VOTUPOCA, 35                        SAO PAULO/VL.IPOJUCA                    SP05055000053840567000132111.094.874.110     000VS MALVONI REPRESENT.S/(11) 69092040  
21189051702200520022005000189500002CAIXASMBF                                     .                                       .                                       E
5118905010307001 LOOK CHOCOLATE - 20 X 55 GRS                               000000001100000000001580000001CXS  0000000000132600000000000000
5118905010308002 WAFER MORANGO DIET - 30X120 GRS                            000000003600000000004100000001CXS  0000000000555000000000000000
11189060091321SUPER.MOMBELINO III LTDA                AV.GETULIO VARGAS, 1.177                SAO BERNARDO DO CAMPO/VL.BAETA NEVES    SP09751251001115272000108635.308.958.119     000VS MALVONI REPRESENT.S/(11) 69092040  
21189061702200520022005009132100009CAIXASMBF                                     .                                       .                                       E
5118906010307001 LOOK CHOCOLATE - 20 X 55 GRS                               000000002200000000003160000002CXS  0000000000249400000000000000
5118906010307002 LOOK MORANGO - 20 X 55 GRS                                 000000001100000000001580000001CXS  0000000000124700000000000000
5118906010307003 LOOK DOCE DE LEITE - 20 X 55 GRS                           000000001100000000001580000001CXS  0000000000124700000000000000
5118906010307005 LOOK FLORESTA NEGRA - 20 X 55 GRS                          000000001100000000001580000001CXS  0000000000124700000000000000
5118906010307007 LOOK ATREVIDOS - 20 X 55 GRS                               000000001100000000001580000001CXS  0000000000124700000000000000
5118906013007001 RECH.SPANTOOO CHOCOLATE - 30X140GR                         000000004200000000004550000001CXS  0000000000166800000000000000
5118906013007002 RECH.SPANTOOO MORANGO - 30X140 GRS                         000000004200000000004550000001CXS  0000000000166800000000000000
5118906013007004 RECH.SPANTOOO TUTTI-FRUTTI-30X140G                         000000004200000000004600000001CXS  0000000000166800000000000000
11189070032750CARLOS JOSE CORREIA SALES-ME            R.HERMENEGILDO ORSI, 23-C               GUARULHOS/JD.ACACIO                     SP07144130004940562000176336.687.170.112     000VS MALVONI REPRESENT.S/(11) 69092040  
21189071702200520022005003275000017CAIXASMBF                                     .                                       .                                       E
5118907010305001 WAFER NAPOLITANO - 30X140 GRS                              000000004200000000004620000001CXS  0000000000251700000000000000
5118907010305002 WAFER FLORESTA NEGRA - 30X140 GRS                          000000004200000000004620000001CXS  0000000000251700000000000000
5118907010305003 WAFER OBSESSION - 30X140 GRS                               000000004200000000004620000001CXS  0000000000251700000000000000
5118907010306001 WAFER CHOCOLATE - 30X140 GRS.                              000000004200000000004630000001CXS  0000000000233200000000000000
5118907010306002 WAFER MORANGO - 30X140 GRS.                                000000004200000000004630000001CXS  0000000000233200000000000000
5118907010306005 WAFER ATREVIDOS - 30X140 GRS.                              000000004200000000004620000001CXS  0000000000251700000000000000
5118907010307001 LOOK CHOCOLATE - 20 X 55 GRS                               000000002200000000003160000002CXS  0000000000273400000000000000
5118907010307005 LOOK FLORESTA NEGRA - 20 X 55 GRS                          000000002200000000003160000002CXS  0000000000273400000000000000
5118907010307007 LOOK ATREVIDOS - 20 X 55 GRS                               000000002200000000003160000002CXS  0000000000273400000000000000
5118907013007001 RECH.SPANTOOO CHOCOLATE - 30X140GR                         000000004200000000004550000001CXS  0000000000175600000000000000
5118907013007003 RECH.SPANTOOO CHOC.BRANCO-30X140GR                         000000004200000000004550000001CXS  0000000000175600000000000000
5118907013601002 BISCOITO MILANO COCO - 30X130 GRS                          000000003900000000004180000001CXS  0000000000143100000000000000
5118907013601003 BISCOITO MILANO LEITE - 30X130 GRS                         000000003900000000004180000001CXS  0000000000143100000000000000
5118907013601004 BISC.MILANO BOLO DE FUBA-30X130 GR                         000000003900000000004180000001CXS  0000000000143100000000000000
11189080033664MERCADINHO BARCELONA LTDA               R.BARCELONA, 414                        SAO PAULO/JAGUARE                       SP05331011050876762000124110.825.174.113     000VS MALVONI REPRESENT.S/(11) 69092040  
21189081702200520022005003366400008CAIXASMBF                                     .                                       .                                       E
5118908010305001 WAFER NAPOLITANO - 30X140 GRS                              000000004200000000004620000001CXS  0000000000257000000000000000
5118908010305002 WAFER FLORESTA NEGRA - 30X140 GRS                          000000004200000000004620000001CXS  0000000000257000000000000000
5118908010306005 WAFER ATREVIDOS - 30X140 GRS.                              000000004200000000004620000001CXS  0000000000257000000000000000
5118908010307001 LOOK CHOCOLATE - 20 X 55 GRS                               000000002200000000003160000002CXS  0000000000284000000000000000
5118908010307002 LOOK MORANGO - 20 X 55 GRS                                 000000001100000000001580000001CXS  0000000000142000000000000000
5118908010307007 LOOK ATREVIDOS - 20 X 55 GRS                               000000001100000000001580000001CXS  0000000000142000000000000000
5118908013008002 RECH.MORANGO DIET - 30X120 GRS                             000000003600000000003890000001CXS  0000000000406800000000000000
11189090091082CIAL QUIRAZ LTDA                        AV.JOAO BATISTA, 160                    OSASCO/CENTRO                           SP06097080066524158000179492.240.424.111     000VS MALVONI REPRESENT.S/(11) 69092040  
21189091702200520022005009108200017CAIXASMBF                                     .                                       .                                       E
5118909010305003 WAFER OBSESSION - 30X140 GRS                               000000004200000000004620000001CXS  0000000000257000000000000000
5118909010307001 LOOK CHOCOLATE - 20 X 55 GRS                               000000004400000000006320000004CXS  0000000000560000000000000000
5118909010307002 LOOK MORANGO - 20 X 55 GRS                                 000000003300000000004740000003CXS  0000000000420000000000000000
5118909010307003 LOOK DOCE DE LEITE - 20 X 55 GRS                           000000001100000000001580000001CXS  0000000000140000000000000000
5118909010307005 LOOK FLORESTA NEGRA - 20 X 55 GRS                          000000004400000000006320000004CXS  0000000000560000000000000000
5118909010307007 LOOK ATREVIDOS - 20 X 55 GRS                               000000004400000000006320000004CXS  0000000000560000000000000000
11189100090958COOP.MISTA TRAB.GDE.S.PAULO LTDA        RUA ANTONIO AGU, 751                    OSASCO/CENTRO                           SP06093006060504586000153492.009.616.117     000VS MALVONI REPRESENT.S/(11) 69092040  
21189101702200520022005009095800006CAIXASMBF                                     .                                       .                                       E
5118910010305001 WAFER NAPOLITANO - 30X140 GRS                              000000004200000000004620000001CXS  0000000000257000000000000000
5118910010305002 WAFER FLORESTA NEGRA - 30X140 GRS                          000000004200000000004620000001CXS  0000000000257000000000000000
5118910010306001 WAFER CHOCOLATE - 30X140 GRS.                              000000008400000000009260000002CXS  0000000000514000000000000000
5118910010306002 WAFER MORANGO - 30X140 GRS.                                000000004200000000004630000001CXS  0000000000257000000000000000
5118910010306005 WAFER ATREVIDOS - 30X140 GRS.                              000000004200000000004620000001CXS  0000000000257000000000000000
11189110270640SOLANGE FERREIRA LEITE MERC-ME          RUA DR.VIRGILIO ALVIM FRANCO, 24        SAO PAULO/JD.D'ABRIL                    SP05399130004605714000184116.262.915.119     000VS MALVONI REPRESENT.S/(11) 69092040  
21189111702200520022005027064000006CAIXASMBF                                     .                                       .                                       E
5118911013007001 RECH.SPANTOOO CHOCOLATE - 30X140GR                         000000008400000000009100000002CXS  0000000000358000000000000000
5118911013007002 RECH.SPANTOOO MORANGO - 30X140 GRS                         000000008400000000009100000002CXS  0000000000358000000000000000
5118911013007003 RECH.SPANTOOO CHOC.BRANCO-30X140GR                         000000008400000000009100000002CXS  0000000000358000000000000000
11189120370120MINIMERCADO ZIU LTDA-ME                 EST.DOS ORQUIDOFILOS,                   EMBU/ENGENHO VELHO                      SP06843150096283007000137298.042.288.118     000VS MALVONI REPRESENT.S/(11) 69092040  
21189121702200520022005037012000024CAIXASMBF                                     .                                       .                                       E
5118912010305001 WAFER NAPOLITANO - 30X140 GRS                              000000004200000000004620000001CXS  0000000000265000000000000000
5118912010305002 WAFER FLORESTA NEGRA - 30X140 GRS                          000000004200000000004620000001CXS  0000000000265000000000000000
5118912010305003 WAFER OBSESSION - 30X140 GRS                               000000004200000000004620000001CXS  0000000000265000000000000000
5118912010306002 WAFER MORANGO - 30X140 GRS.                                000000004200000000004630000001CXS  0000000000265000000000000000
5118912010306005 WAFER ATREVIDOS - 30X140 GRS.                              000000004200000000004620000001CXS  0000000000265000000000000000
5118912010307001 LOOK CHOCOLATE - 20 X 55 GRS                               000000002200000000003160000002CXS  0000000000273400000000000000
5118912010307002 LOOK MORANGO - 20 X 55 GRS                                 000000002200000000003160000002CXS  0000000000273400000000000000
5118912010307003 LOOK DOCE DE LEITE - 20 X 55 GRS                           000000001100000000001580000001CXS  0000000000136700000000000000
5118912010307005 LOOK FLORESTA NEGRA - 20 X 55 GRS                          000000002200000000003160000002CXS  0000000000273400000000000000
5118912010307007 LOOK ATREVIDOS - 20 X 55 GRS                               000000002200000000003160000002CXS  0000000000273400000000000000
5118912010308002 WAFER MORANGO DIET - 30X120 GRS                            000000003600000000004100000001CXS  0000000000555000000000000000
5118912013008002 RECH.MORANGO DIET - 30X120 GRS                             000000003600000000003890000001CXS  0000000000385400000000000000
5118912013022001 RECHEADO ATREVIDOS - 30X115 GRS                            000000006900000000007400000002CXS  0000000000322200000000000000
5118912013601002 BISCOITO MILANO COCO - 30X130 GRS                          000000007800000000008360000002CXS  0000000000286200000000000000
5118912013601003 BISCOITO MILANO LEITE - 30X130 GRS                         000000007800000000008360000002CXS  0000000000286200000000000000
5118912013601004 BISC.MILANO BOLO DE FUBA-30X130 GR                         000000007800000000008360000002CXS  0000000000286200000000000000
