000N.B.F. Logistica, Ass., Transp. e S                                   0405151052COB040510525                                                                           
350COBRA040510525                                                                                                                                                         
35102095918000197N.B.F. Logistica, Ass., Transp. e Serv.                                                                                                                  
352          0   00000179671604201508052015000000001644549BCO00000000019682700000000000000000000000000000000000000BANCO DO BRASIL                    0427800000048801 I   
353SBC       0    36609       0000000001370451604201517467515001685475084110832640209591800019700000000013704501200                                                       
354   0068060404052015083699000000000872102017467515001685                                                                                                                
353SBC       0    36610       0000000000685231604201517467515001685475084110832640209591800019700000000006852301200                                                       
354   0035257804052015026044000000000455340117467515001685                                                                                                                
354   0035257904052015001024000000000089479117467515001685                                                                                                                
353SBC       0    36611       0000000000685231604201517467515001685475084110832640209591800019700000000006852301200                                                       
354   0035257804052015026044000000000455340117467515001685                                                                                                                
354   0035257904052015001024000000000089479117467515001685                                                                                                                
353SBC       0    36612       0000000001370461604201517467515001685475084110832640209591800019700000000013704601200                                                       
354   0032846604052015040934200000000547793117467515001685                                                                                                                
354   0032846704052015000337100000000023053017467515001685                                                                                                                
354   0067853304052015008232000000000139350217467515001685                                                                                                                
354   0032940204052015022996400000000287706017467515001685                                                                                                                
353SBC       0    36613       0000000000659961604201517467515001685475084110832640209591800019700000000006599601200                                                       
354   0032603104052015052092700000000732251917467515001685                                                                                                                
354   0032851004052015006413300000000077980117467515001685                                                                                                                
354   0032850904052015001520500000000020808017467515001685                                                                                                                
354   0032850804052015005142800000000070380017467515001685                                                                                                                
354   0032850704052015043005300000000535245217467515001685                                                                                                                
353SBC       0    36614       0000000000710501604201517467515001685475084110832640209591800019700000000007105001200                                                       
354   0032603104052015052092700000000732251917467515001685                                                                                                                
354   0032851004052015006413300000000077980117467515001685                                                                                                                
354   0032850904052015001520500000000020808017467515001685                                                                                                                
354   0032850804052015005142800000000070380017467515001685                                                                                                                
354   0032850704052015043005300000000535245217467515001685                                                                                                                
353SBC       0    36615       0000000000640231604201517467515001685475084110832640209591800019700000000006402301200                                                       
354   0032835004052015002908800000000073923617467515001685                                                                                                                
354   0032835304052015001080000000000023040017467515001685                                                                                                                
354   0032835404052015000360000000000007158717467515001685                                                                                                                
354   0032835504052015046107200000000608808217467515001685                                                                                                                
354   0032847904052015000734400000000022047317467515001685                                                                                                                
354   0032848004052015027881400000000293562617467515001685                                                                                                                
354   0032848104052015017152500000000063360017467515001685                                                                                                                
354   0032848204052015013353200000000252197317467515001685                                                                                                                
353SBC       0    36616       0000000000730241604201517467515001685475084110832640209591800019700000000007302401200                                                       
354   0032835004052015002908800000000073923617467515001685                                                                                                                
354   0032835304052015001080000000000023040017467515001685                                                                                                                
354   0032835404052015000360000000000007158717467515001685                                                                                                                
354   0032835504052015046107200000000608808217467515001685                                                                                                                
354   0032847904052015000734400000000022047317467515001685                                                                                                                
354   0032848004052015027881400000000293562617467515001685                                                                                                                
354   0032848104052015017152500000000063360017467515001685                                                                                                                
354   0032848204052015013353200000000252197317467515001685                                                                                                                
353SBC       0    36617       0000000001370451604201517467515001685475084110832640209591800019700000000013704501200                                                       
354   0032729604052015089752000000001228572917467515001685                                                                                                                
354   0032728604052015003998400000000090108917467515001685                                                                                                                
353SBC       0    36618       0000000001370461604201517467515001685475084110832640209591800019700000000013704601200                                                       
354   0032817604052015078707200000000908160017467515001685                                                                                                                
353SBC       0    36619       0000000001370451604201517467515001685475084110832640209591800019700000000013704501200                                                       
354   0032728804052015083700900000001352483717467515001685                                                                                                                
353SBC       0    36620       0000000001370451604201517467515001685475084110832640209591800019700000000013704501200                                                       
354   0068096504052015029842000000000756526817467515001685                                                                                                                
354   0068096404052015000614400000000054352817467515001685                                                                                                                
353SBC       0    36621       0000000001370461604201517467515001685475084110832640209591800019700000000013704601200                                                       
354   0032868304052015005568000000000164856017467515001685                                                                                                                
354   0032868404052015002884800000000225243617467515001685                                                                                                                
353SBC       0    36622       0000000000104181604201517467515001685475084110832640209591800019700000000001041800700                                                       
354   0032740504052015004171900000000057965717467515001685                                                                                                                
354   0032740404052015004904700000000074902917467515001685                                                                                                                
354   0032852504052015092050000000001092378617467515001685                                                                                                                
354   0032852604052015008152500000000096386317467515001685                                                                                                                
354   0032851104052015010124200000000140008017467515001685                                                                                                                
353SBC       0    36623       0000000001150071604201517467515001685475084110832640209591800019700000000011500701200                                                       
354   0032740504052015004171900000000057965717467515001685                                                                                                                
354   0032740404052015004904700000000074902917467515001685                                                                                                                
354   0032852504052015092050000000001092378617467515001685                                                                                                                
354   0032852604052015008152500000000096386317467515001685                                                                                                                
354   0032851104052015010124200000000140008017467515001685                                                                                                                
353SBC       0    36624       0000000000116211604201517467515001685475084110832640209591800019700000000001162101200                                                       
354   0032740504052015004171900000000057965717467515001685                                                                                                                
354   0032740404052015004904700000000074902917467515001685                                                                                                                
354   0032852504052015092050000000001092378617467515001685                                                                                                                
354   0032852604052015008152500000000096386317467515001685                                                                                                                
354   0032851104052015010124200000000140008017467515001685                                                                                                                
353SBC       0    36625       0000000001370461604201517467515001685475084110832640209591800019700000000013704601200                                                       
354   0067611704052015059785000000000622930017467515001685                                                                                                                
354   0067774904052015000489600000000012470517467515001685                                                                                                                
3550001000000001644549                                                                                                                                                    
