000N.B.F. Logistica, Ass., Transp. e S                                   2904151912COB290419125                                                                           
350COBRA290419125                                                                                                                                                         
35102095918000197N.B.F. Logistica, Ass., Transp. e Serv.                                                                                                                  
352          0   00000179681604201511052015000000002847511BCO00000000034170100000000000000000000000000000000000000BANCO DO BRASIL                    0427800000048801 I   
353SBC       0    36626       0000000000971751604201517467515000107071709430085100209591800019700000000009717501200                                                       
3542  0032728602042015003998400000000090108917467515000107                                                                                                                
3542  0032729602042015089752000000001228572917467515000107                                                                                                                
353SBC       0    36627       0000000001121251604201517467515000107071709430085100209591800019700000000011212501200                                                       
3542  0032817602042015078707200000000908160017467515000107                                                                                                                
353SBC       0    36628       0000000002018251604201517467515000107071709430085100209591800019700000000020182501200                                                       
3542  0032728806042015083700900000001352483717467515000107                                                                                                                
353SBC       0    36629       0000000001562021604201517467515000107071709430085100209591800019700000000015620201200                                                       
3542  0032851006042015006413300000000076818017467515000107                                                                                                                
3542  0032850906042015001520500000000020808017467515000107                                                                                                                
3542  0032850806042015005142800000000070380017467515000107                                                                                                                
3542  0035850706042015043005300000000535245217467515000107                                                                                                                
353SBC       0    36630       0000000003405481604201517467515000107071709430085100209591800019700000000034054801200                                                       
3542  0032603106042015052092700000000732251917467515000107                                                                                                                
353SBC       0    36631       0000000000971751604201517467515000107071709430085100209591800019700000000009717501200                                                       
3542  0032847007042015001200000000000021000017467515000107                                                                                                                
3542  0032847107042015027101100000000377652017467515000107                                                                                                                
353SBC       0    36632       0000000001644501604201517467515000107071709430085100209591800019700000000016445001200                                                       
3542  0032846607042015037191300000000535358417467515000107                                                                                                                
3542  0032846707042015000975400000000020853617467515000107                                                                                                                
353SBC       0    36633       0000000000149501604201517467515000107071709430085100209591800019700000000001495001200                                                       
3542  0032796307042015002228300000000025256017467515000107                                                                                                                
353SBC       0    36634       0000000001196001604201517467515000107071709430085100209591800019700000000011960001200                                                       
3542  0032796207042015012126900000000145299617467515000107                                                                                                                
353SBC       0    36635       0000000000897001604201517467515000107071709430085100209591800019700000000008970001200                                                       
3542  0032940207042015018747100000000284508617467515000107                                                                                                                
353SBC       0    36636       0000000000373751604201517467515000107071709430085100209591800019700000000003737501200                                                       
3542  0067853307042015003668000000000119770017467515000107                                                                                                                
353SBC       0    36637       0000000001895751604201517467515000107071709430085100209591800019700000000018957501200                                                       
3541  0068096507042015029842000000000756526817467515000107                                                                                                                
3542  0068096407042015000614400000000054352817467515000107                                                                                                                
353SBC       0    36638       0000000001270751604201517467515000107071709430085100209591800019700000000012707501200                                                       
3542  0032847907042015000734400000000022047317467515000107                                                                                                                
3542  0032848007042015027881400000000293562617467515000107                                                                                                                
3542  0032848107042015017152500000000063360017467515000107                                                                                                                
3542  0032848207042015013353200000000252197317467515000107                                                                                                                
353SBC       0    36639       0000000002600771604201517467515000107071709430085100209591800019700000000026007701200                                                       
3542  0032835007042015002908800000000073923617467515000107                                                                                                                
3542  0032835307042015001080000000000023040017467515000107                                                                                                                
3542  0032835407042015000360000000000007158717467515000107                                                                                                                
3542  0032835507042015046107200000000608808217467515000107                                                                                                                
353SBC       0    36640       0000000002093001604201517467515000107071709430085100209591800019700000000020930001200                                                       
3541  0068060407042015083699000000000872102017467515000107                                                                                                                
353SBC       0    36641       0000000001495001604201517467515000107071709430085100209591800019700000000014950001200                                                       
3542  0067611707042015059785000000000622930017467515000107                                                                                                                
353SBC       0    36642       0000000001270751604201517467515000107071709430085100209591800019700000000012707501200                                                       
3541  0068096507042015029842000000000756526817467515000107                                                                                                                
3542  0068096407042015000614400000000054352817467515000107                                                                                                                
353SBC       0    36643       0000000000074751604201517467515000107071709430085100209591800019700000000000747501200                                                       
3542  0067774909042015000489600000000012470517467515000107                                                                                                                
353SBC       0    36644       0000000000219411604201517467515000107071709430085100209591800019700000000002194101200                                                       
3542  0032812510042015001285600000000016119117467515000107                                                                                                                
353SBC       0    36645       0000000000194411604201517467515000107071709430085100209591800019700000000001944101200                                                       
3542  0032799310042015000306900000000003751517467515000107                                                                                                                
353SBC       0    36646       0000000000448501604201517467515000107071709430085100209591800019700000000004485001200                                                       
3542  0032868310042015005568000000000164856017467515000107                                                                                                                
3542  0032868410042015002884800000000225243617467515000107                                                                                                                
353SBC       0    36647       0000000002600771604201517467515000107071709430085100209591800019700000000026007701200                                                       
3542  0032835007042015002908800000000073923617467515000107                                                                                                                
3542  0032835307042015001080000000000023040017467515000107                                                                                                                
3542  0032835407042015000360000000000007158717467515000107                                                                                                                
3542  0032835507042015046107200000000608808217467515000107                                                                                                                
3550001000000002847511                                                                                                                                                    
