0047066774000502    J.MARINO IND.E COMERCIO S.A.            18022005
10935730000568NOVA DUMONT COM.DOCES LTDA              AV.SANTOS DUMONT, 276                   GUARULHOS/CUMBICA                       SP07220000069077709000191336.351.960.117     000JAIME FRANCISCO DAS DOR(11) 69014795  
20935731802200520022005000056800030CAIXASMBF                                     .                                       .                                       E
5093573013010001 TORTITA CHOCOLATE - 30X140 GRS                             000000042000000000045100000010CXS  0000000001557000000000000000
5093573013010002 TORTITA CHOCOLATE BRANCO 30X140 GR                         000000042000000000045100000010CXS  0000000001557000000000000000
5093573013011002 TORTITA CHOC.BCO/CHOC.LEITE 30X140                         000000042000000000045100000010CXS  0000000001557000000000000000
10935740032967LOURENCINI MERCADINHO LTDA              AV.ITAPARK, 3440                        MAUA/JD.ITAPARK                         SP09350000002743913000123442.098.908.116     000VS MALVONI REPRESENT.S/(11) 69092040  
20935741802200520022005003296700025CAIXASMBF                                     .                                       .                                       E
5093574013004001 HOBBY CHOC./CHANTILLY - 30X170 GRS                         000000015300000000016380000003CXS  0000000000628200000000000000
5093574013004002 HOBBY NAPOLITANO - 30X170 GRS.                             000000015300000000016380000003CXS  0000000000628200000000000000
5093574013009001 RECHEADO CHOC/CHANTILLY - 30X140GR                         000000012600000000013710000003CXS  0000000000465000000000000000
5093574013009002 RECHEADO MORANGO/CHANTILLY-30X140G                         000000008400000000009140000002CXS  0000000000310000000000000000
5093574013009003 RECHEADO DOCE DE LEITE/COCO-30X140                         000000008400000000009140000002CXS  0000000000310000000000000000
5093574013009004 RECHEADO NAPOLITANO - 30X140 GRS                           000000008400000000009140000002CXS  0000000000310000000000000000
5093574013009005 RECHEADO FLORESTA NEGRA-30X140 GRS                         000000008400000000009140000002CXS  0000000000310000000000000000
5093574013010001 TORTITA CHOCOLATE - 30X140 GRS                             000000008400000000009020000002CXS  0000000000341000000000000000
5093574013010002 TORTITA CHOCOLATE BRANCO 30X140 GR                         000000008400000000009020000002CXS  0000000000341000000000000000
5093574013011001 TORTITA MORANGO/CHANTILLY-30X140GR                         000000008400000000009020000002CXS  0000000000341000000000000000
5093574013011002 TORTITA CHOC.BCO/CHOC.LEITE 30X140                         000000008400000000009020000002CXS  0000000000341000000000000000
10935720034536SUPER.OURINHOS LTDA                     AV.CEL.SEZEFREDO FAGUNDES, 2698         SAO PAULO/JD.TREMEMBE                   SP02306004046951943000109109.237.741.112     000VS MALVONI REPRESENT.S/(11) 69092040  
20935721802200520022005003453600015CAIXASMBF                                     .                                       .                                       E
5093572013016001 RECH.LADO A LADO CHOCOLATE-30X115G                         000000051750000000056550000015CXS  0000000001939500000000000000
10935750032967LOURENCINI MERCADINHO LTDA              AV.ITAPARK, 3440                        MAUA/JD.ITAPARK                         SP09350000002743913000123442.098.908.116     000VS MALVONI REPRESENT.S/(11) 69092040  
20935751802200520022005003296700001CAIXASMBF                                     .                                       .                                       E
5093575013010001 TORTITA CHOCOLATE - 30X140 GRS                             000000004200000000004510000001CXS  0000000000170500000000000000
10935760033716JOSE ROBERTO LOURENCINI MAUA-ME         R.TRES AMERICA, 491                     MAUA/PQ.DAS AMERICAS                    SP09350520004915194000106442.185.119.112     000VS MALVONI REPRESENT.S/(11) 69092040  
20935761802200520022005003371600013CAIXASMBF                                     .                                       .                                       E
5093576013004001 HOBBY CHOC./CHANTILLY - 30X170 GRS                         000000010200000000010920000002CXS  0000000000418800000000000000
5093576013004002 HOBBY NAPOLITANO - 30X170 GRS.                             000000005100000000005460000001CXS  0000000000209400000000000000
5093576013009001 RECHEADO CHOC/CHANTILLY - 30X140GR                         000000004200000000004570000001CXS  0000000000155000000000000000
5093576013009002 RECHEADO MORANGO/CHANTILLY-30X140G                         000000004200000000004570000001CXS  0000000000155000000000000000
5093576013009003 RECHEADO DOCE DE LEITE/COCO-30X140                         000000004200000000004570000001CXS  0000000000155000000000000000
5093576013009004 RECHEADO NAPOLITANO - 30X140 GRS                           000000004200000000004570000001CXS  0000000000155000000000000000
5093576013009005 RECHEADO FLORESTA NEGRA-30X140 GRS                         000000004200000000004570000001CXS  0000000000155000000000000000
5093576013010001 TORTITA CHOCOLATE - 30X140 GRS                             000000004200000000004510000001CXS  0000000000170500000000000000
5093576013010002 TORTITA CHOCOLATE BRANCO 30X140 GR                         000000008400000000009020000002CXS  0000000000341000000000000000
5093576013011001 TORTITA MORANGO/CHANTILLY-30X140GR                         000000004200000000004510000001CXS  0000000000170500000000000000
5093576013011002 TORTITA CHOC.BCO/CHOC.LEITE 30X140                         000000004200000000004510000001CXS  0000000000170500000000000000
10935770033717ALFREDO LOURENCINI & CIA LTDA           R.BOLIVIA, 19                           MAUA/PQ.DAS AMERICA                     SP09311120056907868000124442.018.755.119     000VS MALVONI REPRESENT.S/(11) 69092040  
20935771802200520022005003371700021CAIXASMBF                                     .                                       .                                       E
5093577013004001 HOBBY CHOC./CHANTILLY - 30X170 GRS                         000000010200000000010920000002CXS  0000000000418800000000000000
5093577013004002 HOBBY NAPOLITANO - 30X170 GRS.                             000000010200000000010920000002CXS  0000000000418800000000000000
5093577013009001 RECHEADO CHOC/CHANTILLY - 30X140GR                         000000012600000000013710000003CXS  0000000000465000000000000000
5093577013009002 RECHEADO MORANGO/CHANTILLY-30X140G                         000000008400000000009140000002CXS  0000000000310000000000000000
5093577013009003 RECHEADO DOCE DE LEITE/COCO-30X140                         000000008400000000009140000002CXS  0000000000310000000000000000
5093577013009004 RECHEADO NAPOLITANO - 30X140 GRS                           000000008400000000009140000002CXS  0000000000310000000000000000
5093577013009005 RECHEADO FLORESTA NEGRA-30X140 GRS                         000000008400000000009140000002CXS  0000000000310000000000000000
5093577013010002 TORTITA CHOCOLATE BRANCO 30X140 GR                         000000008400000000009020000002CXS  0000000000341000000000000000
5093577013011001 TORTITA MORANGO/CHANTILLY-30X140GR                         000000008400000000009020000002CXS  0000000000341000000000000000
5093577013011002 TORTITA CHOC.BCO/CHOC.LEITE 30X140                         000000008400000000009020000002CXS  0000000000341000000000000000
10935780030346ZIEAD EL KADRI-ME                       AV. QUEIROS FILHO 3234                  SAO PAULO/MARACANA                      SP09121580005287053000159626.364.886.115     000VS MALVONI REPRESENT.S/(11) 69092040  
20935781802200520022005003034600003CAIXASMBF                                     .                                       .                                       E
5093578013003003 HOBBY COCO - 30X170 GRS.                                   000000005100000000005460000001CXS  0000000000213200000000000000
5093578013004001 HOBBY CHOC./CHANTILLY - 30X170 GRS                         000000005100000000005460000001CXS  0000000000213200000000000000
5093578013004002 HOBBY NAPOLITANO - 30X170 GRS.                             000000005100000000005460000001CXS  0000000000213200000000000000
10935790034402MERCADO CENTRO DE MAUA LTDA             AV.BENEDITA FRANCO DA VEIGA,1249        MAUA/FEITAL                             SP09330620006210182000101442.196.617.116     000VS MALVONI REPRESENT.S/(11) 69092040  
20935791802200520022005003440200010CAIXASMBF                                     .                                       .                                       E
5093579013004001 HOBBY CHOC./CHANTILLY - 30X170 GRS                         000000025500000000027300000005CXS  0000000001066000000000000000
5093579013004002 HOBBY NAPOLITANO - 30X170 GRS.                             000000025500000000027300000005CXS  0000000001066000000000000000
10935800034067SUPER.ROSEL MARTINEZ LTDA               R.ALBERTO P.NETO, 70                    SUZANO/PALMEIRAS                        SP08655030069076032000177672.066.884.119     000VS MALVONI REPRESENT.S/(11) 69092040  
20935801802200520022005003406700011CAIXASMBF                                     .                                       .                                       E
5093580013003001 HOBBY CHOCOLATE - 30X170 GRS.                              000000005100000000005460000001CXS  0000000000224400000000000000
5093580013004001 HOBBY CHOC./CHANTILLY - 30X170 GRS                         000000005100000000005460000001CXS  0000000000224400000000000000
5093580013004002 HOBBY NAPOLITANO - 30X170 GRS.                             000000005100000000005460000001CXS  0000000000224400000000000000
5093580013009001 RECHEADO CHOC/CHANTILLY - 30X140GR                         000000004200000000004570000001CXS  0000000000162300000000000000
5093580013009002 RECHEADO MORANGO/CHANTILLY-30X140G                         000000004200000000004570000001CXS  0000000000162300000000000000
5093580013009003 RECHEADO DOCE DE LEITE/COCO-30X140                         000000004200000000004570000001CXS  0000000000162300000000000000
5093580013009004 RECHEADO NAPOLITANO - 30X140 GRS                           000000004200000000004570000001CXS  0000000000162300000000000000
5093580013009005 RECHEADO FLORESTA NEGRA-30X140 GRS                         000000004200000000004570000001CXS  0000000000162300000000000000
5093580013010002 TORTITA CHOCOLATE BRANCO 30X140 GR                         000000004200000000004510000001CXS  0000000000179600000000000000
5093580013011002 TORTITA CHOC.BCO/CHOC.LEITE 30X140                         000000004200000000004510000001CXS  0000000000179600000000000000
5093580013025001 RECHEADO BRIGADEIRO - 30X120 GRS                           000000003600000000003890000001CXS  0000000000167700000000000000
10935810270509MERCADO ALDI LTDA                       RUA JOSE LUIZ MONTEIRO, 669             SAO PAULO/JD.DAS IMBIRAS                SP04829240001942533000155115.003.233.110     000VS MALVONI REPRESENT.S/(11) 69092040  
20935811802200520022005027050900015CAIXASMBF                                     .                                       .                                       E
5093581013009001 RECHEADO CHOC/CHANTILLY - 30X140GR                         000000021000000000022850000005CXS  0000000000763000000000000000
5093581013009004 RECHEADO NAPOLITANO - 30X140 GRS                           000000021000000000022850000005CXS  0000000000763000000000000000
5093581013009005 RECHEADO FLORESTA NEGRA-30X140 GRS                         000000021000000000022850000005CXS  0000000000763000000000000000
10935820091245SUPER.NEVADA LTDA                       AV.PRES.CASTELO BRANCO, 1.210           MAUA/VL.ZAIRA                           SP09321370045561537000169442.013.275.119     000VS MALVONI REPRESENT.S/(11) 69092040  
20935821802200520022005009124500028CAIXASMBF                                     .                                       .                                       E
5093582013004001 HOBBY CHOC./CHANTILLY - 30X170 GRS                         000000025500000000027300000005CXS  0000000001066000000000000000
5093582013004002 HOBBY NAPOLITANO - 30X170 GRS.                             000000025500000000027300000005CXS  0000000001066000000000000000
5093582013009001 RECHEADO CHOC/CHANTILLY - 30X140GR                         000000008400000000009140000002CXS  0000000000312200000000000000
5093582013009002 RECHEADO MORANGO/CHANTILLY-30X140G                         000000012600000000013710000003CXS  0000000000468300000000000000
5093582013009003 RECHEADO DOCE DE LEITE/COCO-30X140                         000000008400000000009140000002CXS  0000000000312200000000000000
5093582013009005 RECHEADO FLORESTA NEGRA-30X140 GRS                         000000016800000000018280000004CXS  0000000000624400000000000000
5093582013010001 TORTITA CHOCOLATE - 30X140 GRS                             000000012600000000013530000003CXS  0000000000568800000000000000
5093582013010002 TORTITA CHOCOLATE BRANCO 30X140 GR                         000000008400000000009020000002CXS  0000000000379200000000000000
5093582013011002 TORTITA CHOC.BCO/CHOC.LEITE 30X140                         000000008400000000009020000002CXS  0000000000379200000000000000
10935830032428SUPER.BOM DIA SAO PAULO LTDA            R.JOSE GETULIO, 142                     SAO PAULO/ACLIMACAO                     SP01509000002213258000100115.387.982.115     000VS MALVONI REPRESENT.S/(11) 69092040  
20935831802200520022005003242800012CAIXASMBF                                     .                                       .                                       E
5093583013003001 HOBBY CHOCOLATE - 30X170 GRS.                              000000005100000000005460000001CXS  0000000000217700000000000000
5093583013003004 HOBBY CHOCOLATE BRANCO - 30X170 GR                         000000005100000000005460000001CXS  0000000000217700000000000000
5093583013004002 HOBBY NAPOLITANO - 30X170 GRS.                             000000005100000000005460000001CXS  0000000000217700000000000000
5093583013009001 RECHEADO CHOC/CHANTILLY - 30X140GR                         000000008400000000009140000002CXS  0000000000314800000000000000
5093583013009002 RECHEADO MORANGO/CHANTILLY-30X140G                         000000008400000000009140000002CXS  0000000000314800000000000000
5093583013009003 RECHEADO DOCE DE LEITE/COCO-30X140                         000000004200000000004570000001CXS  0000000000157400000000000000
5093583013009004 RECHEADO NAPOLITANO - 30X140 GRS                           000000004200000000004570000001CXS  0000000000157400000000000000
5093583013009005 RECHEADO FLORESTA NEGRA-30X140 GRS                         000000004200000000004570000001CXS  0000000000157400000000000000
5093583013025001 RECHEADO BRIGADEIRO - 30X120 GRS                           000000007200000000007780000002CXS  0000000000325400000000000000
10935840034462MERCADINHO MIMABE LTDA-ME               AV.ROTARY, 5036                         EMBU/JD.LIBERDADE                       SP06810240006911894000158298.126.481.112     000VS MALVONI REPRESENT.S/(11) 69092040  
20935841802200520022005003446200008CAIXASMBF                                     .                                       .                                       E
5093584013003001 HOBBY CHOCOLATE - 30X170 GRS.                              000000005100000000005460000001CXS  0000000000224400000000000000
5093584013003002 HOBBY MORANGO - 30X170 GRS.                                000000005100000000005460000001CXS  0000000000224400000000000000
5093584013003003 HOBBY COCO - 30X170 GRS.                                   000000005100000000005460000001CXS  0000000000224400000000000000
5093584013003004 HOBBY CHOCOLATE BRANCO - 30X170 GR                         000000005100000000005460000001CXS  0000000000224400000000000000
5093584013004001 HOBBY CHOC./CHANTILLY - 30X170 GRS                         000000005100000000005460000001CXS  0000000000224400000000000000
5093584013004002 HOBBY NAPOLITANO - 30X170 GRS.                             000000005100000000005460000001CXS  0000000000224400000000000000
5093584013013001 RECHEADO MORANGO/CHANTILLY-30X60GR                         000000001800000000002100000001CXS  0000000000082000000000000000
5093584013013003 RECHEADO NAPOLITANO - 30X60 GRS                            000000001800000000002100000001CXS  0000000000082000000000000000
10935850034452MINIMAX MINI MERC.LTDA ME               R.E.ITAPECERICA A.CAMPO.L., 316         EMBU/JD.INDEPENDENCIA                   SP06823300006192339000113298.125.670.119     000VS MALVONI REPRESENT.S/(11) 69092040  
20935851802200520022005003445200017CAIXASMBF                                     .                                       .                                       E
5093585013003001 HOBBY CHOCOLATE - 30X170 GRS.                              000000005100000000005460000001CXS  0000000000224400000000000000
5093585013003004 HOBBY CHOCOLATE BRANCO - 30X170 GR                         000000005100000000005460000001CXS  0000000000224400000000000000
5093585013004001 HOBBY CHOC./CHANTILLY - 30X170 GRS                         000000005100000000005460000001CXS  0000000000224400000000000000
5093585013004002 HOBBY NAPOLITANO - 30X170 GRS.                             000000005100000000005460000001CXS  0000000000224400000000000000
5093585013009001 RECHEADO CHOC/CHANTILLY - 30X140GR                         000000004200000000004570000001CXS  0000000000162300000000000000
5093585013009002 RECHEADO MORANGO/CHANTILLY-30X140G                         000000004200000000004570000001CXS  0000000000162300000000000000
5093585013009003 RECHEADO DOCE DE LEITE/COCO-30X140                         000000004200000000004570000001CXS  0000000000162300000000000000
5093585013009004 RECHEADO NAPOLITANO - 30X140 GRS                           000000004200000000004570000001CXS  0000000000162300000000000000
5093585013009005 RECHEADO FLORESTA NEGRA-30X140 GRS                         000000004200000000004570000001CXS  0000000000162300000000000000
5093585013010001 TORTITA CHOCOLATE - 30X140 GRS                             000000008400000000009020000002CXS  0000000000399200000000000000
5093585013010002 TORTITA CHOCOLATE BRANCO 30X140 GR                         000000008400000000009020000002CXS  0000000000399200000000000000
5093585013011001 TORTITA MORANGO/CHANTILLY-30X140GR                         000000004200000000004510000001CXS  0000000000199600000000000000
5093585013011002 TORTITA CHOC.BCO/CHOC.LEITE 30X140                         000000008400000000009020000002CXS  0000000000399200000000000000
5093585013025001 RECHEADO BRIGADEIRO - 30X120 GRS                           000000003600000000003890000001CXS  0000000000167700000000000000
10935860091708SUPER.NOVO RECANTO LTDA                 AV.PAULA FERREIRA, 1.550                SAO PAULO/PIRITUBA                      SP02916000065965105000120109.866.819.118     000VS MALVONI REPRESENT.S/(11) 69092040  
20935861802200520022005009170800031CAIXASMBF                                     .                                       .                                       E
5093586013003001 HOBBY CHOCOLATE - 30X170 GRS.                              000000015300000000016380000003CXS  0000000000652800000000000000
5093586013003002 HOBBY MORANGO - 30X170 GRS.                                000000010200000000010920000002CXS  0000000000435200000000000000
5093586013004001 HOBBY CHOC./CHANTILLY - 30X170 GRS                         000000010200000000010920000002CXS  0000000000435200000000000000
5093586013004002 HOBBY NAPOLITANO - 30X170 GRS.                             000000010200000000010920000002CXS  0000000000435200000000000000
5093586013009001 RECHEADO CHOC/CHANTILLY - 30X140GR                         000000021000000000022850000005CXS  0000000000787000000000000000
5093586013009002 RECHEADO MORANGO/CHANTILLY-30X140G                         000000012600000000013710000003CXS  0000000000472200000000000000
5093586013009003 RECHEADO DOCE DE LEITE/COCO-30X140                         000000008400000000009140000002CXS  0000000000314800000000000000
5093586013009005 RECHEADO FLORESTA NEGRA-30X140 GRS                         000000012600000000013710000003CXS  0000000000472200000000000000
5093586013010001 TORTITA CHOCOLATE - 30X140 GRS                             000000008400000000009020000002CXS  0000000000379200000000000000
5093586013010002 TORTITA CHOCOLATE BRANCO 30X140 GR                         000000008400000000009020000002CXS  0000000000379200000000000000
5093586013011001 TORTITA MORANGO/CHANTILLY-30X140GR                         000000008400000000009020000002CXS  0000000000379200000000000000
5093586013011002 TORTITA CHOC.BCO/CHOC.LEITE 30X140                         000000012600000000013530000003CXS  0000000000568800000000000000
10935870032806CIAL GEN.ALIMENT.DSP LTDA               PCA.25 DE NOVEMBRO, 76                  SAO PAULO/PIRITUBA                      SP02977000002835646000114115.255.580.113     000VS MALVONI REPRESENT.S/(11) 69092040  
20935871802200520022005003280600004CAIXASMBF                                     .                                       .                                       E
5093587013009001 RECHEADO CHOC/CHANTILLY - 30X140GR                         000000004200000000004570000001CXS  0000000000157400000000000000
5093587013009002 RECHEADO MORANGO/CHANTILLY-30X140G                         000000004200000000004570000001CXS  0000000000157400000000000000
5093587013009004 RECHEADO NAPOLITANO - 30X140 GRS                           000000004200000000004570000001CXS  0000000000157400000000000000
5093587013010001 TORTITA CHOCOLATE - 30X140 GRS                             000000004200000000004510000001CXS  0000000000189600000000000000
10935880091906M.M.FEITOSA DA SILVA MINIMERC-ME        RUA RAIMUNDO MACHADO, 50 A              SAO PAULO/PONTE RASA                    SP03751000001003655000186114.587.533.111     000VS MALVONI REPRESENT.S/(11) 69092040  
20935881802200520022005009190600009CAIXASMBF                                     .                                       .                                       E
5093588013006001 RECH.FLORINI CHOCOLATE - 30X140 GR                         000000004200000000004550000001CXS  0000000000146900000000000000
5093588013006002 RECH.FLORINI MORANGO - 30X140 GRS.                         000000004200000000004550000001CXS  0000000000146900000000000000
5093588013006003 RECH.FLORINI CHOC.BRANCO-30X140GRS                         000000004200000000004550000001CXS  0000000000146900000000000000
5093588013006004 RECH.FLORINI FRAMBOESA - 30X140 GR                         000000004200000000004600000001CXS  0000000000146900000000000000
5093588013006005 RECH.FLORINI UVA AO CREME-30X140GR                         000000004200000000004600000001CXS  0000000000146900000000000000
5093588013010001 TORTITA CHOCOLATE - 30X140 GRS                             000000004200000000004510000001CXS  0000000000189600000000000000
5093588013010002 TORTITA CHOCOLATE BRANCO 30X140 GR                         000000004200000000004510000001CXS  0000000000189600000000000000
5093588013013004 RECHEADO ATREVIDOS - 30X60 GRS                             000000001800000000002040000001CXS  0000000000079500000000000000
5093588013013005 RECHEADO BRIGADEIRO - 30X60 GRS                            000000001800000000002060000001CXS  0000000000079500000000000000
10935890034349D & D MERCADINHO LTDA-ME                R.FLOR DE SANTA CRUZ, 232               SAO PAULO/VILA DIANA                    SP08230450006331049000103112.317.965.119     000VS MALVONI REPRESENT.S/(11) 69092040  
20935891802200520022005003434900013CAIXASMBF                                     .                                       .                                       E
5093589013003001 HOBBY CHOCOLATE - 30X170 GRS.                              000000005100000000005460000001CXS  0000000000217700000000000000
5093589013003002 HOBBY MORANGO - 30X170 GRS.                                000000005100000000005460000001CXS  0000000000217700000000000000
5093589013009001 RECHEADO CHOC/CHANTILLY - 30X140GR                         000000008400000000009140000002CXS  0000000000314800000000000000
5093589013009002 RECHEADO MORANGO/CHANTILLY-30X140G                         000000008400000000009140000002CXS  0000000000314800000000000000
5093589013009003 RECHEADO DOCE DE LEITE/COCO-30X140                         000000004200000000004570000001CXS  0000000000157400000000000000
5093589013009004 RECHEADO NAPOLITANO - 30X140 GRS                           000000008400000000009140000002CXS  0000000000314800000000000000
5093589013009005 RECHEADO FLORESTA NEGRA-30X140 GRS                         000000004200000000004570000001CXS  0000000000157400000000000000
5093589013010002 TORTITA CHOCOLATE BRANCO 30X140 GR                         000000008400000000009020000002CXS  0000000000379200000000000000
5093589013011001 TORTITA MORANGO/CHANTILLY-30X140GR                         000000004200000000004510000001CXS  0000000000189600000000000000
10935900032104MERCADINHO KITA LTDA-ME                 AV.SAO MIGUEL, 6.098                    SAO PAULO/VAL. NORMA                    SP08070002002305519000103115.697.411.114     000VS MALVONI REPRESENT.S/(11) 69092040  
20935901802200520022005003210400002CAIXASMBF                                     .                                       .                                       E
5093590013003001 HOBBY CHOCOLATE - 30X170 GRS.                              000000005100000000005460000001CXS  0000000000224400000000000000
5093590013004002 HOBBY NAPOLITANO - 30X170 GRS.                             000000005100000000005460000001CXS  0000000000217700000000000000
10935910032844RISQUINHO ALIM.LTDA                     AV.MIGUEL DE CASTRO, 1712               SAO PAULO/VILA MIRANTE                  SP02950000005761030000134116.659.499.112     000VS MALVONI REPRESENT.S/(11) 69092040  
20935911802200520022005003284400022CAIXASMBF                                     .                                       .                                       E
5093591013003001 HOBBY CHOCOLATE - 30X170 GRS.                              000000005100000000005460000001CXS  0000000000217700000000000000
5093591013016001 RECH.LADO A LADO CHOCOLATE-30X115G                         000000024150000000026390000007CXS  0000000000793100000000000000
5093591013016002 RECH.LADO A LADO MORANGO-30X115 GR                         000000024150000000026390000007CXS  0000000000793100000000000000
5093591013016003 RECH.LADO A LADO CHO.BRANCO-30X115                         000000024150000000026390000007CXS  0000000000793100000000000000
10935920032844RISQUINHO ALIM.LTDA                     AV.MIGUEL DE CASTRO, 1712               SAO PAULO/VILA MIRANTE                  SP02950000005761030000134116.659.499.112     000VS MALVONI REPRESENT.S/(11) 69092040  
20935921802200520022005003284400003CAIXASMBF                                     .                                       .                                       E
5093592013016001 RECH.LADO A LADO CHOCOLATE-30X115G                         000000003450000000003770000001CXS  0000000000113300000000000000
5093592013016002 RECH.LADO A LADO MORANGO-30X115 GR                         000000006900000000007540000002CXS  0000000000226600000000000000
10935930032021BOM VIZINHO CIAL LTDA                   R MARIANO LORIA 01                      SAO PAULO/S M PAULIS                    SP03819120072988280000107113.917.655.116     000VS MALVONI REPRESENT.S/(11) 69092040  
20935931802200520022005003202100038CAIXASMBF                                     .                                       .                                       E
5093593013009001 RECHEADO CHOC/CHANTILLY - 30X140GR                         000000008400000000009140000002CXS  0000000000324600000000000000
5093593013009002 RECHEADO MORANGO/CHANTILLY-30X140G                         000000021000000000022850000005CXS  0000000000811500000000000000
5093593013009003 RECHEADO DOCE DE LEITE/COCO-30X140                         000000008400000000009140000002CXS  0000000000324600000000000000
5093593013009004 RECHEADO NAPOLITANO - 30X140 GRS                           000000004200000000004570000001CXS  0000000000162300000000000000
5093593013010001 TORTITA CHOCOLATE - 30X140 GRS                             000000042000000000045100000010CXS  0000000001620000000000000000
5093593013010002 TORTITA CHOCOLATE BRANCO 30X140 GR                         000000021000000000022550000005CXS  0000000000810000000000000000
5093593013011002 TORTITA CHOC.BCO/CHOC.LEITE 30X140                         000000042000000000045100000010CXS  0000000001620000000000000000
5093593013013001 RECHEADO MORANGO/CHANTILLY-30X60GR                         000000001800000000002100000001CXS  0000000000082000000000000000
5093593013013003 RECHEADO NAPOLITANO - 30X60 GRS                            000000001800000000002100000001CXS  0000000000082000000000000000
5093593013013005 RECHEADO BRIGADEIRO - 30X60 GRS                            000000001800000000002060000001CXS  0000000000082000000000000000
10935940091278ACOUGUE MERC.AVENIDA LTDA-ME            AV.ANTONIO MUNHOZ BONILHA, 950          SAO PAULO/VL.CAROLINA                   SP02725000058851734000164112.044.444.117     000VS MALVONI REPRESENT.S/(11) 69092040  
20935941802200520022005009127800002CAIXASMBF                                     .                                       .                                       E
5093594013011002 TORTITA CHOC.BCO/CHOC.LEITE 30X140                         000000008400000000009020000002CXS  0000000000379200000000000000
10935950030410MERCDINHO CASA CARNES CEDRO LTDA        RUA PROF.OSCAR CAMPIGLIA, 476           SAO PAULO/JD.PIRACUAMA                  SP05762230048340079000126110.309.041.113     000VS MALVONI REPRESENT.S/(11) 69092040  
20935951802200520022005003041000063CAIXASMBF                                     .                                       .                                       E
5093595013003001 HOBBY CHOCOLATE - 30X170 GRS.                              000000010200000000010920000002CXS  0000000000448800000000000000
5093595013003002 HOBBY MORANGO - 30X170 GRS.                                000000010200000000010920000002CXS  0000000000448800000000000000
5093595013003003 HOBBY COCO - 30X170 GRS.                                   000000010200000000010920000002CXS  0000000000448800000000000000
5093595013003004 HOBBY CHOCOLATE BRANCO - 30X170 GR                         000000010200000000010920000002CXS  0000000000448800000000000000
5093595013004001 HOBBY CHOC./CHANTILLY - 30X170 GRS                         000000010200000000010920000002CXS  0000000000448800000000000000
5093595013004002 HOBBY NAPOLITANO - 30X170 GRS.                             000000010200000000010920000002CXS  0000000000448800000000000000
5093595013009001 RECHEADO CHOC/CHANTILLY - 30X140GR                         000000025200000000027420000006CXS  0000000000973800000000000000
5093595013009002 RECHEADO MORANGO/CHANTILLY-30X140G                         000000012600000000013710000003CXS  0000000000486900000000000000
5093595013009003 RECHEADO DOCE DE LEITE/COCO-30X140                         000000012600000000013710000003CXS  0000000000486900000000000000
5093595013009004 RECHEADO NAPOLITANO - 30X140 GRS                           000000012600000000013710000003CXS  0000000000486900000000000000
5093595013009005 RECHEADO FLORESTA NEGRA-30X140 GRS                         000000012600000000013710000003CXS  0000000000486900000000000000
5093595013010001 TORTITA CHOCOLATE - 30X140 GRS                             000000012600000000013530000003CXS  0000000000598800000000000000
5093595013010002 TORTITA CHOCOLATE BRANCO 30X140 GR                         000000012600000000013530000003CXS  0000000000598800000000000000
5093595013011001 TORTITA MORANGO/CHANTILLY-30X140GR                         000000012600000000013530000003CXS  0000000000598800000000000000
5093595013011002 TORTITA CHOC.BCO/CHOC.LEITE 30X140                         000000012600000000013530000003CXS  0000000000598800000000000000
5093595013016001 RECH.LADO A LADO CHOCOLATE-30X115G                         000000027600000000030160000008CXS  0000000000906400000000000000
5093595013016002 RECH.LADO A LADO MORANGO-30X115 GR                         000000017250000000018850000005CXS  0000000000566500000000000000
5093595013016003 RECH.LADO A LADO CHO.BRANCO-30X115                         000000017250000000018850000005CXS  0000000000566500000000000000
5093595013025001 RECHEADO BRIGADEIRO - 30X120 GRS                           000000010800000000011670000003CXS  0000000000503100000000000000
10935960090959SUPER.MIRASSOL LTDA                     RUA JOAO MIRASSOL, 509                  OSASCO/VL.PESTANA                       SP06122170060708245000108492.195.864.111     000VS MALVONI REPRESENT.S/(11) 69092040  
20935961802200520022005009095900041CAIXASMBF                                     .                                       .                                       E
5093596013003001 HOBBY CHOCOLATE - 30X170 GRS.                              000000015300000000016380000003CXS  0000000000675000000000000000
5093596013003002 HOBBY MORANGO - 30X170 GRS.                                000000010200000000010920000002CXS  0000000000450000000000000000
5093596013004001 HOBBY CHOC./CHANTILLY - 30X170 GRS                         000000010200000000010920000002CXS  0000000000450000000000000000
5093596013004002 HOBBY NAPOLITANO - 30X170 GRS.                             000000010200000000010920000002CXS  0000000000450000000000000000
5093596013009001 RECHEADO CHOC/CHANTILLY - 30X140GR                         000000021000000000022850000005CXS  0000000000787500000000000000
5093596013009002 RECHEADO MORANGO/CHANTILLY-30X140G                         000000012600000000013710000003CXS  0000000000472500000000000000
5093596013009003 RECHEADO DOCE DE LEITE/COCO-30X140                         000000008400000000009140000002CXS  0000000000315000000000000000
5093596013009004 RECHEADO NAPOLITANO - 30X140 GRS                           000000008400000000009140000002CXS  0000000000315000000000000000
5093596013009005 RECHEADO FLORESTA NEGRA-30X140 GRS                         000000008400000000009140000002CXS  0000000000315000000000000000
5093596013010001 TORTITA CHOCOLATE - 30X140 GRS                             000000021000000000022550000005CXS  0000000000910000000000000000
5093596013010002 TORTITA CHOCOLATE BRANCO 30X140 GR                         000000021000000000022550000005CXS  0000000000910000000000000000
5093596013011001 TORTITA MORANGO/CHANTILLY-30X140GR                         000000012600000000013530000003CXS  0000000000546000000000000000
5093596013011002 TORTITA CHOC.BCO/CHOC.LEITE 30X140                         000000021000000000022550000005CXS  0000000000910000000000000000
10935970090959SUPER.MIRASSOL LTDA                     RUA JOAO MIRASSOL, 509                  OSASCO/VL.PESTANA                       SP06122170060708245000108492.195.864.111     000VS MALVONI REPRESENT.S/(11) 69092040  
20935971802200520022005009095900002CAIXASMBF                                     .                                       .                                       E
5093597013009001 RECHEADO CHOC/CHANTILLY - 30X140GR                         000000008400000000009140000002CXS  0000000000315000000000000000
10935980034593H.SATO MERC.LTDA                        RUA KOTO MITSUTANI, 602                 SAO PAULO/JD.MITSUTANI                  SP05791001006860040000190116.650.951.115     000VS MALVONI REPRESENT.S/(11) 69092040  
20935981802200520022005003459300014CAIXASMBF                                     .                                       .                                       E
5093598013003001 HOBBY CHOCOLATE - 30X170 GRS.                              000000015300000000016380000003CXS  0000000000673200000000000000
5093598013003003 HOBBY COCO - 30X170 GRS.                                   000000015300000000016380000003CXS  0000000000673200000000000000
5093598013004002 HOBBY NAPOLITANO - 30X170 GRS.                             000000015300000000016380000003CXS  0000000000673200000000000000
5093598013025001 RECHEADO BRIGADEIRO - 30X120 GRS                           000000018000000000019450000005CXS  0000000000838500000000000000
10935990090562MERCADINHO PATRICIA LTDA                RUA JOAO CRUZ DE SOUSA, 05              SAO PAULO/JD.DAS ROSAS                  SP05893000050667187000150110.096.172.118     000VS MALVONI REPRESENT.S/(11) 69092040  
20935991802200520022005009056200042CAIXASMBF                                     .                                       .                                       E
5093599013009001 RECHEADO CHOC/CHANTILLY - 30X140GR                         000000021000000000022850000005CXS  0000000000811500000000000000
5093599013009002 RECHEADO MORANGO/CHANTILLY-30X140G                         000000021000000000022850000005CXS  0000000000811500000000000000
5093599013009003 RECHEADO DOCE DE LEITE/COCO-30X140                         000000012600000000013710000003CXS  0000000000486900000000000000
5093599013009004 RECHEADO NAPOLITANO - 30X140 GRS                           000000021000000000022850000005CXS  0000000000811500000000000000
5093599013009005 RECHEADO FLORESTA NEGRA-30X140 GRS                         000000021000000000022850000005CXS  0000000000811500000000000000
5093599013010001 TORTITA CHOCOLATE - 30X140 GRS                             000000021000000000022550000005CXS  0000000000998000000000000000
5093599013010002 TORTITA CHOCOLATE BRANCO 30X140 GR                         000000021000000000022550000005CXS  0000000000998000000000000000
5093599013011001 TORTITA MORANGO/CHANTILLY-30X140GR                         000000016800000000018040000004CXS  0000000000798400000000000000
5093599013011002 TORTITA CHOC.BCO/CHOC.LEITE 30X140                         000000021000000000022550000005CXS  0000000000998000000000000000
10936000091818MERCADINHO NOVA PATRICIA LTDA           AV.CARLOS LACERDA, 2.170                SAO PAULO/JD.ROSANA                     SP05789001003475939000109115.622.769.110     000VS MALVONI REPRESENT.S/(11) 69092040  
20936001802200520022005009181800042CAIXASMBF                                     .                                       .                                       E
5093600013009001 RECHEADO CHOC/CHANTILLY - 30X140GR                         000000021000000000022850000005CXS  0000000000811500000000000000
5093600013009002 RECHEADO MORANGO/CHANTILLY-30X140G                         000000021000000000022850000005CXS  0000000000811500000000000000
5093600013009003 RECHEADO DOCE DE LEITE/COCO-30X140                         000000012600000000013710000003CXS  0000000000486900000000000000
5093600013009004 RECHEADO NAPOLITANO - 30X140 GRS                           000000021000000000022850000005CXS  0000000000811500000000000000
5093600013009005 RECHEADO FLORESTA NEGRA-30X140 GRS                         000000021000000000022850000005CXS  0000000000811500000000000000
5093600013010001 TORTITA CHOCOLATE - 30X140 GRS                             000000021000000000022550000005CXS  0000000000998000000000000000
5093600013010002 TORTITA CHOCOLATE BRANCO 30X140 GR                         000000021000000000022550000005CXS  0000000000998000000000000000
5093600013011001 TORTITA MORANGO/CHANTILLY-30X140GR                         000000016800000000018040000004CXS  0000000000798400000000000000
5093600013011002 TORTITA CHOC.BCO/CHOC.LEITE 30X140                         000000021000000000022550000005CXS  0000000000998000000000000000
10936010032351DOUGLAS RAMOS ROGATTO-ME                R.LEONOR BARROSO DE CARVALHO,161        FERRAZ DE VASCONCELOS/FERRAZ DE VASCONCESP08535000005576701000197305.103.450.110     000VS MALVONI REPRESENT.S/(11) 69092040  
20936011802200520022005003235100037CAIXASMBF                                     .                                       .                                       E
5093601013003001 HOBBY CHOCOLATE - 30X170 GRS.                              000000010200000000010920000002CXS  0000000000435400000000000000
5093601013003002 HOBBY MORANGO - 30X170 GRS.                                000000010200000000010920000002CXS  0000000000435400000000000000
5093601013003003 HOBBY COCO - 30X170 GRS.                                   000000010200000000010920000002CXS  0000000000435400000000000000
5093601013003004 HOBBY CHOCOLATE BRANCO - 30X170 GR                         000000010200000000010920000002CXS  0000000000435400000000000000
5093601013004001 HOBBY CHOC./CHANTILLY - 30X170 GRS                         000000010200000000010920000002CXS  0000000000435400000000000000
5093601013004002 HOBBY NAPOLITANO - 30X170 GRS.                             000000010200000000010920000002CXS  0000000000435400000000000000
5093601013010001 TORTITA CHOCOLATE - 30X140 GRS                             000000008400000000009020000002CXS  0000000000379200000000000000
5093601013010002 TORTITA CHOCOLATE BRANCO 30X140 GR                         000000008400000000009020000002CXS  0000000000379200000000000000
5093601013011002 TORTITA CHOC.BCO/CHOC.LEITE 30X140                         000000008400000000009020000002CXS  0000000000379200000000000000
5093601013016001 RECH.LADO A LADO CHOCOLATE-30X115G                         000000013800000000015080000004CXS  0000000000453200000000000000
5093601013016002 RECH.LADO A LADO MORANGO-30X115 GR                         000000024150000000026390000007CXS  0000000000793100000000000000
5093601013016003 RECH.LADO A LADO CHO.BRANCO-30X115                         000000020700000000022620000006CXS  0000000000679800000000000000
5093601013025001 RECHEADO BRIGADEIRO - 30X120 GRS                           000000007200000000007780000002CXS  0000000000325400000000000000
10936020032351DOUGLAS RAMOS ROGATTO-ME                R.LEONOR BARROSO DE CARVALHO,161        FERRAZ DE VASCONCELOS/FERRAZ DE VASCONCESP08535000005576701000197305.103.450.110     000VS MALVONI REPRESENT.S/(11) 69092040  
20936021802200520022005003235100002CAIXASMBF                                     .                                       .                                       E
5093602013016001 RECH.LADO A LADO CHOCOLATE-30X115G                         000000006900000000007540000002CXS  0000000000226600000000000000
10936030032161MINIMERC.DOCE PRECO LTDA                AV. NORDESTINA, 977                     SAO PAULO/SAO MIGUEL                    SP08011120003272873000141115.428.554.118     000VS MALVONI REPRESENT.S/(11) 69092040  
20936031802200520022005003216100008CAIXASMBF                                     .                                       .                                       E
5093603013003001 HOBBY CHOCOLATE - 30X170 GRS.                              000000005100000000005460000001CXS  0000000000224400000000000000
5093603013004002 HOBBY NAPOLITANO - 30X170 GRS.                             000000005100000000005460000001CXS  0000000000224400000000000000
5093603013006001 RECH.FLORINI CHOCOLATE - 30X140 GR                         000000004200000000004550000001CXS  0000000000153000000000000000
5093603013006004 RECH.FLORINI FRAMBOESA - 30X140 GR                         000000004200000000004600000001CXS  0000000000153000000000000000
5093603013009003 RECHEADO DOCE DE LEITE/COCO-30X140                         000000004200000000004570000001CXS  0000000000162300000000000000
5093603013010001 TORTITA CHOCOLATE - 30X140 GRS                             000000004200000000004510000001CXS  0000000000199600000000000000
5093603013011002 TORTITA CHOC.BCO/CHOC.LEITE 30X140                         000000004200000000004510000001CXS  0000000000199600000000000000
5093603013013002 RECHEADO CHOC/CHANTILLY - 30X60GRS                         000000001800000000002100000001CXS  0000000000082000000000000000
10936040031946MERCADINHO SUPER VISAO LTDA-ME          R. ESTELLA MAZZUCA 1410                 FERRAZ DE VASCONCELOS/FERRAZ DE VASCOCELSP08500000005539260000153305.041.393.112     000VS MALVONI REPRESENT.S/(11) 69092040  
20936041802200520022005003194600016CAIXASMBF                                     .                                       .                                       E
5093604013003001 HOBBY CHOCOLATE - 30X170 GRS.                              000000005100000000005460000001CXS  0000000000217700000000000000
5093604013003002 HOBBY MORANGO - 30X170 GRS.                                000000005100000000005460000001CXS  0000000000217700000000000000
5093604013003003 HOBBY COCO - 30X170 GRS.                                   000000005100000000005460000001CXS  0000000000217700000000000000
5093604013003004 HOBBY CHOCOLATE BRANCO - 30X170 GR                         000000005100000000005460000001CXS  0000000000217700000000000000
5093604013004001 HOBBY CHOC./CHANTILLY - 30X170 GRS                         000000005100000000005460000001CXS  0000000000217700000000000000
5093604013004002 HOBBY NAPOLITANO - 30X170 GRS.                             000000005100000000005460000001CXS  0000000000217700000000000000
5093604013009001 RECHEADO CHOC/CHANTILLY - 30X140GR                         000000004200000000004570000001CXS  0000000000157400000000000000
5093604013009002 RECHEADO MORANGO/CHANTILLY-30X140G                         000000004200000000004570000001CXS  0000000000157400000000000000
5093604013009003 RECHEADO DOCE DE LEITE/COCO-30X140                         000000004200000000004570000001CXS  0000000000157400000000000000
5093604013009004 RECHEADO NAPOLITANO - 30X140 GRS                           000000004200000000004570000001CXS  0000000000157400000000000000
5093604013009005 RECHEADO FLORESTA NEGRA-30X140 GRS                         000000004200000000004570000001CXS  0000000000157400000000000000
5093604013010001 TORTITA CHOCOLATE - 30X140 GRS                             000000004200000000004510000001CXS  0000000000189600000000000000
5093604013010002 TORTITA CHOCOLATE BRANCO 30X140 GR                         000000004200000000004510000001CXS  0000000000189600000000000000
5093604013011001 TORTITA MORANGO/CHANTILLY-30X140GR                         000000004200000000004510000001CXS  0000000000189600000000000000
5093604013011002 TORTITA CHOC.BCO/CHOC.LEITE 30X140                         000000004200000000004510000001CXS  0000000000189600000000000000
5093604013025001 RECHEADO BRIGADEIRO - 30X120 GRS                           000000003600000000003890000001CXS  0000000000162700000000000000
10936050033989MINI MERC.MILENIUM LTDA                 AV.LUCAS NOGUEIRA GARCES, 517           POA/JD.ESTELA                           SP08550000002966010000101546.043.807.118     000VS MALVONI REPRESENT.S/(11) 69092040  
20936051802200520022005003398900004CAIXASMBF                                     .                                       .                                       E
5093605013006001 RECH.FLORINI CHOCOLATE - 30X140 GR                         000000004200000000004550000001CXS  0000000000146900000000000000
5093605013006002 RECH.FLORINI MORANGO - 30X140 GRS.                         000000004200000000004550000001CXS  0000000000146900000000000000
5093605013010001 TORTITA CHOCOLATE - 30X140 GRS                             000000004200000000004510000001CXS  0000000000189600000000000000
5093605013010002 TORTITA CHOCOLATE BRANCO 30X140 GR                         000000004200000000004510000001CXS  0000000000189600000000000000
10936060032388MINI MERC.GOMES FERREIRA                R.DOS ITURONOS, 191                     FERRAZ DE VASCONCELOS/VILA STO ANTONIO  SP08534120005685283000176305.103.593.115     000VS MALVONI REPRESENT.S/(11) 69092040  
20936061802200520022005003238800002CAIXASMBF                                     .                                       .                                       E
5093606013010002 TORTITA CHOCOLATE BRANCO 30X140 GR                         000000004200000000004510000001CXS  0000000000189600000000000000
5093606013025001 RECHEADO BRIGADEIRO - 30X120 GRS                           000000003600000000003890000001CXS  0000000000162700000000000000
10936070034019SUPER.MULTI BIG LTDA                    RUA TUIUTI, 3025                        SAO PAULO/TATUAPE                       SP03307000056698301000195111.667.484.119     000VS MALVONI REPRESENT.S/(11) 69092040  
20936071802200520022005003401900006CAIXASMBF                                     .                                       .                                       E
5093607013010001 TORTITA CHOCOLATE - 30X140 GRS                             000000008400000000009020000002CXS  0000000000359200000000000000
5093607013010002 TORTITA CHOCOLATE BRANCO 30X140 GR                         000000008400000000009020000002CXS  0000000000359200000000000000
5093607013011002 TORTITA CHOC.BCO/CHOC.LEITE 30X140                         000000008400000000009020000002CXS  0000000000359200000000000000
10936080091397SUPER.IRMAOS ZIMMERMMAN LTDA            RUA ITAPIRACABA, 427                    SAO PAULO/BRAS                          SP03025050000183039000191114.108.370.113     000VS MALVONI REPRESENT.S/(11) 69092040  
20936081802200520022005009139700007CAIXASMBF                                     .                                       .                                       E
5093608013003001 HOBBY CHOCOLATE - 30X170 GRS.                              000000010200000000010920000002CXS  0000000000448800000000000000
5093608013003002 HOBBY MORANGO - 30X170 GRS.                                000000005100000000005460000001CXS  0000000000224400000000000000
5093608013010001 TORTITA CHOCOLATE - 30X140 GRS                             000000004200000000004510000001CXS  0000000000179600000000000000
5093608013010002 TORTITA CHOCOLATE BRANCO 30X140 GR                         000000004200000000004510000001CXS  0000000000179600000000000000
5093608013011001 TORTITA MORANGO/CHANTILLY-30X140GR                         000000004200000000004510000001CXS  0000000000179600000000000000
5093608013011002 TORTITA CHOC.BCO/CHOC.LEITE 30X140                         000000004200000000004510000001CXS  0000000000179600000000000000
10936090092237JOUSSEF ANTONIO HADDAD-ME               RUA HILDEBRANDO SIQUEIRA, 500           SAO PAULO/AMERICANOPOLIS                SP04334150062507942000118112.690.480.110     000VS MALVONI REPRESENT.S/(11) 69092040  
20936091802200520022005009223700007CAIXASMBF                                     .                                       .                                       E
5093609013010001 TORTITA CHOCOLATE - 30X140 GRS                             000000012600000000013530000003CXS  0000000000568800000000000000
5093609013010002 TORTITA CHOCOLATE BRANCO 30X140 GR                         000000004200000000004510000001CXS  0000000000189600000000000000
5093609013011002 TORTITA CHOC.BCO/CHOC.LEITE 30X140                         000000012600000000013530000003CXS  0000000000568800000000000000
10936100092237JOUSSEF ANTONIO HADDAD-ME               RUA HILDEBRANDO SIQUEIRA, 500           SAO PAULO/AMERICANOPOLIS                SP04334150062507942000118112.690.480.110     000VS MALVONI REPRESENT.S/(11) 69092040  
20936101802200520022005009223700001CAIXASMBF                                     .                                       .                                       E
5093610013010002 TORTITA CHOCOLATE BRANCO 30X140 GR                         000000004200000000004510000001CXS  0000000000189600000000000000
10936110091869CABRAL & COUTINHO LTDA                  RUA TEXAS, 964                          SAO PAULO/BROOKLIN                      SP04557001043307446000176108.710.188.116     000VS MALVONI REPRESENT.S/(11) 69092040  
20936111802200520022005009186900015CAIXASMBF                                     .                                       .                                       E
5093611013003001 HOBBY CHOCOLATE - 30X170 GRS.                              000000005100000000005460000001CXS  0000000000217700000000000000
5093611013004001 HOBBY CHOC./CHANTILLY - 30X170 GRS                         000000005100000000005460000001CXS  0000000000217700000000000000
5093611013004002 HOBBY NAPOLITANO - 30X170 GRS.                             000000005100000000005460000001CXS  0000000000217700000000000000
5093611013006003 RECH.FLORINI CHOC.BRANCO-30X140GRS                         000000004200000000004550000001CXS  0000000000146900000000000000
5093611013009001 RECHEADO CHOC/CHANTILLY - 30X140GR                         000000004200000000004570000001CXS  0000000000157400000000000000
5093611013009002 RECHEADO MORANGO/CHANTILLY-30X140G                         000000004200000000004570000001CXS  0000000000157400000000000000
5093611013009003 RECHEADO DOCE DE LEITE/COCO-30X140                         000000004200000000004570000001CXS  0000000000157400000000000000
5093611013009004 RECHEADO NAPOLITANO - 30X140 GRS                           000000004200000000004570000001CXS  0000000000157400000000000000
5093611013010001 TORTITA CHOCOLATE - 30X140 GRS                             000000004200000000004510000001CXS  0000000000189600000000000000
5093611013010002 TORTITA CHOCOLATE BRANCO 30X140 GR                         000000004200000000004510000001CXS  0000000000189600000000000000
5093611013011002 TORTITA CHOC.BCO/CHOC.LEITE 30X140                         000000004200000000004510000001CXS  0000000000189600000000000000
5093611013016001 RECH.LADO A LADO CHOCOLATE-30X115G                         000000003450000000003770000001CXS  0000000000121100000000000000
5093611013016002 RECH.LADO A LADO MORANGO-30X115 GR                         000000003450000000003770000001CXS  0000000000121100000000000000
5093611013016003 RECH.LADO A LADO CHO.BRANCO-30X115                         000000003450000000003770000001CXS  0000000000121100000000000000
5093611013025001 RECHEADO BRIGADEIRO - 30X120 GRS                           000000003600000000003890000001CXS  0000000000162700000000000000
10936120031569PAULO ROBERTO FREITAS EMPORIO-ME        AV. KEITA HARADA 55                     SUZANO/SUZANO IPELAND                   SP08620000066917816000192672.024.295.112     000VS MALVONI REPRESENT.S/(11) 69092040  
20936121802200520022005003156900045CAIXASMBF                                     .                                       .                                       E
5093612013003001 HOBBY CHOCOLATE - 30X170 GRS.                              000000010200000000010920000002CXS  0000000000448800000000000000
5093612013003002 HOBBY MORANGO - 30X170 GRS.                                000000010200000000010920000002CXS  0000000000448800000000000000
5093612013003003 HOBBY COCO - 30X170 GRS.                                   000000010200000000010920000002CXS  0000000000448800000000000000
5093612013003004 HOBBY CHOCOLATE BRANCO - 30X170 GR                         000000010200000000010920000002CXS  0000000000448800000000000000
5093612013004001 HOBBY CHOC./CHANTILLY - 30X170 GRS                         000000010200000000010920000002CXS  0000000000448800000000000000
5093612013004002 HOBBY NAPOLITANO - 30X170 GRS.                             000000010200000000010920000002CXS  0000000000448800000000000000
5093612013009001 RECHEADO CHOC/CHANTILLY - 30X140GR                         000000008400000000009140000002CXS  0000000000324600000000000000
5093612013009002 RECHEADO MORANGO/CHANTILLY-30X140G                         000000008400000000009140000002CXS  0000000000324600000000000000
5093612013009003 RECHEADO DOCE DE LEITE/COCO-30X140                         000000008400000000009140000002CXS  0000000000324600000000000000
5093612013009004 RECHEADO NAPOLITANO - 30X140 GRS                           000000008400000000009140000002CXS  0000000000324600000000000000
5093612013009005 RECHEADO FLORESTA NEGRA-30X140 GRS                         000000008400000000009140000002CXS  0000000000324600000000000000
5093612013010001 TORTITA CHOCOLATE - 30X140 GRS                             000000004200000000004510000001CXS  0000000000179600000000000000
5093612013010002 TORTITA CHOCOLATE BRANCO 30X140 GR                         000000008400000000009020000002CXS  0000000000359200000000000000
5093612013011001 TORTITA MORANGO/CHANTILLY-30X140GR                         000000008400000000009020000002CXS  0000000000359200000000000000
5093612013016001 RECH.LADO A LADO CHOCOLATE-30X115G                         000000006900000000007540000002CXS  0000000000226600000000000000
5093612013016002 RECH.LADO A LADO MORANGO-30X115 GR                         000000027600000000030160000008CXS  0000000000906400000000000000
5093612013016003 RECH.LADO A LADO CHO.BRANCO-30X115                         000000027600000000030160000008CXS  0000000000906400000000000000
10936130031569PAULO ROBERTO FREITAS EMPORIO-ME        AV. KEITA HARADA 55                     SUZANO/SUZANO IPELAND                   SP08620000066917816000192672.024.295.112     000VS MALVONI REPRESENT.S/(11) 69092040  
20936131802200520022005003156900003CAIXASMBF                                     .                                       .                                       E
5093613013016002 RECH.LADO A LADO MORANGO-30X115 GR                         000000003450000000003770000001CXS  0000000000113300000000000000
5093613013016003 RECH.LADO A LADO CHO.BRANCO-30X115                         000000006900000000007540000002CXS  0000000000226600000000000000
10936140273788MERCADO DIAS & VIANNA LTDA-EPP          AV.WALDEMAR CARLOS PEREIRA, 527         SAO PAULO/VL.DALILA                     SP03533000001881035000140115.084.410.115     000VS MALVONI REPRESENT.S/(11) 69092040  
20936141802200520022005027378800013CAIXASMBF                                     .                                       .                                       E
5093614013010001 TORTITA CHOCOLATE - 30X140 GRS                             000000025200000000027060000006CXS  0000000000972000000000000000
5093614013010002 TORTITA CHOCOLATE BRANCO 30X140 GR                         000000012600000000013530000003CXS  0000000000486000000000000000
5093614013011001 TORTITA MORANGO/CHANTILLY-30X140GR                         000000008400000000009020000002CXS  0000000000324000000000000000
5093614013011002 TORTITA CHOC.BCO/CHOC.LEITE 30X140                         000000008400000000009020000002CXS  0000000000324000000000000000
10936150090454SUPER.LIDER DO CARRAO LTDA              AV.CONSELHEIRO CARRAO, 2.008/16         SAO PAULO/VL.CARRAO                     SP03403001061267902000507108.872.346.116     000VS MALVONI REPRESENT.S/(11) 69092040  
20936151802200520022005009045400021CAIXASMBF                                     .                                       .                                       E
5093615013010002 TORTITA CHOCOLATE BRANCO 30X140 GR                         000000012600000000013530000003CXS  0000000000486000000000000000
5093615013016001 RECH.LADO A LADO CHOCOLATE-30X115G                         000000017250000000018850000005CXS  0000000000566500000000000000
5093615013016002 RECH.LADO A LADO MORANGO-30X115 GR                         000000027600000000030160000008CXS  0000000000906400000000000000
5093615013016003 RECH.LADO A LADO CHO.BRANCO-30X115                         000000017250000000018850000005CXS  0000000000566500000000000000
10936160090454SUPER.LIDER DO CARRAO LTDA              AV.CONSELHEIRO CARRAO, 2.008/16         SAO PAULO/VL.CARRAO                     SP03403001061267902000507108.872.346.116     000VS MALVONI REPRESENT.S/(11) 69092040  
20936161802200520022005009045400003CAIXASMBF                                     .                                       .                                       E
5093616013016001 RECH.LADO A LADO CHOCOLATE-30X115G                         000000003450000000003770000001CXS  0000000000113300000000000000
5093616013016002 RECH.LADO A LADO MORANGO-30X115 GR                         000000003450000000003770000001CXS  0000000000113300000000000000
5093616013016003 RECH.LADO A LADO CHO.BRANCO-30X115                         000000003450000000003770000001CXS  0000000000113300000000000000
10936170031596BAR EMPORIO JATHER LTDA-ME              ROD. INDIO TIBIRICA 12131               SUZANO/PALMEIRAS                        SP08620000043178284000113672.028.218.112     000VS MALVONI REPRESENT.S/(11) 69092040  
20936171802200520022005003159600020CAIXASMBF                                     .                                       .                                       E
5093617013004001 HOBBY CHOC./CHANTILLY - 30X170 GRS                         000000010200000000010920000002CXS  0000000000448800000000000000
5093617013004002 HOBBY NAPOLITANO - 30X170 GRS.                             000000010200000000010920000002CXS  0000000000448800000000000000
5093617013016001 RECH.LADO A LADO CHOCOLATE-30X115G                         000000013800000000015080000004CXS  0000000000453200000000000000
5093617013016002 RECH.LADO A LADO MORANGO-30X115 GR                         000000024150000000026390000007CXS  0000000000793100000000000000
5093617013016003 RECH.LADO A LADO CHO.BRANCO-30X115                         000000017250000000018850000005CXS  0000000000566500000000000000
10936180031596BAR EMPORIO JATHER LTDA-ME              ROD. INDIO TIBIRICA 12131               SUZANO/PALMEIRAS                        SP08620000043178284000113672.028.218.112     000VS MALVONI REPRESENT.S/(11) 69092040  
20936181802200520022005003159600003CAIXASMBF                                     .                                       .                                       E
5093618013016003 RECH.LADO A LADO CHO.BRANCO-30X115                         000000010350000000011310000003CXS  0000000000339900000000000000
10936190034067SUPER.ROSEL MARTINEZ LTDA               R.ALBERTO P.NETO, 70                    SUZANO/PALMEIRAS                        SP08655030069076032000177672.066.884.119     000VS MALVONI REPRESENT.S/(11) 69092040  
20936191802200520022005003406700015CAIXASMBF                                     .                                       .                                       E
5093619013016001 RECH.LADO A LADO CHOCOLATE-30X115G                         000000017250000000018850000005CXS  0000000000566500000000000000
5093619013016002 RECH.LADO A LADO MORANGO-30X115 GR                         000000017250000000018850000005CXS  0000000000566500000000000000
5093619013016003 RECH.LADO A LADO CHO.BRANCO-30X115                         000000017250000000018850000005CXS  0000000000566500000000000000
10936200034067SUPER.ROSEL MARTINEZ LTDA               R.ALBERTO P.NETO, 70                    SUZANO/PALMEIRAS                        SP08655030069076032000177672.066.884.119     000VS MALVONI REPRESENT.S/(11) 69092040  
20936201802200520022005003406700003CAIXASMBF                                     .                                       .                                       E
5093620013016002 RECH.LADO A LADO MORANGO-30X115 GR                         000000006900000000007540000002CXS  0000000000226600000000000000
5093620013016003 RECH.LADO A LADO CHO.BRANCO-30X115                         000000003450000000003770000001CXS  0000000000113300000000000000
10936210034302MERCADINHO IRMAOS DOMINGOS LTDA         AV.JOSE MOREIRA, 471                    MAUA/JARDIM CENTENARIO                  SP09341120052601549000135442.030.523.110     000VS MALVONI REPRESENT.S/(11) 69092040  
20936211802200520022005003430200015CAIXASMBF                                     .                                       .                                       E
5093621013016001 RECH.LADO A LADO CHOCOLATE-30X115G                         000000017250000000018850000005CXS  0000000000579000000000000000
5093621013016002 RECH.LADO A LADO MORANGO-30X115 GR                         000000017250000000018850000005CXS  0000000000579000000000000000
5093621013016003 RECH.LADO A LADO CHO.BRANCO-30X115                         000000017250000000018850000005CXS  0000000000579000000000000000
10936220034302MERCADINHO IRMAOS DOMINGOS LTDA         AV.JOSE MOREIRA, 471                    MAUA/JARDIM CENTENARIO                  SP09341120052601549000135442.030.523.110     000VS MALVONI REPRESENT.S/(11) 69092040  
20936221802200520022005003430200003CAIXASMBF                                     .                                       .                                       E
5093622013016001 RECH.LADO A LADO CHOCOLATE-30X115G                         000000003450000000003770000001CXS  0000000000115800000000000000
5093622013016002 RECH.LADO A LADO MORANGO-30X115 GR                         000000003450000000003770000001CXS  0000000000115800000000000000
5093622013016003 RECH.LADO A LADO CHO.BRANCO-30X115                         000000003450000000003770000001CXS  0000000000115800000000000000
10936230031472MERC.CASA DE CARNE BOI APIS LTDA        R.PLANALTO DO ACANTILADOS 218           SAO PAULO/PQ. SANTA MADALENA            SP03981110068391770000146113.530.281.110     000VS MALVONI REPRESENT.S/(11) 69092040  
20936231802200520022005003147200035CAIXASMBF                                     .                                       .                                       E
5093623013010001 TORTITA CHOCOLATE - 30X140 GRS                             000000021000000000022550000005CXS  0000000000810000000000000000
5093623013010002 TORTITA CHOCOLATE BRANCO 30X140 GR                         000000021000000000022550000005CXS  0000000000810000000000000000
5093623013011001 TORTITA MORANGO/CHANTILLY-30X140GR                         000000021000000000022550000005CXS  0000000000810000000000000000
5093623013011002 TORTITA CHOC.BCO/CHOC.LEITE 30X140                         000000021000000000022550000005CXS  0000000000810000000000000000
5093623013016001 RECH.LADO A LADO CHOCOLATE-30X115G                         000000017250000000018850000005CXS  0000000000563500000000000000
5093623013016002 RECH.LADO A LADO MORANGO-30X115 GR                         000000017250000000018850000005CXS  0000000000563500000000000000
5093623013016003 RECH.LADO A LADO CHO.BRANCO-30X115                         000000017250000000018850000005CXS  0000000000563500000000000000
10936240031472MERC.CASA DE CARNE BOI APIS LTDA        R.PLANALTO DO ACANTILADOS 218           SAO PAULO/PQ. SANTA MADALENA            SP03981110068391770000146113.530.281.110     000VS MALVONI REPRESENT.S/(11) 69092040  
20936241802200520022005003147200003CAIXASMBF                                     .                                       .                                       E
5093624013016001 RECH.LADO A LADO CHOCOLATE-30X115G                         000000003450000000003770000001CXS  0000000000112700000000000000
5093624013016002 RECH.LADO A LADO MORANGO-30X115 GR                         000000003450000000003770000001CXS  0000000000112700000000000000
5093624013016003 RECH.LADO A LADO CHO.BRANCO-30X115                         000000003450000000003770000001CXS  0000000000112700000000000000
10936250090427SUPER.LIDER DO CARRAO LTDA              PCA.15 DE OUTUBRO, 08                   SAO PAULO/VL.CARRAO                     SP03449080061267902000183105.620.425.116     000VS MALVONI REPRESENT.S/(11) 69092040  
20936251802200520022005009042700026CAIXASMBF                                     .                                       .                                       E
5093625013010001 TORTITA CHOCOLATE - 30X140 GRS                             000000021000000000022550000005CXS  0000000000810000000000000000
5093625013016001 RECH.LADO A LADO CHOCOLATE-30X115G                         000000027600000000030160000008CXS  0000000000906400000000000000
5093625013016002 RECH.LADO A LADO MORANGO-30X115 GR                         000000027600000000030160000008CXS  0000000000906400000000000000
5093625013016003 RECH.LADO A LADO CHO.BRANCO-30X115                         000000017250000000018850000005CXS  0000000000566500000000000000
10936260090427SUPER.LIDER DO CARRAO LTDA              PCA.15 DE OUTUBRO, 08                   SAO PAULO/VL.CARRAO                     SP03449080061267902000183105.620.425.116     000VS MALVONI REPRESENT.S/(11) 69092040  
20936261802200520022005009042700004CAIXASMBF                                     .                                       .                                       E
5093626013016002 RECH.LADO A LADO MORANGO-30X115 GR                         000000006900000000007540000002CXS  0000000000226600000000000000
5093626013016003 RECH.LADO A LADO CHO.BRANCO-30X115                         000000006900000000007540000002CXS  0000000000226600000000000000
10936270090453SUPER.LIDER DO CARRAO LTDA              AV.RIO DAS PEDRAS, 158/172              SAO PAULO/CARRAOZINHO                   SP03452000061267902000345108.452.462.119     000VS MALVONI REPRESENT.S/(11) 69092040  
20936271802200520022005009045300018CAIXASMBF                                     .                                       .                                       E
5093627013010001 TORTITA CHOCOLATE - 30X140 GRS                             000000012600000000013530000003CXS  0000000000486000000000000000
5093627013016001 RECH.LADO A LADO CHOCOLATE-30X115G                         000000017250000000018850000005CXS  0000000000566500000000000000
5093627013016002 RECH.LADO A LADO MORANGO-30X115 GR                         000000017250000000018850000005CXS  0000000000566500000000000000
5093627013016003 RECH.LADO A LADO CHO.BRANCO-30X115                         000000017250000000018850000005CXS  0000000000566500000000000000
10936280090453SUPER.LIDER DO CARRAO LTDA              AV.RIO DAS PEDRAS, 158/172              SAO PAULO/CARRAOZINHO                   SP03452000061267902000345108.452.462.119     000VS MALVONI REPRESENT.S/(11) 69092040  
20936281802200520022005009045300003CAIXASMBF                                     .                                       .                                       E
5093628013016002 RECH.LADO A LADO MORANGO-30X115 GR                         000000006900000000007540000002CXS  0000000000226600000000000000
5093628013016003 RECH.LADO A LADO CHO.BRANCO-30X115                         000000003450000000003770000001CXS  0000000000113300000000000000
10936290033657EDUARDO CORREA DA SILVA MERC.ME         AV.DOS SERTANISTAS, 249                 SAO PAULO/JD.SAO ANDRE                  SP08390240005442671000126116.708.560.117     000VS MALVONI REPRESENT.S/(11) 69092040  
20936291802200520022005003365700023CAIXASMBF                                     .                                       .                                       E
5093629013016001 RECH.LADO A LADO CHOCOLATE-30X115G                         000000027600000000030160000008CXS  0000000000906400000000000000
5093629013016002 RECH.LADO A LADO MORANGO-30X115 GR                         000000034500000000037700000010CXS  0000000001133000000000000000
5093629013016003 RECH.LADO A LADO CHO.BRANCO-30X115                         000000017250000000018850000005CXS  0000000000566500000000000000
10936300033657EDUARDO CORREA DA SILVA MERC.ME         AV.DOS SERTANISTAS, 249                 SAO PAULO/JD.SAO ANDRE                  SP08390240005442671000126116.708.560.117     000VS MALVONI REPRESENT.S/(11) 69092040  
20936301802200520022005003365700003CAIXASMBF                                     .                                       .                                       E
5093630013016001 RECH.LADO A LADO CHOCOLATE-30X115G                         000000003450000000003770000001CXS  0000000000113300000000000000
5093630013016002 RECH.LADO A LADO MORANGO-30X115 GR                         000000003450000000003770000001CXS  0000000000113300000000000000
5093630013016003 RECH.LADO A LADO CHO.BRANCO-30X115                         000000003450000000003770000001CXS  0000000000113300000000000000
10936310034519MERCADINHO PRECO CERTO LTDA-ME          RUA HIERAPOLIS, 170                     SAO PAULO/C.SOCORRO                     SP04859090000489852000194114.381.322.118     000VS MALVONI REPRESENT.S/(11) 69092040  
20936311802200520022005003451900010CAIXASMBF                                     .                                       .                         