0080515927000365    COTAM CIC INDAL.ALIMENTOS S.A.          22022005
11191030090065CASA STA LUZIA IMPORTADORA LTDA         AL.LORENA, 1.471                        SAO PAULO/CERQUEIRA CESAR               SP01424001059350116000101102.942.096.114     000VS MALVONI REPRESENT.S/(11) 69092040  
21191032102200521022005009006500012CAIXASMBF                                     .                                       .                                       E
5119103010305002 WAFER FLORESTA NEGRA - 30X140 GRS                          000000012600000000013860000003CXS  0000000000771000000000000000
5119103010307001 LOOK CHOCOLATE - 20 X 55 GRS                               000000003300000000004740000003CXS  0000000000397800000000000000
5119103010307003 LOOK DOCE DE LEITE - 20 X 55 GRS                           000000002200000000003160000002CXS  0000000000265200000000000000
5119103010308002 WAFER MORANGO DIET - 30X120 GRS                            000000010800000000012300000003CXS  0000000001665000000000000000
5119103013008001 RECH.CHOCOLATE DIET - 30X120 GRS                           000000003600000000003890000001CXS  0000000000385400000000000000
11191040090065CASA STA LUZIA IMPORTADORA LTDA         AL.LORENA, 1.471                        SAO PAULO/CERQUEIRA CESAR               SP01424001059350116000101102.942.096.114     000VS MALVONI REPRESENT.S/(11) 69092040  
21191042102200521022005009006500001CAIXASMBF                                     .                                       .                                       E
5119104010305002 WAFER FLORESTA NEGRA - 30X140 GRS                          000000004200000000004620000001CXS  0000000000257000000000000000
11191050031502YOSHIE COM.GEN.ALIMENT.LTDA             RUA. ALBERTO DE MACEDO 231              SAO PAULO/JD. SANTA ADELIA              SP03973000038911483000159108.163.665.110     000VS MALVONI REPRESENT.S/(11) 69092040  
21191052102200521022005003150200061CAIXASMBF                                     .                                       .                                       E
5119105010305001 WAFER NAPOLITANO - 30X140 GRS                              000000012600000000013860000003CXS  0000000000679800000000000000
5119105010305002 WAFER FLORESTA NEGRA - 30X140 GRS                          000000012600000000013860000003CXS  0000000000679800000000000000
5119105010305003 WAFER OBSESSION - 30X140 GRS                               000000008400000000009240000002CXS  0000000000453200000000000000
5119105010306001 WAFER CHOCOLATE - 30X140 GRS.                              000000016800000000018520000004CXS  0000000001007200000000000000
5119105010306002 WAFER MORANGO - 30X140 GRS.                                000000008400000000009260000002CXS  0000000000453200000000000000
5119105010306004 WAFER DOCE LEITE - 30X140 GRS.                             000000008400000000009260000002CXS  0000000000453200000000000000
5119105010306005 WAFER ATREVIDOS - 30X140 GRS.                              000000008400000000009240000002CXS  0000000000453200000000000000
5119105010307001 LOOK CHOCOLATE - 20 X 55 GRS                               000000005500000000007900000005CXS  0000000000663000000000000000
5119105010307002 LOOK MORANGO - 20 X 55 GRS                                 000000002200000000003160000002CXS  0000000000265200000000000000
5119105010307003 LOOK DOCE DE LEITE - 20 X 55 GRS                           000000001100000000001580000001CXS  0000000000132600000000000000
5119105010307005 LOOK FLORESTA NEGRA - 20 X 55 GRS                          000000003300000000004740000003CXS  0000000000397800000000000000
5119105013007001 RECH.SPANTOOO CHOCOLATE - 30X140GR                         000000012600000000013650000003CXS  0000000000510900000000000000
5119105013007002 RECH.SPANTOOO MORANGO - 30X140 GRS                         000000012600000000013650000003CXS  0000000000510900000000000000
5119105013007003 RECH.SPANTOOO CHOC.BRANCO-30X140GR                         000000012600000000013650000003CXS  0000000000510900000000000000
5119105013007004 RECH.SPANTOOO TUTTI-FRUTTI-30X140G                         000000012600000000013800000003CXS  0000000000510900000000000000
5119105013014005 RECH.FIORETTO CHOCOLATE-30X115 GRS                         000000027600000000030160000008CXS  0000000000906400000000000000
5119105013014006 RECH.FIORETTO MORANGO-30X115 GRS                           000000017250000000018850000005CXS  0000000000566500000000000000
5119105013014007 RECH.FIORETTO BAUN.C/FLOCOS-30X115                         000000013800000000015080000004CXS  0000000000453200000000000000
5119105013014008 RECH.FIORETTO DOCE DE LEITE-30X115                         000000010350000000011310000003CXS  0000000000339900000000000000
11191060031502YOSHIE COM.GEN.ALIMENT.LTDA             RUA. ALBERTO DE MACEDO 231              SAO PAULO/JD. SANTA ADELIA              SP03973000038911483000159108.163.665.110     000VS MALVONI REPRESENT.S/(11) 69092040  
21191062102200521022005003150200003CAIXASMBF                                     .                                       .                                       E
5119106013014005 RECH.FIORETTO CHOCOLATE-30X115 GRS                         000000010350000000011310000003CXS  0000000000339900000000000000
11191070091354DANNY CIAL ALIM.LTDA                    PCA.QUATORZE BIS, 26                    SAO PAULO/BELA VISTA                    SP01312010003374306000104115.589.159.112     000VS MALVONI REPRESENT.S/(11) 69092040  
21191072102200521022005009135400026CAIXASMBF                                     .                                       .                                       E
5119107010305001 WAFER NAPOLITANO - 30X140 GRS                              000000008400000000009240000002CXS  0000000000514000000000000000
5119107010305002 WAFER FLORESTA NEGRA - 30X140 GRS                          000000004200000000004620000001CXS  0000000000257000000000000000
5119107010305003 WAFER OBSESSION - 30X140 GRS                               000000004200000000004620000001CXS  0000000000257000000000000000
5119107010306005 WAFER ATREVIDOS - 30X140 GRS.                              000000004200000000004620000001CXS  0000000000257000000000000000
5119107010307001 LOOK CHOCOLATE - 20 X 55 GRS                               000000003300000000004740000003CXS  0000000000397800000000000000
5119107010307002 LOOK MORANGO - 20 X 55 GRS                                 000000002200000000003160000002CXS  0000000000265200000000000000
5119107010307003 LOOK DOCE DE LEITE - 20 X 55 GRS                           000000002200000000003160000002CXS  0000000000265200000000000000
5119107010307005 LOOK FLORESTA NEGRA - 20 X 55 GRS                          000000003300000000004740000003CXS  0000000000397800000000000000
5119107010307007 LOOK ATREVIDOS - 20 X 55 GRS                               000000003300000000004740000003CXS  0000000000397800000000000000
5119107010308002 WAFER MORANGO DIET - 30X120 GRS                            000000003600000000004100000001CXS  0000000000555000000000000000
5119107013007001 RECH.SPANTOOO CHOCOLATE - 30X140GR                         000000008400000000009100000002CXS  0000000000340600000000000000
5119107013007003 RECH.SPANTOOO CHOC.BRANCO-30X140GR                         000000008400000000009100000002CXS  0000000000340600000000000000
5119107013008001 RECH.CHOCOLATE DIET - 30X120 GRS                           000000003600000000003890000001CXS  0000000000385400000000000000
5119107013022001 RECHEADO ATREVIDOS - 30X115 GRS                            000000006900000000007400000002CXS  0000000000312600000000000000
11191080091354DANNY CIAL ALIM.LTDA                    PCA.QUATORZE BIS, 26                    SAO PAULO/BELA VISTA                    SP01312010003374306000104115.589.159.112     000VS MALVONI REPRESENT.S/(11) 69092040  
21191082102200521022005009135400002CAIXASMBF                                     .                                       .                                       E
5119108010307001 LOOK CHOCOLATE - 20 X 55 GRS                               000000001100000000001580000001CXS  0000000000132600000000000000
5119108013007001 RECH.SPANTOOO CHOCOLATE - 30X140GR                         000000004200000000004550000001CXS  0000000000170300000000000000
11191090034367MERCADINHO DE VILLE LTDA-ME             R.BENEDITO V.RIBEIRO, 367               GUARULHOS/J.N.CUMBUCI                   SP07232010000804459000148336.413.511.118     000VS MALVONI REPRESENT.S/(11) 69092040  
21191092102200521022005003436700003CAIXASMBF                                     .                                       .                                       E
5119109010307001 LOOK CHOCOLATE - 20 X 55 GRS                               000000001100000000001580000001CXS  0000000000136700000000000000
5119109010307005 LOOK FLORESTA NEGRA - 20 X 55 GRS                          000000001100000000001580000001CXS  0000000000136700000000000000
5119109010307007 LOOK ATREVIDOS - 20 X 55 GRS                               000000001100000000001580000001CXS  0000000000136700000000000000
11191100034659MERCEARIA BEIJA FLOR DO POVO LTD        RUA VERMELINO C.DOS SANTOS, 106         ITAPEVI/JARDIM MARISTELA                SP06663180055210371000190373.104.449.110     000VS MALVONI REPRESENT.S/(11) 69092040  
21191102102200521022005003465900012CAIXASMBF                                     .                                       .                                       E
5119110010305001 WAFER NAPOLITANO - 30X140 GRS                              000000008400000000009240000002CXS  0000000000514000000000000000
5119110010305003 WAFER OBSESSION - 30X140 GRS                               000000004200000000004620000001CXS  0000000000257000000000000000
5119110010306001 WAFER CHOCOLATE - 30X140 GRS.                              000000008400000000009260000002CXS  0000000000514000000000000000
5119110010306002 WAFER MORANGO - 30X140 GRS.                                000000004200000000004630000001CXS  0000000000257000000000000000
5119110010306005 WAFER ATREVIDOS - 30X140 GRS.                              000000008400000000009240000002CXS  0000000000514000000000000000
5119110013007001 RECH.SPANTOOO CHOCOLATE - 30X140GR                         000000004200000000004550000001CXS  0000000000179900000000000000
5119110013007002 RECH.SPANTOOO MORANGO - 30X140 GRS                         000000004200000000004550000001CXS  0000000000179900000000000000
5119110013007003 RECH.SPANTOOO CHOC.BRANCO-30X140GR                         000000004200000000004550000001CXS  0000000000179900000000000000
5119110013007004 RECH.SPANTOOO TUTTI-FRUTTI-30X140G                         000000004200000000004600000001CXS  0000000000179900000000000000
11191110270564PAES E DOCES AGUA AZUL LTDA             RUA LIDYA DE JESUS MENDONCA, 131        GUARULHOS/AGUA AZUL                     SP07159190002655428000106336.471.780.118     000VS MALVONI REPRESENT.S/(11) 69092040  
21191112102200521022005027056400013CAIXASMBF                                     .                                       .                                       E
5119111010305001 WAFER NAPOLITANO - 30X140 GRS                              000000004200000000004620000001CXS  0000000000257000000000000000
5119111010305002 WAFER FLORESTA NEGRA - 30X140 GRS                          000000008400000000009240000002CXS  0000000000514000000000000000
5119111010305003 WAFER OBSESSION - 30X140 GRS                               000000004200000000004620000001CXS  0000000000257000000000000000
5119111010306001 WAFER CHOCOLATE - 30X140 GRS.                              000000004200000000004630000001CXS  0000000000257000000000000000
5119111010306002 WAFER MORANGO - 30X140 GRS.                                000000004200000000004630000001CXS  0000000000257000000000000000
5119111010306004 WAFER DOCE LEITE - 30X140 GRS.                             000000004200000000004630000001CXS  0000000000257000000000000000
5119111010306005 WAFER ATREVIDOS - 30X140 GRS.                              000000004200000000004620000001CXS  0000000000257000000000000000
5119111013007001 RECH.SPANTOOO CHOCOLATE - 30X140GR                         000000004200000000004550000001CXS  0000000000178500000000000000
5119111013007002 RECH.SPANTOOO MORANGO - 30X140 GRS                         000000004200000000004550000001CXS  0000000000178500000000000000
5119111013007003 RECH.SPANTOOO CHOC.BRANCO-30X140GR                         000000004200000000004550000001CXS  0000000000178500000000000000
5119111013022001 RECHEADO ATREVIDOS - 30X115 GRS                            000000006900000000007400000002CXS  0000000000320000000000000000
11191120032727SACOLAO CITY LTDA-ME                    R.CACHOEIRA, 3499                       GUARULHOS/JD.CITY                       SP07082520004811954000135336.682.266.113     000VS MALVONI REPRESENT.S/(11) 69092040  
21191122102200521022005003272700005CAIXASMBF                                     .                                       .                                       E
5119112010305001 WAFER NAPOLITANO - 30X140 GRS                              000000004200000000004620000001CXS  0000000000251700000000000000
5119112010307001 LOOK CHOCOLATE - 20 X 55 GRS                               000000001100000000001580000001CXS  0000000000136700000000000000
5119112010307002 LOOK MORANGO - 20 X 55 GRS                                 000000001100000000001580000001CXS  0000000000136700000000000000
5119112010307005 LOOK FLORESTA NEGRA - 20 X 55 GRS                          000000001100000000001580000001CXS  0000000000136700000000000000
5119112013007001 RECH.SPANTOOO CHOCOLATE - 30X140GR                         000000004200000000004550000001CXS  0000000000175600000000000000
11191130030231GEDALVA DOS SANTOS PEREIRA-ME           RUA ZECA  N 197                         BARUERI/ENGENHO NOVO                    SP06416210068212034000183206.059.286.118     000VS MALVONI REPRESENT.S/(11) 69092040  
21191132102200521022005003023100021CAIXASMBF                                     .                                       .                                       E
5119113010305001 WAFER NAPOLITANO - 30X140 GRS                              000000008400000000009240000002CXS  0000000000514000000000000000
5119113010305002 WAFER FLORESTA NEGRA - 30X140 GRS                          000000012600000000013860000003CXS  0000000000771000000000000000
5119113010305003 WAFER OBSESSION - 30X140 GRS                               000000008400000000009240000002CXS  0000000000514000000000000000
5119113010306001 WAFER CHOCOLATE - 30X140 GRS.                              000000008400000000009260000002CXS  0000000000514000000000000000
5119113010306002 WAFER MORANGO - 30X140 GRS.                                000000008400000000009260000002CXS  0000000000514000000000000000
5119113010306004 WAFER DOCE LEITE - 30X140 GRS.                             000000004200000000004630000001CXS  0000000000257000000000000000
5119113010306005 WAFER ATREVIDOS - 30X140 GRS.                              000000008400000000009240000002CXS  0000000000514000000000000000
5119113010307001 LOOK CHOCOLATE - 20 X 55 GRS                               000000001100000000001580000001CXS  0000000000141000000000000000
5119113010307005 LOOK FLORESTA NEGRA - 20 X 55 GRS                          000000001100000000001580000001CXS  0000000000141000000000000000
5119113010307007 LOOK ATREVIDOS - 20 X 55 GRS                               000000001100000000001580000001CXS  0000000000141000000000000000
5119113013007001 RECH.SPANTOOO CHOCOLATE - 30X140GR                         000000008400000000009100000002CXS  0000000000358000000000000000
5119113013007003 RECH.SPANTOOO CHOC.BRANCO-30X140GR                         000000004200000000004550000001CXS  0000000000179000000000000000
5119113013601004 BISC.MILANO BOLO DE FUBA-30X130 GR                         000000003900000000004180000001CXS  0000000000142000000000000000
11191140030231GEDALVA DOS SANTOS PEREIRA-ME           RUA ZECA  N 197                         BARUERI/ENGENHO NOVO                    SP06416210068212034000183206.059.286.118     000VS MALVONI REPRESENT.S/(11) 69092040  
21191142102200521022005003023100001CAIXASMBF                                     .                                       .                                       E
5119114010307001 LOOK CHOCOLATE - 20 X 55 GRS                               000000001100000000001580000001CXS  0000000000141000000000000000
11191150032379MERC.FATURAO DE ITAPEVI LTDA-ME         AV.JOSE CHALUPPE, 441                   SAO PAULO/JD MARINA                     SP06660460005284342000102373.100.150.110     000VS MALVONI REPRESENT.S/(11) 69092040  
21191152102200521022005003237900010CAIXASMBF                                     .                                       .                                       E
5119115010305001 WAFER NAPOLITANO - 30X140 GRS                              000000008400000000009240000002CXS  0000000000514000000000000000
5119115010305003 WAFER OBSESSION - 30X140 GRS                               000000012600000000013860000003CXS  0000000000771000000000000000
5119115010306002 WAFER MORANGO - 30X140 GRS.                                000000008400000000009260000002CXS  0000000000514000000000000000
5119115010306005 WAFER ATREVIDOS - 30X140 GRS.                              000000012600000000013860000003CXS  0000000000771000000000000000
11191160090940LUIZ FERNANDO DA SILVA                  RUA DIOGENES RIBEIRO DE LIMA,300        BARUERI/JD.BELVAL                       SP06420250064807498000181206.047.288.115     000VS MALVONI REPRESENT.S/(11) 69092040  
21191162102200521022005009094000098CAIXASMBF                                     .                                       .                                       E
5119116010305001 WAFER NAPOLITANO - 30X140 GRS                              000000042000000000046200000010CXS  0000000002570000000000000000
5119116010305003 WAFER OBSESSION - 30X140 GRS                               000000021000000000023100000005CXS  0000000001285000000000000000
5119116010306002 WAFER MORANGO - 30X140 GRS.                                000000042000000000046300000010CXS  0000000002570000000000000000
5119116010306005 WAFER ATREVIDOS - 30X140 GRS.                              000000042000000000046200000010CXS  0000000002570000000000000000
5119116010307001 LOOK CHOCOLATE - 20 X 55 GRS                               000000001100000000001580000001CXS  0000000000142000000000000000
5119116010307005 LOOK FLORESTA NEGRA - 20 X 55 GRS                          000000001100000000001580000001CXS  0000000000142000000000000000
5119116010307007 LOOK ATREVIDOS - 20 X 55 GRS                               000000001100000000001580000001CXS  0000000000142000000000000000
5119116013007001 RECH.SPANTOOO CHOCOLATE - 30X140GR                         000000042000000000045500000010CXS  0000000001799000000000000000
5119116013007002 RECH.SPANTOOO MORANGO - 30X140 GRS                         000000042000000000045500000010CXS  0000000001799000000000000000
5119116013007003 RECH.SPANTOOO CHOC.BRANCO-30X140GR                         000000042000000000045500000010CXS  0000000001799000000000000000
5119116013007004 RECH.SPANTOOO TUTTI-FRUTTI-30X140G                         000000042000000000046000000010CXS  0000000001799000000000000000
5119116013022001 RECHEADO ATREVIDOS - 30X115 GRS                            000000069000000000074000000020CXS  0000000003280000000000000000
11191170090940LUIZ FERNANDO DA SILVA                  RUA DIOGENES RIBEIRO DE LIMA,300        BARUERI/JD.BELVAL                       SP06420250064807498000181206.047.288.115     000VS MALVONI REPRESENT.S/(11) 69092040  
21191172102200521022005009094000008CAIXASMBF                                     .                                       .                                       E
5119117010305001 WAFER NAPOLITANO - 30X140 GRS                              000000008400000000009240000002CXS  0000000000514000000000000000
5119117010305003 WAFER OBSESSION - 30X140 GRS                               000000004200000000004620000001CXS  0000000000257000000000000000
5119117010307001 LOOK CHOCOLATE - 20 X 55 GRS                               000000001100000000001580000001CXS  0000000000142000000000000000
5119117013007001 RECH.SPANTOOO CHOCOLATE - 30X140GR                         000000016800000000018200000004CXS  0000000000719600000000000000
11191600000984PRACA DA SE DOCES LTDA                  PCA.DA SE, 393                          SAO PAULO/CENTRO                        SP01001001073010860000180113.814.243.115     000REIMEX REPRESENTACOES L(11) 8327181   
21191602202200522022005000098400045CAIXASMBF                                     .                                       .                                       E
5119160010305001 WAFER NAPOLITANO - 30X140 GRS                              000000021000000000023100000005CXS  0000000001056000000000000000
5119160010305002 WAFER FLORESTA NEGRA - 30X140 GRS                          000000042000000000046200000010CXS  0000000002112000000000000000
5119160010305003 WAFER OBSESSION - 30X140 GRS                               000000042000000000046200000010CXS  0000000002112000000000000000
5119160010306001 WAFER CHOCOLATE - 30X140 GRS.                              000000021000000000023150000005CXS  0000000001056000000000000000
5119160010306002 WAFER MORANGO - 30X140 GRS.                                000000021000000000023150000005CXS  0000000001056000000000000000
5119160010306004 WAFER DOCE LEITE - 30X140 GRS.                             000000021000000000023150000005CXS  0000000001056000000000000000
5119160010306005 WAFER ATREVIDOS - 30X140 GRS.                              000000021000000000023100000005CXS  0000000001056000000000000000
11191610390027MANO'S COM.DOCES LTDA                   RUA VISCONDE DE PARNAIBA, 2463          SAO PAULO/BRAS                          SP03045002053549549000368114.503.678.110     000REIMEX REPRESENTACOES L(11) 8327181   
21191612202200522022005039002700290CAIXASMBF                                     .                                       .                                       E
5119161010305001 WAFER NAPOLITANO - 30X140 GRS                              000000042000000000046200000010CXS  0000000002153000000000000000
5119161010305002 WAFER FLORESTA NEGRA - 30X140 GRS                          000000042000000000046200000010CXS  0000000002153000000000000000
5119161010305003 WAFER OBSESSION - 30X140 GRS                               000000042000000000046200000010CXS  0000000002153000000000000000
5119161010306001 WAFER CHOCOLATE - 30X140 GRS.                              000000021000000000023150000005CXS  0000000001076500000000000000
5119161010306002 WAFER MORANGO - 30X140 GRS.                                000000021000000000023150000005CXS  0000000001076500000000000000
5119161010306005 WAFER ATREVIDOS - 30X140 GRS.                              000000042000000000046200000010CXS  0000000002153000000000000000
5119161010307001 LOOK CHOCOLATE - 20 X 55 GRS                               000000165000000000237000000150CXS  0000000016185000000000000000
5119161010307002 LOOK MORANGO - 20 X 55 GRS                                 000000027500000000039500000025CXS  0000000002697500000000000000
5119161010307003 LOOK DOCE DE LEITE - 20 X 55 GRS                           000000016500000000023700000015CXS  0000000001618500000000000000
5119161010307005 LOOK FLORESTA NEGRA - 20 X 55 GRS                          000000027500000000039500000025CXS  0000000002697500000000000000
5119161010307007 LOOK ATREVIDOS - 20 X 55 GRS                               000000027500000000039500000025CXS  0000000002697500000000000000
11191620034857COM.GEN.ALIMENT.D.VILARES LT.EPP        RUA DOM VILARES, 1700                   SAO PAULO/VILA DAS MERCES               SP04160001003507329000131115.624.371.116     000VS MALVONI REPRESENT.S/(11) 69092040  
21191622202200522022005003485700017CAIXASMBF                                     .                                       .                                       E
5119162010307001 LOOK CHOCOLATE - 20 X 55 GRS                               000000002200000000003160000002CXS  0000000000249400000000000000
5119162010307005 LOOK FLORESTA NEGRA - 20 X 55 GRS                          000000002200000000003160000002CXS  0000000000249400000000000000
5119162010307007 LOOK ATREVIDOS - 20 X 55 GRS                               000000001100000000001580000001CXS  0000000000124700000000000000
5119162010308002 WAFER MORANGO DIET - 30X120 GRS                            000000003600000000004100000001CXS  0000000000538800000000000000
5119162013007001 RECH.SPANTOOO CHOCOLATE - 30X140GR                         000000021000000000022750000005CXS  0000000000834000000000000000
5119162013007002 RECH.SPANTOOO MORANGO - 30X140 GRS                         000000008400000000009100000002CXS  0000000000333600000000000000
5119162013007003 RECH.SPANTOOO CHOC.BRANCO-30X140GR                         000000008400000000009100000002CXS  0000000000333600000000000000
5119162013008001 RECH.CHOCOLATE DIET - 30X120 GRS                           000000003600000000003890000001CXS  0000000000374000000000000000
5119162013008002 RECH.MORANGO DIET - 30X120 GRS                             000000003600000000003890000001CXS  0000000000374000000000000000
11191630034854F.R.N.MERCADO E PADARIA LTDA            AV.JOAO DE ANDRADE, 1500                OSASCO/JD.SANTO ANTONIO                 SP06132004007187940000180492.479.747.113     000VS MALVONI REPRESENT.S/(11) 69092040  
21191632202200522022005003485400010CAIXASMBF                                     .                                       .                                       E
5119163010307001 LOOK CHOCOLATE - 20 X 55 GRS                               000000002200000000003160000002CXS  0000000000274000000000000000
5119163010307002 LOOK MORANGO - 20 X 55 GRS                                 000000001100000000001580000001CXS  0000000000137000000000000000
5119163010307003 LOOK DOCE DE LEITE - 20 X 55 GRS                           000000001100000000001580000001CXS  0000000000137000000000000000
5119163010307005 LOOK FLORESTA NEGRA - 20 X 55 GRS                          000000002200000000003160000002CXS  0000000000274000000000000000
5119163010307007 LOOK ATREVIDOS - 20 X 55 GRS                               000000002200000000003160000002CXS  0000000000274000000000000000
5119163013022001 RECHEADO ATREVIDOS - 30X115 GRS                            000000006900000000007400000002CXS  0000000000326000000000000000
11191640034854F.R.N.MERCADO E PADARIA LTDA            AV.JOAO DE ANDRADE, 1500                OSASCO/JD.SANTO ANTONIO                 SP06132004007187940000180492.479.747.113     000VS MALVONI REPRESENT.S/(11) 69092040  
21191642202200522022005003485400002CAIXASMBF                                     .                                       .                                       E
5119164010307001 LOOK CHOCOLATE - 20 X 55 GRS                               000000001100000000001580000001CXS  0000000000137000000000000000
5119164010307007 LOOK ATREVIDOS - 20 X 55 GRS                               000000001100000000001580000001CXS  0000000000137000000000000000
11191650034855SUPER.RED LTDA                          AV.ANTONIO MUNHOZ BONILHA, 1158         SAO PAULO/JARDIM CAROLINA               SP02725000007054385000119116.920.443.113     000VS MALVONI REPRESENT.S/(11) 69092040  
21191652202200522022005003485500013CAIXASMBF                                     .                                       .                                       E
5119165010305001 WAFER NAPOLITANO - 30X140 GRS                              000000004200000000004620000001CXS  0000000000257000000000000000
5119165010305002 WAFER FLORESTA NEGRA - 30X140 GRS                          000000004200000000004620000001CXS  0000000000257000000000000000
5119165010305003 WAFER OBSESSION - 30X140 GRS                               000000004200000000004620000001CXS  0000000000257000000000000000
5119165010306005 WAFER ATREVIDOS - 30X140 GRS.                              000000004200000000004620000001CXS  0000000000257000000000000000
5119165010307001 LOOK CHOCOLATE - 20 X 55 GRS                               000000001100000000001580000001CXS  0000000000136400000000000000
5119165010307005 LOOK FLORESTA NEGRA - 20 X 55 GRS                          000000001100000000001580000001CXS  0000000000136400000000000000
5119165010307007 LOOK ATREVIDOS - 20 X 55 GRS                               000000001100000000001580000001CXS  0000000000136400000000000000
5119165013007001 RECH.SPANTOOO CHOCOLATE - 30X140GR                         000000004200000000004550000001CXS  0000000000178500000000000000
5119165013007003 RECH.SPANTOOO CHOC.BRANCO-30X140GR                         000000004200000000004550000001CXS  0000000000178500000000000000
5119165013022001 RECHEADO ATREVIDOS - 30X115 GRS                            000000003450000000003700000001CXS  0000000000160000000000000000
5119165013601002 BISCOITO MILANO COCO - 30X130 GRS                          000000003900000000004180000001CXS  0000000000147000000000000000
5119165013601003 BISCOITO MILANO LEITE - 30X130 GRS                         000000003900000000004180000001CXS  0000000000147000000000000000
5119165013601004 BISC.MILANO BOLO DE FUBA-30X130 GR                         000000003900000000004180000001CXS  0000000000147000000000000000
11191660034855SUPER.RED LTDA                          AV.ANTONIO MUNHOZ BONILHA, 1158         SAO PAULO/JARDIM CAROLINA               SP02725000007054385000119116.920.443.113     000VS MALVONI REPRESENT.S/(11) 69092040  
21191662202200522022005003485500001CAIXASMBF                                     .                                       .                                       E
5119166010305001 WAFER NAPOLITANO - 30X140 GRS                              000000004200000000004620000001CXS  0000000000257000000000000000
11191670034856CLAUDIO CESAR SOARES ME                 ESTRADA DA BARRAGEM,3851 LT2QD H        SAO PAULO/COLONIA PAULISTA              SP04895020006997722000149116.915.157.110     000VS MALVONI REPRESENT.S/(11) 69092040  
21191672202200522022005003485600034CAIXASMBF                                     .                                       .                                       E
5119167010305001 WAFER NAPOLITANO - 30X140 GRS                              000000008400000000009240000002CXS  0000000000453200000000000000
5119167010305002 WAFER FLORESTA NEGRA - 30X140 GRS                          000000008400000000009240000002CXS  0000000000453200000000000000
5119167010305003 WAFER OBSESSION - 30X140 GRS                               000000008400000000009240000002CXS  0000000000453200000000000000
5119167010306001 WAFER CHOCOLATE - 30X140 GRS.                              000000008400000000009260000002CXS  0000000000453200000000000000
5119167010306002 WAFER MORANGO - 30X140 GRS.                                000000008400000000009260000002CXS  0000000000453200000000000000
5119167010306004 WAFER DOCE LEITE - 30X140 GRS.                             000000008400000000009260000002CXS  0000000000453200000000000000
5119167010306005 WAFER ATREVIDOS - 30X140 GRS.                              000000008400000000009240000002CXS  0000000000453200000000000000
5119167013014005 RECH.FIORETTO CHOCOLATE-30X115 GRS                         000000034500000000037700000010CXS  0000000001133000000000000000
5119167013014006 RECH.FIORETTO MORANGO-30X115 GRS                           000000017250000000018850000005CXS  0000000000566500000000000000
5119167013014007 RECH.FIORETTO BAUN.C/FLOCOS-30X115                         000000006900000000007540000002CXS  0000000000226600000000000000
5119167013014008 RECH.FIORETTO DOCE DE LEITE-30X115                         000000010350000000011310000003CXS  0000000000339900000000000000
11191680034856CLAUDIO CESAR SOARES ME                 ESTRADA DA BARRAGEM,3851 LT2QD H        SAO PAULO/COLONIA PAULISTA              SP04895020006997722000149116.915.157.110     000VS MALVONI REPRESENT.S/(11) 69092040  
21191682202200522022005003485600003CAIXASMBF                                     .                                       .                                       E
5119168013014006 RECH.FIORETTO MORANGO-30X115 GRS                           000000010350000000011310000003CXS  0000000000339900000000000000
11191690279168ZANGAO DISTRIB.PROD.ALIM.LTDA           AV.BENEDITO ESTEVAM SANTOS,1.219        SAO PAULO/VL.MARIA ALTA                 SP02136000000657477000144114.398.874.117     000LEBASI REPRESENTACOES L(11) 38515947  
21191692202200522022005027916800015CAIXASMBF                                     .                                       .                                       E
5119169010308002 WAFER MORANGO DIET - 30X120 GRS                            000000018000000000020500000005CXS  0000000002366000000000000000
5119169013008001 RECH.CHOCOLATE DIET - 30X120 GRS                           000000018000000000019450000005CXS  0000000001642500000000000000
5119169013008002 RECH.MORANGO DIET - 30X120 GRS                             000000018000000000019450000005CXS  0000000001642500000000000000
11191700031898NATURAMA PROD.NATURAIS LTDA-ME          RUA EDUARDO EDARGE BADARO, 720          CAMPINAS/JD EULINA                      SP13066390000588891000149244.540.410.110     000LEBASI REPRESENTACOES L(11) 38515947  
21191702202200522022005003189800014CAIXASMBF                                     .                                       .                                       E
5119170010308002 WAFER MORANGO DIET - 30X120 GRS                            000000003600000000004100000001CXS  0000000000473200000000000000
5119170013008001 RECH.CHOCOLATE DIET - 30X120 GRS                           000000025200000000027230000007CXS  0000000002299500000000000000
5119170013008002 RECH.MORANGO DIET - 30X120 GRS                             000000021600000000023340000006CXS  0000000001971000000000000000
11191710010548A.M.CUNHA ALIMENTICIOS-ME               RUA SANTO AGOSTINHO, 90-C               CAIEIRAS/JD.SAO FRANCISCO               SP07700000004908692000121239.077.600.116     000LEBASI REPRESENTACOES L(11) 38515947  
21191712202200522022005001054800110CAIXASMBF                                     .                                       .                                       E
5119171010305001 WAFER NAPOLITANO - 30X140 GRS                              000000021000000000023100000005CXS  0000000001035000000000000000
5119171010305002 WAFER FLORESTA NEGRA - 30X140 GRS                          000000021000000000023100000005CXS  0000000001035000000000000000
5119171010305003 WAFER OBSESSION - 30X140 GRS                               000000021000000000023100000005CXS  0000000001035000000000000000
5119171010306001 WAFER CHOCOLATE - 30X140 GRS.                              000000021000000000023150000005CXS  0000000001035000000000000000
5119171010306002 WAFER MORANGO - 30X140 GRS.                                000000021000000000023150000005CXS  0000000001035000000000000000
5119171010306004 WAFER DOCE LEITE - 30X140 GRS.                             000000021000000000023150000005CXS  0000000001035000000000000000
5119171010306005 WAFER ATREVIDOS - 30X140 GRS.                              000000021000000000023100000005CXS  0000000001035000000000000000
5119171010307001 LOOK CHOCOLATE - 20 X 55 GRS                               000000011000000000015800000010CXS  0000000001100000000000000000
5119171010307002 LOOK MORANGO - 20 X 55 GRS                                 000000011000000000015800000010CXS  0000000001100000000000000000
5119171010307003 LOOK DOCE DE LEITE - 20 X 55 GRS                           000000011000000000015800000010CXS  0000000001100000000000000000
5119171010307005 LOOK FLORESTA NEGRA - 20 X 55 GRS                          000000011000000000015800000010CXS  0000000001100000000000000000
5119171010307007 LOOK ATREVIDOS - 20 X 55 GRS                               000000011000000000015800000010CXS  0000000001100000000000000000
5119171010308002 WAFER MORANGO DIET - 30X120 GRS                            000000018000000000020500000005CXS  0000000002366000000000000000
5119171013008002 RECH.MORANGO DIET - 30X120 GRS                             000000018000000000019450000005CXS  0000000001642500000000000000
5119171013014005 RECH.FIORETTO CHOCOLATE-30X115 GRS                         000000020700000000022620000006CXS  0000000000594000000000000000
5119171013014006 RECH.FIORETTO MORANGO-30X115 GRS                           000000010350000000011310000003CXS  0000000000297000000000000000
5119171013014007 RECH.FIORETTO BAUN.C/FLOCOS-30X115                         000000010350000000011310000003CXS  0000000000297000000000000000
5119171013014008 RECH.FIORETTO DOCE DE LEITE-30X115                         000000010350000000011310000003CXS  0000000000297000000000000000
11191720090441MADU COM.DOCES LTDA                     AV.DEP.CANTIDIO SAMPAIO, 784            SAO PAULO/VL.RICA                       SP02860000001562105000105114.903.649.112     000JAIME FRANCISCO DAS DOR(11) 69014795  
21191722202200522022005009044100165CAIXASMBF                                     .                                       .                                       E
5119172010307001 LOOK CHOCOLATE - 20 X 55 GRS                               000000099000000000142200000090CXS  0000000009459000000000000000
5119172010307005 LOOK FLORESTA NEGRA - 20 X 55 GRS                          000000033000000000047400000030CXS  0000000003153000000000000000
5119172010307007 LOOK ATREVIDOS - 20 X 55 GRS                               000000033000000000047400000030CXS  0000000003153000000000000000
5119172013601002 BISCOITO MILANO COCO - 30X130 GRS                          000000019500000000020900000005CXS  0000000000589000000000000000
5119172013601003 BISCOITO MILANO LEITE - 30X130 GRS                         000000019500000000020900000005CXS  0000000000589000000000000000
5119172013601004 BISC.MILANO BOLO DE FUBA-30X130 GR                         000000019500000000020900000005CXS  0000000000589000000000000000
11191730001873DISTRIB.PROD.ALIMENT.LEUNAM LTDA        RUA ANTONIO LOPES MARIN, 109            SAO PAULO/CASA VERDE                    SP02516050053738753000165111.084.293.115     000JAIME FRANCISCO DAS DOR(11) 69014795  
21191732202200522022005000187300026CAIXASMBF                                     .                                       .                                       E
5119173010305001 WAFER NAPOLITANO - 30X140 GRS                              000000021000000000023100000005CXS  0000000001105000000000000000
5119173010305002 WAFER FLORESTA NEGRA - 30X140 GRS                          000000021000000000023100000005CXS  0000000001105000000000000000
5119173010305003 WAFER OBSESSION - 30X140 GRS                               000000021000000000023100000005CXS  0000000001105000000000000000
5119173010306005 WAFER ATREVIDOS - 30X140 GRS.                              000000021000000000023100000005CXS  0000000001105000000000000000
5119173010308002 WAFER MORANGO DIET - 30X120 GRS                            000000007200000000008200000002CXS  0000000000946400000000000000
5119173013008001 RECH.CHOCOLATE DIET - 30X120 GRS                           000000007200000000007780000002CXS  0000000000657000000000000000
5119173013008002 RECH.MORANGO DIET - 30X120 GRS                             000000007200000000007780000002CXS  0000000000657000000000000000
11191740273705KI BALAS DISTRIB.PROD.ALIM.LTDA         RUA TIBURCIO DE SOUZA, 1.117            SAO PAULO/ITAIM PAULISTA                SP08140000004358583000188116.108.410.110     000JAIME FRANCISCO DAS DOR(11) 69014795  
21191742202200522022005027370500067CAIXASMBF                                     .                                       .                                       E
5119174010307001 LOOK CHOCOLATE - 20 X 55 GRS                               000000011000000000015800000010CXS  0000000001082000000000000000
5119174010307002 LOOK MORANGO - 20 X 55 GRS                                 000000005500000000007900000005CXS  0000000000541000000000000000
5119174010307005 LOOK FLORESTA NEGRA - 20 X 55 GRS                          000000008800000000012640000008CXS  0000000000865600000000000000
5119174010307007 LOOK ATREVIDOS - 20 X 55 GRS                               000000007700000000011060000007CXS  0000000000757400000000000000
5119174013014005 RECH.FIORETTO CHOCOLATE-30X115 GRS                         000000041400000000045240000012CXS  0000000001216800000000000000
5119174013014006 RECH.FIORETTO MORANGO-30X115 GRS                           000000041400000000045240000012CXS  0000000001216800000000000000
5119174013014007 RECH.FIORETTO BAUN.C/FLOCOS-30X115                         000000017250000000018850000005CXS  0000000000507000000000000000
5119174013014008 RECH.FIORETTO DOCE DE LEITE-30X115                         000000017250000000018850000005CXS  0000000000507000000000000000
5119174013022001 RECHEADO ATREVIDOS - 30X115 GRS                            000000010350000000011100000003CXS  0000000000336000000000000000
11191750092162SEGURA & SOUZA LTDA-EPP                 RUA BARAO DE ALAGOAS, 280               SAO PAULO/ITAIM PAULISTA                SP08120000003765305000182115.697.607.112     000JAIME FRANCISCO DAS DOR(11) 69014795  
21191752202200522022005009216200100CAIXASMBF                                     .                                       .                                       E
5119175010307001 LOOK CHOCOLATE - 20 X 55 GRS                               000000055000000000079000000050CXS  0000000005255000000000000000
5119175010307002 LOOK MORANGO - 20 X 55 GRS                                 000000011000000000015800000010CXS  0000000001051000000000000000
5119175010307003 LOOK DOCE DE LEITE - 20 X 55 GRS                           000000011000000000015800000010CXS  0000000001051000000000000000
5119175010307005 LOOK FLORESTA NEGRA - 20 X 55 GRS                          000000016500000000023700000015CXS  0000000001576500000000000000
5119175010307007 LOOK ATREVIDOS - 20 X 55 GRS                               000000016500000000023700000015CXS  0000000001576500000000000000
11191760092198T.T.D.COM.DOCES LTDA                    RUA MAESTRO JOAO BALAN, 3B              SAO PAULO/SAO MATEUS                    SP03963000001296556000130114.778.756.118     000JAIME FRANCISCO DAS DOR(11) 69014795  
21191762202200522022005009219800100CAIXASMBF                                     .                                       .                                       E
5119176010307001 LOOK CHOCOLATE - 20 X 55 GRS                               000000055000000000079000000050CXS  0000000005520000000000000000
5119176010307002 LOOK MORANGO - 20 X 55 GRS                                 000000011000000000015800000010CXS  0000000001104000000000000000
5119176010307003 LOOK DOCE DE LEITE - 20 X 55 GRS                           000000011000000000015800000010CXS  0000000001104000000000000000
5119176010307005 LOOK FLORESTA NEGRA - 20 X 55 GRS                          000000016500000000023700000015CXS  0000000001656000000000000000
5119176010307007 LOOK ATREVIDOS - 20 X 55 GRS                               000000016500000000023700000015CXS  0000000001656000000000000000
11191770000529COM.DOCES CASTILHO LTDA-ME              RUA ARICANGA, 17                        SAO PAULO/ITAIM PAULISTA                SP08160000065778896000180112.553.108.119     000JAIME FRANCISCO DAS DOR(11) 69014795  
21191772202200522022005000052900080CAIXASMBF                                     .                                       .                                       E
5119177010305001 WAFER NAPOLITANO - 30X140 GRS                              000000025200000000027720000006CXS  0000000001296000000000000000
5119177010305002 WAFER FLORESTA NEGRA - 30X140 GRS                          000000025200000000027720000006CXS  0000000001296000000000000000
5119177010305003 WAFER OBSESSION - 30X140 GRS                               000000025200000000027720000006CXS  0000000001296000000000000000
5119177010306001 WAFER CHOCOLATE - 30X140 GRS.                              000000025200000000027780000006CXS  0000000001296000000000000000
5119177010306005 WAFER ATREVIDOS - 30X140 GRS.                              000000025200000000027720000006CXS  0000000001296000000000000000
5119177010307001 LOOK CHOCOLATE - 20 X 55 GRS                               000000033000000000047400000030CXS  0000000003246000000000000000
5119177010307002 LOOK MORANGO - 20 X 55 GRS                                 000000005500000000007900000005CXS  0000000000541000000000000000
5119177010307003 LOOK DOCE DE LEITE - 20 X 55 GRS                           000000005500000000007900000005CXS  0000000000541000000000000000
5119177010307005 LOOK FLORESTA NEGRA - 20 X 55 GRS                          000000005500000000007900000005CXS  0000000000541000000000000000
5119177010307007 LOOK ATREVIDOS - 20 X 55 GRS                               000000005500000000007900000005CXS  0000000000541000000000000000
11191780033592MERC.SANTOS LUZ LTDA ME                 RUA MAGALI WESSEL , 25                  ITAPEVI/JD.MARINA                       SP03210001006000794000170373.102.250.118     000VS MALVONI REPRESENT.S/(11) 69092040  
21191782202200522022005003359200031CAIXASMBF                                     .                                       .                                       E
5119178010305001 WAFER NAPOLITANO - 30X140 GRS                              000000021000000000023100000005CXS  0000000001205500000000000000
5119178010305002 WAFER FLORESTA NEGRA - 30X140 GRS                          000000021000000000023100000005CXS  0000000001205500000000000000
5119178010305003 WAFER OBSESSION - 30X140 GRS                               000000021000000000023100000005CXS  0000000001205500000000000000
5119178010306001 WAFER CHOCOLATE - 30X140 GRS.                              000000021000000000023150000005CXS  0000000001258500000000000000
5119178010306002 WAFER MORANGO - 30X140 GRS.                                000000012600000000013890000003CXS  0000000000755100000000000000
5119178010306004 WAFER DOCE LEITE - 30X140 GRS.                             000000012600000000013890000003CXS  0000000000755100000000000000
5119178010306005 WAFER ATREVIDOS - 30X140 GRS.                              000000021000000000023100000005CXS  0000000001205500000000000000
11191790091286SUPER.SYLLUS LTDA                       RUA NAGOIA, 238                         DIADEMA/JD.TAKEBE                       SP09940200050140276000143286.034.860.118     000VS MALVONI REPRESENT.S/(11) 69092040  
21191792202200522022005009128600035CAIXASMBF                                     .                                       .                                       E
5119179010305001 WAFER NAPOLITANO - 30X140 GRS                              000000021000000000023100000005CXS  0000000001133000000000000000
5119179010305002 WAFER FLORESTA NEGRA - 30X140 GRS                          000000021000000000023100000005CXS  0000000001133000000000000000
5119179010305003 WAFER OBSESSION - 30X140 GRS                               000000021000000000023100000005CXS  0000000001133000000000000000
5119179010306001 WAFER CHOCOLATE - 30X140 GRS.                              000000021000000000023150000005CXS  0000000001133000000000000000
5119179010306002 WAFER MORANGO - 30X140 GRS.                                000000021000000000023150000005CXS  0000000001133000000000000000
5119179010306004 WAFER DOCE LEITE - 30X140 GRS.                             000000021000000000023150000005CXS  0000000001133000000000000000
5119179010306005 WAFER ATREVIDOS - 30X140 GRS.                              000000021000000000023100000005CXS  0000000001133000000000000000
11191800091430SHIZNE HONDA SHIMIZUI FILHO LTDA        RUA DA FIGUEIRAS, 294                   DIADEMA/JD.ABC                          SP09940510055766893000172286.025.773.117     000VS MALVONI REPRESENT.S/(11) 69092040  
21191802202200522022005009143000027CAIXASMBF                                     .                                       .                                       E
5119180010305001 WAFER NAPOLITANO - 30X140 GRS                              000000021000000000023100000005CXS  0000000001133000000000000000
5119180010305002 WAFER FLORESTA NEGRA - 30X140 GRS                          000000021000000000023100000005CXS  0000000001133000000000000000
5119180010306001 WAFER CHOCOLATE - 30X140 GRS.                              000000021000000000023150000005CXS  0000000001133000000000000000
5119180010306002 WAFER MORANGO - 30X140 GRS.                                000000021000000000023150000005CXS  0000000001133000000000000000
5119180010307001 LOOK CHOCOLATE - 20 X 55 GRS                               000000002200000000003160000002CXS  0000000000259800000000000000
5119180010307002 LOOK MORANGO - 20 X 55 GRS                                 000000002200000000003160000002CXS  0000000000265200000000000000
5119180010307003 LOOK DOCE DE LEITE - 20 X 55 GRS                           000000001100000000001580000001CXS  0000000000129900000000000000
5119180010307005 LOOK FLORESTA NEGRA - 20 X 55 GRS                          000000002200000000003160000002CXS  0000000000259800000000000000
11191810031511SUPER.CORSARIO MERCADO LTDA             AV.GREGORIO BEZERRA 446                 SAO PAULO/JD. IV CENTENARIO             SP04812200005220802000120116.525.679.119     000VS MALVONI REPRESENT.S/(11) 69092040  
21191812202200522022005003151100014CAIXASMBF                                     .                                       .                                       E
5119181010305001 WAFER NAPOLITANO - 30X140 GRS                              000000008400000000009240000002CXS  0000000000453200000000000000
5119181010305002 WAFER FLORESTA NEGRA - 30X140 GRS                          000000008400000000009240000002CXS  0000000000453200000000000000
5119181010305003 WAFER OBSESSION - 30X140 GRS                               000000008400000000009240000002CXS  0000000000453200000000000000
5119181010306001 WAFER CHOCOLATE - 30X140 GRS.                              000000008400000000009260000002CXS  0000000000453200000000000000
5119181010306002 WAFER MORANGO - 30X140 GRS.                                000000008400000000009260000002CXS  0000000000453200000000000000
5119181010306004 WAFER DOCE LEITE - 30X140 GRS.                             000000008400000000009260000002CXS  0000000000453200000000000000
5119181010306005 WAFER ATREVIDOS - 30X140 GRS.                              000000008400000000009240000002CXS  0000000000453200000000000000
11191820034479MINIMERCADO MONTE ALVERNE LTDA          R.FREI MONTE ALBERNE, 410/420           SAO PAULO/VILA ARINANDUVA               SP03505010003408660000102115.107.855.112     000VS MALVONI REPRESENT.S/(11) 69092040  
21191822202200522022005003447900021CAIXASMBF                                     .                                       .                                       E
5119182010305001 WAFER NAPOLITANO - 30X140 GRS                              000000008400000000009240000002CXS  0000000000453200000000000000
5119182010305002 WAFER FLORESTA NEGRA - 30X140 GRS                          000000008400000000009240000002CXS  0000000000453200000000000000
5119182010305003 WAFER OBSESSION - 30X140 GRS                               000000008400000000009240000002CXS  0000000000453200000000000000
5119182010306001 WAFER CHOCOLATE - 30X140 GRS.                              000000021000000000023150000005CXS  0000000001133000000000000000
5119182010306002 WAFER MORANGO - 30X140 GRS.                                000000012600000000013890000003CXS  0000000000679800000000000000
5119182010306004 WAFER DOCE LEITE - 30X140 GRS.                             000000008400000000009260000002CXS  0000000000453200000000000000
5119182010306005 WAFER ATREVIDOS - 30X140 GRS.                              000000012600000000013860000003CXS  0000000000755400000000000000
5119182010307001 LOOK CHOCOLATE - 20 X 55 GRS                               000000001100000000001580000001CXS  0000000000129900000000000000
5119182010307002 LOOK MORANGO - 20 X 55 GRS                                 000000001100000000001580000001CXS  0000000000129900000000000000
11191830034473MINIMERCADO MASUOKA LTDA-ME             AV.MIRO ATILIO PEDUZZI, 412             RIBEIRAO PIRES/QUARTA DIVISAO           SP09436400001830780000160581.047.275.117     000VS MALVONI REPRESENT.S/(11) 69092040  
21191832202200522022005003447300014CAIXASMBF                                     .                                       .                                       E
5119183010305001 WAFER NAPOLITANO - 30X140 GRS                              000000008400000000009240000002CXS  0000000000453200000000000000
5119183010305002 WAFER FLORESTA NEGRA - 30X140 GRS                          000000008400000000009240000002CXS  0000000000453200000000000000
5119183010305003 WAFER OBSESSION - 30X140 GRS                               000000008400000000009240000002CXS  0000000000453200000000000000
5119183010306001 WAFER CHOCOLATE - 30X140 GRS.                              000000008400000000009260000002CXS  0000000000453200000000000000
5119183010306002 WAFER MORANGO - 30X140 GRS.                                000000008400000000009260000002CXS  0000000000453200000000000000
5119183010306004 WAFER DOCE LEITE - 30X140 GRS.                             000000008400000000009260000002CXS  0000000000453200000000000000
5119183010306005 WAFER ATREVIDOS - 30X140 GRS.                              000000008400000000009240000002CXS  0000000000453200000000000000
11191840033410MERCEARIA CLAUDIO E ADRIANA LTDA        AV.VILA EMA, 2591                       SAO PAULO/V.EMA                         SP03281000005090282000189116.394.468.118     000VS MALVONI REPRESENT.S/(11) 69092040  
21191842202200522022005003341000019CAIXASMBF                                     .                                       .                                       E
5119184010305001 WAFER NAPOLITANO - 30X140 GRS                              000000008400000000009240000002CXS  0000000000453200000000000000
5119184010305002 WAFER FLORESTA NEGRA - 30X140 GRS                          000000008400000000009240000002CXS  0000000000453200000000000000
5119184010305003 WAFER OBSESSION - 30X140 GRS                               000000008400000000009240000002CXS  0000000000453200000000000000
5119184010306001 WAFER CHOCOLATE - 30X140 GRS.                              000000008400000000009260000002CXS  0000000000453200000000000000
5119184010306002 WAFER MORANGO - 30X140 GRS.                                000000008400000000009260000002CXS  0000000000453200000000000000
5119184010306004 WAFER DOCE LEITE - 30X140 GRS.                             000000008400000000009260000002CXS  0000000000453200000000000000
5119184010306005 WAFER ATREVIDOS - 30X140 GRS.                              000000008400000000009240000002CXS  0000000000453200000000000000
5119184010307001 LOOK CHOCOLATE - 20 X 55 GRS                               000000001100000000001580000001CXS  0000000000129900000000000000
5119184010307002 LOOK MORANGO - 20 X 55 GRS                                 000000001100000000001580000001CXS  0000000000129900000000000000
5119184010307003 LOOK DOCE DE LEITE - 20 X 55 GRS                           000000001100000000001580000001CXS  0000000000129900000000000000
5119184010307005 LOOK FLORESTA NEGRA - 20 X 55 GRS                          000000001100000000001580000001CXS  0000000000129900000000000000
5119184010307007 LOOK ATREVIDOS - 20 X 55 GRS                               000000001100000000001580000001CXS  0000000000129900000000000000
11191850034479MINIMERCADO MONTE ALVERNE LTDA          R.FREI MONTE ALBERNE, 410/420           SAO PAULO/VILA ARINANDUVA               SP03505010003408660000102115.107.855.112     000VS MALVONI REPRESENT.S/(11) 69092040  
21191852202200522022005003447900021CAIXASMBF                                     .                                       .                                       E
5119185010305001 WAFER NAPOLITANO - 30X140 GRS                              000000008400000000009240000002CXS  0000000000453200000000000000
5119185010305002 WAFER FLORESTA NEGRA - 30X140 GRS                          000000008400000000009240000002CXS  0000000000453200000000000000
5119185010305003 WAFER OBSESSION - 30X140 GRS                               000000008400000000009240000002CXS  0000000000453200000000000000
5119185010306001 WAFER CHOCOLATE - 30X140 GRS.                              000000021000000000023150000005CXS  0000000001133000000000000000
5119185010306002 WAFER MORANGO - 30X140 GRS.                                000000012600000000013890000003CXS  0000000000679800000000000000
5119185010306004 WAFER DOCE LEITE - 30X140 GRS.                             000000008400000000009260000002CXS  0000000000453200000000000000
5119185010306005 WAFER ATREVIDOS - 30X140 GRS.                              000000012600000000013860000003CXS  0000000000679800000000000000
5119185010307001 LOOK CHOCOLATE - 20 X 55 GRS                               000000001100000000001580000001CXS  0000000000129900000000000000
5119185010307002 LOOK MORANGO - 20 X 55 GRS                                 000000001100000000001580000001CXS  0000000000129900000000000000
11191860034483MERCADO HOSHI LTDA                      RUA PROFESSOR ROLDAO, 437               SAO PAULO/JARDIM MALIA                  SP04823010005825547000140116.651.967.118     000VS MALVONI REPRESENT.S/(11) 69092040  
21191862202200522022005003448300007CAIXASMBF                                     .                                       .                                       E
5119186010305001 WAFER NAPOLITANO - 30X140 GRS                              000000004200000000004620000001CXS  0000000000226600000000000000
5119186010305002 WAFER FLORESTA NEGRA - 30X140 GRS                          000000004200000000004620000001CXS  0000000000226600000000000000
5119186010305003 WAFER OBSESSION - 30X140 GRS                               000000004200000000004620000001CXS  0000000000226600000000000000
5119186010306001 WAFER CHOCOLATE - 30X140 GRS.                              000000004200000000004630000001CXS  0000000000226600000000000000
5119186010306002 WAFER MORANGO - 30X140 GRS.                                000000004200000000004630000001CXS  0000000000226600000000000000
5119186010306004 WAFER DOCE LEITE - 30X140 GRS.                             000000004200000000004630000001CXS  0000000000226600000000000000
5119186010306005 WAFER ATREVIDOS - 30X140 GRS.                              000000004200000000004620000001CXS  0000000000226600000000000000
11191870033407N.N.CAZUZA MERCADO LTDA-EPP             R.ITAJUIBE, 1030                        SAO PAULO/JD.NELIA                      SP08142000004706879000142116.238.660.113     000VS MALVONI REPRESENT.S/(11) 69092040  
21191872202200522022005003340700081CAIXASMBF                                     .                                       .                                       E
5119187010305001 WAFER NAPOLITANO - 30X140 GRS                              000000021000000000023100000005CXS  0000000001133000000000000000
5119187010305002 WAFER FLORESTA NEGRA - 30X140 GRS                          000000021000000000023100000005CXS  0000000001133000000000000000
5119187010305003 WAFER OBSESSION - 30X140 GRS                               000000021000000000023100000005CXS  0000000001133000000000000000
5119187010306001 WAFER CHOCOLATE - 30X140 GRS.                              000000021000000000023150000005CXS  0000000001133000000000000000
5119187010306002 WAFER MORANGO - 30X140 GRS.                                000000016800000000018520000004CXS  0000000000906400000000000000
5119187010306004 WAFER DOCE LEITE - 30X140 GRS.                             000000004200000000004630000001CXS  0000000000226600000000000000
5119187010306005 WAFER ATREVIDOS - 30X140 GRS.                              000000016800000000018480000004CXS  0000000000906400000000000000
5119187010307001 LOOK CHOCOLATE - 20 X 55 GRS                               000000001100000000001580000001CXS  0000000000136700000000000000
5119187010307002 LOOK MORANGO - 20 X 55 GRS                                 000000001100000000001580000001CXS  0000000000136700000000000000
5119187010307003 LOOK DOCE DE LEITE - 20 X 55 GRS                           000000001100000000001580000001CXS  0000000000136700000000000000
5119187010307005 LOOK FLORESTA NEGRA - 20 X 55 GRS                          000000001100000000001580000001CXS  0000000000136700000000000000
5119187010307007 LOOK ATREVIDOS - 20 X 55 GRS                               000000001100000000001580000001CXS  0000000000136700000000000000
5119187013014005 RECH.FIORETTO CHOCOLATE-30X115 GRS                         000000069000000000075400000020CXS  0000000002266000000000000000
5119187013014006 RECH.FIORETTO MORANGO-30X115 GRS                           000000051750000000056550000015CXS  0000000001699500000000000000
5119187013014007 RECH.FIORETTO BAUN.C/FLOCOS-30X115                         000000034500000000037700000010CXS  0000000001133000000000000000
5119187013022001 RECHEADO ATREVIDOS - 30X115 GRS                            000000006900000000007400000002CXS  0000000000312600000000000000
11191880032008MERC.BOM LUGAR LTDA                     R RUBENS FRAGA DE T.ARRUDA 52           SAO PAULO/CANGAIBA                      SP03726000001145627000101114.666.985.110     000VS MALVONI REPRESENT.S/(11) 69092040  
21191882202200522022005003200800010CAIXASMBF                                     .                                       .                                       E
5119188010305001 WAFER NAPOLITANO - 30X140 GRS                              000000021000000000023100000005CXS  0000000001133000000000000000
5119188010305002 WAFER FLORESTA NEGRA - 30X140 GRS                          000000012600000000013860000003CXS  0000000000679800000000000000
5119188010305003 WAFER OBSESSION - 30X140 GRS                               000000008400000000009240000002CXS  0000000000453200000000000000
11191890092687SUPER.SILVEIRA LTDA                     ESTR.DA COLONIA, 12                     SAO PAULO/JD SILVEIRA                   SP04892000038762852000199112.852.132.119     000VS MALVONI REPRESENT.S/(11) 69092040  
21191892202200522022005009268700010CAIXASMBF                                     .                                       .                                       E
5119189010305001 WAFER NAPOLITANO - 30X140 GRS                              000000004200000000004620000001CXS  0000000000226600000000000000
5119189010305002 WAFER FLORESTA NEGRA - 30X140 GRS                          000000004200000000004620000001CXS  0000000000226600000000000000
5119189010305003 WAFER OBSESSION - 30X140 GRS                               000000004200000000004620000001CXS  0000000000226600000000000000
5119189010306001 WAFER CHOCOLATE - 30X140 GRS.                              000000008400000000009260000002CXS  0000000000453200000000000000
5119189010306002 WAFER MORANGO - 30X140 GRS.                                000000008400000000009260000002CXS  0000000000453200000000000000
5119189010306004 WAFER DOCE LEITE - 30X140 GRS.                             000000008400000000009260000002CXS  0000000000453200000000000000
5119189010306005 WAFER ATREVIDOS - 30X140 GRS.                              000000004200000000004620000001CXS  0000000000226600000000000000
11191900273852ILZA HELENA BARZON MERC-ME              AL.SAO CAETANO, 2.268                   SAO CAETANO DO SUL/VL.STA.MARIA         SP09560500003232777000170636.164.036.114     000VS MALVONI REPRESENT.S/(11) 69092040  
21191902202200522022005027385200003CAIXASMBF                                     .                                       .                                       E
5119190010307001 LOOK CHOCOLATE - 20 X 55 GRS                               000000002200000000003160000002CXS  0000000000249400000000000000
5119190010307005 LOOK FLORESTA NEGRA - 20 X 55 GRS                          000000001100000000001580000001CXS  0000000000124700000000000000
11191910091482RUBENS DE OLIVEIRA COSTA-ME             EST.MARIA IMACULADA, 417                EMBU/JD.SANTA CLARA                     SP06843010057073439000161298.024.740.116     000VS MALVONI REPRESENT.S/(11) 69092040  
21191912202200522022005009148200021CAIXASMBF                                     .                                       .                                       E
5119191010305002 WAFER FLORESTA NEGRA - 30X140 GRS                          000000004200000000004620000001CXS  0000000000265000000000000000
5119191010306001 WAFER CHOCOLATE - 30X140 GRS.                              000000004200000000004630000001CXS  0000000000265000000000000000
5119191010306002 WAFER MORANGO - 30X140 GRS.                                000000004200000000004630000001CXS  0000000000265000000000000000
5119191010306005 WAFER ATREVIDOS - 30X140 GRS.                              000000004200000000004620000001CXS  0000000000265000000000000000
5119191013007001 RECH.SPANTOOO CHOCOLATE - 30X140GR                         000000004200000000004550000001CXS  0000000000175600000000000000
5119191013007002 RECH.SPANTOOO MORANGO - 30X140 GRS                         000000004200000000004550000001CXS  0000000000175600000000000000
5119191013007003 RECH.SPANTOOO CHOC.BRANCO-30X140GR                         000000004200000000004550000001CXS  0000000000175600000000000000
5119191013007004 RECH.SPANTOOO TUTTI-FRUTTI-30X140G                         000000004200000000004600000001CXS  0000000000175600000000000000
5119191013014005 RECH.FIORETTO CHOCOLATE-30X115 GRS                         000000010350000000011310000003CXS  0000000000339900000000000000
5119191013014006 RECH.FIORETTO MORANGO-30X115 GRS                           000000010350000000011310000003CXS  0000000000339900000000000000
5119191013014007 RECH.FIORETTO BAUN.C/FLOCOS-30X115                         000000010350000000011310000003CXS  0000000000339900000000000000
5119191013014008 RECH.FIORETTO DOCE DE LEITE-30X115                         000000010350000000011310000003CXS  0000000000339900000000000000
5119191013022001 RECHEADO ATREVIDOS - 30X115 GRS                            000000003450000000003700000001CXS  0000000000161100000000000000
11191920032664MOTA RODRIGUES SUPER.LTDA               AV. JULIO BUONO, 1300                   SAO PAULO/VL.GUSTAVO                    SP02201000004161217000134116.028.062.114     000VS MALVONI REPRESENT.S/(11) 69092040  
21191922202200522022005003266400020CAIXASMBF                                     .                                       .                                       E
5119192010306005 WAFER ATREVIDOS - 30X140 GRS.                              000000004200000000004620000001CXS  0000000000258000000000000000
5119192010307001 LOOK CHOCOLATE - 20 X 55 GRS                               000000003300000000004740000003CXS  0000000000450000000000000000
5119192010307002 LOOK MORANGO - 20 X 55 GRS                                 000000001100000000001580000001CXS  0000000000150000000000000000
5119192010307003 LOOK DOCE DE LEITE - 20 X 55 GRS                           000000002200000000003160000002CXS  0000000000300000000000000000
5119192010307005 LOOK FLORESTA NEGRA - 20 X 55 GRS                          000000002200000000003160000002CXS  0000000000300000000000000000
5119192010307007 LOOK ATREVIDOS - 20 X 55 GRS                               000000002200000000003160000002CXS  0000000000300000000000000000
5119192013007001 RECH.SPANTOOO CHOCOLATE - 30X140GR                         000000021000000000022750000005CXS  0000000000900000000000000000
5119192013007002 RECH.SPANTOOO MORANGO - 30X140 GRS                         000000004200000000004550000001CXS  0000000000180000000000000000
5119192013007003 RECH.SPANTOOO CHOC.BRANCO-30X140GR                         000000008400000000009100000002CXS  0000000000360000000000000000
5119192013007004 RECH.SPANTOOO TUTTI-FRUTTI-30X140G                         000000004200000000004600000001CXS  0000000000180000000000000000
11191930090399MOTA SUPER.LTDA                         RUA ANTENOR NAVARRO, 299-A              SAO PAULO/JD.BRASIL                     SP02224000057669418000103108.420.472.119     000VS MALVONI REPRESENT.S/(11) 69092040  
21191932202200522022005009039900010CAIXASMBF                                     .                                       .                                       E
5119193010307001 LOOK CHOCOLATE - 20 X 55 GRS                               000000001100000000001580000001CXS  0000000000150000000000000000
5119193010307003 LOOK DOCE DE LEITE - 20 X 55 GRS                           000000001100000000001580000001CXS  0000000000150000000000000000
5119193013007001 RECH.SPANTOOO CHOCOLATE - 30X140GR                         000000008400000000009100000002CXS  0000000000360000000000000000
5119193013007002 RECH.SPANTOOO MORANGO - 30X140 GRS                         000000008400000000009100000002CXS  0000000000360000000000000000
5119193013007003 RECH.SPANTOOO CHOC.BRANCO-30X140GR                         000000008400000000009100000002CXS  0000000000360000000000000000
5119193013007004 RECH.SPANTOOO TUTTI-FRUTTI-30X140G                         000000004200000000004600000001CXS  0000000000180000000000000000
5119193013022001 RECHEADO ATREVIDOS - 30X115 GRS                            000000003450000000003700000001CXS  0000000000160000000000000000
11191940031654MINIMERCADO KILOKALIENTE LTDA           AV. ARMANDO BEI 1575                    GUARULHOS/GUARULHOS                     SP07175500064021371000132336.308.434.119     000VS MALVONI REPRESENT.S/(11) 69092040  
21191942202200522022005003165400017CAIXASMBF                                     .                                       .                                       E
5119194010305001 WAFER NAPOLITANO - 30X140 GRS                              000000008400000000009240000002CXS  0000000000503400000000000000
5119194010305002 WAFER FLORESTA NEGRA - 30X140 GRS                          000000008400000000009240000002CXS  0000000000503400000000000000
5119194010305003 WAFER OBSESSION - 30X140 GRS                               000000008400000000009240000002CXS  0000000000503400000000000000
5119194010306001 WAFER CHOCOLATE - 30X140 GRS.                              000000008400000000009260000002CXS  0000000000466400000000000000
5119194010306004 WAFER DOCE LEITE - 30X140 GRS.                             000000004200000000004630000001CXS  0000000000233200000000000000
5119194010306005 WAFER ATREVIDOS - 30X140 GRS.                              000000008400000000009240000002CXS  0000000000503400000000000000
5119194010307001 LOOK CHOCOLATE - 20 X 55 GRS                               000000001100000000001580000001CXS  0000000000136700000000000000
5119194010307005 LOOK FLORESTA NEGRA - 20 X 55 GRS                          000000001100000000001580000001CXS  0000000000136700000000000000
5119194010307007 LOOK ATREVIDOS - 20 X 55 GRS                               000000001100000000001580000001CXS  0000000000136700000000000000
5119194013007001 RECH.SPANTOOO CHOCOLATE - 30X140GR                         000000008400000000009100000002CXS  0000000000351200000000000000
5119194013007002 RECH.SPANTOOO MORANGO - 30X140 GRS                         000000004200000000004550000001CXS  0000000000175600000000000000
11191950092362MANUEL CARLOS JORGE PONTES-EPP          RUA FLOR DA SERRA, 78                   GUARULHOS/VILA CARMELA                  SP07178360003826944000100336.645.040.111     000VS MALVONI REPRESENT.S/(11) 69092040  
21191952202200522022005009236200021CAIXASMBF                                     .                                       .                                       E
5119195010305001 WAFER NAPOLITANO - 30X140 GRS                              000000008400000000009240000002CXS  0000000000452600000000000000
5119195010305002 WAFER FLORESTA NEGRA - 30X140 GRS                          000000008400000000009240000002CXS  0000000000452600000000000000
5119195010305003 WAFER OBSESSION - 30X140 GRS                               000000004200000000004620000001CXS  0000000000226300000000000000
5119195010306001 WAFER CHOCOLATE - 30X140 GRS.                              000000021000000000023150000005CXS  0000000001133000000000000000
5119195010306002 WAFER MORANGO - 30X140 GRS.                                000000008400000000009260000002CXS  0000000000453200000000000000
5119195010306004 WAFER DOCE LEITE - 30X140 GRS.                             000000008400000000009260000002CXS  0000000000453200000000000000
5119195010306005 WAFER ATREVIDOS - 30X140 GRS.                              000000004200000000004620000001CXS  0000000000226300000000000000
5119195013007001 RECH.SPANTOOO CHOCOLATE - 30X140GR                         000000008400000000009100000002CXS  0000000000351200000000000000
5119195013007002 RECH.SPANTOOO MORANGO - 30X140 GRS                         000000008400000000009100000002CXS  0000000000351200000000000000
5119195013007003 RECH.SPANTOOO CHOC.BRANCO-30X140GR                         000000004200000000004550000001CXS  0000000000175600000000000000
5119195013007004 RECH.SPANTOOO TUTTI-FRUTTI-30X140G                         000000004200000000004600000001CXS  0000000000175600000000000000
11191960034613C.J.SILVA MERC.ME                       RUA MARIA CAROLINA DE JESUS, 03         SAO PAULO/JD.IPE                        SP06900000065972622000127299.010.751.110     000VS MALVONI REPRESENT.S/(11) 69092040  
21191962202200522022005003461300018CAIXASMBF                                     .                                       .                                       E
5119196010307001 LOOK CHOCOLATE - 20 X 55 GRS                               000000003300000000004740000003CXS  0000000000414000000000000000
5119196010307002 LOOK MORANGO - 20 X 55 GRS                                 000000001100000000001580000001CXS  0000000000138000000000000000
5119196010307005 LOOK FLORESTA NEGRA - 20 X 55 GRS                          000000003300000000004740000003CXS  0000000000414000000000000000
5119196010307007 LOOK ATREVIDOS - 20 X 55 GRS                               000000003300000000004740000003CXS  0000000000414000000000000000
5119196013007001 RECH.SPANTOOO CHOCOLATE - 30X140GR                         000000012600000000013650000003CXS  0000000000531000000000000000
5119196013007002 RECH.SPANTOOO MORANGO - 30X140 GRS                         000000012600000000013650000003CXS  0000000000531000000000000000
5119196013007003 RECH.SPANTOOO CHOC.BRANCO-30X140GR                         000000004200000000004550000001CXS  0000000000177000000000000000
5119196013007004 RECH.SPANTOOO TUTTI-FRUTTI-30X140G                         000000004200000000004600000001CXS  0000000000177000000000000000
11191970033891EMPORIO,MERC.VERA CRUZ LTDA             AV.SARGENTO IRACITAM COIMBRA,105        SAO PAULO/ J V CRUZ                     SP08310580043795046000157109.071.764.117     000VS MALVONI REPRESENT.S/(11) 69092040  
21191972202200522022005003389100031CAIXASMBF                                     .                                       .                                       E
5119197010305001 WAFER NAPOLITANO - 30X140 GRS                              000000029400000000032340000007CXS  0000000001586200000000000000
5119197010305002 WAFER FLORESTA NEGRA - 30X140 GRS                          000000008400000000009240000002CXS  0000000000453200000000000000
5119197010305003 WAFER OBSESSION - 30X140 GRS                               000000008400000000009240000002CXS  0000000000453200000000000000
5119197010306001 WAFER CHOCOLATE - 30X140 GRS.                              000000012600000000013890000003CXS  0000000000679800000000000000
5119197010306002 WAFER MORANGO - 30X140 GRS.                                000000008400000000009260000002CXS  0000000000453200000000000000
5119197010306004 WAFER DOCE LEITE - 30X140 GRS.                             000000004200000000004630000001CXS  0000000000226600000000000000
5119197010306005 WAFER ATREVIDOS - 30X140 GRS.                              000000012600000000013860000003CXS  0000000000679800000000000000
5119197010307001 LOOK CHOCOLATE - 20 X 55 GRS                               000000004400000000006320000004CXS  0000000000495600000000000000
5119197010307002 LOOK MORANGO - 20 X 55 GRS                                 000000002200000000003160000002CXS  0000000000247800000000000000
5119197010307003 LOOK DOCE DE LEITE - 20 X 55 GRS                           000000001100000000001580000001CXS  0000000000123900000000000000
5119197010307005 LOOK FLORESTA NEGRA - 20 X 55 GRS                          000000002200000000003160000002CXS  0000000000247800000000000000
5119197010307007 LOOK ATREVIDOS - 20 X 55 GRS                               000000002200000000003160000002CXS  0000000000247800000000000000
11191980270219SUPER.COPA COM.PROD.ALIM.LTDA           RUA IBITINGA 601                        SAO PAULO/V. BERTIOGA                   SP03168020000320248000130114.298.080.115     000VS MALVONI REPRESENT.S/(11) 69092040  
21191982202200522022005027021900055CAIXASMBF                                     .                                       .                                       E
5119198010307001 LOOK CHOCOLATE - 20 X 55 GRS                               000000033000000000047400000030CXS  0000000003639000000000000000
5119198010307005 LOOK FLORESTA NEGRA - 20 X 55 GRS                          000000011000000000015800000010CXS  0000000001213000000000000000
5119198010307007 LOOK ATREVIDOS - 20 X 55 GRS                               000000016500000000023700000015CXS  0000000001819500000000000000
11191990279168ZANGAO DISTRIB.PROD.ALIM.LTDA           AV.BENEDITO ESTEVAM SANTOS,1.219        SAO PAULO/VL.MARIA ALTA                 SP02136000000657477000144114.398.874.117     000LEBASI REPRESENTACOES L(11) 38515947  
21191992202200522022005027916800000CAIXASMBF                                     .                                       .                                       E
5119199010308002 WAFER MORANGO DIET - 30X120 GRS                            000000018000000000020500000005CXS  0000000002366000000000000000
5119199013008001 RECH.CHOCOLATE DIET - 30X120 GRS                           000000018000000000019450000005CXS  0000000001642500000000000000
11192000031898NATURAMA PROD.NATURAIS LTDA-ME          RUA EDUARDO EDARGE BADARO, 720          CAMPINAS/JD EULINA                      SP13066390000588891000149244.540.410.110     000LEBASI REPRESENTACOES L(11) 38515947  
21192002202200522022005003189800000CAIXASMBF                                     .                                       .                                       E
5119200010308002 WAFER MORANGO DIET - 30X120 GRS                            000000003600000000004100000001CXS  0000000000473200000000000000
5119200013008001 RECH.CHOCOLATE DIET - 30X120 GRS                           000000025200000000027230000007CXS  0000000002299500000000000000
11192010010548A.M.CUNHA ALIMENTICIOS-ME               RUA SANTO AGOSTINHO, 90-C               CAIEIRAS/JD.SAO FRANCISCO               SP07700000004908692000121239.077.600.116     000LEBASI REPRESENTACOES L(11) 38515947  
21192012202200522022005001054800000CAIXASMBF                                     .                                       .                                       E
5119201010305001 WAFER NAPOLITANO - 30X140 GRS                              000000021000000000023100000005CXS  0000000001035000000000000000
5119201010305002 WAFER FLORESTA NEGRA - 30X140 GRS                          000000021000000000023100000005CXS  0000000001035000000000000000
5119201010305003 WAFER OBSESSION - 30X140 GRS                               000000021000000000023100000005CXS  0000000001035000000000000000
5119201010306001 WAFER CHOCOLATE - 30X140 GRS.                              000000021000000000023150000005CXS  0000000001035000000000000000
5119201010306002 WAFER MORANGO - 30X140 GRS.                                000000021000000000023150000005CXS  0000000001035000000000000000
5119201010306004 WAFER DOCE LEITE - 30X140 GRS.                             000000021000000000023150000005CXS  0000000001035000000000000000
5119201010306005 WAFER ATREVIDOS - 30X140 GRS.                              000000021000000000023100000005CXS  0000000001035000000000000000
5119201010307001 LOOK CHOCOLATE - 20 X 55 GRS                               000000011000000000015800000010CXS  0000000001100000000000000000
5119201010307002 LOOK MORANGO - 20 X 55 GRS                                 000000011000000000015800000010CXS  0000000001100000000000000000
5119201010307003 LOOK DOCE DE LEITE - 20 X 55 GRS                           000000011000000000015800000010CXS  0000000001100000000000000000
5119201010307005 LOOK FLORESTA NEGRA - 20 X 55 GRS                          000000011000000000015800000010CXS  0000000001100000000000000000
5119201010307007 LOOK ATREVIDOS - 20 X 55 GRS                               000000011000000000015800000010CXS  0000000001100000000000000000
5119201010308002 WAFER MORANGO DIET - 30X120 GRS                            000000018000000000020500000005CXS  0000000002366000000000000000
5119201013014005 RECH.FIORETTO CHOCOLATE-30X115 GRS                         000000020700000000022620000006CXS  0000000000594000000000000000
5119201013014006 RECH.FIORETTO MORANGO-30X115 GRS                           000000010350000000011310000003CXS  0000000000297000000000000000
5119201013014007 RECH.FIORETTO BAUN.C/FLOCOS-30X115                         000000010350000000011310000003CXS  0000000000297000000000000000
5119201013014008 RECH.FIORETTO DOCE DE LEITE-30X115                         000000010350000000011310000003CXS  0000000000297000000000000000
11192020001873DISTRIB.PROD.ALIMENT.LEUNAM LTDA        RUA ANTONIO LOPES MARIN, 109            SAO PAULO/CASA VERDE                    SP02516050053738753000165111.084.293.115     000JAIME FRANCISCO DAS DOR(11) 69014795  
21192022202200522022005000187300000CAIXASMBF                                     .                                       .                                       E
5119202010305001 WAFER NAPOLITANO - 30X140 GRS                              000000021000000000023100000005CXS  0000000001105000000000000000
5119202010305002 WAFER FLORESTA NEGRA - 30X140 GRS                          000000021000000000023100000005CXS  0000000001105000000000000000
5119202010305003 WAFER OBSESSION - 30X140 GRS                               000000021000000000023100000005CXS  0000000001105000000000000000
5119202010306005 WAFER ATREVIDOS - 30X140 GRS.                              000000021000000000023100000005CXS  0000000001105000000000000000
5119202010308002 WAFER MORANGO DIET - 30X120 GRS                            000000007200000000008200000002CXS  0000000000946400000000000000
5119202013008001 RECH.CHOCOLATE DIET - 30X120 GRS                           000000007200000000007780000002CXS  0000000000657000000000000000
11192030033778MOURAD & BACHIR COM.LTDA-EPP            R. MARECHAL DEODORO, 1640               SAO BERNARDO DO CAMPO/CENTRO            SP09710200003371102000101635.344.077.119     000REIMEX REPRESENTACOES L(11) 8327181   
21192032202200522022005003377800034CAIXASMBF                                     .                                       .                                       E
5119203010305001 WAFER NAPOLITANO - 30X140 GRS                              000000008400000000009240000002CXS  0000000000450800000000000000
5119203010305002 WAFER FLORESTA NEGRA - 30X140 GRS                          000000016800000000018480000004CXS  0000000000901600000000000000
5119203010305003 WAFER OBSESSION - 30X140 GRS                               000000016800000000018480000004CXS  0000000000901600000000000000
5119203010306005 WAFER ATREVIDOS - 30X140 GRS.                              000000008400000000009240000002CXS  0000000000450800000000000000
5119203010307001 LOOK CHOCOLATE - 20 X 55 GRS                               000000006600000000009480000006CXS  0000000000678000000000000000
5119203010307002 LOOK MORANGO - 20 X 55 GRS                                 000000002200000000003160000002CXS  0000000000226000000000000000
5119203010307003 LOOK DOCE DE LEITE - 20 X 55 GRS                           000000002200000000003160000002CXS  0000000000226000000000000000
5119203010307005 LOOK FLORESTA NEGRA - 20 X 55 GRS                          000000006600000000009480000006CXS  0000000000678000000000000000
5119203010307007 LOOK ATREVIDOS - 20 X 55 GRS                               000000006600000000009480000006CXS  0000000000678000000000000000
11192040031885A.B.LOPES ALIMENTOS-ME                  R. IBICARAI, 131                        SAO JOSE DOS CAMPOS/JD VALE DO SOL      SP12238140062492558000199645.439.284.118     000REPRES.COMERCIAIS FIALH               
21192042202200522022005003188500010CAIXASMBF                                     .                                       .                                       E
5119204013008001 RECH.CHOCOLATE DIET - 30X120 GRS                           000000036000000000038900000010CXS  0000000003234000000000000000
11192050033209IMBATIVEIS UTILIDADES LTDA              R. MARECHAL DEODORO, 388                SAO BERNARDO DO CAMPO/CENTRO            SP09710000006004882000140635.472.377.112     000REIMEX REPRESENTACOES L(11) 8327181   
21192052202200522022005003320900049CAIXASMBF                                     .                                       .                                       E
5119205010305001 WAFER NAPOLITANO - 30X140 GRS                              000000042000000000046200000010CXS  0000000002254000000000000000
5119205010305002 WAFER FLORESTA NEGRA - 30X140 GRS                          000000042000000000046200000010CXS  0000000002254000000000000000
5119205010305003 WAFER OBSESSION - 30X140 GRS                               000000021000000000023100000005CXS  0000000001127000000000000000
5119205010306001 WAFER CHOCOLATE - 30X140 GRS.                              000000021000000000023150000005CXS  0000000001127000000000000000
5119205010306002 WAFER MORANGO - 30X140 GRS.                                000000021000000000023150000005CXS  0000000001127000000000000000
5119205010306005 WAFER ATREVIDOS - 30X140 GRS.                              000000042000000000046200000010CXS  0000000002254000000000000000
5119205010307001 LOOK CHOCOLATE - 20 X 55 GRS                               000000002200000000003160000002CXS  0000000000226000000000000000
5119205010307005 LOOK FLORESTA NEGRA - 20 X 55 GRS                          000000001100000000001580000001CXS  0000000000113000000000000000
5119205010307007 LOOK ATREVIDOS - 20 X 55 GRS                               000000001100000000001580000001CXS  0000000000113000000000000000
11192060033019JOSE AMARIO MAIA UTILIDADES-ME          R. MARECHAL DEODORO, 511                SAO BERNARDO DO CAMPO/CENTRO            SP09710010004722539000105635.335.218.115     000REIMEX REPRESENTACOES L(11) 8327181   
21192062202200522022005003301900025CAIXASMBF                                     .                                       .                                       E
5119206010305001 WAFER NAPOLITANO - 30X140 GRS                              000000008400000000009240000002CXS  0000000000437600000000000000
5119206010305002 WAFER FLORESTA NEGRA - 30X140 GRS                          000000008400000000009240000002CXS  0000000000437600000000000000
5119206010305003 WAFER OBSESSION - 30X140 GRS                               000000008400000000009240000002CXS  0000000000437600000000000000
5119206010306001 WAFER CHOCOLATE - 30X140 GRS.                              000000008400000000009260000002CXS  0000000000437600000000000000
5119206010306004 WAFER DOCE LEITE - 30X140 GRS.                             000000008400000000009260000002CXS  0000000000437600000000000000
5119206010306005 WAFER ATREVIDOS - 30X140 GRS.                              000000008400000000009240000002CXS  0000000000437600000000000000
5119206010307001 LOOK CHOCOLATE - 20 X 55 GRS                               000000004400000000006320000004CXS  0000000000438800000000000000
5119206010307002 LOOK MORANGO - 20 X 55 GRS                                 000000001100000000001580000001CXS  0000000000109700000000000000
5119206010307003 LOOK DOCE DE LEITE - 20 X 55 GRS                           000000003300000000004740000003CXS  0000000000329100000000000000
5119206010307005 LOOK FLORESTA NEGRA - 20 X 55 GRS                          000000002200000000003160000002CXS  0000000000219400000000000000
5119206010307007 LOOK ATREVIDOS - 20 X 55 GRS                               000000003300000000004740000003CXS  0000000000329100000000000000
11192070032681MICHELE BARQ.DAMAS DIADEMA-ME           AV. BRASILIA, 155                       DIADEMA/JD. CAMPANARIO                  SP09931400003926178000156286.231.150.112     000REIMEX REPRESENTACOES L(11) 8327181   
21192072202200522022005003268100029CAIXASMBF                                     .                                       .                                       E
5119207010307001 LOOK CHOCOLATE - 20 X 55 GRS                               000000008800000000012640000008CXS  0000000000877600000000000000
5119207010307002 LOOK MORANGO - 20 X 55 GRS                                 000000005500000000007900000005CXS  0000000000548500000000000000
5119207010307005 LOOK FLORESTA NEGRA - 20 X 55 GRS                          000000004400000000006320000004CXS  0000000000438800000000000000
5119207010307007 LOOK ATREVIDOS - 20 X 55 GRS                               000000006600000000009480000006CXS  0000000000658200000000000000
5119207013008001 RECH.CHOCOLATE DIET - 30X120 GRS                           000000003600000000003890000001CXS  0000000000354000000000000000
5119207013022001 RECHEADO ATREVIDOS - 30X115 GRS                            000000017250000000018500000005CXS  0000000000547000000000000000
11192080000762CIAL DIPAPA LTDA                        RUA SILVA BUENO, 2.040                  SAO PAULO/IPIRANGA                      SP04208002068458017000120113.529.804.118     000REIMEX REPRESENTACOES L(11) 8327181   
21192082202200522022005000076200048CAIXASMBF                                     .                                       .                                       E
5119208010307001 LOOK CHOCOLATE - 20 X 55 GRS                               000000022000000000031600000020CXS  0000000002260000000000000000
5119208010307002 LOOK MORANGO - 20 X 55 GRS                                 000000005500000000007900000005CXS  0000000000565000000000000000
5119208010307003 LOOK DOCE DE LEITE - 20 X 55 GRS                           000000003300000000004740000003CXS  0000000000339000000000000000
5119208010307005 LOOK FLORESTA NEGRA - 20 X 55 GRS                          000000011000000000015800000010CXS  0000000001130000000000000000
5119208010307007 LOOK ATREVIDOS - 20 X 55 GRS                               000000011000000000015800000010CXS  0000000001130000000000000000
11192090032621MOMENTO NOVO CIAL LTDA                  R. GEORGE SCHMIDT, 287                  SAO PAULO/LAPA                          SP05074010005299882000151116.455.787.115     000REIMEX REPRESENTACOES L(11) 8327181   
21192092202200522022005003262100059CAIXASMBF                                     .                                       .                                       E
5119209010305001 WAFER NAPOLITANO - 30X140 GRS                              000000029400000000032340000007CXS  0000000001577800000000000000
5119209010305002 WAFER FLORESTA NEGRA - 30X140 GRS                          000000063000000000069300000015CXS  0000000003381000000000000000
5119209010305003 WAFER OBSESSION - 30X140 GRS                               000000029400000000032340000007CXS  0000000001577800000000000000
5119209010306001 WAFER CHOCOLATE - 30X140 GRS.                              000000033600000000037040000008CXS  0000000001803200000000000000
5119209010306002 WAFER MORANGO - 30X140 GRS.                                000000012600000000013890000003CXS  0000000000676200000000000000
5119209010306004 WAFER DOCE LEITE - 30X140 GRS.                             000000012600000000013890000003CXS  0000000000676200000000000000
5119209010306005 WAFER ATREVIDOS - 30X140 GRS.                              000000025200000000027720000006CXS  0000000001352400000000000000
5119209010307001 LOOK CHOCOLATE - 20 X 55 GRS                               000000005500000000007900000005CXS  0000000000594500000000000000
5119209010307002 LOOK MORANGO - 20 X 55 GRS                                 000000002200000000003160000002CXS  0000000000237800000000000000
5119209010307005 LOOK FLORESTA NEGRA - 20 X 55 GRS                          000000003300000000004740000003CXS  0000000000356700000000000000
11192100032779NAGANO & NAGANO LTDA-EPP                RUA. ITU, 53                            SAO CAETANO DO SUL/NOVA GERTY           SP09580200003476526000130636.165.965.110     000REIMEX REPRESENTACOES L(11) 8327181   
21192102202200522022005003277900037CAIXASMBF                                     .                                       .                                       E
5119210010305001 WAFER NAPOLITANO - 30X140 GRS                              000000016800000000018480000004CXS  0000000000901600000000000000
5119210010305002 WAFER FLORESTA NEGRA - 30X140 GRS                          000000016800000000018480000004CXS  0000000000901600000000000000
5119210010305003 WAFER OBSESSION - 30X140 GRS                               000000012600000000013860000003CXS  0000000000676200000000000000
5119210010306001 WAFER CHOCOLATE - 30X140 GRS.                              000000012600000000013890000003CXS  0000000000676200000000000000
5119210010306002 WAFER MORANGO - 30X140 GRS.                                000000004200000000004630000001CXS  0000000000225400000000000000
5119210010306004 WAFER DOCE LEITE - 30X140 GRS.                             000000004200000000004630000001CXS  0000000000225400000000000000
5119210010306005 WAFER ATREVIDOS - 30X140 GRS.                              000000012600000000013860000003CXS  0000000000676200000000000000
5119210010307001 LOOK CHOCOLATE - 20 X 55 GRS                               000000003300000000004740000003CXS  0000000000339000000000000000
5119210010307005 LOOK FLORESTA NEGRA - 20 X 55 GRS                          000000003300000000004740000003CXS  0000000000339000000000000000
5119210010307007 LOOK ATREVIDOS - 20 X 55 GRS                               000000003300000000004740000003CXS  0000000000339000000000000000
5119210013601002 BISCOITO MILANO COCO - 30X130 GRS                          000000011700000000012540000003CXS  0000000000368700000000000000
5119210013601003 BISCOITO MILANO LEITE - 30X130 GRS                         000000011700000000012540000003CXS  0000000000368700000000000000
5119210013601004 BISC.MILANO BOLO DE FUBA-30X130 GR                         000000011700000000012540000003CXS  0000000000368700000000000000
11192110033601CLEUZA IUKO NAGANO-ME                   AV. DA LIBERDADE, 76                    SAO PAULO/CENTRO                        SP01502000004778558000153116.282.075.111     000REIMEX REPRESENTACOES L(11) 8327181   
21192112202200522022005003360100053CAIXASMBF                                     .                                       .                                       E
5119211010305001 WAFER NAPOLITANO - 30X140 GRS                              000000021000000000023100000005CXS  0000000001127000000000000000
5119211010305002 WAFER FLORESTA NEGRA - 30X140 GRS                          000000021000000000023100000005CXS  0000000001127000000000000000
5119211010305003 WAFER OBSESSION - 30X140 GRS                               000000021000000000023100000005CXS  0000000001127000000000000000
5119211010306001 WAFER CHOCOLATE - 30X140 GRS.                              000000021000000000023150000005CXS  0000000001127000000000000000
5119211010306002 WAFER MORANGO - 30X140 GRS.                                000000012600000000013890000003CXS  0000000000676200000000000000
5119211010306004 WAFER DOCE LEITE - 30X140 GRS.                             000000012600000000013890000003CXS  0000000000676200000000000000
5119211010306005 WAFER ATREVIDOS - 30X140 GRS.                              000000012600000000013860000003CXS  0000000000676200000000000000
5119211010307001 LOOK CHOCOLATE - 20 X 55 GRS                               000000003300000000004740000003CXS  0000000000339000000000000000
5119211010307003 LOOK DOCE DE LEITE - 20 X 55 GRS                           000000003300000000004740000003CXS  0000000000339000000000000000
5119211010307005 LOOK FLORESTA NEGRA - 20 X 55 GRS                          000000003300000000004740000003CXS  0000000000339000000000000000
5119211010307007 LOOK ATREVIDOS - 20 X 55 GRS                               000000003300000000004740000003CXS  0000000000339000000000000000
5119211013601002 BISCOITO MILANO COCO - 30X130 GRS                          000000015600000000016720000004CXS  0000000000491600000000000000
5119211013601003 BISCOITO MILANO LEITE - 30X130 GRS                         000000015600000000016720000004CXS  0000000000491600000000000000
5119211013601004 BISC.MILANO BOLO DE FUBA-30X130 GR                         000000015600000000016720000004CXS  0000000000491600000000000000
11192120090424MARCOS KATSUMI AMINO-ME                 AV. BRIG. LUIZ ANTONIO, 2195            SAO PAULO/BELA VISTA                    SP01317002068947332000111113545800112        000REIMEX REPRESENTACOES L(11) 8327181   
21192122202200522022005009042400047CAIXASMBF                                     .                                       .                                       E
5119212010307001 LOOK CHOCOLATE - 20 X 55 GRS                               000000025300000000036340000023CXS  0000000002523100000000000000
5119212010307003 LOOK DOCE DE LEITE - 20 X 55 GRS                           000000003300000000004740000003CXS  0000000000329100000000000000
5119212010307005 LOOK FLORESTA NEGRA - 20 X 55 GRS                          000000011000000000015800000010CXS  0000000001097000000000000000
5119212010307007 LOOK ATREVIDOS - 20 X 55 GRS                               000000005500000000007900000005CXS  0000000000548500000000000000
5119212013008001 RECH.CHOCOLATE DIET - 30X120 GRS                           000000021600000000023340000006CXS  0000000001914000000000000000
11192130034285TAKEKO NAGO HANASHIRO-ME                R. MARECHAL DEODORO, 903                SAO BERNARDO DO CAMPO/CENTRO            SP09710011003915364000190635.443.377.117     000REIMEX REPRESENTACOES L(11) 8327181   
21192132202200522022005003428500050CAIXASMBF                                     .                                       .                                       E
5119213010305001 WAFER NAPOLITANO - 30X140 GRS                              000000042000000000046200000010CXS  0000000002254000000000000000
5119213010305002 WAFER FLORESTA NEGRA - 30X140 GRS                          000000042000000000046200000010CXS  0000000002254000000000000000
5119213010305003 WAFER OBSESSION - 30X140 GRS                               000000042000000000046200000010CXS  0000000002254000000000000000
5119213010306001 WAFER CHOCOLATE - 30X140 GRS.                              000000025200000000027780000006CXS  0000000001352400000000000000
5119213010306002 WAFER MORANGO - 30X140 GRS.                                000000008400000000009260000002CXS  0000000000450800000000000000
5119213010306004 WAFER DOCE LEITE - 30X140 GRS.                             000000008400000000009260000002CXS  0000000000450800000000000000
5119213010306005 WAFER ATREVIDOS - 30X140 GRS.                              000000042000000000046200000010CXS  0000000002254000000000000000
